{
  "_format": "hh-sol-artifact-1",
  "contractName": "PresidentialElection",
  "sourceName": "contracts/PresidentialElection.sol",
  "abi": [
    {
      "anonymous": false,
      "inputs": [
        {
          "indexed": true,
          "internalType": "address",
          "name": "admin",
          "type": "address"
        }
      ],
      "name": "AdminAdded",
      "type": "event"
    },
    {
      "anonymous": false,
      "inputs": [
        {
          "indexed": true,
          "internalType": "address",
          "name": "admin",
          "type": "address"
        }
      ],
      "name": "AdminRemoved",
      "type": "event"
    },
    {
      "anonymous": false,
      "inputs": [
        {
          "indexed": true,
          "internalType": "uint256",
          "name": "candidateId",
          "type": "uint256"
        },
        {
          "indexed": false,
          "internalType": "string",
          "name": "firstName",
          "type": "string"
        },
        {
          "indexed": false,
          "internalType": "string",
          "name": "lastName",
          "type": "string"
        },
        {
          "indexed": false,
          "internalType": "string",
          "name": "politicalParty",
          "type": "string"
        }
      ],
      "name": "CandidateAdded",
      "type": "event"
    },
    {
      "anonymous": false,
      "inputs": [
        {
          "indexed": true,
          "internalType": "uint256",
          "name": "electionId",
          "type": "uint256"
        },
        {
          "indexed": false,
          "internalType": "uint256",
          "name": "electionStartDate",
          "type": "uint256"
        },
        {
          "indexed": false,
          "internalType": "uint256",
          "name": "firstRoundStartDate",
          "type": "uint256"
        },
        {
          "indexed": false,
          "internalType": "uint256",
          "name": "roundDuration",
          "type": "uint256"
        },
        {
          "indexed": false,
          "internalType": "uint256[]",
          "name": "candidateIds",
          "type": "uint256[]"
        }
      ],
      "name": "ElectionCreated",
      "type": "event"
    },
    {
      "anonymous": false,
      "inputs": [
        {
          "indexed": true,
          "internalType": "address",
          "name": "previousHolder",
          "type": "address"
        },
        {
          "indexed": true,
          "internalType": "address",
          "name": "newHolder",
          "type": "address"
        }
      ],
      "name": "OwnershipTransferred",
      "type": "event"
    },
    {
      "anonymous": false,
      "inputs": [
        {
          "indexed": true,
          "internalType": "uint256",
          "name": "electionId",
          "type": "uint256"
        },
        {
          "indexed": false,
          "internalType": "uint8",
          "name": "round",
          "type": "uint8"
        },
        {
          "indexed": false,
          "internalType": "bool",
          "name": "finished",
          "type": "bool"
        },
        {
          "indexed": false,
          "internalType": "uint256",
          "name": "winnerCandidateId",
          "type": "uint256"
        }
      ],
      "name": "RoundFinalized",
      "type": "event"
    },
    {
      "anonymous": false,
      "inputs": [
        {
          "indexed": true,
          "internalType": "uint256",
          "name": "electionId",
          "type": "uint256"
        },
        {
          "indexed": false,
          "internalType": "uint8",
          "name": "round",
          "type": "uint8"
        },
        {
          "indexed": true,
          "internalType": "uint256",
          "name": "candidateId",
          "type": "uint256"
        },
        {
          "indexed": false,
          "internalType": "address",
          "name": "voter",
          "type": "address"
        },
        {
          "indexed": false,
          "internalType": "uint256",
          "name": "timestamp",
          "type": "uint256"
        }
      ],
      "name": "VoteCast",
      "type": "event"
    },
    {
      "anonymous": false,
      "inputs": [
        {
          "indexed": true,
          "internalType": "address",
          "name": "voter",
          "type": "address"
        },
        {
          "indexed": false,
          "internalType": "uint256",
          "name": "registrationTime",
          "type": "uint256"
        }
      ],
      "name": "VoterAdded",
      "type": "event"
    },
    {
      "anonymous": false,
      "inputs": [
        {
          "indexed": true,
          "internalType": "address",
          "name": "voter",
          "type": "address"
        }
      ],
      "name": "VoterRemoved",
      "type": "event"
    },
    {
      "inputs": [
        {
          "internalType": "address",
          "name": "_admin",
          "type": "address"
        }
      ],
      "name": "addAdmin",
      "outputs": [],
      "stateMutability": "nonpayable",
      "type": "function"
    },
    {
      "inputs": [
        {
          "internalType": "string",
          "name": "_firstName",
          "type": "string"
        },
        {
          "internalType": "string",
          "name": "_lastName",
          "type": "string"
        },
        {
          "internalType": "string",
          "name": "_politicalParty",
          "type": "string"
        }
      ],
      "name": "addCandidate",
      "outputs": [],
      "stateMutability": "nonpayable",
      "type": "function"
    },
    {
      "inputs": [
        {
          "internalType": "address",
          "name": "_voter",
          "type": "address"
        }
      ],
      "name": "addVoter",
      "outputs": [],
      "stateMutability": "nonpayable",
      "type": "function"
    },
    {
      "inputs": [
        {
          "internalType": "address",
          "name": "",
          "type": "address"
        }
      ],
      "name": "admins",
      "outputs": [
        {
          "internalType": "bool",
          "name": "",
          "type": "bool"
        }
      ],
      "stateMutability": "view",
      "type": "function"
    },
    {
      "inputs": [
        {
          "internalType": "uint256",
          "name": "candidateId",
          "type": "uint256"
        }
      ],
      "name": "candidateExistsById",
      "outputs": [
        {
          "internalType": "bool",
          "name": "",
          "type": "bool"
        }
      ],
      "stateMutability": "view",
      "type": "function"
    },
    {
      "inputs": [
        {
          "internalType": "uint256",
          "name": "",
          "type": "uint256"
        },
        {
          "internalType": "uint256",
          "name": "",
          "type": "uint256"
        }
      ],
      "name": "candidateTotalVotes",
      "outputs": [
        {
          "internalType": "uint256",
          "name": "",
          "type": "uint256"
        }
      ],
      "stateMutability": "view",
      "type": "function"
    },
    {
      "inputs": [
        {
          "internalType": "uint256",
          "name": "",
          "type": "uint256"
        }
      ],
      "name": "candidates",
      "outputs": [
        {
          "internalType": "uint256",
          "name": "id",
          "type": "uint256"
        },
        {
          "internalType": "string",
          "name": "firstName",
          "type": "string"
        },
        {
          "internalType": "string",
          "name": "lastName",
          "type": "string"
        },
        {
          "internalType": "string",
          "name": "politicalParty",
          "type": "string"
        }
      ],
      "stateMutability": "view",
      "type": "function"
    },
    {
      "inputs": [],
      "name": "candidatesCount",
      "outputs": [
        {
          "internalType": "uint256",
          "name": "",
          "type": "uint256"
        }
      ],
      "stateMutability": "view",
      "type": "function"
    },
    {
      "inputs": [
        {
          "internalType": "uint256",
          "name": "electionId",
          "type": "uint256"
        },
        {
          "internalType": "uint256",
          "name": "candidateId",
          "type": "uint256"
        }
      ],
      "name": "castVote",
      "outputs": [],
      "stateMutability": "nonpayable",
      "type": "function"
    },
    {
      "inputs": [],
      "name": "contractHolder",
      "outputs": [
        {
          "internalType": "address",
          "name": "",
          "type": "address"
        }
      ],
      "stateMutability": "view",
      "type": "function"
    },
    {
      "inputs": [
        {
          "internalType": "uint256",
          "name": "_electionStartDate",
          "type": "uint256"
        },
        {
          "internalType": "uint256",
          "name": "_firstRoundStartDate",
          "type": "uint256"
        },
        {
          "internalType": "uint256[]",
          "name": "_candidateIds",
          "type": "uint256[]"
        }
      ],
      "name": "createElection",
      "outputs": [
        {
          "internalType": "uint256",
          "name": "",
          "type": "uint256"
        }
      ],
      "stateMutability": "nonpayable",
      "type": "function"
    },
    {
      "inputs": [
        {
          "internalType": "uint256",
          "name": "",
          "type": "uint256"
        },
        {
          "internalType": "uint8",
          "name": "",
          "type": "uint8"
        }
      ],
      "name": "electionRounds",
      "outputs": [
        {
          "internalType": "uint8",
          "name": "roundNumber",
          "type": "uint8"
        },
        {
          "internalType": "uint256",
          "name": "startDate",
          "type": "uint256"
        },
        {
          "internalType": "uint256",
          "name": "endDate",
          "type": "uint256"
        },
        {
          "internalType": "bool",
          "name": "finalized",
          "type": "bool"
        },
        {
          "internalType": "uint256",
          "name": "totalVotes",
          "type": "uint256"
        },
        {
          "internalType": "uint256",
          "name": "winnerCandidateId",
          "type": "uint256"
        }
      ],
      "stateMutability": "view",
      "type": "function"
    },
    {
      "inputs": [
        {
          "internalType": "uint256",
          "name": "",
          "type": "uint256"
        },
        {
          "internalType": "uint256",
          "name": "",
          "type": "uint256"
        }
      ],
      "name": "electionWinners",
      "outputs": [
        {
          "internalType": "uint256",
          "name": "",
          "type": "uint256"
        }
      ],
      "stateMutability": "view",
      "type": "function"
    },
    {
      "inputs": [
        {
          "internalType": "uint256",
          "name": "",
          "type": "uint256"
        }
      ],
      "name": "elections",
      "outputs": [
        {
          "internalType": "uint256",
          "name": "electionId",
          "type": "uint256"
        },
        {
          "internalType": "uint256",
          "name": "electionStartDate",
          "type": "uint256"
        },
        {
          "internalType": "uint256",
          "name": "firstRoundStartDate",
          "type": "uint256"
        },
        {
          "internalType": "uint256",
          "name": "roundDuration",
          "type": "uint256"
        },
        {
          "internalType": "bool",
          "name": "isActive",
          "type": "bool"
        },
        {
          "internalType": "uint8",
          "name": "currentRound",
          "type": "uint8"
        },
        {
          "internalType": "uint256",
          "name": "winnerCandidateId",
          "type": "uint256"
        }
      ],
      "stateMutability": "view",
      "type": "function"
    },
    {
      "inputs": [],
      "name": "electionsCount",
      "outputs": [
        {
          "internalType": "uint256",
          "name": "",
          "type": "uint256"
        }
      ],
      "stateMutability": "view",
      "type": "function"
    },
    {
      "inputs": [
        {
          "internalType": "uint256",
          "name": "electionId",
          "type": "uint256"
        },
        {
          "internalType": "bool",
          "name": "force",
          "type": "bool"
        }
      ],
      "name": "finalizeRound",
      "outputs": [],
      "stateMutability": "nonpayable",
      "type": "function"
    },
    {
      "inputs": [],
      "name": "getAdmins",
      "outputs": [
        {
          "internalType": "address[]",
          "name": "",
          "type": "address[]"
        }
      ],
      "stateMutability": "view",
      "type": "function"
    },
    {
      "inputs": [],
      "name": "getAllCandidates",
      "outputs": [
        {
          "components": [
            {
              "internalType": "uint256",
              "name": "id",
              "type": "uint256"
            },
            {
              "internalType": "string",
              "name": "firstName",
              "type": "string"
            },
            {
              "internalType": "string",
              "name": "lastName",
              "type": "string"
            },
            {
              "internalType": "string",
              "name": "politicalParty",
              "type": "string"
            }
          ],
          "internalType": "struct CandidatesManager.Candidate[]",
          "name": "",
          "type": "tuple[]"
        }
      ],
      "stateMutability": "view",
      "type": "function"
    },
    {
      "inputs": [],
      "name": "getAllVoters",
      "outputs": [
        {
          "internalType": "address[]",
          "name": "",
          "type": "address[]"
        }
      ],
      "stateMutability": "view",
      "type": "function"
    },
    {
      "inputs": [
        {
          "internalType": "uint256",
          "name": "electionId",
          "type": "uint256"
        },
        {
          "internalType": "uint8",
          "name": "roundNumber",
          "type": "uint8"
        }
      ],
      "name": "getCandidateIdsForRound",
      "outputs": [
        {
          "internalType": "uint256[]",
          "name": "",
          "type": "uint256[]"
        }
      ],
      "stateMutability": "view",
      "type": "function"
    },
    {
      "inputs": [
        {
          "internalType": "uint256",
          "name": "electionId",
          "type": "uint256"
        },
        {
          "internalType": "uint8",
          "name": "round",
          "type": "uint8"
        }
      ],
      "name": "getElectionRoundResults",
      "outputs": [
        {
          "internalType": "uint256",
          "name": "totalVotes",
          "type": "uint256"
        },
        {
          "internalType": "uint256[]",
          "name": "candidateIds",
          "type": "uint256[]"
        },
        {
          "internalType": "uint256[]",
          "name": "votesPerCandidate",
          "type": "uint256[]"
        },
        {
          "internalType": "uint256",
          "name": "startDate",
          "type": "uint256"
        },
        {
          "internalType": "uint256",
          "name": "endDate",
          "type": "uint256"
        }
      ],
      "stateMutability": "view",
      "type": "function"
    },
    {
      "inputs": [
        {
          "internalType": "uint256",
          "name": "_electionId",
          "type": "uint256"
        },
        {
          "internalType": "uint8",
          "name": "_round",
          "type": "uint8"
        }
      ],
      "name": "getRoundResults",
      "outputs": [
        {
          "internalType": "uint256",
          "name": "totalVotes",
          "type": "uint256"
        },
        {
          "internalType": "uint256[]",
          "name": "candidateIds",
          "type": "uint256[]"
        },
        {
          "internalType": "uint256[]",
          "name": "votesPerCandidate",
          "type": "uint256[]"
        },
        {
          "internalType": "uint256",
          "name": "startDate",
          "type": "uint256"
        },
        {
          "internalType": "uint256",
          "name": "endDate",
          "type": "uint256"
        }
      ],
      "stateMutability": "view",
      "type": "function"
    },
    {
      "inputs": [
        {
          "internalType": "address",
          "name": "_admin",
          "type": "address"
        }
      ],
      "name": "removeAdmin",
      "outputs": [],
      "stateMutability": "nonpayable",
      "type": "function"
    },
    {
      "inputs": [
        {
          "internalType": "address",
          "name": "_voter",
          "type": "address"
        }
      ],
      "name": "removeVoter",
      "outputs": [],
      "stateMutability": "nonpayable",
      "type": "function"
    },
    {
      "inputs": [
        {
          "internalType": "uint256",
          "name": "",
          "type": "uint256"
        },
        {
          "internalType": "uint8",
          "name": "",
          "type": "uint8"
        },
        {
          "internalType": "uint256",
          "name": "",
          "type": "uint256"
        }
      ],
      "name": "roundCandidateVotes",
      "outputs": [
        {
          "internalType": "uint256",
          "name": "",
          "type": "uint256"
        }
      ],
      "stateMutability": "view",
      "type": "function"
    },
    {
      "inputs": [
        {
          "internalType": "uint256",
          "name": "",
          "type": "uint256"
        },
        {
          "internalType": "uint8",
          "name": "",
          "type": "uint8"
        },
        {
          "internalType": "address",
          "name": "",
          "type": "address"
        }
      ],
      "name": "roundHasVoted",
      "outputs": [
        {
          "internalType": "bool",
          "name": "",
          "type": "bool"
        }
      ],
      "stateMutability": "view",
      "type": "function"
    },
    {
      "inputs": [
        {
          "internalType": "address",
          "name": "_newHolder",
          "type": "address"
        }
      ],
      "name": "transferOwnership",
      "outputs": [],
      "stateMutability": "nonpayable",
      "type": "function"
    },
    {
      "inputs": [
        {
          "internalType": "uint256",
          "name": "",
          "type": "uint256"
        }
      ],
      "name": "voterList",
      "outputs": [
        {
          "internalType": "address",
          "name": "",
          "type": "address"
        }
      ],
      "stateMutability": "view",
      "type": "function"
    },
    {
      "inputs": [
        {
          "internalType": "address",
          "name": "",
          "type": "address"
        }
      ],
      "name": "voters",
      "outputs": [
        {
          "internalType": "bool",
          "name": "isRegistered",
          "type": "bool"
        },
        {
          "internalType": "uint256",
          "name": "registrationTime",
          "type": "uint256"
        }
      ],
      "stateMutability": "view",
      "type": "function"
    },
    {
      "inputs": [
        {
          "internalType": "uint256",
          "name": "",
          "type": "uint256"
        },
        {
          "internalType": "uint8",
          "name": "",
          "type": "uint8"
        },
        {
          "internalType": "uint256",
          "name": "",
          "type": "uint256"
        }
      ],
      "name": "votersByRound",
      "outputs": [
        {
          "internalType": "address",
          "name": "",
          "type": "address"
        }
      ],
      "stateMutability": "view",
      "type": "function"
    },
    {
      "inputs": [
        {
          "internalType": "uint256",
          "name": "",
          "type": "uint256"
        },
        {
          "internalType": "uint8",
          "name": "",
          "type": "uint8"
        },
        {
          "internalType": "address",
          "name": "",
          "type": "address"
        }
      ],
      "name": "votes",
      "outputs": [
        {
          "internalType": "uint256",
          "name": "candidateId",
          "type": "uint256"
        },
        {
          "internalType": "uint256",
          "name": "timestamp",
          "type": "uint256"
        }
      ],
      "stateMutability": "view",
      "type": "function"
    }
  ],
  "bytecode": "0x608060405234801561001057600080fd5b5033600d60006101000a81548173ffffffffffffffffffffffffffffffffffffffff021916908373ffffffffffffffffffffffffffffffffffffffff1602179055506001600e60003373ffffffffffffffffffffffffffffffffffffffff1673ffffffffffffffffffffffffffffffffffffffff16815260200190815260200160002060006101000a81548160ff021916908315150217905550600f339080600181540180825580915050600190039060005260206000200160009091909190916101000a81548173ffffffffffffffffffffffffffffffffffffffff021916908373ffffffffffffffffffffffffffffffffffffffff1602179055503373ffffffffffffffffffffffffffffffffffffffff167f44d6d25963f097ad14f29f06854a01f575648a1ef82f30e562ccd3889717e33960405160405180910390a26040518060800160405280600081526020016040518060400160405280600481526020017f566f74650000000000000000000000000000000000000000000000000000000081525081526020016040518060400160405280600581526020017f426c616e6300000000000000000000000000000000000000000000000000000081525081526020016040518060400160405280600581526020017f417563756e0000000000000000000000000000000000000000000000000000008152508152506002600080815260200190815260200160002060008201518160000155602082015181600101908161024391906104c8565b50604082015181600201908161025991906104c8565b50606082015181600301908161026f91906104c8565b5090505061059a565b600081519050919050565b7f4e487b7100000000000000000000000000000000000000000000000000000000600052604160045260246000fd5b7f4e487b7100000000000000000000000000000000000000000000000000000000600052602260045260246000fd5b600060028204905060018216806102f957607f821691505b60208210810361030c5761030b6102b2565b5b50919050565b60008190508160005260206000209050919050565b60006020601f8301049050919050565b600082821b905092915050565b6000600883026103747fffffffffffffffffffffffffffffffffffffffffffffffffffffffffffffffff82610337565b61037e8683610337565b95508019841693508086168417925050509392505050565b6000819050919050565b6000819050919050565b60006103c56103c06103bb84610396565b6103a0565b610396565b9050919050565b6000819050919050565b6103df836103aa565b6103f36103eb826103cc565b848454610344565b825550505050565b600090565b6104086103fb565b6104138184846103d6565b505050565b5b818110156104375761042c600082610400565b600181019050610419565b5050565b601f82111561047c5761044d81610312565b61045684610327565b81016020851015610465578190505b61047961047185610327565b830182610418565b50505b505050565b600082821c905092915050565b600061049f60001984600802610481565b1980831691505092915050565b60006104b8838361048e565b9150826002028217905092915050565b6104d182610278565b67ffffffffffffffff8111156104ea576104e9610283565b5b6104f482546102e1565b6104ff82828561043b565b600060209050601f8311600181146105325760008415610520578287015190505b61052a85826104ac565b865550610592565b601f19841661054086610312565b60005b8281101561056857848901518255600182019150602085019450602081019050610543565b868310156105855784890151610581601f89168261048e565b8355505b6001600288020188555050505b505050505050565b6153f0806105a96000396000f3fe608060405234801561001057600080fd5b50600436106101e45760003560e01c80637351f0f21161010f578063ab95a7dd116100a2578063e684cbf911610071578063e684cbf91461062d578063f01345661461065d578063f2fde38b1461068d578063f4ab9adf146106a9576101e4565b8063ab95a7dd14610580578063ad71f8dc146105b0578063b04e523e146105cc578063caf1475d146105fc576101e4565b80639ed3e95e116100de5780639ed3e95e146104c8578063a298cbc1146104fc578063a3ec138d1461051a578063aa82ae791461054b576101e4565b80637351f0f21461042a5780637bf39e121461045e57806386c1ff681461048e5780639a74c695146104aa576101e4565b806335bbe70e1161018757806355af47881161015657806355af47881461038c5780635e6fef01146103a85780636546d5fd146103de578063704802751461040e576101e4565b806335bbe70e146102de578063429b62e5146102fc57806350e2e8af1461032c578063545458c81461035c576101e4565b80632d35a8a2116101c35780632d35a8a2146102515780632e6997fe1461026f57806331ae450b1461028d5780633477ee2e146102ab576101e4565b80623eee01146101e95780631785f53c146102195780632c0a3f8914610235575b600080fd5b61020360048036038101906101fe9190613826565b6106c5565b604051610210919061386e565b60405180910390f35b610233600480360381019061022e91906138e7565b6106df565b005b61024f600480360381019061024a9190613914565b610a20565b005b610259610f7d565b6040516102669190613963565b60405180910390f35b610277610f83565b6040516102849190613b50565b60405180910390f35b61029561120e565b6040516102a29190613c30565b60405180910390f35b6102c560048036038101906102c09190613826565b61129c565b6040516102d59493929190613c9c565b60405180910390f35b6102e6611464565b6040516102f39190613c30565b60405180910390f35b610316600480360381019061031191906138e7565b6114f2565b604051610323919061386e565b60405180910390f35b61034660048036038101906103419190613826565b611512565b6040516103539190613d05565b60405180910390f35b61037660048036038101906103719190613914565b611551565b6040516103839190613963565b60405180910390f35b6103a660048036038101906103a19190613d4c565b611576565b005b6103c260048036038101906103bd9190613826565b611e24565b6040516103d59796959493929190613da8565b60405180910390f35b6103f860048036038101906103f39190613e43565b611e80565b6040516104059190613f32565b60405180910390f35b610428600480360381019061042391906138e7565b611f06565b005b610444600480360381019061043f9190613e43565b612193565b604051610455959493929190613f54565b60405180910390f35b61047860048036038101906104739190613fb5565b6121b9565b604051610485919061386e565b60405180910390f35b6104a860048036038101906104a391906138e7565b6121f5565b005b6104b261253b565b6040516104bf9190613963565b60405180910390f35b6104e260048036038101906104dd9190613e43565b612541565b6040516104f3959493929190613f54565b60405180910390f35b6105046126d9565b6040516105119190613d05565b60405180910390f35b610534600480360381019061052f91906138e7565b6126ff565b604051610542929190614008565b60405180910390f35b61056560048036038101906105609190613e43565b612730565b60405161057796959493929190614031565b60405180910390f35b61059a60048036038101906105959190614092565b612793565b6040516105a79190613d05565b60405180910390f35b6105ca60048036038101906105c5919061421a565b6127ee565b005b6105e660048036038101906105e19190613914565b612a17565b6040516105f39190613963565b60405180910390f35b61061660048036038101906106119190613fb5565b612a48565b6040516106249291906142c1565b60405180910390f35b61064760048036038101906106429190614092565b612a86565b6040516106549190613963565b60405180910390f35b6106776004803603810190610672919061434a565b612ab8565b6040516106849190613963565b60405180910390f35b6106a760048036038101906106a291906138e7565b612b5c565b005b6106c360048036038101906106be91906138e7565b612d1b565b005b600080821180156106d857506004548211155b9050919050565b600d60009054906101000a900473ffffffffffffffffffffffffffffffffffffffff1673ffffffffffffffffffffffffffffffffffffffff163373ffffffffffffffffffffffffffffffffffffffff161461076f576040517f08c379a00000000000000000000000000000000000000000000000000000000081526004016107669061440a565b60405180910390fd5b600e60008273ffffffffffffffffffffffffffffffffffffffff1673ffffffffffffffffffffffffffffffffffffffff16815260200190815260200160002060009054906101000a900460ff166107fb576040517f08c379a00000000000000000000000000000000000000000000000000000000081526004016107f290614476565b60405180910390fd5b6000600e60008373ffffffffffffffffffffffffffffffffffffffff1673ffffffffffffffffffffffffffffffffffffffff16815260200190815260200160002060006101000a81548160ff02191690831515021790555060005b600f805490508110156109d9578173ffffffffffffffffffffffffffffffffffffffff16600f828154811061088e5761088d614496565b5b9060005260206000200160009054906101000a900473ffffffffffffffffffffffffffffffffffffffff1673ffffffffffffffffffffffffffffffffffffffff16036109cc57600f6001600f805490506108e891906144f4565b815481106108f9576108f8614496565b5b9060005260206000200160009054906101000a900473ffffffffffffffffffffffffffffffffffffffff16600f828154811061093857610937614496565b5b9060005260206000200160006101000a81548173ffffffffffffffffffffffffffffffffffffffff021916908373ffffffffffffffffffffffffffffffffffffffff160217905550600f80548061099257610991614528565b5b6001900381819060005260206000200160006101000a81549073ffffffffffffffffffffffffffffffffffffffff021916905590556109d9565b8080600101915050610856565b508073ffffffffffffffffffffffffffffffffffffffff167fa3b62bc36326052d97ea62d63c3d60308ed4c3ea8ac079dd8499f1e9c4f80c0f60405160405180910390a250565b600160003373ffffffffffffffffffffffffffffffffffffffff1673ffffffffffffffffffffffffffffffffffffffff16815260200190815260200160002060000160009054906101000a900460ff16610aaf576040517f08c379a0000000000000000000000000000000000000000000000000000000008152600401610aa6906145a3565b60405180910390fd5b60006006600084815260200190815260200160002090508060050160009054906101000a900460ff16610b17576040517f08c379a0000000000000000000000000000000000000000000000000000000008152600401610b0e9061460f565b60405180910390fd5b60008160050160019054906101000a900460ff16905060006007600086815260200190815260200160002060008360ff1660ff16815260200190815260200160002090508060010154421015610ba2576040517f08c379a0000000000000000000000000000000000000000000000000000000008152600401610b999061467b565b60405180910390fd5b8060020154421115610be9576040517f08c379a0000000000000000000000000000000000000000000000000000000008152600401610be0906146e7565b60405180910390fd5b600a600086815260200190815260200160002060008360ff1660ff16815260200190815260200160002060003373ffffffffffffffffffffffffffffffffffffffff1673ffffffffffffffffffffffffffffffffffffffff16815260200190815260200160002060009054906101000a900460ff1615610c9e576040517f08c379a0000000000000000000000000000000000000000000000000000000008152600401610c9590614753565b60405180910390fd5b6000805b8260060180549050811015610cee5785836006018281548110610cc857610cc7614496565b5b906000526020600020015403610ce15760019150610cee565b8080600101915050610ca2565b5080610d2f576040517f08c379a0000000000000000000000000000000000000000000000000000000008152600401610d26906147bf565b60405180910390fd5b6001600a600088815260200190815260200160002060008560ff1660ff16815260200190815260200160002060003373ffffffffffffffffffffffffffffffffffffffff1673ffffffffffffffffffffffffffffffffffffffff16815260200190815260200160002060006101000a81548160ff0219169083151502179055506008600087815260200190815260200160002060008460ff1660ff16815260200190815260200160002060008681526020019081526020016000206000815480929190610dfb906147df565b9190505550816004016000815480929190610e15906147df565b91905055506040518060400160405280868152602001428152506010600088815260200190815260200160002060008560ff1660ff16815260200190815260200160002060003373ffffffffffffffffffffffffffffffffffffffff1673ffffffffffffffffffffffffffffffffffffffff16815260200190815260200160002060008201518160000155602082015181600101559050506009600087815260200190815260200160002060008460ff1660ff168152602001908152602001600020339080600181540180825580915050600190039060005260206000200160009091909190916101000a81548173ffffffffffffffffffffffffffffffffffffffff021916908373ffffffffffffffffffffffffffffffffffffffff16021790555084867ff1f3396e31d1dbd068c4e6169959218fe5ae731d73149dd82edc33beca09f22a853342604051610f6d93929190614827565b60405180910390a3505050505050565b60045481565b606060006001600454610f96919061485e565b67ffffffffffffffff811115610faf57610fae6140ef565b5b604051908082528060200260200182016040528015610fe857816020015b610fd56136c9565b815260200190600190039081610fcd5790505b50905060005b600454811161120657600260008281526020019081526020016000206040518060800160405290816000820154815260200160018201805461102f906148c1565b80601f016020809104026020016040519081016040528092919081815260200182805461105b906148c1565b80156110a85780601f1061107d576101008083540402835291602001916110a8565b820191906000526020600020905b81548152906001019060200180831161108b57829003601f168201915b505050505081526020016002820180546110c1906148c1565b80601f01602080910402602001604051908101604052809291908181526020018280546110ed906148c1565b801561113a5780601f1061110f5761010080835404028352916020019161113a565b820191906000526020600020905b81548152906001019060200180831161111d57829003601f168201915b50505050508152602001600382018054611153906148c1565b80601f016020809104026020016040519081016040528092919081815260200182805461117f906148c1565b80156111cc5780601f106111a1576101008083540402835291602001916111cc565b820191906000526020600020905b8154815290600101906020018083116111af57829003601f168201915b5050505050815250508282815181106111e8576111e7614496565b5b602002602001018190525080806111fe906147df565b915050610fee565b508091505090565b6060600f80548060200260200160405190810160405280929190818152602001828054801561129257602002820191906000526020600020905b8160009054906101000a900473ffffffffffffffffffffffffffffffffffffffff1673ffffffffffffffffffffffffffffffffffffffff1681526020019060010190808311611248575b5050505050905090565b60026020528060005260406000206000915090508060000154908060010180546112c5906148c1565b80601f01602080910402602001604051908101604052809291908181526020018280546112f1906148c1565b801561133e5780601f106113135761010080835404028352916020019161133e565b820191906000526020600020905b81548152906001019060200180831161132157829003601f168201915b505050505090806002018054611353906148c1565b80601f016020809104026020016040519081016040528092919081815260200182805461137f906148c1565b80156113cc5780601f106113a1576101008083540402835291602001916113cc565b820191906000526020600020905b8154815290600101906020018083116113af57829003601f168201915b5050505050908060030180546113e1906148c1565b80601f016020809104026020016040519081016040528092919081815260200182805461140d906148c1565b801561145a5780601f1061142f5761010080835404028352916020019161145a565b820191906000526020600020905b81548152906001019060200180831161143d57829003601f168201915b5050505050905084565b606060008054806020026020016040519081016040528092919081815260200182805480156114e857602002820191906000526020600020905b8160009054906101000a900473ffffffffffffffffffffffffffffffffffffffff1673ffffffffffffffffffffffffffffffffffffffff168152602001906001019080831161149e575b5050505050905090565b600e6020528060005260406000206000915054906101000a900460ff1681565b6000818154811061152257600080fd5b906000526020600020016000915054906101000a900473ffffffffffffffffffffffffffffffffffffffff1681565b600c602052816000526040600020602052806000526040600020600091509150505481565b600060066000848152602001908152602001600020905060008160050160019054906101000a900460ff16905060006007600086815260200190815260200160002060008360ff1660ff16815260200190815260200160002090508361161d578060020154421161161c576040517f08c379a00000000000000000000000000000000000000000000000000000000081526004016116139061493e565b60405180910390fd5b5b8060030160009054906101000a900460ff161561166f576040517f08c379a0000000000000000000000000000000000000000000000000000000008152600401611666906149aa565b60405180910390fd5b60006008600087815260200190815260200160002060008460ff1660ff16815260200190815260200160002060008081526020019081526020016000205482600401546116bc91906144f4565b905060006116ca8785612f6f565b905060018460ff16036119e25760008211801561170257506032826116ef91906149ca565b6064826000015161170091906149ca565b115b8015611712575060018160600151145b156117a4578060400151856006018190555060018360030160006101000a81548160ff021916908315150217905550867f3a9cda69ee0d6dfee4acf22426df9b50f9af0d2acd191bd409070a7a51c3ac7b856001846040015160405161177a93929190614a0c565b60405180910390a260008560050160006101000a81548160ff0219169083151502179055506119dd565b60006001856117b39190614a43565b9050808660050160016101000a81548160ff021916908360ff1602179055506000600760008a815260200190815260200160002060008360ff1660ff1681526020019081526020016000209050818160000160006101000a81548160ff021916908360ff160217905550428160010181905550866003015442611836919061485e565b816002018190555060606001846060015111156118fc57836060015167ffffffffffffffff81111561186b5761186a6140ef565b5b6040519080825280602002602001820160405280156118995781602001602082028036833780820191505090505b50905060005b84606001518110156118f657846080015181815181106118c2576118c1614496565b5b60200260200101518282815181106118dd576118dc614496565b5b602002602001018181525050808060010191505061189f565b50611966565b6119638a88866040015187602001518a60060180548060200260200160405190810160405280929190818152602001828054801561195957602002820191906000526020600020905b815481526020019060010190808311611945575b505050505061319e565b90505b8082600601908051906020019061197e9291906136f1565b5060018660030160006101000a81548160ff021916908315150217905550897f3a9cda69ee0d6dfee4acf22426df9b50f9af0d2acd191bd409070a7a51c3ac7b886000806040516119d193929190614abd565b60405180910390a25050505b611e1b565b60028460ff1603611c48576001816060015103611a86578060400151856006018190555060018360030160006101000a81548160ff021916908315150217905550867f3a9cda69ee0d6dfee4acf22426df9b50f9af0d2acd191bd409070a7a51c3ac7b8560018460400151604051611a5c93929190614a0c565b60405180910390a260008560050160006101000a81548160ff021916908315150217905550611c43565b6000600185611a959190614a43565b9050808660050160016101000a81548160ff021916908360ff1602179055506000600760008a815260200190815260200160002060008360ff1660ff1681526020019081526020016000209050818160000160006101000a81548160ff021916908360ff160217905550428160010181905550866003015442611b18919061485e565b81600201819055506000836060015167ffffffffffffffff811115611b4057611b3f6140ef565b5b604051908082528060200260200182016040528015611b6e5781602001602082028036833780820191505090505b50905060005b8460600151811015611bcb5784608001518181518110611b9757611b96614496565b5b6020026020010151828281518110611bb257611bb1614496565b5b6020026020010181815250508080600101915050611b74565b5080826006019080519060200190611be49291906136f1565b5060018660030160006101000a81548160ff021916908315150217905550897f3a9cda69ee0d6dfee4acf22426df9b50f9af0d2acd191bd409070a7a51c3ac7b88600080604051611c3793929190614abd565b60405180910390a25050505b611e1a565b60038460ff1603611e19576001816060015103611cec578060400151856006018190555060018360030160006101000a81548160ff021916908315150217905550867f3a9cda69ee0d6dfee4acf22426df9b50f9af0d2acd191bd409070a7a51c3ac7b8560018460400151604051611cc293929190614a0c565b60405180910390a260008560050160006101000a81548160ff021916908315150217905550611e18565b60008060005b8360600151811015611d6857600084608001518281518110611d1757611d16614496565b5b602002602001015190506000600c60008d8152602001908152602001600020600083815260200190815260200160002054905083811115611d59578093508194505b50508080600101915050611cf2565b508187600601819055508260800151600b60008b81526020019081526020016000209080519060200190611d9d9291906136f1565b5060018560030160006101000a81548160ff021916908315150217905550887f3a9cda69ee0d6dfee4acf22426df9b50f9af0d2acd191bd409070a7a51c3ac7b87600185604051611df093929190614a0c565b60405180910390a260008760050160006101000a81548160ff02191690831515021790555050505b5b5b5b50505050505050565b60066020528060005260406000206000915090508060000154908060010154908060020154908060030154908060050160009054906101000a900460ff16908060050160019054906101000a900460ff16908060060154905087565b60606007600084815260200190815260200160002060008360ff1660ff168152602001908152602001600020600601805480602002602001604051908101604052809291908181526020018280548015611ef957602002820191906000526020600020905b815481526020019060010190808311611ee5575b5050505050905092915050565b600d60009054906101000a900473ffffffffffffffffffffffffffffffffffffffff1673ffffffffffffffffffffffffffffffffffffffff163373ffffffffffffffffffffffffffffffffffffffff1614611f96576040517f08c379a0000000000000000000000000000000000000000000000000000000008152600401611f8d9061440a565b60405180910390fd5b600073ffffffffffffffffffffffffffffffffffffffff168173ffffffffffffffffffffffffffffffffffffffff1603612005576040517f08c379a0000000000000000000000000000000000000000000000000000000008152600401611ffc90614b40565b60405180910390fd5b600e60008273ffffffffffffffffffffffffffffffffffffffff1673ffffffffffffffffffffffffffffffffffffffff16815260200190815260200160002060009054906101000a900460ff1615612092576040517f08c379a000000000000000000000000000000000000000000000000000000000815260040161208990614bac565b60405180910390fd5b6001600e60008373ffffffffffffffffffffffffffffffffffffffff1673ffffffffffffffffffffffffffffffffffffffff16815260200190815260200160002060006101000a81548160ff021916908315150217905550600f819080600181540180825580915050600190039060005260206000200160009091909190916101000a81548173ffffffffffffffffffffffffffffffffffffffff021916908373ffffffffffffffffffffffffffffffffffffffff1602179055508073ffffffffffffffffffffffffffffffffffffffff167f44d6d25963f097ad14f29f06854a01f575648a1ef82f30e562ccd3889717e33960405160405180910390a250565b60006060806000806121a58787612541565b945094509450945094509295509295909350565b600a602052826000526040600020602052816000526040600020602052806000526040600020600092509250509054906101000a900460ff1681565b600e60003373ffffffffffffffffffffffffffffffffffffffff1673ffffffffffffffffffffffffffffffffffffffff16815260200190815260200160002060009054906101000a900460ff16612281576040517f08c379a000000000000000000000000000000000000000000000000000000000815260040161227890614c18565b60405180910390fd5b600160008273ffffffffffffffffffffffffffffffffffffffff1673ffffffffffffffffffffffffffffffffffffffff16815260200190815260200160002060000160009054906101000a900460ff16612310576040517f08c379a000000000000000000000000000000000000000000000000000000000815260040161230790614c84565b60405180910390fd5b600160008273ffffffffffffffffffffffffffffffffffffffff1673ffffffffffffffffffffffffffffffffffffffff168152602001908152602001600020600080820160006101000a81549060ff02191690556001820160009055505060005b6000805490508110156124f4578173ffffffffffffffffffffffffffffffffffffffff16600082815481106123a9576123a8614496565b5b9060005260206000200160009054906101000a900473ffffffffffffffffffffffffffffffffffffffff1673ffffffffffffffffffffffffffffffffffffffff16036124e7576000600160008054905061240391906144f4565b8154811061241457612413614496565b5b9060005260206000200160009054906101000a900473ffffffffffffffffffffffffffffffffffffffff166000828154811061245357612452614496565b5b9060005260206000200160006101000a81548173ffffffffffffffffffffffffffffffffffffffff021916908373ffffffffffffffffffffffffffffffffffffffff16021790555060008054806124ad576124ac614528565b5b6001900381819060005260206000200160006101000a81549073ffffffffffffffffffffffffffffffffffffffff021916905590556124f4565b8080600101915050612371565b508073ffffffffffffffffffffffffffffffffffffffff167fa14a79af012d1756818f9bd59ccfc9ad185a71df86b9392d9059d9e6faf6d64460405160405180910390a250565b60055481565b600060608060008060006007600089815260200190815260200160002060008860ff1660ff1681526020019081526020016000209050806004015495508060010154925080600201549150600660008981526020019081526020016000206004018054806020026020016040519081016040528092919081815260200182805480156125ec57602002820191906000526020600020905b8154815260200190600101908083116125d8575b50505050509450845167ffffffffffffffff81111561260e5761260d6140ef565b5b60405190808252806020026020018201604052801561263c5781602001602082028036833780820191505090505b50935060005b85518110156126cd57600860008a815260200190815260200160002060008960ff1660ff168152602001908152602001600020600087838151811061268a57612689614496565b5b60200260200101518152602001908152602001600020548582815181106126b4576126b3614496565b5b6020026020010181815250508080600101915050612642565b50509295509295909350565b600d60009054906101000a900473ffffffffffffffffffffffffffffffffffffffff1681565b60016020528060005260406000206000915090508060000160009054906101000a900460ff16908060010154905082565b6007602052816000526040600020602052806000526040600020600091509150508060000160009054906101000a900460ff16908060010154908060020154908060030160009054906101000a900460ff16908060040154908060050154905086565b600960205282600052604060002060205281600052604060002081815481106127bb57600080fd5b90600052602060002001600092509250509054906101000a900473ffffffffffffffffffffffffffffffffffffffff1681565b600e60003373ffffffffffffffffffffffffffffffffffffffff1673ffffffffffffffffffffffffffffffffffffffff16815260200190815260200160002060009054906101000a900460ff1661287a576040517f08c379a000000000000000000000000000000000000000000000000000000000815260040161287190614c18565b60405180910390fd5b6000838360405160200161288f929190614d2c565b6040516020818303038152906040528051906020012090506003600082815260200190815260200160002060009054906101000a900460ff1615612908576040517f08c379a00000000000000000000000000000000000000000000000000000000081526004016128ff90614da7565b60405180910390fd5b6004600081548092919061291b906147df565b919050555060405180608001604052806004548152602001858152602001848152602001838152506002600060045481526020019081526020016000206000820151816000015560208201518160010190816129779190614f69565b50604082015181600201908161298d9190614f69565b5060608201518160030190816129a39190614f69565b5090505060016003600083815260200190815260200160002060006101000a81548160ff0219169083151502179055506004547f52b689af7ae3bd15a5156582545571237b58abd804c1456c3269d1b1ee93f6fc858585604051612a099392919061503b565b60405180910390a250505050565b600b6020528160005260406000208181548110612a3357600080fd5b90600052602060002001600091509150505481565b601060205282600052604060002060205281600052604060002060205280600052604060002060009250925050508060000154908060010154905082565b600860205282600052604060002060205281600052604060002060205280600052604060002060009250925050505481565b6000600e60003373ffffffffffffffffffffffffffffffffffffffff1673ffffffffffffffffffffffffffffffffffffffff16815260200190815260200160002060009054906101000a900460ff16612b46576040517f08c379a0000000000000000000000000000000000000000000000000000000008152600401612b3d90614c18565b60405180910390fd5b612b52858585856132f3565b9050949350505050565b600d60009054906101000a900473ffffffffffffffffffffffffffffffffffffffff1673ffffffffffffffffffffffffffffffffffffffff163373ffffffffffffffffffffffffffffffffffffffff1614612bec576040517f08c379a0000000000000000000000000000000000000000000000000000000008152600401612be39061440a565b60405180910390fd5b600073ffffffffffffffffffffffffffffffffffffffff168173ffffffffffffffffffffffffffffffffffffffff1603612c5b576040517f08c379a0000000000000000000000000000000000000000000000000000000008152600401612c5290614b40565b60405180910390fd5b8073ffffffffffffffffffffffffffffffffffffffff16600d60009054906101000a900473ffffffffffffffffffffffffffffffffffffffff1673ffffffffffffffffffffffffffffffffffffffff167f8be0079c531659141344cd1fd0a4f28419497f9722a3daafe3b4186f6b6457e060405160405180910390a380600d60006101000a81548173ffffffffffffffffffffffffffffffffffffffff021916908373ffffffffffffffffffffffffffffffffffffffff16021790555050565b600e60003373ffffffffffffffffffffffffffffffffffffffff1673ffffffffffffffffffffffffffffffffffffffff16815260200190815260200160002060009054906101000a900460ff16612da7576040517f08c379a0000000000000000000000000000000000000000000000000000000008152600401612d9e90614c18565b60405180910390fd5b600160008273ffffffffffffffffffffffffffffffffffffffff1673ffffffffffffffffffffffffffffffffffffffff16815260200190815260200160002060000160009054906101000a900460ff1615612e37576040517f08c379a0000000000000000000000000000000000000000000000000000000008152600401612e2e906150d3565b60405180910390fd5b604051806040016040528060011515815260200142815250600160008373ffffffffffffffffffffffffffffffffffffffff1673ffffffffffffffffffffffffffffffffffffffff16815260200190815260200160002060008201518160000160006101000a81548160ff021916908315150217905550602082015181600101559050506000819080600181540180825580915050600190039060005260206000200160009091909190916101000a81548173ffffffffffffffffffffffffffffffffffffffff021916908373ffffffffffffffffffffffffffffffffffffffff1602179055508073ffffffffffffffffffffffffffffffffffffffff167f56aa1768b52ddcdda65c5561181844717c2eed4bb3c848376d4420860da04dae42604051612f649190613963565b60405180910390a250565b612f7761373e565b60006007600085815260200190815260200160002060008460ff1660ff16815260200190815260200160002090506000816006018054905090508067ffffffffffffffff811115612fcb57612fca6140ef565b5b604051908082528060200260200182016040528015612ff95781602001602082028036833780820191505090505b50836080018190525060005b8181101561319557600083600601828154811061302557613024614496565b5b90600052602060002001549050600081036130405750613188565b60006008600089815260200190815260200160002060008860ff1660ff168152602001908152602001600020600083815260200190815260200160002054905085600001518111156130e357856000015186602001818152505080866000018181525050818660400181815250508186608001516000815181106130c7576130c6614496565b5b602002602001018181525050600186606001818152505061314a565b856000015181036131315781866080015187606001518151811061310a57613109614496565b5b602002602001018181525050856060018051809190613128906147df565b81525050613149565b856020015181111561314857808660200181815250505b5b5b80600c60008a81526020019081526020016000206000848152602001908152602001600020600082825461317e919061485e565b9250508190555050505b8080600101915050613005565b50505092915050565b606060006131ae87878686613622565b90508060016131bd919061485e565b67ffffffffffffffff8111156131d6576131d56140ef565b5b6040519080825280602002602001820160405280156132045781602001602082028036833780820191505090505b509150848260008151811061321c5761321b614496565b5b60200260200101818152505060006001905060005b84518110156132e757600085828151811061324f5761324e614496565b5b602002602001015190506000810361326757506132da565b86600860008c815260200190815260200160002060008b60ff1660ff168152602001908152602001600020600083815260200190815260200160002054036132d857808584815181106132bd576132bc614496565b5b60200260200101818152505082806132d4906147df565b9350505b505b8080600101915050613231565b50505095945050505050565b6000428511613337576040517f08c379a000000000000000000000000000000000000000000000000000000000815260040161332e9061513f565b60405180910390fd5b8484101561337a576040517f08c379a0000000000000000000000000000000000000000000000000000000008152600401613371906151d1565b60405180910390fd5b600083839050116133c0576040517f08c379a00000000000000000000000000000000000000000000000000000000081526004016133b79061523d565b60405180910390fd5b600560008154809291906133d3906147df565b91905055506005549050600060066000838152602001908152602001600020905081816000018190555085816001018190555084816002018190555062015180816003018190555060018160050160006101000a81548160ff02191690831515021790555060018160050160016101000a81548160ff021916908360ff160217905550600184849050613466919061485e565b67ffffffffffffffff81111561347f5761347e6140ef565b5b6040519080825280602002602001820160405280156134ad5781602001602082028036833780820191505090505b508160040190805190602001906134c59291906136f1565b506000816004016000815481106134df576134de614496565b5b906000526020600020018190555060005b848490508110156135525784848281811061350e5761350d614496565b5b9050602002013582600401600183613526919061485e565b8154811061353757613536614496565b5b906000526020600020018190555080806001019150506134f0565b506000600760008481526020019081526020016000206000600160ff168152602001908152602001600020905060018160000160006101000a81548160ff021916908360ff16021790555085816001018190555062015180866135b5919061485e565b816002018190555081600401816006019080546135d392919061376d565b50827f94d2ca1585096a82008b4e4c47222139e365b7386c639acb5562a4f8a959f4c188886201518086600401604051613610949392919061536e565b60405180910390a25050949350505050565b600080600090505b82518110156136c057600083828151811061364857613647614496565b5b602002602001015190506000810361366057506136b3565b846008600089815260200190815260200160002060008860ff1660ff168152602001908152602001600020600083815260200190815260200160002054036136b15782806136ad906147df565b9350505b505b808060010191505061362a565b50949350505050565b6040518060800160405280600081526020016060815260200160608152602001606081525090565b82805482825590600052602060002090810192821561372d579160200282015b8281111561372c578251825591602001919060010190613711565b5b50905061373a91906137bf565b5090565b6040518060a0016040528060008152602001600081526020016000815260200160008152602001606081525090565b8280548282559060005260206000209081019282156137ae5760005260206000209182015b828111156137ad578254825591600101919060010190613792565b5b5090506137bb91906137bf565b5090565b5b808211156137d85760008160009055506001016137c0565b5090565b6000604051905090565b600080fd5b600080fd5b6000819050919050565b613803816137f0565b811461380e57600080fd5b50565b600081359050613820816137fa565b92915050565b60006020828403121561383c5761383b6137e6565b5b600061384a84828501613811565b91505092915050565b60008115159050919050565b61386881613853565b82525050565b6000602082019050613883600083018461385f565b92915050565b600073ffffffffffffffffffffffffffffffffffffffff82169050919050565b60006138b482613889565b9050919050565b6138c4816138a9565b81146138cf57600080fd5b50565b6000813590506138e1816138bb565b92915050565b6000602082840312156138fd576138fc6137e6565b5b600061390b848285016138d2565b91505092915050565b6000806040838503121561392b5761392a6137e6565b5b600061393985828601613811565b925050602061394a85828601613811565b9150509250929050565b61395d816137f0565b82525050565b60006020820190506139786000830184613954565b92915050565b600081519050919050565b600082825260208201905092915050565b6000819050602082019050919050565b6139b3816137f0565b82525050565b600081519050919050565b600082825260208201905092915050565b60005b838110156139f35780820151818401526020810190506139d8565b60008484015250505050565b6000601f19601f8301169050919050565b6000613a1b826139b9565b613a2581856139c4565b9350613a358185602086016139d5565b613a3e816139ff565b840191505092915050565b6000608083016000830151613a6160008601826139aa565b5060208301518482036020860152613a798282613a10565b91505060408301518482036040860152613a938282613a10565b91505060608301518482036060860152613aad8282613a10565b9150508091505092915050565b6000613ac68383613a49565b905092915050565b6000602082019050919050565b6000613ae68261397e565b613af08185613989565b935083602082028501613b028561399a565b8060005b85811015613b3e5784840389528151613b1f8582613aba565b9450613b2a83613ace565b925060208a01995050600181019050613b06565b50829750879550505050505092915050565b60006020820190508181036000830152613b6a8184613adb565b905092915050565b600081519050919050565b600082825260208201905092915050565b6000819050602082019050919050565b613ba7816138a9565b82525050565b6000613bb98383613b9e565b60208301905092915050565b6000602082019050919050565b6000613bdd82613b72565b613be78185613b7d565b9350613bf283613b8e565b8060005b83811015613c23578151613c0a8882613bad565b9750613c1583613bc5565b925050600181019050613bf6565b5085935050505092915050565b60006020820190508181036000830152613c4a8184613bd2565b905092915050565b600082825260208201905092915050565b6000613c6e826139b9565b613c788185613c52565b9350613c888185602086016139d5565b613c91816139ff565b840191505092915050565b6000608082019050613cb16000830187613954565b8181036020830152613cc38186613c63565b90508181036040830152613cd78185613c63565b90508181036060830152613ceb8184613c63565b905095945050505050565b613cff816138a9565b82525050565b6000602082019050613d1a6000830184613cf6565b92915050565b613d2981613853565b8114613d3457600080fd5b50565b600081359050613d4681613d20565b92915050565b60008060408385031215613d6357613d626137e6565b5b6000613d7185828601613811565b9250506020613d8285828601613d37565b9150509250929050565b600060ff82169050919050565b613da281613d8c565b82525050565b600060e082019050613dbd600083018a613954565b613dca6020830189613954565b613dd76040830188613954565b613de46060830187613954565b613df1608083018661385f565b613dfe60a0830185613d99565b613e0b60c0830184613954565b98975050505050505050565b613e2081613d8c565b8114613e2b57600080fd5b50565b600081359050613e3d81613e17565b92915050565b60008060408385031215613e5a57613e596137e6565b5b6000613e6885828601613811565b9250506020613e7985828601613e2e565b9150509250929050565b600081519050919050565b600082825260208201905092915050565b6000819050602082019050919050565b6000613ebb83836139aa565b60208301905092915050565b6000602082019050919050565b6000613edf82613e83565b613ee98185613e8e565b9350613ef483613e9f565b8060005b83811015613f25578151613f0c8882613eaf565b9750613f1783613ec7565b925050600181019050613ef8565b5085935050505092915050565b60006020820190508181036000830152613f4c8184613ed4565b905092915050565b600060a082019050613f696000830188613954565b8181036020830152613f7b8187613ed4565b90508181036040830152613f8f8186613ed4565b9050613f9e6060830185613954565b613fab6080830184613954565b9695505050505050565b600080600060608486031215613fce57613fcd6137e6565b5b6000613fdc86828701613811565b9350506020613fed86828701613e2e565b9250506040613ffe868287016138d2565b9150509250925092565b600060408201905061401d600083018561385f565b61402a6020830184613954565b9392505050565b600060c0820190506140466000830189613d99565b6140536020830188613954565b6140606040830187613954565b61406d606083018661385f565b61407a6080830185613954565b61408760a0830184613954565b979650505050505050565b6000806000606084860312156140ab576140aa6137e6565b5b60006140b986828701613811565b93505060206140ca86828701613e2e565b92505060406140db86828701613811565b9150509250925092565b600080fd5b600080fd5b7f4e487b7100000000000000000000000000000000000000000000000000000000600052604160045260246000fd5b614127826139ff565b810181811067ffffffffffffffff82111715614146576141456140ef565b5b80604052505050565b60006141596137dc565b9050614165828261411e565b919050565b600067ffffffffffffffff821115614185576141846140ef565b5b61418e826139ff565b9050602081019050919050565b82818337600083830152505050565b60006141bd6141b88461416a565b61414f565b9050828152602081018484840111156141d9576141d86140ea565b5b6141e484828561419b565b509392505050565b600082601f830112614201576142006140e5565b5b81356142118482602086016141aa565b91505092915050565b600080600060608486031215614233576142326137e6565b5b600084013567ffffffffffffffff811115614251576142506137eb565b5b61425d868287016141ec565b935050602084013567ffffffffffffffff81111561427e5761427d6137eb565b5b61428a868287016141ec565b925050604084013567ffffffffffffffff8111156142ab576142aa6137eb565b5b6142b7868287016141ec565b9150509250925092565b60006040820190506142d66000830185613954565b6142e36020830184613954565b9392505050565b600080fd5b600080fd5b60008083601f84011261430a576143096140e5565b5b8235905067ffffffffffffffff811115614327576143266142ea565b5b602083019150836020820283011115614343576143426142ef565b5b9250929050565b60008060008060608587031215614364576143636137e6565b5b600061437287828801613811565b945050602061438387828801613811565b935050604085013567ffffffffffffffff8111156143a4576143a36137eb565b5b6143b0878288016142f4565b925092505092959194509250565b7f4e6f7420636f6e747261637420686f6c64657200000000000000000000000000600082015250565b60006143f4601383613c52565b91506143ff826143be565b602082019050919050565b60006020820190508181036000830152614423816143e7565b9050919050565b7f4e6f742061646d696e0000000000000000000000000000000000000000000000600082015250565b6000614460600983613c52565b915061446b8261442a565b602082019050919050565b6000602082019050818103600083015261448f81614453565b9050919050565b7f4e487b7100000000000000000000000000000000000000000000000000000000600052603260045260246000fd5b7f4e487b7100000000000000000000000000000000000000000000000000000000600052601160045260246000fd5b60006144ff826137f0565b915061450a836137f0565b9250828203905081811115614522576145216144c5565b5b92915050565b7f4e487b7100000000000000000000000000000000000000000000000000000000600052603160045260246000fd5b7f4e6f742061207265676973746572656420766f74657200000000000000000000600082015250565b600061458d601683613c52565b915061459882614557565b602082019050919050565b600060208201905081810360008301526145bc81614580565b9050919050565b7f456c656374696f6e206e6f742061637469766500000000000000000000000000600082015250565b60006145f9601383613c52565b9150614604826145c3565b602082019050919050565b60006020820190508181036000830152614628816145ec565b9050919050565b7f526f756e64206e6f742073746172746564000000000000000000000000000000600082015250565b6000614665601183613c52565b91506146708261462f565b602082019050919050565b6000602082019050818103600083015261469481614658565b9050919050565b7f526f756e6420656e646564000000000000000000000000000000000000000000600082015250565b60006146d1600b83613c52565b91506146dc8261469b565b602082019050919050565b60006020820190508181036000830152614700816146c4565b9050919050565b7f416c726561647920766f74656400000000000000000000000000000000000000600082015250565b600061473d600d83613c52565b915061474882614707565b602082019050919050565b6000602082019050818103600083015261476c81614730565b9050919050565b7f496e76616c69642063616e646964617465000000000000000000000000000000600082015250565b60006147a9601183613c52565b91506147b482614773565b602082019050919050565b600060208201905081810360008301526147d88161479c565b9050919050565b60006147ea826137f0565b91507fffffffffffffffffffffffffffffffffffffffffffffffffffffffffffffffff820361481c5761481b6144c5565b5b600182019050919050565b600060608201905061483c6000830186613d99565b6148496020830185613cf6565b6148566040830184613954565b949350505050565b6000614869826137f0565b9150614874836137f0565b925082820190508082111561488c5761488b6144c5565b5b92915050565b7f4e487b7100000000000000000000000000000000000000000000000000000000600052602260045260246000fd5b600060028204905060018216806148d957607f821691505b6020821081036148ec576148eb614892565b5b50919050565b7f526f756e64206e6f7420656e6465640000000000000000000000000000000000600082015250565b6000614928600f83613c52565b9150614933826148f2565b602082019050919050565b600060208201905081810360008301526149578161491b565b9050919050565b7f526f756e6420616c72656164792066696e616c697a6564000000000000000000600082015250565b6000614994601783613c52565b915061499f8261495e565b602082019050919050565b600060208201905081810360008301526149c381614987565b9050919050565b60006149d5826137f0565b91506149e0836137f0565b92508282026149ee816137f0565b91508282048414831517614a0557614a046144c5565b5b5092915050565b6000606082019050614a216000830186613d99565b614a2e602083018561385f565b614a3b6040830184613954565b949350505050565b6000614a4e82613d8c565b9150614a5983613d8c565b9250828201905060ff811115614a7257614a716144c5565b5b92915050565b6000819050919050565b6000819050919050565b6000614aa7614aa2614a9d84614a78565b614a82565b6137f0565b9050919050565b614ab781614a8c565b82525050565b6000606082019050614ad26000830186613d99565b614adf602083018561385f565b614aec6040830184614aae565b949350505050565b7f496e76616c696420616464726573730000000000000000000000000000000000600082015250565b6000614b2a600f83613c52565b9150614b3582614af4565b602082019050919050565b60006020820190508181036000830152614b5981614b1d565b9050919050565b7f416c72656164792061646d696e00000000000000000000000000000000000000600082015250565b6000614b96600d83613c52565b9150614ba182614b60565b602082019050919050565b60006020820190508181036000830152614bc581614b89565b9050919050565b7f4e6f7420616e2061646d696e0000000000000000000000000000000000000000600082015250565b6000614c02600c83613c52565b9150614c0d82614bcc565b602082019050919050565b60006020820190508181036000830152614c3181614bf5565b9050919050565b7f566f746572206e6f742072656769737465726564000000000000000000000000600082015250565b6000614c6e601483613c52565b9150614c7982614c38565b602082019050919050565b60006020820190508181036000830152614c9d81614c61565b9050919050565b600081905092915050565b6000614cba826139b9565b614cc48185614ca4565b9350614cd48185602086016139d5565b80840191505092915050565b7f7c00000000000000000000000000000000000000000000000000000000000000600082015250565b6000614d16600183614ca4565b9150614d2182614ce0565b600182019050919050565b6000614d388285614caf565b9150614d4382614d09565b9150614d4f8284614caf565b91508190509392505050565b7f43616e64696461746520616c7265616479206578697374730000000000000000600082015250565b6000614d91601883613c52565b9150614d9c82614d5b565b602082019050919050565b60006020820190508181036000830152614dc081614d84565b9050919050565b60008190508160005260206000209050919050565b60006020601f8301049050919050565b600082821b905092915050565b600060088302614e297fffffffffffffffffffffffffffffffffffffffffffffffffffffffffffffffff82614dec565b614e338683614dec565b95508019841693508086168417925050509392505050565b6000614e66614e61614e5c846137f0565b614a82565b6137f0565b9050919050565b6000819050919050565b614e8083614e4b565b614e94614e8c82614e6d565b848454614df9565b825550505050565b600090565b614ea9614e9c565b614eb4818484614e77565b505050565b5b81811015614ed857614ecd600082614ea1565b600181019050614eba565b5050565b601f821115614f1d57614eee81614dc7565b614ef784614ddc565b81016020851015614f06578190505b614f1a614f1285614ddc565b830182614eb9565b50505b505050565b600082821c905092915050565b6000614f4060001984600802614f22565b1980831691505092915050565b6000614f598383614f2f565b9150826002028217905092915050565b614f72826139b9565b67ffffffffffffffff811115614f8b57614f8a6140ef565b5b614f9582546148c1565b614fa0828285614edc565b600060209050601f831160018114614fd35760008415614fc1578287015190505b614fcb8582614f4d565b865550615033565b601f198416614fe186614dc7565b60005b8281101561500957848901518255600182019150602085019450602081019050614fe4565b868310156150265784890151615022601f891682614f2f565b8355505b6001600288020188555050505b505050505050565b600060608201905081810360008301526150558186613c63565b905081810360208301526150698185613c63565b9050818103604083015261507d8184613c63565b9050949350505050565b7f566f74657220616c726561647920726567697374657265640000000000000000600082015250565b60006150bd601883613c52565b91506150c882615087565b602082019050919050565b600060208201905081810360008301526150ec816150b0565b9050919050565b7f456c656374696f6e206d75737420626520696e20667574757265000000000000600082015250565b6000615129601a83613c52565b9150615134826150f3565b602082019050919050565b600060208201905081810360008301526151588161511c565b9050919050565b7f466972737420726f756e64206d75737420626520616674657220656c6563746960008201527f6f6e207374617274000000000000000000000000000000000000000000000000602082015250565b60006151bb602883613c52565b91506151c68261515f565b604082019050919050565b600060208201905081810360008301526151ea816151ae565b9050919050565b7f4174206c65617374206f6e652063616e64696461746500000000000000000000600082015250565b6000615227601683613c52565b9150615232826151f1565b602082019050919050565b600060208201905081810360008301526152568161521a565b9050919050565b6000819050919050565b600061528261527d6152788461525d565b614a82565b6137f0565b9050919050565b61529281615267565b82525050565b600081549050919050565b60008190508160005260206000209050919050565b60008160001c9050919050565b6000819050919050565b60006152e26152dd836152b8565b6152c5565b9050919050565b60006152f582546152cf565b9050919050565b6000600182019050919050565b600061531482615298565b61531e8185613e8e565b9350615329836152a3565b8060005b838110156153615761533e826152e9565b6153488882613eaf565b9750615353836152fc565b92505060018101905061532d565b5085935050505092915050565b60006080820190506153836000830187613954565b6153906020830186613954565b61539d6040830185615289565b81810360608301526153af8184615309565b90509594505050505056fea26469706673582212205ee6379b3b5ef981d945abf04b76b526c489f045e3c335f272e9a074e749b81464736f6c634300081c0033",
  "linkReferences": {},
  "deployedLinkReferences": {}
}