{
  "_format": "hh-sol-artifact-1",
  "contractName": "PresidentialElection",
  "sourceName": "contracts/PresidentialElection.sol",
  "abi": [
    {
      "anonymous": false,
      "inputs": [
        {
          "indexed": true,
          "internalType": "address",
          "name": "admin",
          "type": "address"
        }
      ],
      "name": "AdminAdded",
      "type": "event"
    },
    {
      "anonymous": false,
      "inputs": [
        {
          "indexed": true,
          "internalType": "address",
          "name": "admin",
          "type": "address"
        }
      ],
      "name": "AdminRemoved",
      "type": "event"
    },
    {
      "anonymous": false,
      "inputs": [
        {
          "indexed": true,
          "internalType": "uint256",
          "name": "candidateId",
          "type": "uint256"
        },
        {
          "indexed": false,
          "internalType": "string",
          "name": "firstName",
          "type": "string"
        },
        {
          "indexed": false,
          "internalType": "string",
          "name": "lastName",
          "type": "string"
        },
        {
          "indexed": false,
          "internalType": "string",
          "name": "politicalParty",
          "type": "string"
        }
      ],
      "name": "CandidateAdded",
      "type": "event"
    },
    {
      "anonymous": false,
      "inputs": [
        {
          "indexed": true,
          "internalType": "uint256",
          "name": "electionId",
          "type": "uint256"
        },
        {
          "indexed": false,
          "internalType": "uint256",
          "name": "electionStartDate",
          "type": "uint256"
        },
        {
          "indexed": false,
          "internalType": "uint256",
          "name": "firstRoundStartDate",
          "type": "uint256"
        },
        {
          "indexed": false,
          "internalType": "uint256",
          "name": "roundDuration",
          "type": "uint256"
        },
        {
          "indexed": false,
          "internalType": "uint256[]",
          "name": "candidateIds",
          "type": "uint256[]"
        }
      ],
      "name": "ElectionCreated",
      "type": "event"
    },
    {
      "anonymous": false,
      "inputs": [
        {
          "indexed": true,
          "internalType": "address",
          "name": "previousHolder",
          "type": "address"
        },
        {
          "indexed": true,
          "internalType": "address",
          "name": "newHolder",
          "type": "address"
        }
      ],
      "name": "OwnershipTransferred",
      "type": "event"
    },
    {
      "anonymous": false,
      "inputs": [
        {
          "indexed": true,
          "internalType": "uint256",
          "name": "electionId",
          "type": "uint256"
        },
        {
          "indexed": false,
          "internalType": "uint8",
          "name": "round",
          "type": "uint8"
        },
        {
          "indexed": false,
          "internalType": "bool",
          "name": "finished",
          "type": "bool"
        },
        {
          "indexed": false,
          "internalType": "uint256",
          "name": "winnerCandidateId",
          "type": "uint256"
        }
      ],
      "name": "RoundFinalized",
      "type": "event"
    },
    {
      "anonymous": false,
      "inputs": [
        {
          "indexed": true,
          "internalType": "uint256",
          "name": "electionId",
          "type": "uint256"
        },
        {
          "indexed": false,
          "internalType": "uint8",
          "name": "round",
          "type": "uint8"
        },
        {
          "indexed": true,
          "internalType": "uint256",
          "name": "candidateId",
          "type": "uint256"
        },
        {
          "indexed": false,
          "internalType": "address",
          "name": "voter",
          "type": "address"
        },
        {
          "indexed": false,
          "internalType": "uint256",
          "name": "timestamp",
          "type": "uint256"
        }
      ],
      "name": "VoteCast",
      "type": "event"
    },
    {
      "anonymous": false,
      "inputs": [
        {
          "indexed": true,
          "internalType": "address",
          "name": "voter",
          "type": "address"
        },
        {
          "indexed": false,
          "internalType": "uint256",
          "name": "registrationTime",
          "type": "uint256"
        }
      ],
      "name": "VoterAdded",
      "type": "event"
    },
    {
      "anonymous": false,
      "inputs": [
        {
          "indexed": true,
          "internalType": "address",
          "name": "voter",
          "type": "address"
        }
      ],
      "name": "VoterRemoved",
      "type": "event"
    },
    {
      "inputs": [
        {
          "internalType": "address",
          "name": "_admin",
          "type": "address"
        }
      ],
      "name": "addAdmin",
      "outputs": [],
      "stateMutability": "nonpayable",
      "type": "function"
    },
    {
      "inputs": [
        {
          "internalType": "string",
          "name": "_firstName",
          "type": "string"
        },
        {
          "internalType": "string",
          "name": "_lastName",
          "type": "string"
        },
        {
          "internalType": "string",
          "name": "_politicalParty",
          "type": "string"
        }
      ],
      "name": "addCandidate",
      "outputs": [],
      "stateMutability": "nonpayable",
      "type": "function"
    },
    {
      "inputs": [
        {
          "internalType": "address",
          "name": "_voter",
          "type": "address"
        }
      ],
      "name": "addVoter",
      "outputs": [],
      "stateMutability": "nonpayable",
      "type": "function"
    },
    {
      "inputs": [
        {
          "internalType": "address",
          "name": "",
          "type": "address"
        }
      ],
      "name": "admins",
      "outputs": [
        {
          "internalType": "bool",
          "name": "",
          "type": "bool"
        }
      ],
      "stateMutability": "view",
      "type": "function"
    },
    {
      "inputs": [
        {
          "internalType": "uint256",
          "name": "candidateId",
          "type": "uint256"
        }
      ],
      "name": "candidateExistsById",
      "outputs": [
        {
          "internalType": "bool",
          "name": "",
          "type": "bool"
        }
      ],
      "stateMutability": "view",
      "type": "function"
    },
    {
      "inputs": [
        {
          "internalType": "uint256",
          "name": "",
          "type": "uint256"
        },
        {
          "internalType": "uint256",
          "name": "",
          "type": "uint256"
        }
      ],
      "name": "candidateTotalVotes",
      "outputs": [
        {
          "internalType": "uint256",
          "name": "",
          "type": "uint256"
        }
      ],
      "stateMutability": "view",
      "type": "function"
    },
    {
      "inputs": [
        {
          "internalType": "uint256",
          "name": "",
          "type": "uint256"
        }
      ],
      "name": "candidates",
      "outputs": [
        {
          "internalType": "uint256",
          "name": "id",
          "type": "uint256"
        },
        {
          "internalType": "string",
          "name": "firstName",
          "type": "string"
        },
        {
          "internalType": "string",
          "name": "lastName",
          "type": "string"
        },
        {
          "internalType": "string",
          "name": "politicalParty",
          "type": "string"
        }
      ],
      "stateMutability": "view",
      "type": "function"
    },
    {
      "inputs": [],
      "name": "candidatesCount",
      "outputs": [
        {
          "internalType": "uint256",
          "name": "",
          "type": "uint256"
        }
      ],
      "stateMutability": "view",
      "type": "function"
    },
    {
      "inputs": [
        {
          "internalType": "uint256",
          "name": "electionId",
          "type": "uint256"
        },
        {
          "internalType": "uint256",
          "name": "candidateId",
          "type": "uint256"
        }
      ],
      "name": "castVote",
      "outputs": [],
      "stateMutability": "nonpayable",
      "type": "function"
    },
    {
      "inputs": [],
      "name": "contractHolder",
      "outputs": [
        {
          "internalType": "address",
          "name": "",
          "type": "address"
        }
      ],
      "stateMutability": "view",
      "type": "function"
    },
    {
      "inputs": [
        {
          "internalType": "uint256",
          "name": "_electionStartDate",
          "type": "uint256"
        },
        {
          "internalType": "uint256",
          "name": "_firstRoundStartDate",
          "type": "uint256"
        },
        {
          "internalType": "uint256[]",
          "name": "_candidateIds",
          "type": "uint256[]"
        }
      ],
      "name": "createElection",
      "outputs": [
        {
          "internalType": "uint256",
          "name": "",
          "type": "uint256"
        }
      ],
      "stateMutability": "nonpayable",
      "type": "function"
    },
    {
      "inputs": [
        {
          "internalType": "uint256",
          "name": "",
          "type": "uint256"
        },
        {
          "internalType": "uint8",
          "name": "",
          "type": "uint8"
        }
      ],
      "name": "electionRounds",
      "outputs": [
        {
          "internalType": "uint8",
          "name": "roundNumber",
          "type": "uint8"
        },
        {
          "internalType": "uint256",
          "name": "startDate",
          "type": "uint256"
        },
        {
          "internalType": "uint256",
          "name": "endDate",
          "type": "uint256"
        },
        {
          "internalType": "bool",
          "name": "finalized",
          "type": "bool"
        },
        {
          "internalType": "uint256",
          "name": "totalVotes",
          "type": "uint256"
        },
        {
          "internalType": "uint256",
          "name": "winnerCandidateId",
          "type": "uint256"
        }
      ],
      "stateMutability": "view",
      "type": "function"
    },
    {
      "inputs": [
        {
          "internalType": "uint256",
          "name": "",
          "type": "uint256"
        },
        {
          "internalType": "uint256",
          "name": "",
          "type": "uint256"
        }
      ],
      "name": "electionWinners",
      "outputs": [
        {
          "internalType": "uint256",
          "name": "",
          "type": "uint256"
        }
      ],
      "stateMutability": "view",
      "type": "function"
    },
    {
      "inputs": [
        {
          "internalType": "uint256",
          "name": "",
          "type": "uint256"
        }
      ],
      "name": "elections",
      "outputs": [
        {
          "internalType": "uint256",
          "name": "electionId",
          "type": "uint256"
        },
        {
          "internalType": "uint256",
          "name": "electionStartDate",
          "type": "uint256"
        },
        {
          "internalType": "uint256",
          "name": "firstRoundStartDate",
          "type": "uint256"
        },
        {
          "internalType": "uint256",
          "name": "roundDuration",
          "type": "uint256"
        },
        {
          "internalType": "bool",
          "name": "isActive",
          "type": "bool"
        },
        {
          "internalType": "uint8",
          "name": "currentRound",
          "type": "uint8"
        },
        {
          "internalType": "uint256",
          "name": "winnerCandidateId",
          "type": "uint256"
        }
      ],
      "stateMutability": "view",
      "type": "function"
    },
    {
      "inputs": [],
      "name": "electionsCount",
      "outputs": [
        {
          "internalType": "uint256",
          "name": "",
          "type": "uint256"
        }
      ],
      "stateMutability": "view",
      "type": "function"
    },
    {
      "inputs": [
        {
          "internalType": "uint256",
          "name": "electionId",
          "type": "uint256"
        },
        {
          "internalType": "bool",
          "name": "force",
          "type": "bool"
        }
      ],
      "name": "finalizeRound",
      "outputs": [],
      "stateMutability": "nonpayable",
      "type": "function"
    },
    {
      "inputs": [],
      "name": "getAdmins",
      "outputs": [
        {
          "internalType": "address[]",
          "name": "",
          "type": "address[]"
        }
      ],
      "stateMutability": "view",
      "type": "function"
    },
    {
      "inputs": [],
      "name": "getAllCandidates",
      "outputs": [
        {
          "components": [
            {
              "internalType": "uint256",
              "name": "id",
              "type": "uint256"
            },
            {
              "internalType": "string",
              "name": "firstName",
              "type": "string"
            },
            {
              "internalType": "string",
              "name": "lastName",
              "type": "string"
            },
            {
              "internalType": "string",
              "name": "politicalParty",
              "type": "string"
            }
          ],
          "internalType": "struct CandidatesManager.Candidate[]",
          "name": "",
          "type": "tuple[]"
        }
      ],
      "stateMutability": "view",
      "type": "function"
    },
    {
      "inputs": [],
      "name": "getAllVoters",
      "outputs": [
        {
          "internalType": "address[]",
          "name": "",
          "type": "address[]"
        }
      ],
      "stateMutability": "view",
      "type": "function"
    },
    {
      "inputs": [
        {
          "internalType": "uint256",
          "name": "electionId",
          "type": "uint256"
        },
        {
          "internalType": "uint8",
          "name": "roundNumber",
          "type": "uint8"
        }
      ],
      "name": "getCandidateIdsForRound",
      "outputs": [
        {
          "internalType": "uint256[]",
          "name": "",
          "type": "uint256[]"
        }
      ],
      "stateMutability": "view",
      "type": "function"
    },
    {
      "inputs": [
        {
          "internalType": "uint256",
          "name": "electionId",
          "type": "uint256"
        },
        {
          "internalType": "uint8",
          "name": "round",
          "type": "uint8"
        }
      ],
      "name": "getElectionRoundResults",
      "outputs": [
        {
          "internalType": "uint256",
          "name": "totalVotes",
          "type": "uint256"
        },
        {
          "internalType": "uint256[]",
          "name": "candidateIds",
          "type": "uint256[]"
        },
        {
          "internalType": "uint256[]",
          "name": "votesPerCandidate",
          "type": "uint256[]"
        },
        {
          "internalType": "uint256",
          "name": "startDate",
          "type": "uint256"
        },
        {
          "internalType": "uint256",
          "name": "endDate",
          "type": "uint256"
        }
      ],
      "stateMutability": "view",
      "type": "function"
    },
    {
      "inputs": [
        {
          "internalType": "uint256",
          "name": "_electionId",
          "type": "uint256"
        },
        {
          "internalType": "uint8",
          "name": "_round",
          "type": "uint8"
        }
      ],
      "name": "getRoundResults",
      "outputs": [
        {
          "internalType": "uint256",
          "name": "totalVotes",
          "type": "uint256"
        },
        {
          "internalType": "uint256[]",
          "name": "candidateIds",
          "type": "uint256[]"
        },
        {
          "internalType": "uint256[]",
          "name": "votesPerCandidate",
          "type": "uint256[]"
        },
        {
          "internalType": "uint256",
          "name": "startDate",
          "type": "uint256"
        },
        {
          "internalType": "uint256",
          "name": "endDate",
          "type": "uint256"
        }
      ],
      "stateMutability": "view",
      "type": "function"
    },
    {
      "inputs": [
        {
          "internalType": "uint256",
          "name": "electionId",
          "type": "uint256"
        },
        {
          "internalType": "uint8",
          "name": "roundNumber",
          "type": "uint8"
        }
      ],
      "name": "isRoundActive",
      "outputs": [
        {
          "internalType": "bool",
          "name": "",
          "type": "bool"
        }
      ],
      "stateMutability": "view",
      "type": "function"
    },
    {
      "inputs": [
        {
          "internalType": "address",
          "name": "_admin",
          "type": "address"
        }
      ],
      "name": "removeAdmin",
      "outputs": [],
      "stateMutability": "nonpayable",
      "type": "function"
    },
    {
      "inputs": [
        {
          "internalType": "address",
          "name": "_voter",
          "type": "address"
        }
      ],
      "name": "removeVoter",
      "outputs": [],
      "stateMutability": "nonpayable",
      "type": "function"
    },
    {
      "inputs": [
        {
          "internalType": "uint256",
          "name": "",
          "type": "uint256"
        },
        {
          "internalType": "uint8",
          "name": "",
          "type": "uint8"
        },
        {
          "internalType": "uint256",
          "name": "",
          "type": "uint256"
        }
      ],
      "name": "roundCandidateVotes",
      "outputs": [
        {
          "internalType": "uint256",
          "name": "",
          "type": "uint256"
        }
      ],
      "stateMutability": "view",
      "type": "function"
    },
    {
      "inputs": [
        {
          "internalType": "uint256",
          "name": "",
          "type": "uint256"
        },
        {
          "internalType": "uint8",
          "name": "",
          "type": "uint8"
        },
        {
          "internalType": "address",
          "name": "",
          "type": "address"
        }
      ],
      "name": "roundHasVoted",
      "outputs": [
        {
          "internalType": "bool",
          "name": "",
          "type": "bool"
        }
      ],
      "stateMutability": "view",
      "type": "function"
    },
    {
      "inputs": [
        {
          "internalType": "address",
          "name": "_newHolder",
          "type": "address"
        }
      ],
      "name": "transferOwnership",
      "outputs": [],
      "stateMutability": "nonpayable",
      "type": "function"
    },
    {
      "inputs": [
        {
          "internalType": "uint256",
          "name": "",
          "type": "uint256"
        }
      ],
      "name": "voterList",
      "outputs": [
        {
          "internalType": "address",
          "name": "",
          "type": "address"
        }
      ],
      "stateMutability": "view",
      "type": "function"
    },
    {
      "inputs": [
        {
          "internalType": "address",
          "name": "",
          "type": "address"
        }
      ],
      "name": "voters",
      "outputs": [
        {
          "internalType": "bool",
          "name": "isRegistered",
          "type": "bool"
        },
        {
          "internalType": "uint256",
          "name": "registrationTime",
          "type": "uint256"
        }
      ],
      "stateMutability": "view",
      "type": "function"
    },
    {
      "inputs": [
        {
          "internalType": "uint256",
          "name": "",
          "type": "uint256"
        },
        {
          "internalType": "uint8",
          "name": "",
          "type": "uint8"
        },
        {
          "internalType": "uint256",
          "name": "",
          "type": "uint256"
        }
      ],
      "name": "votersByRound",
      "outputs": [
        {
          "internalType": "address",
          "name": "",
          "type": "address"
        }
      ],
      "stateMutability": "view",
      "type": "function"
    },
    {
      "inputs": [
        {
          "internalType": "uint256",
          "name": "",
          "type": "uint256"
        },
        {
          "internalType": "uint8",
          "name": "",
          "type": "uint8"
        },
        {
          "internalType": "address",
          "name": "",
          "type": "address"
        }
      ],
      "name": "votes",
      "outputs": [
        {
          "internalType": "uint256",
          "name": "candidateId",
          "type": "uint256"
        },
        {
          "internalType": "uint256",
          "name": "timestamp",
          "type": "uint256"
        }
      ],
      "stateMutability": "view",
      "type": "function"
    }
  ],
  "bytecode": "0x608060405234801561001057600080fd5b5033600d60006101000a81548173ffffffffffffffffffffffffffffffffffffffff021916908373ffffffffffffffffffffffffffffffffffffffff1602179055506001600e60003373ffffffffffffffffffffffffffffffffffffffff1673ffffffffffffffffffffffffffffffffffffffff16815260200190815260200160002060006101000a81548160ff021916908315150217905550600f339080600181540180825580915050600190039060005260206000200160009091909190916101000a81548173ffffffffffffffffffffffffffffffffffffffff021916908373ffffffffffffffffffffffffffffffffffffffff1602179055503373ffffffffffffffffffffffffffffffffffffffff167f44d6d25963f097ad14f29f06854a01f575648a1ef82f30e562ccd3889717e33960405160405180910390a26040518060800160405280600081526020016040518060400160405280600481526020017f566f74650000000000000000000000000000000000000000000000000000000081525081526020016040518060400160405280600581526020017f426c616e6300000000000000000000000000000000000000000000000000000081525081526020016040518060400160405280600581526020017f417563756e0000000000000000000000000000000000000000000000000000008152508152506002600080815260200190815260200160002060008201518160000155602082015181600101908161024391906104c8565b50604082015181600201908161025991906104c8565b50606082015181600301908161026f91906104c8565b5090505061059a565b600081519050919050565b7f4e487b7100000000000000000000000000000000000000000000000000000000600052604160045260246000fd5b7f4e487b7100000000000000000000000000000000000000000000000000000000600052602260045260246000fd5b600060028204905060018216806102f957607f821691505b60208210810361030c5761030b6102b2565b5b50919050565b60008190508160005260206000209050919050565b60006020601f8301049050919050565b600082821b905092915050565b6000600883026103747fffffffffffffffffffffffffffffffffffffffffffffffffffffffffffffffff82610337565b61037e8683610337565b95508019841693508086168417925050509392505050565b6000819050919050565b6000819050919050565b60006103c56103c06103bb84610396565b6103a0565b610396565b9050919050565b6000819050919050565b6103df836103aa565b6103f36103eb826103cc565b848454610344565b825550505050565b600090565b6104086103fb565b6104138184846103d6565b505050565b5b818110156104375761042c600082610400565b600181019050610419565b5050565b601f82111561047c5761044d81610312565b61045684610327565b81016020851015610465578190505b61047961047185610327565b830182610418565b50505b505050565b600082821c905092915050565b600061049f60001984600802610481565b1980831691505092915050565b60006104b8838361048e565b9150826002028217905092915050565b6104d182610278565b67ffffffffffffffff8111156104ea576104e9610283565b5b6104f482546102e1565b6104ff82828561043b565b600060209050601f8311600181146105325760008415610520578287015190505b61052a85826104ac565b865550610592565b601f19841661054086610312565b60005b8281101561056857848901518255600182019150602085019450602081019050610543565b868310156105855784890151610581601f89168261048e565b8355505b6001600288020188555050505b505050505050565b615039806105a96000396000f3fe608060405234801561001057600080fd5b50600436106101ef5760003560e01c80637bf39e121161010f578063ab95a7dd116100a2578063e684cbf911610071578063e684cbf914610668578063f013456614610698578063f2fde38b146106c8578063f4ab9adf146106e4576101ef565b8063ab95a7dd146105bb578063ad71f8dc146105eb578063b04e523e14610607578063caf1475d14610637576101ef565b80639ed3e95e116100de5780639ed3e95e14610503578063a298cbc114610537578063a3ec138d14610555578063aa82ae7914610586576101ef565b80637bf39e1214610469578063837ec15f1461049957806386c1ff68146104c95780639a74c695146104e5576101ef565b8063429b62e5116101875780635e6fef01116101565780635e6fef01146103b35780636546d5fd146103e957806370480275146104195780637351f0f214610435576101ef565b8063429b62e51461030757806350e2e8af14610337578063545458c81461036757806355af478814610397576101ef565b80632e6997fe116101c35780632e6997fe1461027a57806331ae450b146102985780633477ee2e146102b657806335bbe70e146102e9576101ef565b80623eee01146101f45780631785f53c146102245780632c0a3f89146102405780632d35a8a21461025c575b600080fd5b61020e600480360381019061020991906134ee565b610700565b60405161021b9190613536565b60405180910390f35b61023e600480360381019061023991906135af565b61071a565b005b61025a600480360381019061025591906135dc565b610a5b565b005b610264610fb8565b604051610271919061362b565b60405180910390f35b610282610fbe565b60405161028f9190613818565b60405180910390f35b6102a0611249565b6040516102ad91906138f8565b60405180910390f35b6102d060048036038101906102cb91906134ee565b6112d7565b6040516102e09493929190613964565b60405180910390f35b6102f161149f565b6040516102fe91906138f8565b60405180910390f35b610321600480360381019061031c91906135af565b61152d565b60405161032e9190613536565b60405180910390f35b610351600480360381019061034c91906134ee565b61154d565b60405161035e91906139cd565b60405180910390f35b610381600480360381019061037c91906135dc565b61158c565b60405161038e919061362b565b60405180910390f35b6103b160048036038101906103ac9190613a14565b6115b1565b005b6103cd60048036038101906103c891906134ee565b611a56565b6040516103e09796959493929190613a70565b60405180910390f35b61040360048036038101906103fe9190613b0b565b611ab2565b6040516104109190613bfa565b60405180910390f35b610433600480360381019061042e91906135af565b611b38565b005b61044f600480360381019061044a9190613b0b565b611dc5565b604051610460959493929190613c1c565b60405180910390f35b610483600480360381019061047e9190613c7d565b611deb565b6040516104909190613536565b60405180910390f35b6104b360048036038101906104ae9190613b0b565b611e27565b6040516104c09190613536565b60405180910390f35b6104e360048036038101906104de91906135af565b611e77565b005b6104ed6121bd565b6040516104fa919061362b565b60405180910390f35b61051d60048036038101906105189190613b0b565b6121c3565b60405161052e959493929190613c1c565b60405180910390f35b61053f6123a1565b60405161054c91906139cd565b60405180910390f35b61056f600480360381019061056a91906135af565b6123c7565b60405161057d929190613cd0565b60405180910390f35b6105a0600480360381019061059b9190613b0b565b6123f8565b6040516105b296959493929190613cf9565b60405180910390f35b6105d560048036038101906105d09190613d5a565b61245b565b6040516105e291906139cd565b60405180910390f35b61060560048036038101906106009190613ee2565b6124b6565b005b610621600480360381019061061c91906135dc565b6126df565b60405161062e919061362b565b60405180910390f35b610651600480360381019061064c9190613c7d565b612710565b60405161065f929190613f89565b60405180910390f35b610682600480360381019061067d9190613d5a565b61274e565b60405161068f919061362b565b60405180910390f35b6106b260048036038101906106ad9190614012565b612780565b6040516106bf919061362b565b60405180910390f35b6106e260048036038101906106dd91906135af565b612824565b005b6106fe60048036038101906106f991906135af565b6129e3565b005b6000808211801561071357506004548211155b9050919050565b600d60009054906101000a900473ffffffffffffffffffffffffffffffffffffffff1673ffffffffffffffffffffffffffffffffffffffff163373ffffffffffffffffffffffffffffffffffffffff16146107aa576040517f08c379a00000000000000000000000000000000000000000000000000000000081526004016107a1906140d2565b60405180910390fd5b600e60008273ffffffffffffffffffffffffffffffffffffffff1673ffffffffffffffffffffffffffffffffffffffff16815260200190815260200160002060009054906101000a900460ff16610836576040517f08c379a000000000000000000000000000000000000000000000000000000000815260040161082d9061413e565b60405180910390fd5b6000600e60008373ffffffffffffffffffffffffffffffffffffffff1673ffffffffffffffffffffffffffffffffffffffff16815260200190815260200160002060006101000a81548160ff02191690831515021790555060005b600f80549050811015610a14578173ffffffffffffffffffffffffffffffffffffffff16600f82815481106108c9576108c861415e565b5b9060005260206000200160009054906101000a900473ffffffffffffffffffffffffffffffffffffffff1673ffffffffffffffffffffffffffffffffffffffff1603610a0757600f6001600f8054905061092391906141bc565b815481106109345761093361415e565b5b9060005260206000200160009054906101000a900473ffffffffffffffffffffffffffffffffffffffff16600f82815481106109735761097261415e565b5b9060005260206000200160006101000a81548173ffffffffffffffffffffffffffffffffffffffff021916908373ffffffffffffffffffffffffffffffffffffffff160217905550600f8054806109cd576109cc6141f0565b5b6001900381819060005260206000200160006101000a81549073ffffffffffffffffffffffffffffffffffffffff02191690559055610a14565b8080600101915050610891565b508073ffffffffffffffffffffffffffffffffffffffff167fa3b62bc36326052d97ea62d63c3d60308ed4c3ea8ac079dd8499f1e9c4f80c0f60405160405180910390a250565b600160003373ffffffffffffffffffffffffffffffffffffffff1673ffffffffffffffffffffffffffffffffffffffff16815260200190815260200160002060000160009054906101000a900460ff16610aea576040517f08c379a0000000000000000000000000000000000000000000000000000000008152600401610ae19061426b565b60405180910390fd5b60006006600084815260200190815260200160002090508060050160009054906101000a900460ff16610b52576040517f08c379a0000000000000000000000000000000000000000000000000000000008152600401610b49906142d7565b60405180910390fd5b60008160050160019054906101000a900460ff16905060006007600086815260200190815260200160002060008360ff1660ff16815260200190815260200160002090508060010154421015610bdd576040517f08c379a0000000000000000000000000000000000000000000000000000000008152600401610bd490614343565b60405180910390fd5b8060020154421115610c24576040517f08c379a0000000000000000000000000000000000000000000000000000000008152600401610c1b906143af565b60405180910390fd5b600a600086815260200190815260200160002060008360ff1660ff16815260200190815260200160002060003373ffffffffffffffffffffffffffffffffffffffff1673ffffffffffffffffffffffffffffffffffffffff16815260200190815260200160002060009054906101000a900460ff1615610cd9576040517f08c379a0000000000000000000000000000000000000000000000000000000008152600401610cd09061441b565b60405180910390fd5b6000805b8260060180549050811015610d295785836006018281548110610d0357610d0261415e565b5b906000526020600020015403610d1c5760019150610d29565b8080600101915050610cdd565b5080610d6a576040517f08c379a0000000000000000000000000000000000000000000000000000000008152600401610d6190614487565b60405180910390fd5b6001600a600088815260200190815260200160002060008560ff1660ff16815260200190815260200160002060003373ffffffffffffffffffffffffffffffffffffffff1673ffffffffffffffffffffffffffffffffffffffff16815260200190815260200160002060006101000a81548160ff0219169083151502179055506008600087815260200190815260200160002060008460ff1660ff16815260200190815260200160002060008681526020019081526020016000206000815480929190610e36906144a7565b9190505550816004016000815480929190610e50906144a7565b91905055506040518060400160405280868152602001428152506010600088815260200190815260200160002060008560ff1660ff16815260200190815260200160002060003373ffffffffffffffffffffffffffffffffffffffff1673ffffffffffffffffffffffffffffffffffffffff16815260200190815260200160002060008201518160000155602082015181600101559050506009600087815260200190815260200160002060008460ff1660ff168152602001908152602001600020339080600181540180825580915050600190039060005260206000200160009091909190916101000a81548173ffffffffffffffffffffffffffffffffffffffff021916908373ffffffffffffffffffffffffffffffffffffffff16021790555084867ff1f3396e31d1dbd068c4e6169959218fe5ae731d73149dd82edc33beca09f22a853342604051610fa8939291906144ef565b60405180910390a3505050505050565b60045481565b606060006001600454610fd19190614526565b67ffffffffffffffff811115610fea57610fe9613db7565b5b60405190808252806020026020018201604052801561102357816020015b611010613391565b8152602001906001900390816110085790505b50905060005b600454811161124157600260008281526020019081526020016000206040518060800160405290816000820154815260200160018201805461106a90614589565b80601f016020809104026020016040519081016040528092919081815260200182805461109690614589565b80156110e35780601f106110b8576101008083540402835291602001916110e3565b820191906000526020600020905b8154815290600101906020018083116110c657829003601f168201915b505050505081526020016002820180546110fc90614589565b80601f016020809104026020016040519081016040528092919081815260200182805461112890614589565b80156111755780601f1061114a57610100808354040283529160200191611175565b820191906000526020600020905b81548152906001019060200180831161115857829003601f168201915b5050505050815260200160038201805461118e90614589565b80601f01602080910402602001604051908101604052809291908181526020018280546111ba90614589565b80156112075780601f106111dc57610100808354040283529160200191611207565b820191906000526020600020905b8154815290600101906020018083116111ea57829003601f168201915b5050505050815250508282815181106112235761122261415e565b5b60200260200101819052508080611239906144a7565b915050611029565b508091505090565b6060600f8054806020026020016040519081016040528092919081815260200182805480156112cd57602002820191906000526020600020905b8160009054906101000a900473ffffffffffffffffffffffffffffffffffffffff1673ffffffffffffffffffffffffffffffffffffffff1681526020019060010190808311611283575b5050505050905090565b600260205280600052604060002060009150905080600001549080600101805461130090614589565b80601f016020809104026020016040519081016040528092919081815260200182805461132c90614589565b80156113795780601f1061134e57610100808354040283529160200191611379565b820191906000526020600020905b81548152906001019060200180831161135c57829003601f168201915b50505050509080600201805461138e90614589565b80601f01602080910402602001604051908101604052809291908181526020018280546113ba90614589565b80156114075780601f106113dc57610100808354040283529160200191611407565b820191906000526020600020905b8154815290600101906020018083116113ea57829003601f168201915b50505050509080600301805461141c90614589565b80601f016020809104026020016040519081016040528092919081815260200182805461144890614589565b80156114955780601f1061146a57610100808354040283529160200191611495565b820191906000526020600020905b81548152906001019060200180831161147857829003601f168201915b5050505050905084565b6060600080548060200260200160405190810160405280929190818152602001828054801561152357602002820191906000526020600020905b8160009054906101000a900473ffffffffffffffffffffffffffffffffffffffff1673ffffffffffffffffffffffffffffffffffffffff16815260200190600101908083116114d9575b5050505050905090565b600e6020528060005260406000206000915054906101000a900460ff1681565b6000818154811061155d57600080fd5b906000526020600020016000915054906101000a900473ffffffffffffffffffffffffffffffffffffffff1681565b600c602052816000526040600020602052806000526040600020600091509150505481565b600060066000848152602001908152602001600020905060008160050160019054906101000a900460ff16905060006007600086815260200190815260200160002060008360ff1660ff1681526020019081526020016000209050836116585780600201544211611657576040517f08c379a000000000000000000000000000000000000000000000000000000000815260040161164e90614606565b60405180910390fd5b5b8060030160009054906101000a900460ff16156116aa576040517f08c379a00000000000000000000000000000000000000000000000000000000081526004016116a190614672565b60405180910390fd5b60006116b68684612c37565b905060018360ff1614806116cd575060028360ff16145b156119ab57606060018260600151111561179057816060015167ffffffffffffffff8111156116ff576116fe613db7565b5b60405190808252806020026020018201604052801561172d5781602001602082028036833780820191505090505b50905060005b826060015181101561178a57826080015181815181106117565761175561415e565b5b60200260200101518282815181106117715761177061415e565b5b6020026020010181815250508080600101915050611733565b506117fa565b6117f7878584604001518560200151876006018054806020026020016040519081016040528092919081815260200182805480156117ed57602002820191906000526020600020905b8154815260200190600101908083116117d9575b5050505050612e66565b90505b60006001856118099190614692565b9050808660050160016101000a81548160ff021916908360ff1602179055506000600760008a815260200190815260200160002060008360ff1660ff1681526020019081526020016000209050818160000160006101000a81548160ff021916908360ff16021790555042816001018190555086600301544261188c9190614526565b8160020181905550828160060190805190602001906118ac9291906133b9565b506000600184516118bd9190614526565b67ffffffffffffffff8111156118d6576118d5613db7565b5b6040519080825280602002602001820160405280156119045781602001602082028036833780820191505090505b50905060008160008151811061191d5761191c61415e565b5b60200260200101818152505060005b8451811015611988578481815181106119485761194761415e565b5b60200260200101518260018361195e9190614526565b8151811061196f5761196e61415e565b5b602002602001018181525050808060010191505061192c565b50808260060190805190602001906119a19291906133b9565b5050505050611a31565b60038360ff1603611a30576000816040015190508085600601819055508160800151600b600089815260200190815260200160002090805190602001906119f39291906133b9565b5060018360030160006101000a81548160ff02191690831515021790555060008560050160006101000a81548160ff021916908315150217905550505b5b60018260030160006101000a81548160ff021916908315150217905550505050505050565b60066020528060005260406000206000915090508060000154908060010154908060020154908060030154908060050160009054906101000a900460ff16908060050160019054906101000a900460ff16908060060154905087565b60606007600084815260200190815260200160002060008360ff1660ff168152602001908152602001600020600601805480602002602001604051908101604052809291908181526020018280548015611b2b57602002820191906000526020600020905b815481526020019060010190808311611b17575b5050505050905092915050565b600d60009054906101000a900473ffffffffffffffffffffffffffffffffffffffff1673ffffffffffffffffffffffffffffffffffffffff163373ffffffffffffffffffffffffffffffffffffffff1614611bc8576040517f08c379a0000000000000000000000000000000000000000000000000000000008152600401611bbf906140d2565b60405180910390fd5b600073ffffffffffffffffffffffffffffffffffffffff168173ffffffffffffffffffffffffffffffffffffffff1603611c37576040517f08c379a0000000000000000000000000000000000000000000000000000000008152600401611c2e90614713565b60405180910390fd5b600e60008273ffffffffffffffffffffffffffffffffffffffff1673ffffffffffffffffffffffffffffffffffffffff16815260200190815260200160002060009054906101000a900460ff1615611cc4576040517f08c379a0000000000000000000000000000000000000000000000000000000008152600401611cbb9061477f565b60405180910390fd5b6001600e60008373ffffffffffffffffffffffffffffffffffffffff1673ffffffffffffffffffffffffffffffffffffffff16815260200190815260200160002060006101000a81548160ff021916908315150217905550600f819080600181540180825580915050600190039060005260206000200160009091909190916101000a81548173ffffffffffffffffffffffffffffffffffffffff021916908373ffffffffffffffffffffffffffffffffffffffff1602179055508073ffffffffffffffffffffffffffffffffffffffff167f44d6d25963f097ad14f29f06854a01f575648a1ef82f30e562ccd3889717e33960405160405180910390a250565b6000606080600080611dd787876121c3565b945094509450945094509295509295909350565b600a602052826000526040600020602052816000526040600020602052806000526040600020600092509250509054906101000a900460ff1681565b6000806007600085815260200190815260200160002060008460ff1660ff168152602001908152602001600020905080600101544210158015611e6e575080600201544211155b91505092915050565b600e60003373ffffffffffffffffffffffffffffffffffffffff1673ffffffffffffffffffffffffffffffffffffffff16815260200190815260200160002060009054906101000a900460ff16611f03576040517f08c379a0000000000000000000000000000000000000000000000000000000008152600401611efa906147eb565b60405180910390fd5b600160008273ffffffffffffffffffffffffffffffffffffffff1673ffffffffffffffffffffffffffffffffffffffff16815260200190815260200160002060000160009054906101000a900460ff16611f92576040517f08c379a0000000000000000000000000000000000000000000000000000000008152600401611f8990614857565b60405180910390fd5b600160008273ffffffffffffffffffffffffffffffffffffffff1673ffffffffffffffffffffffffffffffffffffffff168152602001908152602001600020600080820160006101000a81549060ff02191690556001820160009055505060005b600080549050811015612176578173ffffffffffffffffffffffffffffffffffffffff166000828154811061202b5761202a61415e565b5b9060005260206000200160009054906101000a900473ffffffffffffffffffffffffffffffffffffffff1673ffffffffffffffffffffffffffffffffffffffff1603612169576000600160008054905061208591906141bc565b815481106120965761209561415e565b5b9060005260206000200160009054906101000a900473ffffffffffffffffffffffffffffffffffffffff16600082815481106120d5576120d461415e565b5b9060005260206000200160006101000a81548173ffffffffffffffffffffffffffffffffffffffff021916908373ffffffffffffffffffffffffffffffffffffffff160217905550600080548061212f5761212e6141f0565b5b6001900381819060005260206000200160006101000a81549073ffffffffffffffffffffffffffffffffffffffff02191690559055612176565b8080600101915050611ff3565b508073ffffffffffffffffffffffffffffffffffffffff167fa14a79af012d1756818f9bd59ccfc9ad185a71df86b9392d9059d9e6faf6d64460405160405180910390a250565b60055481565b600060608060008060006007600089815260200190815260200160002060008860ff1660ff16815260200190815260200160002090508060020154421161223f576040517f08c379a0000000000000000000000000000000000000000000000000000000008152600401612236906148c3565b60405180910390fd5b806004015495508060010154925080600201549150600660008981526020019081526020016000206004018054806020026020016040519081016040528092919081815260200182805480156122b457602002820191906000526020600020905b8154815260200190600101908083116122a0575b50505050509450845167ffffffffffffffff8111156122d6576122d5613db7565b5b6040519080825280602002602001820160405280156123045781602001602082028036833780820191505090505b50935060005b855181101561239557600860008a815260200190815260200160002060008960ff1660ff16815260200190815260200160002060008783815181106123525761235161415e565b5b602002602001015181526020019081526020016000205485828151811061237c5761237b61415e565b5b602002602001018181525050808060010191505061230a565b50509295509295909350565b600d60009054906101000a900473ffffffffffffffffffffffffffffffffffffffff1681565b60016020528060005260406000206000915090508060000160009054906101000a900460ff16908060010154905082565b6007602052816000526040600020602052806000526040600020600091509150508060000160009054906101000a900460ff16908060010154908060020154908060030160009054906101000a900460ff16908060040154908060050154905086565b6009602052826000526040600020602052816000526040600020818154811061248357600080fd5b90600052602060002001600092509250509054906101000a900473ffffffffffffffffffffffffffffffffffffffff1681565b600e60003373ffffffffffffffffffffffffffffffffffffffff1673ffffffffffffffffffffffffffffffffffffffff16815260200190815260200160002060009054906101000a900460ff16612542576040517f08c379a0000000000000000000000000000000000000000000000000000000008152600401612539906147eb565b60405180910390fd5b6000838360405160200161255792919061496b565b6040516020818303038152906040528051906020012090506003600082815260200190815260200160002060009054906101000a900460ff16156125d0576040517f08c379a00000000000000000000000000000000000000000000000000000000081526004016125c7906149e6565b60405180910390fd5b600460008154809291906125e3906144a7565b9190505550604051806080016040528060045481526020018581526020018481526020018381525060026000600454815260200190815260200160002060008201518160000155602082015181600101908161263f9190614bb2565b5060408201518160020190816126559190614bb2565b50606082015181600301908161266b9190614bb2565b5090505060016003600083815260200190815260200160002060006101000a81548160ff0219169083151502179055506004547f52b689af7ae3bd15a5156582545571237b58abd804c1456c3269d1b1ee93f6fc8585856040516126d193929190614c84565b60405180910390a250505050565b600b60205281600052604060002081815481106126fb57600080fd5b90600052602060002001600091509150505481565b601060205282600052604060002060205281600052604060002060205280600052604060002060009250925050508060000154908060010154905082565b600860205282600052604060002060205281600052604060002060205280600052604060002060009250925050505481565b6000600e60003373ffffffffffffffffffffffffffffffffffffffff1673ffffffffffffffffffffffffffffffffffffffff16815260200190815260200160002060009054906101000a900460ff1661280e576040517f08c379a0000000000000000000000000000000000000000000000000000000008152600401612805906147eb565b60405180910390fd5b61281a85858585612fbb565b9050949350505050565b600d60009054906101000a900473ffffffffffffffffffffffffffffffffffffffff1673ffffffffffffffffffffffffffffffffffffffff163373ffffffffffffffffffffffffffffffffffffffff16146128b4576040517f08c379a00000000000000000000000000000000000000000000000000000000081526004016128ab906140d2565b60405180910390fd5b600073ffffffffffffffffffffffffffffffffffffffff168173ffffffffffffffffffffffffffffffffffffffff1603612923576040517f08c379a000000000000000000000000000000000000000000000000000000000815260040161291a90614713565b60405180910390fd5b8073ffffffffffffffffffffffffffffffffffffffff16600d60009054906101000a900473ffffffffffffffffffffffffffffffffffffffff1673ffffffffffffffffffffffffffffffffffffffff167f8be0079c531659141344cd1fd0a4f28419497f9722a3daafe3b4186f6b6457e060405160405180910390a380600d60006101000a81548173ffffffffffffffffffffffffffffffffffffffff021916908373ffffffffffffffffffffffffffffffffffffffff16021790555050565b600e60003373ffffffffffffffffffffffffffffffffffffffff1673ffffffffffffffffffffffffffffffffffffffff16815260200190815260200160002060009054906101000a900460ff16612a6f576040517f08c379a0000000000000000000000000000000000000000000000000000000008152600401612a66906147eb565b60405180910390fd5b600160008273ffffffffffffffffffffffffffffffffffffffff1673ffffffffffffffffffffffffffffffffffffffff16815260200190815260200160002060000160009054906101000a900460ff1615612aff576040517f08c379a0000000000000000000000000000000000000000000000000000000008152600401612af690614d1c565b60405180910390fd5b604051806040016040528060011515815260200142815250600160008373ffffffffffffffffffffffffffffffffffffffff1673ffffffffffffffffffffffffffffffffffffffff16815260200190815260200160002060008201518160000160006101000a81548160ff021916908315150217905550602082015181600101559050506000819080600181540180825580915050600190039060005260206000200160009091909190916101000a81548173ffffffffffffffffffffffffffffffffffffffff021916908373ffffffffffffffffffffffffffffffffffffffff1602179055508073ffffffffffffffffffffffffffffffffffffffff167f56aa1768b52ddcdda65c5561181844717c2eed4bb3c848376d4420860da04dae42604051612c2c919061362b565b60405180910390a250565b612c3f613406565b60006007600085815260200190815260200160002060008460ff1660ff16815260200190815260200160002090506000816006018054905090508067ffffffffffffffff811115612c9357612c92613db7565b5b604051908082528060200260200182016040528015612cc15781602001602082028036833780820191505090505b50836080018190525060005b81811015612e5d576000836006018281548110612ced57612cec61415e565b5b9060005260206000200154905060008103612d085750612e50565b60006008600089815260200190815260200160002060008860ff1660ff16815260200190815260200160002060008381526020019081526020016000205490508560000151811115612dab5785600001518660200181815250508086600001818152505081866040018181525050818660800151600081518110612d8f57612d8e61415e565b5b6020026020010181815250506001866060018181525050612e12565b85600001518103612df957818660800151876060015181518110612dd257612dd161415e565b5b602002602001018181525050856060018051809190612df0906144a7565b81525050612e11565b8560200151811115612e1057808660200181815250505b5b5b80600c60008a815260200190815260200160002060008481526020019081526020016000206000828254612e469190614526565b9250508190555050505b8080600101915050612ccd565b50505092915050565b60606000612e76878786866132ea565b9050806001612e859190614526565b67ffffffffffffffff811115612e9e57612e9d613db7565b5b604051908082528060200260200182016040528015612ecc5781602001602082028036833780820191505090505b5091508482600081518110612ee457612ee361415e565b5b60200260200101818152505060006001905060005b8451811015612faf576000858281518110612f1757612f1661415e565b5b6020026020010151905060008103612f2f5750612fa2565b86600860008c815260200190815260200160002060008b60ff1660ff16815260200190815260200160002060008381526020019081526020016000205403612fa05780858481518110612f8557612f8461415e565b5b6020026020010181815250508280612f9c906144a7565b9350505b505b8080600101915050612ef9565b50505095945050505050565b6000428511612fff576040517f08c379a0000000000000000000000000000000000000000000000000000000008152600401612ff690614d88565b60405180910390fd5b84841015613042576040517f08c379a000000000000000000000000000000000000000000000000000000000815260040161303990614e1a565b60405180910390fd5b60008383905011613088576040517f08c379a000000000000000000000000000000000000000000000000000000000815260040161307f90614e86565b60405180910390fd5b6005600081548092919061309b906144a7565b91905055506005549050600060066000838152602001908152602001600020905081816000018190555085816001018190555084816002018190555062015180816003018190555060018160050160006101000a81548160ff02191690831515021790555060018160050160016101000a81548160ff021916908360ff16021790555060018484905061312e9190614526565b67ffffffffffffffff81111561314757613146613db7565b5b6040519080825280602002602001820160405280156131755781602001602082028036833780820191505090505b5081600401908051906020019061318d9291906133b9565b506000816004016000815481106131a7576131a661415e565b5b906000526020600020018190555060005b8484905081101561321a578484828181106131d6576131d561415e565b5b90506020020135826004016001836131ee9190614526565b815481106131ff576131fe61415e565b5b906000526020600020018190555080806001019150506131b8565b506000600760008481526020019081526020016000206000600160ff168152602001908152602001600020905060018160000160006101000a81548160ff021916908360ff160217905550858160010181905550620151808661327d9190614526565b8160020181905550816004018160060190805461329b929190613435565b50827f94d2ca1585096a82008b4e4c47222139e365b7386c639acb5562a4f8a959f4c1888862015180866004016040516132d89493929190614fb7565b60405180910390a25050949350505050565b600080600090505b82518110156133885760008382815181106133105761330f61415e565b5b6020026020010151905060008103613328575061337b565b846008600089815260200190815260200160002060008860ff1660ff16815260200190815260200160002060008381526020019081526020016000205403613379578280613375906144a7565b9350505b505b80806001019150506132f2565b50949350505050565b6040518060800160405280600081526020016060815260200160608152602001606081525090565b8280548282559060005260206000209081019282156133f5579160200282015b828111156133f45782518255916020019190600101906133d9565b5b5090506134029190613487565b5090565b6040518060a0016040528060008152602001600081526020016000815260200160008152602001606081525090565b8280548282559060005260206000209081019282156134765760005260206000209182015b8281111561347557825482559160010191906001019061345a565b5b5090506134839190613487565b5090565b5b808211156134a0576000816000905550600101613488565b5090565b6000604051905090565b600080fd5b600080fd5b6000819050919050565b6134cb816134b8565b81146134d657600080fd5b50565b6000813590506134e8816134c2565b92915050565b600060208284031215613504576135036134ae565b5b6000613512848285016134d9565b91505092915050565b60008115159050919050565b6135308161351b565b82525050565b600060208201905061354b6000830184613527565b92915050565b600073ffffffffffffffffffffffffffffffffffffffff82169050919050565b600061357c82613551565b9050919050565b61358c81613571565b811461359757600080fd5b50565b6000813590506135a981613583565b92915050565b6000602082840312156135c5576135c46134ae565b5b60006135d38482850161359a565b91505092915050565b600080604083850312156135f3576135f26134ae565b5b6000613601858286016134d9565b9250506020613612858286016134d9565b9150509250929050565b613625816134b8565b82525050565b6000602082019050613640600083018461361c565b92915050565b600081519050919050565b600082825260208201905092915050565b6000819050602082019050919050565b61367b816134b8565b82525050565b600081519050919050565b600082825260208201905092915050565b60005b838110156136bb5780820151818401526020810190506136a0565b60008484015250505050565b6000601f19601f8301169050919050565b60006136e382613681565b6136ed818561368c565b93506136fd81856020860161369d565b613706816136c7565b840191505092915050565b60006080830160008301516137296000860182613672565b506020830151848203602086015261374182826136d8565b9150506040830151848203604086015261375b82826136d8565b9150506060830151848203606086015261377582826136d8565b9150508091505092915050565b600061378e8383613711565b905092915050565b6000602082019050919050565b60006137ae82613646565b6137b88185613651565b9350836020820285016137ca85613662565b8060005b8581101561380657848403895281516137e78582613782565b94506137f283613796565b925060208a019950506001810190506137ce565b50829750879550505050505092915050565b6000602082019050818103600083015261383281846137a3565b905092915050565b600081519050919050565b600082825260208201905092915050565b6000819050602082019050919050565b61386f81613571565b82525050565b60006138818383613866565b60208301905092915050565b6000602082019050919050565b60006138a58261383a565b6138af8185613845565b93506138ba83613856565b8060005b838110156138eb5781516138d28882613875565b97506138dd8361388d565b9250506001810190506138be565b5085935050505092915050565b60006020820190508181036000830152613912818461389a565b905092915050565b600082825260208201905092915050565b600061393682613681565b613940818561391a565b935061395081856020860161369d565b613959816136c7565b840191505092915050565b6000608082019050613979600083018761361c565b818103602083015261398b818661392b565b9050818103604083015261399f818561392b565b905081810360608301526139b3818461392b565b905095945050505050565b6139c781613571565b82525050565b60006020820190506139e260008301846139be565b92915050565b6139f18161351b565b81146139fc57600080fd5b50565b600081359050613a0e816139e8565b92915050565b60008060408385031215613a2b57613a2a6134ae565b5b6000613a39858286016134d9565b9250506020613a4a858286016139ff565b9150509250929050565b600060ff82169050919050565b613a6a81613a54565b82525050565b600060e082019050613a85600083018a61361c565b613a92602083018961361c565b613a9f604083018861361c565b613aac606083018761361c565b613ab96080830186613527565b613ac660a0830185613a61565b613ad360c083018461361c565b98975050505050505050565b613ae881613a54565b8114613af357600080fd5b50565b600081359050613b0581613adf565b92915050565b60008060408385031215613b2257613b216134ae565b5b6000613b30858286016134d9565b9250506020613b4185828601613af6565b9150509250929050565b600081519050919050565b600082825260208201905092915050565b6000819050602082019050919050565b6000613b838383613672565b60208301905092915050565b6000602082019050919050565b6000613ba782613b4b565b613bb18185613b56565b9350613bbc83613b67565b8060005b83811015613bed578151613bd48882613b77565b9750613bdf83613b8f565b925050600181019050613bc0565b5085935050505092915050565b60006020820190508181036000830152613c148184613b9c565b905092915050565b600060a082019050613c31600083018861361c565b8181036020830152613c438187613b9c565b90508181036040830152613c578186613b9c565b9050613c66606083018561361c565b613c73608083018461361c565b9695505050505050565b600080600060608486031215613c9657613c956134ae565b5b6000613ca4868287016134d9565b9350506020613cb586828701613af6565b9250506040613cc68682870161359a565b9150509250925092565b6000604082019050613ce56000830185613527565b613cf2602083018461361c565b9392505050565b600060c082019050613d0e6000830189613a61565b613d1b602083018861361c565b613d28604083018761361c565b613d356060830186613527565b613d42608083018561361c565b613d4f60a083018461361c565b979650505050505050565b600080600060608486031215613d7357613d726134ae565b5b6000613d81868287016134d9565b9350506020613d9286828701613af6565b9250506040613da3868287016134d9565b9150509250925092565b600080fd5b600080fd5b7f4e487b7100000000000000000000000000000000000000000000000000000000600052604160045260246000fd5b613def826136c7565b810181811067ffffffffffffffff82111715613e0e57613e0d613db7565b5b80604052505050565b6000613e216134a4565b9050613e2d8282613de6565b919050565b600067ffffffffffffffff821115613e4d57613e4c613db7565b5b613e56826136c7565b9050602081019050919050565b82818337600083830152505050565b6000613e85613e8084613e32565b613e17565b905082815260208101848484011115613ea157613ea0613db2565b5b613eac848285613e63565b509392505050565b600082601f830112613ec957613ec8613dad565b5b8135613ed9848260208601613e72565b91505092915050565b600080600060608486031215613efb57613efa6134ae565b5b600084013567ffffffffffffffff811115613f1957613f186134b3565b5b613f2586828701613eb4565b935050602084013567ffffffffffffffff811115613f4657613f456134b3565b5b613f5286828701613eb4565b925050604084013567ffffffffffffffff811115613f7357613f726134b3565b5b613f7f86828701613eb4565b9150509250925092565b6000604082019050613f9e600083018561361c565b613fab602083018461361c565b9392505050565b600080fd5b600080fd5b60008083601f840112613fd257613fd1613dad565b5b8235905067ffffffffffffffff811115613fef57613fee613fb2565b5b60208301915083602082028301111561400b5761400a613fb7565b5b9250929050565b6000806000806060858703121561402c5761402b6134ae565b5b600061403a878288016134d9565b945050602061404b878288016134d9565b935050604085013567ffffffffffffffff81111561406c5761406b6134b3565b5b61407887828801613fbc565b925092505092959194509250565b7f4e6f7420636f6e747261637420686f6c64657200000000000000000000000000600082015250565b60006140bc60138361391a565b91506140c782614086565b602082019050919050565b600060208201905081810360008301526140eb816140af565b9050919050565b7f4e6f742061646d696e0000000000000000000000000000000000000000000000600082015250565b600061412860098361391a565b9150614133826140f2565b602082019050919050565b600060208201905081810360008301526141578161411b565b9050919050565b7f4e487b7100000000000000000000000000000000000000000000000000000000600052603260045260246000fd5b7f4e487b7100000000000000000000000000000000000000000000000000000000600052601160045260246000fd5b60006141c7826134b8565b91506141d2836134b8565b92508282039050818111156141ea576141e961418d565b5b92915050565b7f4e487b7100000000000000000000000000000000000000000000000000000000600052603160045260246000fd5b7f4e6f742061207265676973746572656420766f74657200000000000000000000600082015250565b600061425560168361391a565b91506142608261421f565b602082019050919050565b6000602082019050818103600083015261428481614248565b9050919050565b7f456c656374696f6e206e6f742061637469766500000000000000000000000000600082015250565b60006142c160138361391a565b91506142cc8261428b565b602082019050919050565b600060208201905081810360008301526142f0816142b4565b9050919050565b7f526f756e64206e6f742073746172746564000000000000000000000000000000600082015250565b600061432d60118361391a565b9150614338826142f7565b602082019050919050565b6000602082019050818103600083015261435c81614320565b9050919050565b7f526f756e6420656e646564000000000000000000000000000000000000000000600082015250565b6000614399600b8361391a565b91506143a482614363565b602082019050919050565b600060208201905081810360008301526143c88161438c565b9050919050565b7f416c726561647920766f74656400000000000000000000000000000000000000600082015250565b6000614405600d8361391a565b9150614410826143cf565b602082019050919050565b60006020820190508181036000830152614434816143f8565b9050919050565b7f496e76616c69642063616e646964617465000000000000000000000000000000600082015250565b600061447160118361391a565b915061447c8261443b565b602082019050919050565b600060208201905081810360008301526144a081614464565b9050919050565b60006144b2826134b8565b91507fffffffffffffffffffffffffffffffffffffffffffffffffffffffffffffffff82036144e4576144e361418d565b5b600182019050919050565b60006060820190506145046000830186613a61565b61451160208301856139be565b61451e604083018461361c565b949350505050565b6000614531826134b8565b915061453c836134b8565b92508282019050808211156145545761455361418d565b5b92915050565b7f4e487b7100000000000000000000000000000000000000000000000000000000600052602260045260246000fd5b600060028204905060018216806145a157607f821691505b6020821081036145b4576145b361455a565b5b50919050565b7f526f756e64206e6f7420656e6465640000000000000000000000000000000000600082015250565b60006145f0600f8361391a565b91506145fb826145ba565b602082019050919050565b6000602082019050818103600083015261461f816145e3565b9050919050565b7f526f756e6420616c72656164792066696e616c697a6564000000000000000000600082015250565b600061465c60178361391a565b915061466782614626565b602082019050919050565b6000602082019050818103600083015261468b8161464f565b9050919050565b600061469d82613a54565b91506146a883613a54565b9250828201905060ff8111156146c1576146c061418d565b5b92915050565b7f496e76616c696420616464726573730000000000000000000000000000000000600082015250565b60006146fd600f8361391a565b9150614708826146c7565b602082019050919050565b6000602082019050818103600083015261472c816146f0565b9050919050565b7f416c72656164792061646d696e00000000000000000000000000000000000000600082015250565b6000614769600d8361391a565b915061477482614733565b602082019050919050565b600060208201905081810360008301526147988161475c565b9050919050565b7f4e6f7420616e2061646d696e0000000000000000000000000000000000000000600082015250565b60006147d5600c8361391a565b91506147e08261479f565b602082019050919050565b60006020820190508181036000830152614804816147c8565b9050919050565b7f566f746572206e6f742072656769737465726564000000000000000000000000600082015250565b600061484160148361391a565b915061484c8261480b565b602082019050919050565b6000602082019050818103600083015261487081614834565b9050919050565b7f526f756e64206e6f74206f766572207965740000000000000000000000000000600082015250565b60006148ad60128361391a565b91506148b882614877565b602082019050919050565b600060208201905081810360008301526148dc816148a0565b9050919050565b600081905092915050565b60006148f982613681565b61490381856148e3565b935061491381856020860161369d565b80840191505092915050565b7f7c00000000000000000000000000000000000000000000000000000000000000600082015250565b60006149556001836148e3565b91506149608261491f565b600182019050919050565b600061497782856148ee565b915061498282614948565b915061498e82846148ee565b91508190509392505050565b7f43616e64696461746520616c7265616479206578697374730000000000000000600082015250565b60006149d060188361391a565b91506149db8261499a565b602082019050919050565b600060208201905081810360008301526149ff816149c3565b9050919050565b60008190508160005260206000209050919050565b60006020601f8301049050919050565b600082821b905092915050565b600060088302614a687fffffffffffffffffffffffffffffffffffffffffffffffffffffffffffffffff82614a2b565b614a728683614a2b565b95508019841693508086168417925050509392505050565b6000819050919050565b6000614aaf614aaa614aa5846134b8565b614a8a565b6134b8565b9050919050565b6000819050919050565b614ac983614a94565b614add614ad582614ab6565b848454614a38565b825550505050565b600090565b614af2614ae5565b614afd818484614ac0565b505050565b5b81811015614b2157614b16600082614aea565b600181019050614b03565b5050565b601f821115614b6657614b3781614a06565b614b4084614a1b565b81016020851015614b4f578190505b614b63614b5b85614a1b565b830182614b02565b50505b505050565b600082821c905092915050565b6000614b8960001984600802614b6b565b1980831691505092915050565b6000614ba28383614b78565b9150826002028217905092915050565b614bbb82613681565b67ffffffffffffffff811115614bd457614bd3613db7565b5b614bde8254614589565b614be9828285614b25565b600060209050601f831160018114614c1c5760008415614c0a578287015190505b614c148582614b96565b865550614c7c565b601f198416614c2a86614a06565b60005b82811015614c5257848901518255600182019150602085019450602081019050614c2d565b86831015614c6f5784890151614c6b601f891682614b78565b8355505b6001600288020188555050505b505050505050565b60006060820190508181036000830152614c9e818661392b565b90508181036020830152614cb2818561392b565b90508181036040830152614cc6818461392b565b9050949350505050565b7f566f74657220616c726561647920726567697374657265640000000000000000600082015250565b6000614d0660188361391a565b9150614d1182614cd0565b602082019050919050565b60006020820190508181036000830152614d3581614cf9565b9050919050565b7f456c656374696f6e206d75737420626520696e20667574757265000000000000600082015250565b6000614d72601a8361391a565b9150614d7d82614d3c565b602082019050919050565b60006020820190508181036000830152614da181614d65565b9050919050565b7f466972737420726f756e64206d75737420626520616674657220656c6563746960008201527f6f6e207374617274000000000000000000000000000000000000000000000000602082015250565b6000614e0460288361391a565b9150614e0f82614da8565b604082019050919050565b60006020820190508181036000830152614e3381614df7565b9050919050565b7f4174206c65617374206f6e652063616e64696461746500000000000000000000600082015250565b6000614e7060168361391a565b9150614e7b82614e3a565b602082019050919050565b60006020820190508181036000830152614e9f81614e63565b9050919050565b6000819050919050565b6000614ecb614ec6614ec184614ea6565b614a8a565b6134b8565b9050919050565b614edb81614eb0565b82525050565b600081549050919050565b60008190508160005260206000209050919050565b60008160001c9050919050565b6000819050919050565b6000614f2b614f2683614f01565b614f0e565b9050919050565b6000614f3e8254614f18565b9050919050565b6000600182019050919050565b6000614f5d82614ee1565b614f678185613b56565b9350614f7283614eec565b8060005b83811015614faa57614f8782614f32565b614f918882613b77565b9750614f9c83614f45565b925050600181019050614f76565b5085935050505092915050565b6000608082019050614fcc600083018761361c565b614fd9602083018661361c565b614fe66040830185614ed2565b8181036060830152614ff88184614f52565b90509594505050505056fea2646970667358221220026ef53e2b4a5257d11a24d83317bc53d849f8d13a23fa281a7abb7e5b37690864736f6c634300081c0033",
  "linkReferences": {},
  "deployedLinkReferences": {}
}