{
  "_format": "hh-sol-artifact-1",
  "contractName": "PresidentialElection",
  "sourceName": "contracts/PresidentialElection.sol",
  "abi": [
    {
      "anonymous": false,
      "inputs": [
        {
          "indexed": true,
          "internalType": "address",
          "name": "admin",
          "type": "address"
        }
      ],
      "name": "AdminAdded",
      "type": "event"
    },
    {
      "anonymous": false,
      "inputs": [
        {
          "indexed": true,
          "internalType": "address",
          "name": "admin",
          "type": "address"
        }
      ],
      "name": "AdminRemoved",
      "type": "event"
    },
    {
      "anonymous": false,
      "inputs": [
        {
          "indexed": true,
          "internalType": "uint256",
          "name": "candidateId",
          "type": "uint256"
        },
        {
          "indexed": false,
          "internalType": "string",
          "name": "firstName",
          "type": "string"
        },
        {
          "indexed": false,
          "internalType": "string",
          "name": "lastName",
          "type": "string"
        },
        {
          "indexed": false,
          "internalType": "string",
          "name": "politicalParty",
          "type": "string"
        }
      ],
      "name": "CandidateAdded",
      "type": "event"
    },
    {
      "anonymous": false,
      "inputs": [
        {
          "indexed": true,
          "internalType": "uint256",
          "name": "electionId",
          "type": "uint256"
        },
        {
          "indexed": false,
          "internalType": "uint256",
          "name": "electionStartDate",
          "type": "uint256"
        },
        {
          "indexed": false,
          "internalType": "uint256",
          "name": "firstRoundStartDate",
          "type": "uint256"
        },
        {
          "indexed": false,
          "internalType": "uint256",
          "name": "roundDuration",
          "type": "uint256"
        },
        {
          "indexed": false,
          "internalType": "uint256[]",
          "name": "candidateIds",
          "type": "uint256[]"
        }
      ],
      "name": "ElectionCreated",
      "type": "event"
    },
    {
      "anonymous": false,
      "inputs": [
        {
          "indexed": true,
          "internalType": "address",
          "name": "previousHolder",
          "type": "address"
        },
        {
          "indexed": true,
          "internalType": "address",
          "name": "newHolder",
          "type": "address"
        }
      ],
      "name": "OwnershipTransferred",
      "type": "event"
    },
    {
      "anonymous": false,
      "inputs": [
        {
          "indexed": true,
          "internalType": "uint256",
          "name": "electionId",
          "type": "uint256"
        },
        {
          "indexed": false,
          "internalType": "uint8",
          "name": "round",
          "type": "uint8"
        },
        {
          "indexed": false,
          "internalType": "bool",
          "name": "finished",
          "type": "bool"
        },
        {
          "indexed": false,
          "internalType": "uint256",
          "name": "winnerCandidateId",
          "type": "uint256"
        }
      ],
      "name": "RoundFinalized",
      "type": "event"
    },
    {
      "anonymous": false,
      "inputs": [
        {
          "indexed": true,
          "internalType": "uint256",
          "name": "electionId",
          "type": "uint256"
        },
        {
          "indexed": false,
          "internalType": "uint8",
          "name": "round",
          "type": "uint8"
        },
        {
          "indexed": true,
          "internalType": "uint256",
          "name": "candidateId",
          "type": "uint256"
        },
        {
          "indexed": false,
          "internalType": "address",
          "name": "voter",
          "type": "address"
        },
        {
          "indexed": false,
          "internalType": "uint256",
          "name": "timestamp",
          "type": "uint256"
        }
      ],
      "name": "VoteCast",
      "type": "event"
    },
    {
      "anonymous": false,
      "inputs": [
        {
          "indexed": true,
          "internalType": "address",
          "name": "voter",
          "type": "address"
        },
        {
          "indexed": false,
          "internalType": "uint256",
          "name": "registrationTime",
          "type": "uint256"
        }
      ],
      "name": "VoterAdded",
      "type": "event"
    },
    {
      "anonymous": false,
      "inputs": [
        {
          "indexed": true,
          "internalType": "address",
          "name": "voter",
          "type": "address"
        }
      ],
      "name": "VoterRemoved",
      "type": "event"
    },
    {
      "inputs": [
        {
          "internalType": "address",
          "name": "_admin",
          "type": "address"
        }
      ],
      "name": "addAdmin",
      "outputs": [],
      "stateMutability": "nonpayable",
      "type": "function"
    },
    {
      "inputs": [
        {
          "internalType": "string",
          "name": "_firstName",
          "type": "string"
        },
        {
          "internalType": "string",
          "name": "_lastName",
          "type": "string"
        },
        {
          "internalType": "string",
          "name": "_politicalParty",
          "type": "string"
        }
      ],
      "name": "addCandidate",
      "outputs": [],
      "stateMutability": "nonpayable",
      "type": "function"
    },
    {
      "inputs": [
        {
          "internalType": "address",
          "name": "_voter",
          "type": "address"
        }
      ],
      "name": "addVoter",
      "outputs": [],
      "stateMutability": "nonpayable",
      "type": "function"
    },
    {
      "inputs": [
        {
          "internalType": "address",
          "name": "",
          "type": "address"
        }
      ],
      "name": "admins",
      "outputs": [
        {
          "internalType": "bool",
          "name": "",
          "type": "bool"
        }
      ],
      "stateMutability": "view",
      "type": "function"
    },
    {
      "inputs": [
        {
          "internalType": "uint256",
          "name": "candidateId",
          "type": "uint256"
        }
      ],
      "name": "candidateExistsById",
      "outputs": [
        {
          "internalType": "bool",
          "name": "",
          "type": "bool"
        }
      ],
      "stateMutability": "view",
      "type": "function"
    },
    {
      "inputs": [
        {
          "internalType": "uint256",
          "name": "",
          "type": "uint256"
        },
        {
          "internalType": "uint256",
          "name": "",
          "type": "uint256"
        }
      ],
      "name": "candidateTotalVotes",
      "outputs": [
        {
          "internalType": "uint256",
          "name": "",
          "type": "uint256"
        }
      ],
      "stateMutability": "view",
      "type": "function"
    },
    {
      "inputs": [
        {
          "internalType": "uint256",
          "name": "",
          "type": "uint256"
        }
      ],
      "name": "candidates",
      "outputs": [
        {
          "internalType": "uint256",
          "name": "id",
          "type": "uint256"
        },
        {
          "internalType": "string",
          "name": "firstName",
          "type": "string"
        },
        {
          "internalType": "string",
          "name": "lastName",
          "type": "string"
        },
        {
          "internalType": "string",
          "name": "politicalParty",
          "type": "string"
        }
      ],
      "stateMutability": "view",
      "type": "function"
    },
    {
      "inputs": [],
      "name": "candidatesCount",
      "outputs": [
        {
          "internalType": "uint256",
          "name": "",
          "type": "uint256"
        }
      ],
      "stateMutability": "view",
      "type": "function"
    },
    {
      "inputs": [
        {
          "internalType": "uint256",
          "name": "electionId",
          "type": "uint256"
        },
        {
          "internalType": "uint256",
          "name": "candidateId",
          "type": "uint256"
        }
      ],
      "name": "castVote",
      "outputs": [],
      "stateMutability": "nonpayable",
      "type": "function"
    },
    {
      "inputs": [],
      "name": "contractHolder",
      "outputs": [
        {
          "internalType": "address",
          "name": "",
          "type": "address"
        }
      ],
      "stateMutability": "view",
      "type": "function"
    },
    {
      "inputs": [
        {
          "internalType": "uint256",
          "name": "_electionStartDate",
          "type": "uint256"
        },
        {
          "internalType": "uint256",
          "name": "_firstRoundStartDate",
          "type": "uint256"
        },
        {
          "internalType": "uint256[]",
          "name": "_candidateIds",
          "type": "uint256[]"
        }
      ],
      "name": "createElection",
      "outputs": [
        {
          "internalType": "uint256",
          "name": "",
          "type": "uint256"
        }
      ],
      "stateMutability": "nonpayable",
      "type": "function"
    },
    {
      "inputs": [
        {
          "internalType": "uint256",
          "name": "",
          "type": "uint256"
        },
        {
          "internalType": "uint8",
          "name": "",
          "type": "uint8"
        }
      ],
      "name": "electionRounds",
      "outputs": [
        {
          "internalType": "uint8",
          "name": "roundNumber",
          "type": "uint8"
        },
        {
          "internalType": "uint256",
          "name": "startDate",
          "type": "uint256"
        },
        {
          "internalType": "uint256",
          "name": "endDate",
          "type": "uint256"
        },
        {
          "internalType": "bool",
          "name": "finalized",
          "type": "bool"
        },
        {
          "internalType": "uint256",
          "name": "totalVotes",
          "type": "uint256"
        },
        {
          "internalType": "uint256",
          "name": "winnerCandidateId",
          "type": "uint256"
        }
      ],
      "stateMutability": "view",
      "type": "function"
    },
    {
      "inputs": [
        {
          "internalType": "uint256",
          "name": "",
          "type": "uint256"
        },
        {
          "internalType": "uint256",
          "name": "",
          "type": "uint256"
        }
      ],
      "name": "electionWinners",
      "outputs": [
        {
          "internalType": "uint256",
          "name": "",
          "type": "uint256"
        }
      ],
      "stateMutability": "view",
      "type": "function"
    },
    {
      "inputs": [
        {
          "internalType": "uint256",
          "name": "",
          "type": "uint256"
        }
      ],
      "name": "elections",
      "outputs": [
        {
          "internalType": "uint256",
          "name": "electionId",
          "type": "uint256"
        },
        {
          "internalType": "uint256",
          "name": "electionStartDate",
          "type": "uint256"
        },
        {
          "internalType": "uint256",
          "name": "firstRoundStartDate",
          "type": "uint256"
        },
        {
          "internalType": "uint256",
          "name": "roundDuration",
          "type": "uint256"
        },
        {
          "internalType": "bool",
          "name": "isActive",
          "type": "bool"
        },
        {
          "internalType": "uint8",
          "name": "currentRound",
          "type": "uint8"
        },
        {
          "internalType": "uint256",
          "name": "winnerCandidateId",
          "type": "uint256"
        }
      ],
      "stateMutability": "view",
      "type": "function"
    },
    {
      "inputs": [],
      "name": "electionsCount",
      "outputs": [
        {
          "internalType": "uint256",
          "name": "",
          "type": "uint256"
        }
      ],
      "stateMutability": "view",
      "type": "function"
    },
    {
      "inputs": [
        {
          "internalType": "uint256",
          "name": "electionId",
          "type": "uint256"
        },
        {
          "internalType": "bool",
          "name": "force",
          "type": "bool"
        }
      ],
      "name": "finalizeRound",
      "outputs": [],
      "stateMutability": "nonpayable",
      "type": "function"
    },
    {
      "inputs": [],
      "name": "getAdmins",
      "outputs": [
        {
          "internalType": "address[]",
          "name": "",
          "type": "address[]"
        }
      ],
      "stateMutability": "view",
      "type": "function"
    },
    {
      "inputs": [],
      "name": "getAllCandidates",
      "outputs": [
        {
          "components": [
            {
              "internalType": "uint256",
              "name": "id",
              "type": "uint256"
            },
            {
              "internalType": "string",
              "name": "firstName",
              "type": "string"
            },
            {
              "internalType": "string",
              "name": "lastName",
              "type": "string"
            },
            {
              "internalType": "string",
              "name": "politicalParty",
              "type": "string"
            }
          ],
          "internalType": "struct CandidatesManager.Candidate[]",
          "name": "",
          "type": "tuple[]"
        }
      ],
      "stateMutability": "view",
      "type": "function"
    },
    {
      "inputs": [],
      "name": "getAllVoters",
      "outputs": [
        {
          "internalType": "address[]",
          "name": "",
          "type": "address[]"
        }
      ],
      "stateMutability": "view",
      "type": "function"
    },
    {
      "inputs": [
        {
          "internalType": "uint256",
          "name": "electionId",
          "type": "uint256"
        },
        {
          "internalType": "uint8",
          "name": "roundNumber",
          "type": "uint8"
        }
      ],
      "name": "getCandidateIdsForRound",
      "outputs": [
        {
          "internalType": "uint256[]",
          "name": "",
          "type": "uint256[]"
        }
      ],
      "stateMutability": "view",
      "type": "function"
    },
    {
      "inputs": [
        {
          "internalType": "uint256",
          "name": "electionId",
          "type": "uint256"
        },
        {
          "internalType": "uint8",
          "name": "round",
          "type": "uint8"
        }
      ],
      "name": "getElectionRoundResults",
      "outputs": [
        {
          "internalType": "uint256",
          "name": "totalVotes",
          "type": "uint256"
        },
        {
          "internalType": "uint256[]",
          "name": "candidateIds",
          "type": "uint256[]"
        },
        {
          "internalType": "uint256[]",
          "name": "votesPerCandidate",
          "type": "uint256[]"
        },
        {
          "internalType": "uint256",
          "name": "startDate",
          "type": "uint256"
        },
        {
          "internalType": "uint256",
          "name": "endDate",
          "type": "uint256"
        }
      ],
      "stateMutability": "view",
      "type": "function"
    },
    {
      "inputs": [
        {
          "internalType": "uint256",
          "name": "_electionId",
          "type": "uint256"
        },
        {
          "internalType": "uint8",
          "name": "_round",
          "type": "uint8"
        }
      ],
      "name": "getRoundResults",
      "outputs": [
        {
          "internalType": "uint256",
          "name": "totalVotes",
          "type": "uint256"
        },
        {
          "internalType": "uint256[]",
          "name": "candidateIds",
          "type": "uint256[]"
        },
        {
          "internalType": "uint256[]",
          "name": "votesPerCandidate",
          "type": "uint256[]"
        },
        {
          "internalType": "uint256",
          "name": "startDate",
          "type": "uint256"
        },
        {
          "internalType": "uint256",
          "name": "endDate",
          "type": "uint256"
        }
      ],
      "stateMutability": "view",
      "type": "function"
    },
    {
      "inputs": [
        {
          "internalType": "uint256",
          "name": "electionId",
          "type": "uint256"
        },
        {
          "internalType": "uint8",
          "name": "roundNumber",
          "type": "uint8"
        }
      ],
      "name": "isRoundActive",
      "outputs": [
        {
          "internalType": "bool",
          "name": "",
          "type": "bool"
        }
      ],
      "stateMutability": "view",
      "type": "function"
    },
    {
      "inputs": [
        {
          "internalType": "address",
          "name": "_admin",
          "type": "address"
        }
      ],
      "name": "removeAdmin",
      "outputs": [],
      "stateMutability": "nonpayable",
      "type": "function"
    },
    {
      "inputs": [
        {
          "internalType": "address",
          "name": "_voter",
          "type": "address"
        }
      ],
      "name": "removeVoter",
      "outputs": [],
      "stateMutability": "nonpayable",
      "type": "function"
    },
    {
      "inputs": [
        {
          "internalType": "uint256",
          "name": "",
          "type": "uint256"
        },
        {
          "internalType": "uint8",
          "name": "",
          "type": "uint8"
        },
        {
          "internalType": "uint256",
          "name": "",
          "type": "uint256"
        }
      ],
      "name": "roundCandidateVotes",
      "outputs": [
        {
          "internalType": "uint256",
          "name": "",
          "type": "uint256"
        }
      ],
      "stateMutability": "view",
      "type": "function"
    },
    {
      "inputs": [
        {
          "internalType": "uint256",
          "name": "",
          "type": "uint256"
        },
        {
          "internalType": "uint8",
          "name": "",
          "type": "uint8"
        },
        {
          "internalType": "address",
          "name": "",
          "type": "address"
        }
      ],
      "name": "roundHasVoted",
      "outputs": [
        {
          "internalType": "bool",
          "name": "",
          "type": "bool"
        }
      ],
      "stateMutability": "view",
      "type": "function"
    },
    {
      "inputs": [
        {
          "internalType": "address",
          "name": "_newHolder",
          "type": "address"
        }
      ],
      "name": "transferOwnership",
      "outputs": [],
      "stateMutability": "nonpayable",
      "type": "function"
    },
    {
      "inputs": [
        {
          "internalType": "uint256",
          "name": "",
          "type": "uint256"
        }
      ],
      "name": "voterList",
      "outputs": [
        {
          "internalType": "address",
          "name": "",
          "type": "address"
        }
      ],
      "stateMutability": "view",
      "type": "function"
    },
    {
      "inputs": [
        {
          "internalType": "address",
          "name": "",
          "type": "address"
        }
      ],
      "name": "voters",
      "outputs": [
        {
          "internalType": "bool",
          "name": "isRegistered",
          "type": "bool"
        },
        {
          "internalType": "uint256",
          "name": "registrationTime",
          "type": "uint256"
        }
      ],
      "stateMutability": "view",
      "type": "function"
    },
    {
      "inputs": [
        {
          "internalType": "uint256",
          "name": "",
          "type": "uint256"
        },
        {
          "internalType": "uint8",
          "name": "",
          "type": "uint8"
        },
        {
          "internalType": "uint256",
          "name": "",
          "type": "uint256"
        }
      ],
      "name": "votersByRound",
      "outputs": [
        {
          "internalType": "address",
          "name": "",
          "type": "address"
        }
      ],
      "stateMutability": "view",
      "type": "function"
    },
    {
      "inputs": [
        {
          "internalType": "uint256",
          "name": "",
          "type": "uint256"
        },
        {
          "internalType": "uint8",
          "name": "",
          "type": "uint8"
        },
        {
          "internalType": "address",
          "name": "",
          "type": "address"
        }
      ],
      "name": "votes",
      "outputs": [
        {
          "internalType": "uint256",
          "name": "candidateId",
          "type": "uint256"
        },
        {
          "internalType": "uint256",
          "name": "timestamp",
          "type": "uint256"
        }
      ],
      "stateMutability": "view",
      "type": "function"
    }
  ],
  "bytecode": "0x608060405234801561001057600080fd5b5033600d60006101000a81548173ffffffffffffffffffffffffffffffffffffffff021916908373ffffffffffffffffffffffffffffffffffffffff1602179055506001600e60003373ffffffffffffffffffffffffffffffffffffffff1673ffffffffffffffffffffffffffffffffffffffff16815260200190815260200160002060006101000a81548160ff021916908315150217905550600f339080600181540180825580915050600190039060005260206000200160009091909190916101000a81548173ffffffffffffffffffffffffffffffffffffffff021916908373ffffffffffffffffffffffffffffffffffffffff1602179055503373ffffffffffffffffffffffffffffffffffffffff167f44d6d25963f097ad14f29f06854a01f575648a1ef82f30e562ccd3889717e33960405160405180910390a26040518060800160405280600081526020016040518060400160405280600481526020017f566f74650000000000000000000000000000000000000000000000000000000081525081526020016040518060400160405280600581526020017f426c616e6300000000000000000000000000000000000000000000000000000081525081526020016040518060400160405280600581526020017f417563756e0000000000000000000000000000000000000000000000000000008152508152506002600080815260200190815260200160002060008201518160000155602082015181600101908161024391906104c8565b50604082015181600201908161025991906104c8565b50606082015181600301908161026f91906104c8565b5090505061059a565b600081519050919050565b7f4e487b7100000000000000000000000000000000000000000000000000000000600052604160045260246000fd5b7f4e487b7100000000000000000000000000000000000000000000000000000000600052602260045260246000fd5b600060028204905060018216806102f957607f821691505b60208210810361030c5761030b6102b2565b5b50919050565b60008190508160005260206000209050919050565b60006020601f8301049050919050565b600082821b905092915050565b6000600883026103747fffffffffffffffffffffffffffffffffffffffffffffffffffffffffffffffff82610337565b61037e8683610337565b95508019841693508086168417925050509392505050565b6000819050919050565b6000819050919050565b60006103c56103c06103bb84610396565b6103a0565b610396565b9050919050565b6000819050919050565b6103df836103aa565b6103f36103eb826103cc565b848454610344565b825550505050565b600090565b6104086103fb565b6104138184846103d6565b505050565b5b818110156104375761042c600082610400565b600181019050610419565b5050565b601f82111561047c5761044d81610312565b61045684610327565b81016020851015610465578190505b61047961047185610327565b830182610418565b50505b505050565b600082821c905092915050565b600061049f60001984600802610481565b1980831691505092915050565b60006104b8838361048e565b9150826002028217905092915050565b6104d182610278565b67ffffffffffffffff8111156104ea576104e9610283565b5b6104f482546102e1565b6104ff82828561043b565b600060209050601f8311600181146105325760008415610520578287015190505b61052a85826104ac565b865550610592565b601f19841661054086610312565b60005b8281101561056857848901518255600182019150602085019450602081019050610543565b868310156105855784890151610581601f89168261048e565b8355505b6001600288020188555050505b505050505050565b6156e7806105a96000396000f3fe608060405234801561001057600080fd5b50600436106101ef5760003560e01c80637bf39e121161010f578063ab95a7dd116100a2578063e684cbf911610071578063e684cbf914610668578063f013456614610698578063f2fde38b146106c8578063f4ab9adf146106e4576101ef565b8063ab95a7dd146105bb578063ad71f8dc146105eb578063b04e523e14610607578063caf1475d14610637576101ef565b80639ed3e95e116100de5780639ed3e95e14610503578063a298cbc114610537578063a3ec138d14610555578063aa82ae7914610586576101ef565b80637bf39e1214610469578063837ec15f1461049957806386c1ff68146104c95780639a74c695146104e5576101ef565b8063429b62e5116101875780635e6fef01116101565780635e6fef01146103b35780636546d5fd146103e957806370480275146104195780637351f0f214610435576101ef565b8063429b62e51461030757806350e2e8af14610337578063545458c81461036757806355af478814610397576101ef565b80632e6997fe116101c35780632e6997fe1461027a57806331ae450b146102985780633477ee2e146102b657806335bbe70e146102e9576101ef565b80623eee01146101f45780631785f53c146102245780632c0a3f89146102405780632d35a8a21461025c575b600080fd5b61020e60048036038101906102099190613ab1565b610700565b60405161021b9190613af9565b60405180910390f35b61023e60048036038101906102399190613b72565b61071a565b005b61025a60048036038101906102559190613b9f565b610a5b565b005b610264610fb8565b6040516102719190613bee565b60405180910390f35b610282610fbe565b60405161028f9190613ddb565b60405180910390f35b6102a0611249565b6040516102ad9190613ebb565b60405180910390f35b6102d060048036038101906102cb9190613ab1565b6112d7565b6040516102e09493929190613f27565b60405180910390f35b6102f161149f565b6040516102fe9190613ebb565b60405180910390f35b610321600480360381019061031c9190613b72565b61152d565b60405161032e9190613af9565b60405180910390f35b610351600480360381019061034c9190613ab1565b61154d565b60405161035e9190613f90565b60405180910390f35b610381600480360381019061037c9190613b9f565b61158c565b60405161038e9190613bee565b60405180910390f35b6103b160048036038101906103ac9190613fd7565b6115b1565b005b6103cd60048036038101906103c89190613ab1565b612019565b6040516103e09796959493929190614033565b60405180910390f35b61040360048036038101906103fe91906140ce565b612075565b60405161041091906141bd565b60405180910390f35b610433600480360381019061042e9190613b72565b6120fb565b005b61044f600480360381019061044a91906140ce565b612388565b6040516104609594939291906141df565b60405180910390f35b610483600480360381019061047e9190614240565b6123ae565b6040516104909190613af9565b60405180910390f35b6104b360048036038101906104ae91906140ce565b6123ea565b6040516104c09190613af9565b60405180910390f35b6104e360048036038101906104de9190613b72565b61243a565b005b6104ed612780565b6040516104fa9190613bee565b60405180910390f35b61051d600480360381019061051891906140ce565b612786565b60405161052e9594939291906141df565b60405180910390f35b61053f612964565b60405161054c9190613f90565b60405180910390f35b61056f600480360381019061056a9190613b72565b61298a565b60405161057d929190614293565b60405180910390f35b6105a0600480360381019061059b91906140ce565b6129bb565b6040516105b2969594939291906142bc565b60405180910390f35b6105d560048036038101906105d0919061431d565b612a1e565b6040516105e29190613f90565b60405180910390f35b610605600480360381019061060091906144a5565b612a79565b005b610621600480360381019061061c9190613b9f565b612ca2565b60405161062e9190613bee565b60405180910390f35b610651600480360381019061064c9190614240565b612cd3565b60405161065f92919061454c565b60405180910390f35b610682600480360381019061067d919061431d565b612d11565b60405161068f9190613bee565b60405180910390f35b6106b260048036038101906106ad91906145d5565b612d43565b6040516106bf9190613bee565b60405180910390f35b6106e260048036038101906106dd9190613b72565b612de7565b005b6106fe60048036038101906106f99190613b72565b612fa6565b005b6000808211801561071357506004548211155b9050919050565b600d60009054906101000a900473ffffffffffffffffffffffffffffffffffffffff1673ffffffffffffffffffffffffffffffffffffffff163373ffffffffffffffffffffffffffffffffffffffff16146107aa576040517f08c379a00000000000000000000000000000000000000000000000000000000081526004016107a190614695565b60405180910390fd5b600e60008273ffffffffffffffffffffffffffffffffffffffff1673ffffffffffffffffffffffffffffffffffffffff16815260200190815260200160002060009054906101000a900460ff16610836576040517f08c379a000000000000000000000000000000000000000000000000000000000815260040161082d90614701565b60405180910390fd5b6000600e60008373ffffffffffffffffffffffffffffffffffffffff1673ffffffffffffffffffffffffffffffffffffffff16815260200190815260200160002060006101000a81548160ff02191690831515021790555060005b600f80549050811015610a14578173ffffffffffffffffffffffffffffffffffffffff16600f82815481106108c9576108c8614721565b5b9060005260206000200160009054906101000a900473ffffffffffffffffffffffffffffffffffffffff1673ffffffffffffffffffffffffffffffffffffffff1603610a0757600f6001600f80549050610923919061477f565b8154811061093457610933614721565b5b9060005260206000200160009054906101000a900473ffffffffffffffffffffffffffffffffffffffff16600f828154811061097357610972614721565b5b9060005260206000200160006101000a81548173ffffffffffffffffffffffffffffffffffffffff021916908373ffffffffffffffffffffffffffffffffffffffff160217905550600f8054806109cd576109cc6147b3565b5b6001900381819060005260206000200160006101000a81549073ffffffffffffffffffffffffffffffffffffffff02191690559055610a14565b8080600101915050610891565b508073ffffffffffffffffffffffffffffffffffffffff167fa3b62bc36326052d97ea62d63c3d60308ed4c3ea8ac079dd8499f1e9c4f80c0f60405160405180910390a250565b600160003373ffffffffffffffffffffffffffffffffffffffff1673ffffffffffffffffffffffffffffffffffffffff16815260200190815260200160002060000160009054906101000a900460ff16610aea576040517f08c379a0000000000000000000000000000000000000000000000000000000008152600401610ae19061482e565b60405180910390fd5b60006006600084815260200190815260200160002090508060050160009054906101000a900460ff16610b52576040517f08c379a0000000000000000000000000000000000000000000000000000000008152600401610b499061489a565b60405180910390fd5b60008160050160019054906101000a900460ff16905060006007600086815260200190815260200160002060008360ff1660ff16815260200190815260200160002090508060010154421015610bdd576040517f08c379a0000000000000000000000000000000000000000000000000000000008152600401610bd490614906565b60405180910390fd5b8060020154421115610c24576040517f08c379a0000000000000000000000000000000000000000000000000000000008152600401610c1b90614972565b60405180910390fd5b600a600086815260200190815260200160002060008360ff1660ff16815260200190815260200160002060003373ffffffffffffffffffffffffffffffffffffffff1673ffffffffffffffffffffffffffffffffffffffff16815260200190815260200160002060009054906101000a900460ff1615610cd9576040517f08c379a0000000000000000000000000000000000000000000000000000000008152600401610cd0906149de565b60405180910390fd5b6000805b8260060180549050811015610d295785836006018281548110610d0357610d02614721565b5b906000526020600020015403610d1c5760019150610d29565b8080600101915050610cdd565b5080610d6a576040517f08c379a0000000000000000000000000000000000000000000000000000000008152600401610d6190614a4a565b60405180910390fd5b6001600a600088815260200190815260200160002060008560ff1660ff16815260200190815260200160002060003373ffffffffffffffffffffffffffffffffffffffff1673ffffffffffffffffffffffffffffffffffffffff16815260200190815260200160002060006101000a81548160ff0219169083151502179055506008600087815260200190815260200160002060008460ff1660ff16815260200190815260200160002060008681526020019081526020016000206000815480929190610e3690614a6a565b9190505550816004016000815480929190610e5090614a6a565b91905055506040518060400160405280868152602001428152506010600088815260200190815260200160002060008560ff1660ff16815260200190815260200160002060003373ffffffffffffffffffffffffffffffffffffffff1673ffffffffffffffffffffffffffffffffffffffff16815260200190815260200160002060008201518160000155602082015181600101559050506009600087815260200190815260200160002060008460ff1660ff168152602001908152602001600020339080600181540180825580915050600190039060005260206000200160009091909190916101000a81548173ffffffffffffffffffffffffffffffffffffffff021916908373ffffffffffffffffffffffffffffffffffffffff16021790555084867ff1f3396e31d1dbd068c4e6169959218fe5ae731d73149dd82edc33beca09f22a853342604051610fa893929190614ab2565b60405180910390a3505050505050565b60045481565b606060006001600454610fd19190614ae9565b67ffffffffffffffff811115610fea57610fe961437a565b5b60405190808252806020026020018201604052801561102357816020015b611010613954565b8152602001906001900390816110085790505b50905060005b600454811161124157600260008281526020019081526020016000206040518060800160405290816000820154815260200160018201805461106a90614b4c565b80601f016020809104026020016040519081016040528092919081815260200182805461109690614b4c565b80156110e35780601f106110b8576101008083540402835291602001916110e3565b820191906000526020600020905b8154815290600101906020018083116110c657829003601f168201915b505050505081526020016002820180546110fc90614b4c565b80601f016020809104026020016040519081016040528092919081815260200182805461112890614b4c565b80156111755780601f1061114a57610100808354040283529160200191611175565b820191906000526020600020905b81548152906001019060200180831161115857829003601f168201915b5050505050815260200160038201805461118e90614b4c565b80601f01602080910402602001604051908101604052809291908181526020018280546111ba90614b4c565b80156112075780601f106111dc57610100808354040283529160200191611207565b820191906000526020600020905b8154815290600101906020018083116111ea57829003601f168201915b50505050508152505082828151811061122357611222614721565b5b6020026020010181905250808061123990614a6a565b915050611029565b508091505090565b6060600f8054806020026020016040519081016040528092919081815260200182805480156112cd57602002820191906000526020600020905b8160009054906101000a900473ffffffffffffffffffffffffffffffffffffffff1673ffffffffffffffffffffffffffffffffffffffff1681526020019060010190808311611283575b5050505050905090565b600260205280600052604060002060009150905080600001549080600101805461130090614b4c565b80601f016020809104026020016040519081016040528092919081815260200182805461132c90614b4c565b80156113795780601f1061134e57610100808354040283529160200191611379565b820191906000526020600020905b81548152906001019060200180831161135c57829003601f168201915b50505050509080600201805461138e90614b4c565b80601f01602080910402602001604051908101604052809291908181526020018280546113ba90614b4c565b80156114075780601f106113dc57610100808354040283529160200191611407565b820191906000526020600020905b8154815290600101906020018083116113ea57829003601f168201915b50505050509080600301805461141c90614b4c565b80601f016020809104026020016040519081016040528092919081815260200182805461144890614b4c565b80156114955780601f1061146a57610100808354040283529160200191611495565b820191906000526020600020905b81548152906001019060200180831161147857829003601f168201915b5050505050905084565b6060600080548060200260200160405190810160405280929190818152602001828054801561152357602002820191906000526020600020905b8160009054906101000a900473ffffffffffffffffffffffffffffffffffffffff1673ffffffffffffffffffffffffffffffffffffffff16815260200190600101908083116114d9575b5050505050905090565b600e6020528060005260406000206000915054906101000a900460ff1681565b6000818154811061155d57600080fd5b906000526020600020016000915054906101000a900473ffffffffffffffffffffffffffffffffffffffff1681565b600c602052816000526040600020602052806000526040600020600091509150505481565b600060066000848152602001908152602001600020905060008160050160019054906101000a900460ff16905060006007600086815260200190815260200160002060008360ff1660ff1681526020019081526020016000209050836116585780600201544211611657576040517f08c379a000000000000000000000000000000000000000000000000000000000815260040161164e90614bc9565b60405180910390fd5b5b8060030160009054906101000a900460ff16156116aa576040517f08c379a00000000000000000000000000000000000000000000000000000000081526004016116a190614c35565b60405180910390fd5b60006008600087815260200190815260200160002060008460ff1660ff16815260200190815260200160002060008081526020019081526020016000205482600401546116f7919061477f565b9050600061170587856131fa565b905060018460ff1603611afa5760008211801561173d575060328261172a9190614c55565b6064826000015161173b9190614c55565b115b801561174d575060018160600151145b156117df578060400151856006018190555060018360030160006101000a81548160ff021916908315150217905550867f3a9cda69ee0d6dfee4acf22426df9b50f9af0d2acd191bd409070a7a51c3ac7b85600184604001516040516117b593929190614c97565b60405180910390a260008560050160006101000a81548160ff021916908315150217905550611af5565b60006001856117ee9190614cce565b9050808660050160016101000a81548160ff021916908360ff1602179055506000600760008a815260200190815260200160002060008360ff1660ff1681526020019081526020016000209050818160000160006101000a81548160ff021916908360ff1602179055504281600101819055508660030154426118719190614ae9565b8160020181905550606060018460600151111561193757836060015167ffffffffffffffff8111156118a6576118a561437a565b5b6040519080825280602002602001820160405280156118d45781602001602082028036833780820191505090505b50905060005b846060015181101561193157846080015181815181106118fd576118fc614721565b5b602002602001015182828151811061191857611917614721565b5b60200260200101818152505080806001019150506118da565b506119a1565b61199e8a88866040015187602001518a60060180548060200260200160405190810160405280929190818152602001828054801561199457602002820191906000526020600020905b815481526020019060010190808311611980575b5050505050613429565b90505b6000600182516119b19190614ae9565b67ffffffffffffffff8111156119ca576119c961437a565b5b6040519080825280602002602001820160405280156119f85781602001602082028036833780820191505090505b509050600081600081518110611a1157611a10614721565b5b60200260200101818152505060005b8251811015611a7c57828181518110611a3c57611a3b614721565b5b602002602001015182600183611a529190614ae9565b81518110611a6357611a62614721565b5b6020026020010181815250508080600101915050611a20565b5080836006019080519060200190611a9592919061397c565b5060018760030160006101000a81548160ff0219169083151502179055508a7f3a9cda69ee0d6dfee4acf22426df9b50f9af0d2acd191bd409070a7a51c3ac7b89600080604051611ae893929190614d48565b60405180910390a2505050505b612010565b60028460ff1603611e3d576001816060015103611b9e578060400151856006018190555060018360030160006101000a81548160ff021916908315150217905550867f3a9cda69ee0d6dfee4acf22426df9b50f9af0d2acd191bd409070a7a51c3ac7b8560018460400151604051611b7493929190614c97565b60405180910390a260008560050160006101000a81548160ff021916908315150217905550611e38565b6000600185611bad9190614cce565b9050808660050160016101000a81548160ff021916908360ff1602179055506000600760008a815260200190815260200160002060008360ff1660ff1681526020019081526020016000209050818160000160006101000a81548160ff021916908360ff160217905550428160010181905550866003015442611c309190614ae9565b81600201819055506000836060015167ffffffffffffffff811115611c5857611c5761437a565b5b604051908082528060200260200182016040528015611c865781602001602082028036833780820191505090505b50905060005b8460600151811015611ce35784608001518181518110611caf57611cae614721565b5b6020026020010151828281518110611cca57611cc9614721565b5b6020026020010181815250508080600101915050611c8c565b50600060018251611cf49190614ae9565b67ffffffffffffffff811115611d0d57611d0c61437a565b5b604051908082528060200260200182016040528015611d3b5781602001602082028036833780820191505090505b509050600081600081518110611d5457611d53614721565b5b60200260200101818152505060005b8251811015611dbf57828181518110611d7f57611d7e614721565b5b602002602001015182600183611d959190614ae9565b81518110611da657611da5614721565b5b6020026020010181815250508080600101915050611d63565b5080836006019080519060200190611dd892919061397c565b5060018760030160006101000a81548160ff0219169083151502179055508a7f3a9cda69ee0d6dfee4acf22426df9b50f9af0d2acd191bd409070a7a51c3ac7b89600080604051611e2b93929190614d48565b60405180910390a2505050505b61200f565b60038460ff160361200e576001816060015103611ee1578060400151856006018190555060018360030160006101000a81548160ff021916908315150217905550867f3a9cda69ee0d6dfee4acf22426df9b50f9af0d2acd191bd409070a7a51c3ac7b8560018460400151604051611eb793929190614c97565b60405180910390a260008560050160006101000a81548160ff02191690831515021790555061200d565b60008060005b8360600151811015611f5d57600084608001518281518110611f0c57611f0b614721565b5b602002602001015190506000600c60008d8152602001908152602001600020600083815260200190815260200160002054905083811115611f4e578093508194505b50508080600101915050611ee7565b508187600601819055508260800151600b60008b81526020019081526020016000209080519060200190611f9292919061397c565b5060018560030160006101000a81548160ff021916908315150217905550887f3a9cda69ee0d6dfee4acf22426df9b50f9af0d2acd191bd409070a7a51c3ac7b87600185604051611fe593929190614c97565b60405180910390a260008760050160006101000a81548160ff02191690831515021790555050505b5b5b5b50505050505050565b60066020528060005260406000206000915090508060000154908060010154908060020154908060030154908060050160009054906101000a900460ff16908060050160019054906101000a900460ff16908060060154905087565b60606007600084815260200190815260200160002060008360ff1660ff1681526020019081526020016000206006018054806020026020016040519081016040528092919081815260200182805480156120ee57602002820191906000526020600020905b8154815260200190600101908083116120da575b5050505050905092915050565b600d60009054906101000a900473ffffffffffffffffffffffffffffffffffffffff1673ffffffffffffffffffffffffffffffffffffffff163373ffffffffffffffffffffffffffffffffffffffff161461218b576040517f08c379a000000000000000000000000000000000000000000000000000000000815260040161218290614695565b60405180910390fd5b600073ffffffffffffffffffffffffffffffffffffffff168173ffffffffffffffffffffffffffffffffffffffff16036121fa576040517f08c379a00000000000000000000000000000000000000000000000000000000081526004016121f190614dcb565b60405180910390fd5b600e60008273ffffffffffffffffffffffffffffffffffffffff1673ffffffffffffffffffffffffffffffffffffffff16815260200190815260200160002060009054906101000a900460ff1615612287576040517f08c379a000000000000000000000000000000000000000000000000000000000815260040161227e90614e37565b60405180910390fd5b6001600e60008373ffffffffffffffffffffffffffffffffffffffff1673ffffffffffffffffffffffffffffffffffffffff16815260200190815260200160002060006101000a81548160ff021916908315150217905550600f819080600181540180825580915050600190039060005260206000200160009091909190916101000a81548173ffffffffffffffffffffffffffffffffffffffff021916908373ffffffffffffffffffffffffffffffffffffffff1602179055508073ffffffffffffffffffffffffffffffffffffffff167f44d6d25963f097ad14f29f06854a01f575648a1ef82f30e562ccd3889717e33960405160405180910390a250565b600060608060008061239a8787612786565b945094509450945094509295509295909350565b600a602052826000526040600020602052816000526040600020602052806000526040600020600092509250509054906101000a900460ff1681565b6000806007600085815260200190815260200160002060008460ff1660ff168152602001908152602001600020905080600101544210158015612431575080600201544211155b91505092915050565b600e60003373ffffffffffffffffffffffffffffffffffffffff1673ffffffffffffffffffffffffffffffffffffffff16815260200190815260200160002060009054906101000a900460ff166124c6576040517f08c379a00000000000000000000000000000000000000000000000000000000081526004016124bd90614ea3565b60405180910390fd5b600160008273ffffffffffffffffffffffffffffffffffffffff1673ffffffffffffffffffffffffffffffffffffffff16815260200190815260200160002060000160009054906101000a900460ff16612555576040517f08c379a000000000000000000000000000000000000000000000000000000000815260040161254c90614f0f565b60405180910390fd5b600160008273ffffffffffffffffffffffffffffffffffffffff1673ffffffffffffffffffffffffffffffffffffffff168152602001908152602001600020600080820160006101000a81549060ff02191690556001820160009055505060005b600080549050811015612739578173ffffffffffffffffffffffffffffffffffffffff16600082815481106125ee576125ed614721565b5b9060005260206000200160009054906101000a900473ffffffffffffffffffffffffffffffffffffffff1673ffffffffffffffffffffffffffffffffffffffff160361272c5760006001600080549050612648919061477f565b8154811061265957612658614721565b5b9060005260206000200160009054906101000a900473ffffffffffffffffffffffffffffffffffffffff166000828154811061269857612697614721565b5b9060005260206000200160006101000a81548173ffffffffffffffffffffffffffffffffffffffff021916908373ffffffffffffffffffffffffffffffffffffffff16021790555060008054806126f2576126f16147b3565b5b6001900381819060005260206000200160006101000a81549073ffffffffffffffffffffffffffffffffffffffff02191690559055612739565b80806001019150506125b6565b508073ffffffffffffffffffffffffffffffffffffffff167fa14a79af012d1756818f9bd59ccfc9ad185a71df86b9392d9059d9e6faf6d64460405160405180910390a250565b60055481565b600060608060008060006007600089815260200190815260200160002060008860ff1660ff168152602001908152602001600020905080600201544211612802576040517f08c379a00000000000000000000000000000000000000000000000000000000081526004016127f990614f7b565b60405180910390fd5b8060040154955080600101549250806002015491506006600089815260200190815260200160002060040180548060200260200160405190810160405280929190818152602001828054801561287757602002820191906000526020600020905b815481526020019060010190808311612863575b50505050509450845167ffffffffffffffff8111156128995761289861437a565b5b6040519080825280602002602001820160405280156128c75781602001602082028036833780820191505090505b50935060005b855181101561295857600860008a815260200190815260200160002060008960ff1660ff168152602001908152602001600020600087838151811061291557612914614721565b5b602002602001015181526020019081526020016000205485828151811061293f5761293e614721565b5b60200260200101818152505080806001019150506128cd565b50509295509295909350565b600d60009054906101000a900473ffffffffffffffffffffffffffffffffffffffff1681565b60016020528060005260406000206000915090508060000160009054906101000a900460ff16908060010154905082565b6007602052816000526040600020602052806000526040600020600091509150508060000160009054906101000a900460ff16908060010154908060020154908060030160009054906101000a900460ff16908060040154908060050154905086565b60096020528260005260406000206020528160005260406000208181548110612a4657600080fd5b90600052602060002001600092509250509054906101000a900473ffffffffffffffffffffffffffffffffffffffff1681565b600e60003373ffffffffffffffffffffffffffffffffffffffff1673ffffffffffffffffffffffffffffffffffffffff16815260200190815260200160002060009054906101000a900460ff16612b05576040517f08c379a0000000000000000000000000000000000000000000000000000000008152600401612afc90614ea3565b60405180910390fd5b60008383604051602001612b1a929190615023565b6040516020818303038152906040528051906020012090506003600082815260200190815260200160002060009054906101000a900460ff1615612b93576040517f08c379a0000000000000000000000000000000000000000000000000000000008152600401612b8a9061509e565b60405180910390fd5b60046000815480929190612ba690614a6a565b91905055506040518060800160405280600454815260200185815260200184815260200183815250600260006004548152602001908152602001600020600082015181600001556020820151816001019081612c029190615260565b506040820151816002019081612c189190615260565b506060820151816003019081612c2e9190615260565b5090505060016003600083815260200190815260200160002060006101000a81548160ff0219169083151502179055506004547f52b689af7ae3bd15a5156582545571237b58abd804c1456c3269d1b1ee93f6fc858585604051612c9493929190615332565b60405180910390a250505050565b600b6020528160005260406000208181548110612cbe57600080fd5b90600052602060002001600091509150505481565b601060205282600052604060002060205281600052604060002060205280600052604060002060009250925050508060000154908060010154905082565b600860205282600052604060002060205281600052604060002060205280600052604060002060009250925050505481565b6000600e60003373ffffffffffffffffffffffffffffffffffffffff1673ffffffffffffffffffffffffffffffffffffffff16815260200190815260200160002060009054906101000a900460ff16612dd1576040517f08c379a0000000000000000000000000000000000000000000000000000000008152600401612dc890614ea3565b60405180910390fd5b612ddd8585858561357e565b9050949350505050565b600d60009054906101000a900473ffffffffffffffffffffffffffffffffffffffff1673ffffffffffffffffffffffffffffffffffffffff163373ffffffffffffffffffffffffffffffffffffffff1614612e77576040517f08c379a0000000000000000000000000000000000000000000000000000000008152600401612e6e90614695565b60405180910390fd5b600073ffffffffffffffffffffffffffffffffffffffff168173ffffffffffffffffffffffffffffffffffffffff1603612ee6576040517f08c379a0000000000000000000000000000000000000000000000000000000008152600401612edd90614dcb565b60405180910390fd5b8073ffffffffffffffffffffffffffffffffffffffff16600d60009054906101000a900473ffffffffffffffffffffffffffffffffffffffff1673ffffffffffffffffffffffffffffffffffffffff167f8be0079c531659141344cd1fd0a4f28419497f9722a3daafe3b4186f6b6457e060405160405180910390a380600d60006101000a81548173ffffffffffffffffffffffffffffffffffffffff021916908373ffffffffffffffffffffffffffffffffffffffff16021790555050565b600e60003373ffffffffffffffffffffffffffffffffffffffff1673ffffffffffffffffffffffffffffffffffffffff16815260200190815260200160002060009054906101000a900460ff16613032576040517f08c379a000000000000000000000000000000000000000000000000000000000815260040161302990614ea3565b60405180910390fd5b600160008273ffffffffffffffffffffffffffffffffffffffff1673ffffffffffffffffffffffffffffffffffffffff16815260200190815260200160002060000160009054906101000a900460ff16156130c2576040517f08c379a00000000000000000000000000000000000000000000000000000000081526004016130b9906153ca565b60405180910390fd5b604051806040016040528060011515815260200142815250600160008373ffffffffffffffffffffffffffffffffffffffff1673ffffffffffffffffffffffffffffffffffffffff16815260200190815260200160002060008201518160000160006101000a81548160ff021916908315150217905550602082015181600101559050506000819080600181540180825580915050600190039060005260206000200160009091909190916101000a81548173ffffffffffffffffffffffffffffffffffffffff021916908373ffffffffffffffffffffffffffffffffffffffff1602179055508073ffffffffffffffffffffffffffffffffffffffff167f56aa1768b52ddcdda65c5561181844717c2eed4bb3c848376d4420860da04dae426040516131ef9190613bee565b60405180910390a250565b6132026139c9565b60006007600085815260200190815260200160002060008460ff1660ff16815260200190815260200160002090506000816006018054905090508067ffffffffffffffff8111156132565761325561437a565b5b6040519080825280602002602001820160405280156132845781602001602082028036833780820191505090505b50836080018190525060005b818110156134205760008360060182815481106132b0576132af614721565b5b90600052602060002001549050600081036132cb5750613413565b60006008600089815260200190815260200160002060008860ff1660ff1681526020019081526020016000206000838152602001908152602001600020549050856000015181111561336e578560000151866020018181525050808660000181815250508186604001818152505081866080015160008151811061335257613351614721565b5b60200260200101818152505060018660600181815250506133d5565b856000015181036133bc5781866080015187606001518151811061339557613394614721565b5b6020026020010181815250508560600180518091906133b390614a6a565b815250506133d4565b85602001518111156133d357808660200181815250505b5b5b80600c60008a8152602001908152602001600020600084815260200190815260200160002060008282546134099190614ae9565b9250508190555050505b8080600101915050613290565b50505092915050565b60606000613439878786866138ad565b90508060016134489190614ae9565b67ffffffffffffffff8111156134615761346061437a565b5b60405190808252806020026020018201604052801561348f5781602001602082028036833780820191505090505b50915084826000815181106134a7576134a6614721565b5b60200260200101818152505060006001905060005b84518110156135725760008582815181106134da576134d9614721565b5b60200260200101519050600081036134f25750613565565b86600860008c815260200190815260200160002060008b60ff1660ff16815260200190815260200160002060008381526020019081526020016000205403613563578085848151811061354857613547614721565b5b602002602001018181525050828061355f90614a6a565b9350505b505b80806001019150506134bc565b50505095945050505050565b60004285116135c2576040517f08c379a00000000000000000000000000000000000000000000000000000000081526004016135b990615436565b60405180910390fd5b84841015613605576040517f08c379a00000000000000000000000000000000000000000000000000000000081526004016135fc906154c8565b60405180910390fd5b6000838390501161364b576040517f08c379a000000000000000000000000000000000000000000000000000000000815260040161364290615534565b60405180910390fd5b6005600081548092919061365e90614a6a565b91905055506005549050600060066000838152602001908152602001600020905081816000018190555085816001018190555084816002018190555062015180816003018190555060018160050160006101000a81548160ff02191690831515021790555060018160050160016101000a81548160ff021916908360ff1602179055506001848490506136f19190614ae9565b67ffffffffffffffff81111561370a5761370961437a565b5b6040519080825280602002602001820160405280156137385781602001602082028036833780820191505090505b5081600401908051906020019061375092919061397c565b5060008160040160008154811061376a57613769614721565b5b906000526020600020018190555060005b848490508110156137dd5784848281811061379957613798614721565b5b90506020020135826004016001836137b19190614ae9565b815481106137c2576137c1614721565b5b9060005260206000200181905550808060010191505061377b565b506000600760008481526020019081526020016000206000600160ff168152602001908152602001600020905060018160000160006101000a81548160ff021916908360ff16021790555085816001018190555062015180866138409190614ae9565b8160020181905550816004018160060190805461385e9291906139f8565b50827f94d2ca1585096a82008b4e4c47222139e365b7386c639acb5562a4f8a959f4c18888620151808660040160405161389b9493929190615665565b60405180910390a25050949350505050565b600080600090505b825181101561394b5760008382815181106138d3576138d2614721565b5b60200260200101519050600081036138eb575061393e565b846008600089815260200190815260200160002060008860ff1660ff1681526020019081526020016000206000838152602001908152602001600020540361393c57828061393890614a6a565b9350505b505b80806001019150506138b5565b50949350505050565b6040518060800160405280600081526020016060815260200160608152602001606081525090565b8280548282559060005260206000209081019282156139b8579160200282015b828111156139b757825182559160200191906001019061399c565b5b5090506139c59190613a4a565b5090565b6040518060a0016040528060008152602001600081526020016000815260200160008152602001606081525090565b828054828255906000526020600020908101928215613a395760005260206000209182015b82811115613a38578254825591600101919060010190613a1d565b5b509050613a469190613a4a565b5090565b5b80821115613a63576000816000905550600101613a4b565b5090565b6000604051905090565b600080fd5b600080fd5b6000819050919050565b613a8e81613a7b565b8114613a9957600080fd5b50565b600081359050613aab81613a85565b92915050565b600060208284031215613ac757613ac6613a71565b5b6000613ad584828501613a9c565b91505092915050565b60008115159050919050565b613af381613ade565b82525050565b6000602082019050613b0e6000830184613aea565b92915050565b600073ffffffffffffffffffffffffffffffffffffffff82169050919050565b6000613b3f82613b14565b9050919050565b613b4f81613b34565b8114613b5a57600080fd5b50565b600081359050613b6c81613b46565b92915050565b600060208284031215613b8857613b87613a71565b5b6000613b9684828501613b5d565b91505092915050565b60008060408385031215613bb657613bb5613a71565b5b6000613bc485828601613a9c565b9250506020613bd585828601613a9c565b9150509250929050565b613be881613a7b565b82525050565b6000602082019050613c036000830184613bdf565b92915050565b600081519050919050565b600082825260208201905092915050565b6000819050602082019050919050565b613c3e81613a7b565b82525050565b600081519050919050565b600082825260208201905092915050565b60005b83811015613c7e578082015181840152602081019050613c63565b60008484015250505050565b6000601f19601f8301169050919050565b6000613ca682613c44565b613cb08185613c4f565b9350613cc0818560208601613c60565b613cc981613c8a565b840191505092915050565b6000608083016000830151613cec6000860182613c35565b5060208301518482036020860152613d048282613c9b565b91505060408301518482036040860152613d1e8282613c9b565b91505060608301518482036060860152613d388282613c9b565b9150508091505092915050565b6000613d518383613cd4565b905092915050565b6000602082019050919050565b6000613d7182613c09565b613d7b8185613c14565b935083602082028501613d8d85613c25565b8060005b85811015613dc95784840389528151613daa8582613d45565b9450613db583613d59565b925060208a01995050600181019050613d91565b50829750879550505050505092915050565b60006020820190508181036000830152613df58184613d66565b905092915050565b600081519050919050565b600082825260208201905092915050565b6000819050602082019050919050565b613e3281613b34565b82525050565b6000613e448383613e29565b60208301905092915050565b6000602082019050919050565b6000613e6882613dfd565b613e728185613e08565b9350613e7d83613e19565b8060005b83811015613eae578151613e958882613e38565b9750613ea083613e50565b925050600181019050613e81565b5085935050505092915050565b60006020820190508181036000830152613ed58184613e5d565b905092915050565b600082825260208201905092915050565b6000613ef982613c44565b613f038185613edd565b9350613f13818560208601613c60565b613f1c81613c8a565b840191505092915050565b6000608082019050613f3c6000830187613bdf565b8181036020830152613f4e8186613eee565b90508181036040830152613f628185613eee565b90508181036060830152613f768184613eee565b905095945050505050565b613f8a81613b34565b82525050565b6000602082019050613fa56000830184613f81565b92915050565b613fb481613ade565b8114613fbf57600080fd5b50565b600081359050613fd181613fab565b92915050565b60008060408385031215613fee57613fed613a71565b5b6000613ffc85828601613a9c565b925050602061400d85828601613fc2565b9150509250929050565b600060ff82169050919050565b61402d81614017565b82525050565b600060e082019050614048600083018a613bdf565b6140556020830189613bdf565b6140626040830188613bdf565b61406f6060830187613bdf565b61407c6080830186613aea565b61408960a0830185614024565b61409660c0830184613bdf565b98975050505050505050565b6140ab81614017565b81146140b657600080fd5b50565b6000813590506140c8816140a2565b92915050565b600080604083850312156140e5576140e4613a71565b5b60006140f385828601613a9c565b9250506020614104858286016140b9565b9150509250929050565b600081519050919050565b600082825260208201905092915050565b6000819050602082019050919050565b60006141468383613c35565b60208301905092915050565b6000602082019050919050565b600061416a8261410e565b6141748185614119565b935061417f8361412a565b8060005b838110156141b0578151614197888261413a565b97506141a283614152565b925050600181019050614183565b5085935050505092915050565b600060208201905081810360008301526141d7818461415f565b905092915050565b600060a0820190506141f46000830188613bdf565b8181036020830152614206818761415f565b9050818103604083015261421a818661415f565b90506142296060830185613bdf565b6142366080830184613bdf565b9695505050505050565b60008060006060848603121561425957614258613a71565b5b600061426786828701613a9c565b9350506020614278868287016140b9565b925050604061428986828701613b5d565b9150509250925092565b60006040820190506142a86000830185613aea565b6142b56020830184613bdf565b9392505050565b600060c0820190506142d16000830189614024565b6142de6020830188613bdf565b6142eb6040830187613bdf565b6142f86060830186613aea565b6143056080830185613bdf565b61431260a0830184613bdf565b979650505050505050565b60008060006060848603121561433657614335613a71565b5b600061434486828701613a9c565b9350506020614355868287016140b9565b925050604061436686828701613a9c565b9150509250925092565b600080fd5b600080fd5b7f4e487b7100000000000000000000000000000000000000000000000000000000600052604160045260246000fd5b6143b282613c8a565b810181811067ffffffffffffffff821117156143d1576143d061437a565b5b80604052505050565b60006143e4613a67565b90506143f082826143a9565b919050565b600067ffffffffffffffff8211156144105761440f61437a565b5b61441982613c8a565b9050602081019050919050565b82818337600083830152505050565b6000614448614443846143f5565b6143da565b90508281526020810184848401111561446457614463614375565b5b61446f848285614426565b509392505050565b600082601f83011261448c5761448b614370565b5b813561449c848260208601614435565b91505092915050565b6000806000606084860312156144be576144bd613a71565b5b600084013567ffffffffffffffff8111156144dc576144db613a76565b5b6144e886828701614477565b935050602084013567ffffffffffffffff81111561450957614508613a76565b5b61451586828701614477565b925050604084013567ffffffffffffffff81111561453657614535613a76565b5b61454286828701614477565b9150509250925092565b60006040820190506145616000830185613bdf565b61456e6020830184613bdf565b9392505050565b600080fd5b600080fd5b60008083601f84011261459557614594614370565b5b8235905067ffffffffffffffff8111156145b2576145b1614575565b5b6020830191508360208202830111156145ce576145cd61457a565b5b9250929050565b600080600080606085870312156145ef576145ee613a71565b5b60006145fd87828801613a9c565b945050602061460e87828801613a9c565b935050604085013567ffffffffffffffff81111561462f5761462e613a76565b5b61463b8782880161457f565b925092505092959194509250565b7f4e6f7420636f6e747261637420686f6c64657200000000000000000000000000600082015250565b600061467f601383613edd565b915061468a82614649565b602082019050919050565b600060208201905081810360008301526146ae81614672565b9050919050565b7f4e6f742061646d696e0000000000000000000000000000000000000000000000600082015250565b60006146eb600983613edd565b91506146f6826146b5565b602082019050919050565b6000602082019050818103600083015261471a816146de565b9050919050565b7f4e487b7100000000000000000000000000000000000000000000000000000000600052603260045260246000fd5b7f4e487b7100000000000000000000000000000000000000000000000000000000600052601160045260246000fd5b600061478a82613a7b565b915061479583613a7b565b92508282039050818111156147ad576147ac614750565b5b92915050565b7f4e487b7100000000000000000000000000000000000000000000000000000000600052603160045260246000fd5b7f4e6f742061207265676973746572656420766f74657200000000000000000000600082015250565b6000614818601683613edd565b9150614823826147e2565b602082019050919050565b600060208201905081810360008301526148478161480b565b9050919050565b7f456c656374696f6e206e6f742061637469766500000000000000000000000000600082015250565b6000614884601383613edd565b915061488f8261484e565b602082019050919050565b600060208201905081810360008301526148b381614877565b9050919050565b7f526f756e64206e6f742073746172746564000000000000000000000000000000600082015250565b60006148f0601183613edd565b91506148fb826148ba565b602082019050919050565b6000602082019050818103600083015261491f816148e3565b9050919050565b7f526f756e6420656e646564000000000000000000000000000000000000000000600082015250565b600061495c600b83613edd565b915061496782614926565b602082019050919050565b6000602082019050818103600083015261498b8161494f565b9050919050565b7f416c726561647920766f74656400000000000000000000000000000000000000600082015250565b60006149c8600d83613edd565b91506149d382614992565b602082019050919050565b600060208201905081810360008301526149f7816149bb565b9050919050565b7f496e76616c69642063616e646964617465000000000000000000000000000000600082015250565b6000614a34601183613edd565b9150614a3f826149fe565b602082019050919050565b60006020820190508181036000830152614a6381614a27565b9050919050565b6000614a7582613a7b565b91507fffffffffffffffffffffffffffffffffffffffffffffffffffffffffffffffff8203614aa757614aa6614750565b5b600182019050919050565b6000606082019050614ac76000830186614024565b614ad46020830185613f81565b614ae16040830184613bdf565b949350505050565b6000614af482613a7b565b9150614aff83613a7b565b9250828201905080821115614b1757614b16614750565b5b92915050565b7f4e487b7100000000000000000000000000000000000000000000000000000000600052602260045260246000fd5b60006002820490506001821680614b6457607f821691505b602082108103614b7757614b76614b1d565b5b50919050565b7f526f756e64206e6f7420656e6465640000000000000000000000000000000000600082015250565b6000614bb3600f83613edd565b9150614bbe82614b7d565b602082019050919050565b60006020820190508181036000830152614be281614ba6565b9050919050565b7f526f756e6420616c72656164792066696e616c697a6564000000000000000000600082015250565b6000614c1f601783613edd565b9150614c2a82614be9565b602082019050919050565b60006020820190508181036000830152614c4e81614c12565b9050919050565b6000614c6082613a7b565b9150614c6b83613a7b565b9250828202614c7981613a7b565b91508282048414831517614c9057614c8f614750565b5b5092915050565b6000606082019050614cac6000830186614024565b614cb96020830185613aea565b614cc66040830184613bdf565b949350505050565b6000614cd982614017565b9150614ce483614017565b9250828201905060ff811115614cfd57614cfc614750565b5b92915050565b6000819050919050565b6000819050919050565b6000614d32614d2d614d2884614d03565b614d0d565b613a7b565b9050919050565b614d4281614d17565b82525050565b6000606082019050614d5d6000830186614024565b614d6a6020830185613aea565b614d776040830184614d39565b949350505050565b7f496e76616c696420616464726573730000000000000000000000000000000000600082015250565b6000614db5600f83613edd565b9150614dc082614d7f565b602082019050919050565b60006020820190508181036000830152614de481614da8565b9050919050565b7f416c72656164792061646d696e00000000000000000000000000000000000000600082015250565b6000614e21600d83613edd565b9150614e2c82614deb565b602082019050919050565b60006020820190508181036000830152614e5081614e14565b9050919050565b7f4e6f7420616e2061646d696e0000000000000000000000000000000000000000600082015250565b6000614e8d600c83613edd565b9150614e9882614e57565b602082019050919050565b60006020820190508181036000830152614ebc81614e80565b9050919050565b7f566f746572206e6f742072656769737465726564000000000000000000000000600082015250565b6000614ef9601483613edd565b9150614f0482614ec3565b602082019050919050565b60006020820190508181036000830152614f2881614eec565b9050919050565b7f526f756e64206e6f74206f766572207965740000000000000000000000000000600082015250565b6000614f65601283613edd565b9150614f7082614f2f565b602082019050919050565b60006020820190508181036000830152614f9481614f58565b9050919050565b600081905092915050565b6000614fb182613c44565b614fbb8185614f9b565b9350614fcb818560208601613c60565b80840191505092915050565b7f7c00000000000000000000000000000000000000000000000000000000000000600082015250565b600061500d600183614f9b565b915061501882614fd7565b600182019050919050565b600061502f8285614fa6565b915061503a82615000565b91506150468284614fa6565b91508190509392505050565b7f43616e64696461746520616c7265616479206578697374730000000000000000600082015250565b6000615088601883613edd565b915061509382615052565b602082019050919050565b600060208201905081810360008301526150b78161507b565b9050919050565b60008190508160005260206000209050919050565b60006020601f8301049050919050565b600082821b905092915050565b6000600883026151207fffffffffffffffffffffffffffffffffffffffffffffffffffffffffffffffff826150e3565b61512a86836150e3565b95508019841693508086168417925050509392505050565b600061515d61515861515384613a7b565b614d0d565b613a7b565b9050919050565b6000819050919050565b61517783615142565b61518b61518382615164565b8484546150f0565b825550505050565b600090565b6151a0615193565b6151ab81848461516e565b505050565b5b818110156151cf576151c4600082615198565b6001810190506151b1565b5050565b601f821115615214576151e5816150be565b6151ee846150d3565b810160208510156151fd578190505b615211615209856150d3565b8301826151b0565b50505b505050565b600082821c905092915050565b600061523760001984600802615219565b1980831691505092915050565b60006152508383615226565b9150826002028217905092915050565b61526982613c44565b67ffffffffffffffff8111156152825761528161437a565b5b61528c8254614b4c565b6152978282856151d3565b600060209050601f8311600181146152ca57600084156152b8578287015190505b6152c28582615244565b86555061532a565b601f1984166152d8866150be565b60005b82811015615300578489015182556001820191506020850194506020810190506152db565b8683101561531d5784890151615319601f891682615226565b8355505b6001600288020188555050505b505050505050565b6000606082019050818103600083015261534c8186613eee565b905081810360208301526153608185613eee565b905081810360408301526153748184613eee565b9050949350505050565b7f566f74657220616c726561647920726567697374657265640000000000000000600082015250565b60006153b4601883613edd565b91506153bf8261537e565b602082019050919050565b600060208201905081810360008301526153e3816153a7565b9050919050565b7f456c656374696f6e206d75737420626520696e20667574757265000000000000600082015250565b6000615420601a83613edd565b915061542b826153ea565b602082019050919050565b6000602082019050818103600083015261544f81615413565b9050919050565b7f466972737420726f756e64206d75737420626520616674657220656c6563746960008201527f6f6e207374617274000000000000000000000000000000000000000000000000602082015250565b60006154b2602883613edd565b91506154bd82615456565b604082019050919050565b600060208201905081810360008301526154e1816154a5565b9050919050565b7f4174206c65617374206f6e652063616e64696461746500000000000000000000600082015250565b600061551e601683613edd565b9150615529826154e8565b602082019050919050565b6000602082019050818103600083015261554d81615511565b9050919050565b6000819050919050565b600061557961557461556f84615554565b614d0d565b613a7b565b9050919050565b6155898161555e565b82525050565b600081549050919050565b60008190508160005260206000209050919050565b60008160001c9050919050565b6000819050919050565b60006155d96155d4836155af565b6155bc565b9050919050565b60006155ec82546155c6565b9050919050565b6000600182019050919050565b600061560b8261558f565b6156158185614119565b93506156208361559a565b8060005b8381101561565857615635826155e0565b61563f888261413a565b975061564a836155f3565b925050600181019050615624565b5085935050505092915050565b600060808201905061567a6000830187613bdf565b6156876020830186613bdf565b6156946040830185615580565b81810360608301526156a68184615600565b90509594505050505056fea2646970667358221220052d85704aac4d132006f68735ebe92e8e51237edb4c639974166a01b0c703c564736f6c634300081c0033",
  "linkReferences": {},
  "deployedLinkReferences": {}
}