{"contracts/PresidentialElection.sol":{"PresidentialElection":{"abi":[{"anonymous":false,"inputs":[{"indexed":true,"internalType":"address","name":"admin","type":"address"}],"name":"AdminAdded","type":"event"},{"anonymous":false,"inputs":[{"indexed":true,"internalType":"address","name":"admin","type":"address"}],"name":"AdminRemoved","type":"event"},{"anonymous":false,"inputs":[{"indexed":true,"internalType":"uint256","name":"candidateId","type":"uint256"},{"indexed":false,"internalType":"string","name":"firstName","type":"string"},{"indexed":false,"internalType":"string","name":"lastName","type":"string"},{"indexed":false,"internalType":"string","name":"politicalParty","type":"string"}],"name":"CandidateAdded","type":"event"},{"anonymous":false,"inputs":[{"indexed":true,"internalType":"uint256","name":"electionId","type":"uint256"},{"indexed":false,"internalType":"uint256","name":"electionStartDate","type":"uint256"},{"indexed":false,"internalType":"uint256","name":"firstRoundStartDate","type":"uint256"},{"indexed":false,"internalType":"uint256","name":"roundDuration","type":"uint256"},{"indexed":false,"internalType":"uint256[]","name":"candidateIds","type":"uint256[]"}],"name":"ElectionCreated","type":"event"},{"anonymous":false,"inputs":[{"indexed":true,"internalType":"address","name":"previousHolder","type":"address"},{"indexed":true,"internalType":"address","name":"newHolder","type":"address"}],"name":"OwnershipTransferred","type":"event"},{"anonymous":false,"inputs":[{"indexed":true,"internalType":"uint256","name":"electionId","type":"uint256"},{"indexed":false,"internalType":"uint8","name":"round","type":"uint8"},{"indexed":false,"internalType":"bool","name":"finished","type":"bool"},{"indexed":false,"internalType":"uint256","name":"winnerCandidateId","type":"uint256"}],"name":"RoundFinalized","type":"event"},{"anonymous":false,"inputs":[{"indexed":true,"internalType":"uint256","name":"electionId","type":"uint256"},{"indexed":false,"internalType":"uint8","name":"round","type":"uint8"},{"indexed":true,"internalType":"uint256","name":"candidateId","type":"uint256"},{"indexed":false,"internalType":"address","name":"voter","type":"address"},{"indexed":false,"internalType":"uint256","name":"timestamp","type":"uint256"}],"name":"VoteCast","type":"event"},{"anonymous":false,"inputs":[{"indexed":true,"internalType":"address","name":"voter","type":"address"},{"indexed":false,"internalType":"uint256","name":"registrationTime","type":"uint256"}],"name":"VoterAdded","type":"event"},{"anonymous":false,"inputs":[{"indexed":true,"internalType":"address","name":"voter","type":"address"}],"name":"VoterRemoved","type":"event"},{"inputs":[{"internalType":"address","name":"_admin","type":"address"}],"name":"addAdmin","outputs":[],"stateMutability":"nonpayable","type":"function"},{"inputs":[{"internalType":"string","name":"_firstName","type":"string"},{"internalType":"string","name":"_lastName","type":"string"},{"internalType":"string","name":"_politicalParty","type":"string"}],"name":"addCandidate","outputs":[],"stateMutability":"nonpayable","type":"function"},{"inputs":[{"internalType":"address","name":"_voter","type":"address"}],"name":"addVoter","outputs":[],"stateMutability":"nonpayable","type":"function"},{"inputs":[{"internalType":"address","name":"","type":"address"}],"name":"admins","outputs":[{"internalType":"bool","name":"","type":"bool"}],"stateMutability":"view","type":"function"},{"inputs":[{"internalType":"uint256","name":"candidateId","type":"uint256"}],"name":"candidateExistsById","outputs":[{"internalType":"bool","name":"","type":"bool"}],"stateMutability":"view","type":"function"},{"inputs":[{"internalType":"uint256","name":"","type":"uint256"},{"internalType":"uint256","name":"","type":"uint256"}],"name":"candidateTotalVotes","outputs":[{"internalType":"uint256","name":"","type":"uint256"}],"stateMutability":"view","type":"function"},{"inputs":[{"internalType":"uint256","name":"","type":"uint256"}],"name":"candidates","outputs":[{"internalType":"uint256","name":"id","type":"uint256"},{"internalType":"string","name":"firstName","type":"string"},{"internalType":"string","name":"lastName","type":"string"},{"internalType":"string","name":"politicalParty","type":"string"}],"stateMutability":"view","type":"function"},{"inputs":[],"name":"candidatesCount","outputs":[{"internalType":"uint256","name":"","type":"uint256"}],"stateMutability":"view","type":"function"},{"inputs":[{"internalType":"uint256","name":"electionId","type":"uint256"},{"internalType":"uint256","name":"candidateId","type":"uint256"}],"name":"castVote","outputs":[],"stateMutability":"nonpayable","type":"function"},{"inputs":[],"name":"contractHolder","outputs":[{"internalType":"address","name":"","type":"address"}],"stateMutability":"view","type":"function"},{"inputs":[{"internalType":"uint256","name":"_electionStartDate","type":"uint256"},{"internalType":"uint256","name":"_firstRoundStartDate","type":"uint256"},{"internalType":"uint256[]","name":"_candidateIds","type":"uint256[]"}],"name":"createElection","outputs":[{"internalType":"uint256","name":"","type":"uint256"}],"stateMutability":"nonpayable","type":"function"},{"inputs":[{"internalType":"uint256","name":"","type":"uint256"},{"internalType":"uint8","name":"","type":"uint8"}],"name":"electionRounds","outputs":[{"internalType":"uint8","name":"roundNumber","type":"uint8"},{"internalType":"uint256","name":"startDate","type":"uint256"},{"internalType":"uint256","name":"endDate","type":"uint256"},{"internalType":"bool","name":"finalized","type":"bool"},{"internalType":"uint256","name":"totalVotes","type":"uint256"},{"internalType":"uint256","name":"winnerCandidateId","type":"uint256"}],"stateMutability":"view","type":"function"},{"inputs":[{"internalType":"uint256","name":"","type":"uint256"},{"internalType":"uint256","name":"","type":"uint256"}],"name":"electionWinners","outputs":[{"internalType":"uint256","name":"","type":"uint256"}],"stateMutability":"view","type":"function"},{"inputs":[{"internalType":"uint256","name":"","type":"uint256"}],"name":"elections","outputs":[{"internalType":"uint256","name":"electionId","type":"uint256"},{"internalType":"uint256","name":"electionStartDate","type":"uint256"},{"internalType":"uint256","name":"firstRoundStartDate","type":"uint256"},{"internalType":"uint256","name":"roundDuration","type":"uint256"},{"internalType":"bool","name":"isActive","type":"bool"},{"internalType":"uint8","name":"currentRound","type":"uint8"},{"internalType":"uint256","name":"winnerCandidateId","type":"uint256"}],"stateMutability":"view","type":"function"},{"inputs":[],"name":"electionsCount","outputs":[{"internalType":"uint256","name":"","type":"uint256"}],"stateMutability":"view","type":"function"},{"inputs":[{"internalType":"uint256","name":"electionId","type":"uint256"},{"internalType":"bool","name":"force","type":"bool"}],"name":"finalizeRound","outputs":[],"stateMutability":"nonpayable","type":"function"},{"inputs":[],"name":"getAdmins","outputs":[{"internalType":"address[]","name":"","type":"address[]"}],"stateMutability":"view","type":"function"},{"inputs":[],"name":"getAllCandidates","outputs":[{"components":[{"internalType":"uint256","name":"id","type":"uint256"},{"internalType":"string","name":"firstName","type":"string"},{"internalType":"string","name":"lastName","type":"string"},{"internalType":"string","name":"politicalParty","type":"string"}],"internalType":"struct CandidatesManager.Candidate[]","name":"","type":"tuple[]"}],"stateMutability":"view","type":"function"},{"inputs":[],"name":"getAllVoters","outputs":[{"internalType":"address[]","name":"","type":"address[]"}],"stateMutability":"view","type":"function"},{"inputs":[{"internalType":"uint256","name":"electionId","type":"uint256"},{"internalType":"uint8","name":"roundNumber","type":"uint8"}],"name":"getCandidateIdsForRound","outputs":[{"internalType":"uint256[]","name":"","type":"uint256[]"}],"stateMutability":"view","type":"function"},{"inputs":[{"internalType":"uint256","name":"electionId","type":"uint256"},{"internalType":"uint8","name":"round","type":"uint8"}],"name":"getElectionRoundResults","outputs":[{"internalType":"uint256","name":"totalVotes","type":"uint256"},{"internalType":"uint256[]","name":"candidateIds","type":"uint256[]"},{"internalType":"uint256[]","name":"votesPerCandidate","type":"uint256[]"},{"internalType":"uint256","name":"startDate","type":"uint256"},{"internalType":"uint256","name":"endDate","type":"uint256"}],"stateMutability":"view","type":"function"},{"inputs":[{"internalType":"uint256","name":"_electionId","type":"uint256"},{"internalType":"uint8","name":"_round","type":"uint8"}],"name":"getRoundResults","outputs":[{"internalType":"uint256","name":"totalVotes","type":"uint256"},{"internalType":"uint256[]","name":"candidateIds","type":"uint256[]"},{"internalType":"uint256[]","name":"votesPerCandidate","type":"uint256[]"},{"internalType":"uint256","name":"startDate","type":"uint256"},{"internalType":"uint256","name":"endDate","type":"uint256"}],"stateMutability":"view","type":"function"},{"inputs":[{"internalType":"uint256","name":"_electionId","type":"uint256"},{"internalType":"uint8","name":"_round","type":"uint8"}],"name":"getRoundStatus","outputs":[{"internalType":"enum ElectionLogic.RoundStatus","name":"","type":"uint8"}],"stateMutability":"view","type":"function"},{"inputs":[{"internalType":"uint256","name":"electionId","type":"uint256"},{"internalType":"uint8","name":"roundNumber","type":"uint8"}],"name":"isRoundActive","outputs":[{"internalType":"bool","name":"","type":"bool"}],"stateMutability":"view","type":"function"},{"inputs":[{"internalType":"address","name":"_admin","type":"address"}],"name":"removeAdmin","outputs":[],"stateMutability":"nonpayable","type":"function"},{"inputs":[{"internalType":"address","name":"_voter","type":"address"}],"name":"removeVoter","outputs":[],"stateMutability":"nonpayable","type":"function"},{"inputs":[{"internalType":"uint256","name":"","type":"uint256"},{"internalType":"uint8","name":"","type":"uint8"},{"internalType":"uint256","name":"","type":"uint256"}],"name":"roundCandidateVotes","outputs":[{"internalType":"uint256","name":"","type":"uint256"}],"stateMutability":"view","type":"function"},{"inputs":[{"internalType":"uint256","name":"","type":"uint256"},{"internalType":"uint8","name":"","type":"uint8"},{"internalType":"address","name":"","type":"address"}],"name":"roundHasVoted","outputs":[{"internalType":"bool","name":"","type":"bool"}],"stateMutability":"view","type":"function"},{"inputs":[{"internalType":"address","name":"_newHolder","type":"address"}],"name":"transferOwnership","outputs":[],"stateMutability":"nonpayable","type":"function"},{"inputs":[{"internalType":"uint256","name":"","type":"uint256"}],"name":"voterList","outputs":[{"internalType":"address","name":"","type":"address"}],"stateMutability":"view","type":"function"},{"inputs":[{"internalType":"address","name":"","type":"address"}],"name":"voters","outputs":[{"internalType":"bool","name":"isRegistered","type":"bool"},{"internalType":"uint256","name":"registrationTime","type":"uint256"}],"stateMutability":"view","type":"function"},{"inputs":[{"internalType":"uint256","name":"","type":"uint256"},{"internalType":"uint8","name":"","type":"uint8"},{"internalType":"uint256","name":"","type":"uint256"}],"name":"votersByRound","outputs":[{"internalType":"address","name":"","type":"address"}],"stateMutability":"view","type":"function"},{"inputs":[{"internalType":"uint256","name":"","type":"uint256"},{"internalType":"uint8","name":"","type":"uint8"},{"internalType":"address","name":"","type":"address"}],"name":"votes","outputs":[{"internalType":"uint256","name":"candidateId","type":"uint256"},{"internalType":"uint256","name":"timestamp","type":"uint256"}],"stateMutability":"view","type":"function"}],"evm":{"bytecode":{"linkReferences":{},"object":"608060405234801561001057600080fd5b5033600d60006101000a81548173ffffffffffffffffffffffffffffffffffffffff021916908373ffffffffffffffffffffffffffffffffffffffff1602179055506001600e60003373ffffffffffffffffffffffffffffffffffffffff1673ffffffffffffffffffffffffffffffffffffffff16815260200190815260200160002060006101000a81548160ff021916908315150217905550600f339080600181540180825580915050600190039060005260206000200160009091909190916101000a81548173ffffffffffffffffffffffffffffffffffffffff021916908373ffffffffffffffffffffffffffffffffffffffff1602179055503373ffffffffffffffffffffffffffffffffffffffff167f44d6d25963f097ad14f29f06854a01f575648a1ef82f30e562ccd3889717e33960405160405180910390a26040518060800160405280600081526020016040518060400160405280600481526020017f566f74650000000000000000000000000000000000000000000000000000000081525081526020016040518060400160405280600581526020017f426c616e6300000000000000000000000000000000000000000000000000000081525081526020016040518060400160405280600581526020017f417563756e0000000000000000000000000000000000000000000000000000008152508152506002600080815260200190815260200160002060008201518160000155602082015181600101908161024391906104c8565b50604082015181600201908161025991906104c8565b50606082015181600301908161026f91906104c8565b5090505061059a565b600081519050919050565b7f4e487b7100000000000000000000000000000000000000000000000000000000600052604160045260246000fd5b7f4e487b7100000000000000000000000000000000000000000000000000000000600052602260045260246000fd5b600060028204905060018216806102f957607f821691505b60208210810361030c5761030b6102b2565b5b50919050565b60008190508160005260206000209050919050565b60006020601f8301049050919050565b600082821b905092915050565b6000600883026103747fffffffffffffffffffffffffffffffffffffffffffffffffffffffffffffffff82610337565b61037e8683610337565b95508019841693508086168417925050509392505050565b6000819050919050565b6000819050919050565b60006103c56103c06103bb84610396565b6103a0565b610396565b9050919050565b6000819050919050565b6103df836103aa565b6103f36103eb826103cc565b848454610344565b825550505050565b600090565b6104086103fb565b6104138184846103d6565b505050565b5b818110156104375761042c600082610400565b600181019050610419565b5050565b601f82111561047c5761044d81610312565b61045684610327565b81016020851015610465578190505b61047961047185610327565b830182610418565b50505b505050565b600082821c905092915050565b600061049f60001984600802610481565b1980831691505092915050565b60006104b8838361048e565b9150826002028217905092915050565b6104d182610278565b67ffffffffffffffff8111156104ea576104e9610283565b5b6104f482546102e1565b6104ff82828561043b565b600060209050601f8311600181146105325760008415610520578287015190505b61052a85826104ac565b865550610592565b601f19841661054086610312565b60005b8281101561056857848901518255600182019150602085019450602081019050610543565b868310156105855784890151610581601f89168261048e565b8355505b6001600288020188555050505b505050505050565b615857806105a96000396000f3fe608060405234801561001057600080fd5b50600436106101fa5760003560e01c80637bf39e121161011a578063aa82ae79116100ad578063caf1475d1161007c578063caf1475d14610672578063e684cbf9146106a3578063f0134566146106d3578063f2fde38b14610703578063f4ab9adf1461071f576101fa565b8063aa82ae79146105c1578063ab95a7dd146105f6578063ad71f8dc14610626578063b04e523e14610642576101fa565b80639a74c695116100e95780639a74c695146105205780639ed3e95e1461053e578063a298cbc114610572578063a3ec138d14610590576101fa565b80637bf39e1214610474578063837ec15f146104a457806386c1ff68146104d457806388a2c4b6146104f0576101fa565b8063429b62e5116101925780635e6fef01116101615780635e6fef01146103be5780636546d5fd146103f457806370480275146104245780637351f0f214610440576101fa565b8063429b62e51461031257806350e2e8af14610342578063545458c81461037257806355af4788146103a2576101fa565b80632e6997fe116101ce5780632e6997fe1461028557806331ae450b146102a35780633477ee2e146102c157806335bbe70e146102f4576101fa565b80623eee01146101ff5780631785f53c1461022f5780632c0a3f891461024b5780632d35a8a214610267575b600080fd5b61021960048036038101906102149190613b8f565b61073b565b6040516102269190613bd7565b60405180910390f35b61024960048036038101906102449190613c50565b610755565b005b61026560048036038101906102609190613c7d565b610a96565b005b61026f610ff3565b60405161027c9190613ccc565b60405180910390f35b61028d610ff9565b60405161029a9190613eb9565b60405180910390f35b6102ab611284565b6040516102b89190613f99565b60405180910390f35b6102db60048036038101906102d69190613b8f565b611312565b6040516102eb9493929190614005565b60405180910390f35b6102fc6114da565b6040516103099190613f99565b60405180910390f35b61032c60048036038101906103279190613c50565b611568565b6040516103399190613bd7565b60405180910390f35b61035c60048036038101906103579190613b8f565b611588565b604051610369919061406e565b60405180910390f35b61038c60048036038101906103879190613c7d565b6115c7565b6040516103999190613ccc565b60405180910390f35b6103bc60048036038101906103b791906140b5565b6115ec565b005b6103d860048036038101906103d39190613b8f565b612054565b6040516103eb9796959493929190614111565b60405180910390f35b61040e600480360381019061040991906141ac565b6120b0565b60405161041b919061429b565b60405180910390f35b61043e60048036038101906104399190613c50565b612136565b005b61045a600480360381019061045591906141ac565b6123c3565b60405161046b9594939291906142bd565b60405180910390f35b61048e6004803603810190610489919061431e565b6123e9565b60405161049b9190613bd7565b60405180910390f35b6104be60048036038101906104b991906141ac565b612425565b6040516104cb9190613bd7565b60405180910390f35b6104ee60048036038101906104e99190613c50565b612475565b005b61050a600480360381019061050591906141ac565b6127bb565b60405161051791906143e8565b60405180910390f35b61052861285e565b6040516105359190613ccc565b60405180910390f35b610558600480360381019061055391906141ac565b612864565b6040516105699594939291906142bd565b60405180910390f35b61057a612a42565b604051610587919061406e565b60405180910390f35b6105aa60048036038101906105a59190613c50565b612a68565b6040516105b8929190614403565b60405180910390f35b6105db60048036038101906105d691906141ac565b612a99565b6040516105ed9695949392919061442c565b60405180910390f35b610610600480360381019061060b919061448d565b612afc565b60405161061d919061406e565b60405180910390f35b610640600480360381019061063b9190614615565b612b57565b005b61065c60048036038101906106579190613c7d565b612d80565b6040516106699190613ccc565b60405180910390f35b61068c6004803603810190610687919061431e565b612db1565b60405161069a9291906146bc565b60405180910390f35b6106bd60048036038101906106b8919061448d565b612def565b6040516106ca9190613ccc565b60405180910390f35b6106ed60048036038101906106e89190614745565b612e21565b6040516106fa9190613ccc565b60405180910390f35b61071d60048036038101906107189190613c50565b612ec5565b005b61073960048036038101906107349190613c50565b613084565b005b6000808211801561074e57506004548211155b9050919050565b600d60009054906101000a900473ffffffffffffffffffffffffffffffffffffffff1673ffffffffffffffffffffffffffffffffffffffff163373ffffffffffffffffffffffffffffffffffffffff16146107e5576040517f08c379a00000000000000000000000000000000000000000000000000000000081526004016107dc90614805565b60405180910390fd5b600e60008273ffffffffffffffffffffffffffffffffffffffff1673ffffffffffffffffffffffffffffffffffffffff16815260200190815260200160002060009054906101000a900460ff16610871576040517f08c379a000000000000000000000000000000000000000000000000000000000815260040161086890614871565b60405180910390fd5b6000600e60008373ffffffffffffffffffffffffffffffffffffffff1673ffffffffffffffffffffffffffffffffffffffff16815260200190815260200160002060006101000a81548160ff02191690831515021790555060005b600f80549050811015610a4f578173ffffffffffffffffffffffffffffffffffffffff16600f828154811061090457610903614891565b5b9060005260206000200160009054906101000a900473ffffffffffffffffffffffffffffffffffffffff1673ffffffffffffffffffffffffffffffffffffffff1603610a4257600f6001600f8054905061095e91906148ef565b8154811061096f5761096e614891565b5b9060005260206000200160009054906101000a900473ffffffffffffffffffffffffffffffffffffffff16600f82815481106109ae576109ad614891565b5b9060005260206000200160006101000a81548173ffffffffffffffffffffffffffffffffffffffff021916908373ffffffffffffffffffffffffffffffffffffffff160217905550600f805480610a0857610a07614923565b5b6001900381819060005260206000200160006101000a81549073ffffffffffffffffffffffffffffffffffffffff02191690559055610a4f565b80806001019150506108cc565b508073ffffffffffffffffffffffffffffffffffffffff167fa3b62bc36326052d97ea62d63c3d60308ed4c3ea8ac079dd8499f1e9c4f80c0f60405160405180910390a250565b600160003373ffffffffffffffffffffffffffffffffffffffff1673ffffffffffffffffffffffffffffffffffffffff16815260200190815260200160002060000160009054906101000a900460ff16610b25576040517f08c379a0000000000000000000000000000000000000000000000000000000008152600401610b1c9061499e565b60405180910390fd5b60006006600084815260200190815260200160002090508060050160009054906101000a900460ff16610b8d576040517f08c379a0000000000000000000000000000000000000000000000000000000008152600401610b8490614a0a565b60405180910390fd5b60008160050160019054906101000a900460ff16905060006007600086815260200190815260200160002060008360ff1660ff16815260200190815260200160002090508060010154421015610c18576040517f08c379a0000000000000000000000000000000000000000000000000000000008152600401610c0f90614a76565b60405180910390fd5b8060020154421115610c5f576040517f08c379a0000000000000000000000000000000000000000000000000000000008152600401610c5690614ae2565b60405180910390fd5b600a600086815260200190815260200160002060008360ff1660ff16815260200190815260200160002060003373ffffffffffffffffffffffffffffffffffffffff1673ffffffffffffffffffffffffffffffffffffffff16815260200190815260200160002060009054906101000a900460ff1615610d14576040517f08c379a0000000000000000000000000000000000000000000000000000000008152600401610d0b90614b4e565b60405180910390fd5b6000805b8260060180549050811015610d645785836006018281548110610d3e57610d3d614891565b5b906000526020600020015403610d575760019150610d64565b8080600101915050610d18565b5080610da5576040517f08c379a0000000000000000000000000000000000000000000000000000000008152600401610d9c90614bba565b60405180910390fd5b6001600a600088815260200190815260200160002060008560ff1660ff16815260200190815260200160002060003373ffffffffffffffffffffffffffffffffffffffff1673ffffffffffffffffffffffffffffffffffffffff16815260200190815260200160002060006101000a81548160ff0219169083151502179055506008600087815260200190815260200160002060008460ff1660ff16815260200190815260200160002060008681526020019081526020016000206000815480929190610e7190614bda565b9190505550816004016000815480929190610e8b90614bda565b91905055506040518060400160405280868152602001428152506010600088815260200190815260200160002060008560ff1660ff16815260200190815260200160002060003373ffffffffffffffffffffffffffffffffffffffff1673ffffffffffffffffffffffffffffffffffffffff16815260200190815260200160002060008201518160000155602082015181600101559050506009600087815260200190815260200160002060008460ff1660ff168152602001908152602001600020339080600181540180825580915050600190039060005260206000200160009091909190916101000a81548173ffffffffffffffffffffffffffffffffffffffff021916908373ffffffffffffffffffffffffffffffffffffffff16021790555084867ff1f3396e31d1dbd068c4e6169959218fe5ae731d73149dd82edc33beca09f22a853342604051610fe393929190614c22565b60405180910390a3505050505050565b60045481565b60606000600160045461100c9190614c59565b67ffffffffffffffff811115611025576110246144ea565b5b60405190808252806020026020018201604052801561105e57816020015b61104b613a32565b8152602001906001900390816110435790505b50905060005b600454811161127c5760026000828152602001908152602001600020604051806080016040529081600082015481526020016001820180546110a590614cbc565b80601f01602080910402602001604051908101604052809291908181526020018280546110d190614cbc565b801561111e5780601f106110f35761010080835404028352916020019161111e565b820191906000526020600020905b81548152906001019060200180831161110157829003601f168201915b5050505050815260200160028201805461113790614cbc565b80601f016020809104026020016040519081016040528092919081815260200182805461116390614cbc565b80156111b05780601f10611185576101008083540402835291602001916111b0565b820191906000526020600020905b81548152906001019060200180831161119357829003601f168201915b505050505081526020016003820180546111c990614cbc565b80601f01602080910402602001604051908101604052809291908181526020018280546111f590614cbc565b80156112425780601f1061121757610100808354040283529160200191611242565b820191906000526020600020905b81548152906001019060200180831161122557829003601f168201915b50505050508152505082828151811061125e5761125d614891565b5b6020026020010181905250808061127490614bda565b915050611064565b508091505090565b6060600f80548060200260200160405190810160405280929190818152602001828054801561130857602002820191906000526020600020905b8160009054906101000a900473ffffffffffffffffffffffffffffffffffffffff1673ffffffffffffffffffffffffffffffffffffffff16815260200190600101908083116112be575b5050505050905090565b600260205280600052604060002060009150905080600001549080600101805461133b90614cbc565b80601f016020809104026020016040519081016040528092919081815260200182805461136790614cbc565b80156113b45780601f10611389576101008083540402835291602001916113b4565b820191906000526020600020905b81548152906001019060200180831161139757829003601f168201915b5050505050908060020180546113c990614cbc565b80601f01602080910402602001604051908101604052809291908181526020018280546113f590614cbc565b80156114425780601f1061141757610100808354040283529160200191611442565b820191906000526020600020905b81548152906001019060200180831161142557829003601f168201915b50505050509080600301805461145790614cbc565b80601f016020809104026020016040519081016040528092919081815260200182805461148390614cbc565b80156114d05780601f106114a5576101008083540402835291602001916114d0565b820191906000526020600020905b8154815290600101906020018083116114b357829003601f168201915b5050505050905084565b6060600080548060200260200160405190810160405280929190818152602001828054801561155e57602002820191906000526020600020905b8160009054906101000a900473ffffffffffffffffffffffffffffffffffffffff1673ffffffffffffffffffffffffffffffffffffffff1681526020019060010190808311611514575b5050505050905090565b600e6020528060005260406000206000915054906101000a900460ff1681565b6000818154811061159857600080fd5b906000526020600020016000915054906101000a900473ffffffffffffffffffffffffffffffffffffffff1681565b600c602052816000526040600020602052806000526040600020600091509150505481565b600060066000848152602001908152602001600020905060008160050160019054906101000a900460ff16905060006007600086815260200190815260200160002060008360ff1660ff1681526020019081526020016000209050836116935780600201544211611692576040517f08c379a000000000000000000000000000000000000000000000000000000000815260040161168990614d39565b60405180910390fd5b5b8060030160009054906101000a900460ff16156116e5576040517f08c379a00000000000000000000000000000000000000000000000000000000081526004016116dc90614da5565b60405180910390fd5b60006008600087815260200190815260200160002060008460ff1660ff168152602001908152602001600020600080815260200190815260200160002054826004015461173291906148ef565b9050600061174087856132d8565b905060018460ff1603611b355760008211801561177857506032826117659190614dc5565b606482600001516117769190614dc5565b115b8015611788575060018160600151145b1561181a578060400151856006018190555060018360030160006101000a81548160ff021916908315150217905550867f3a9cda69ee0d6dfee4acf22426df9b50f9af0d2acd191bd409070a7a51c3ac7b85600184604001516040516117f093929190614e07565b60405180910390a260008560050160006101000a81548160ff021916908315150217905550611b30565b60006001856118299190614e3e565b9050808660050160016101000a81548160ff021916908360ff1602179055506000600760008a815260200190815260200160002060008360ff1660ff1681526020019081526020016000209050818160000160006101000a81548160ff021916908360ff1602179055504281600101819055508660030154426118ac9190614c59565b8160020181905550606060018460600151111561197257836060015167ffffffffffffffff8111156118e1576118e06144ea565b5b60405190808252806020026020018201604052801561190f5781602001602082028036833780820191505090505b50905060005b846060015181101561196c578460800151818151811061193857611937614891565b5b602002602001015182828151811061195357611952614891565b5b6020026020010181815250508080600101915050611915565b506119dc565b6119d98a88866040015187602001518a6006018054806020026020016040519081016040528092919081815260200182805480156119cf57602002820191906000526020600020905b8154815260200190600101908083116119bb575b5050505050613507565b90505b6000600182516119ec9190614c59565b67ffffffffffffffff811115611a0557611a046144ea565b5b604051908082528060200260200182016040528015611a335781602001602082028036833780820191505090505b509050600081600081518110611a4c57611a4b614891565b5b60200260200101818152505060005b8251811015611ab757828181518110611a7757611a76614891565b5b602002602001015182600183611a8d9190614c59565b81518110611a9e57611a9d614891565b5b6020026020010181815250508080600101915050611a5b565b5080836006019080519060200190611ad0929190613a5a565b5060018760030160006101000a81548160ff0219169083151502179055508a7f3a9cda69ee0d6dfee4acf22426df9b50f9af0d2acd191bd409070a7a51c3ac7b89600080604051611b2393929190614eb8565b60405180910390a2505050505b61204b565b60028460ff1603611e78576001816060015103611bd9578060400151856006018190555060018360030160006101000a81548160ff021916908315150217905550867f3a9cda69ee0d6dfee4acf22426df9b50f9af0d2acd191bd409070a7a51c3ac7b8560018460400151604051611baf93929190614e07565b60405180910390a260008560050160006101000a81548160ff021916908315150217905550611e73565b6000600185611be89190614e3e565b9050808660050160016101000a81548160ff021916908360ff1602179055506000600760008a815260200190815260200160002060008360ff1660ff1681526020019081526020016000209050818160000160006101000a81548160ff021916908360ff160217905550428160010181905550866003015442611c6b9190614c59565b81600201819055506000836060015167ffffffffffffffff811115611c9357611c926144ea565b5b604051908082528060200260200182016040528015611cc15781602001602082028036833780820191505090505b50905060005b8460600151811015611d1e5784608001518181518110611cea57611ce9614891565b5b6020026020010151828281518110611d0557611d04614891565b5b6020026020010181815250508080600101915050611cc7565b50600060018251611d2f9190614c59565b67ffffffffffffffff811115611d4857611d476144ea565b5b604051908082528060200260200182016040528015611d765781602001602082028036833780820191505090505b509050600081600081518110611d8f57611d8e614891565b5b60200260200101818152505060005b8251811015611dfa57828181518110611dba57611db9614891565b5b602002602001015182600183611dd09190614c59565b81518110611de157611de0614891565b5b6020026020010181815250508080600101915050611d9e565b5080836006019080519060200190611e13929190613a5a565b5060018760030160006101000a81548160ff0219169083151502179055508a7f3a9cda69ee0d6dfee4acf22426df9b50f9af0d2acd191bd409070a7a51c3ac7b89600080604051611e6693929190614eb8565b60405180910390a2505050505b61204a565b60038460ff1603612049576001816060015103611f1c578060400151856006018190555060018360030160006101000a81548160ff021916908315150217905550867f3a9cda69ee0d6dfee4acf22426df9b50f9af0d2acd191bd409070a7a51c3ac7b8560018460400151604051611ef293929190614e07565b60405180910390a260008560050160006101000a81548160ff021916908315150217905550612048565b60008060005b8360600151811015611f9857600084608001518281518110611f4757611f46614891565b5b602002602001015190506000600c60008d8152602001908152602001600020600083815260200190815260200160002054905083811115611f89578093508194505b50508080600101915050611f22565b508187600601819055508260800151600b60008b81526020019081526020016000209080519060200190611fcd929190613a5a565b5060018560030160006101000a81548160ff021916908315150217905550887f3a9cda69ee0d6dfee4acf22426df9b50f9af0d2acd191bd409070a7a51c3ac7b8760018560405161202093929190614e07565b60405180910390a260008760050160006101000a81548160ff02191690831515021790555050505b5b5b5b50505050505050565b60066020528060005260406000206000915090508060000154908060010154908060020154908060030154908060050160009054906101000a900460ff16908060050160019054906101000a900460ff16908060060154905087565b60606007600084815260200190815260200160002060008360ff1660ff16815260200190815260200160002060060180548060200260200160405190810160405280929190818152602001828054801561212957602002820191906000526020600020905b815481526020019060010190808311612115575b5050505050905092915050565b600d60009054906101000a900473ffffffffffffffffffffffffffffffffffffffff1673ffffffffffffffffffffffffffffffffffffffff163373ffffffffffffffffffffffffffffffffffffffff16146121c6576040517f08c379a00000000000000000000000000000000000000000000000000000000081526004016121bd90614805565b60405180910390fd5b600073ffffffffffffffffffffffffffffffffffffffff168173ffffffffffffffffffffffffffffffffffffffff1603612235576040517f08c379a000000000000000000000000000000000000000000000000000000000815260040161222c90614f3b565b60405180910390fd5b600e60008273ffffffffffffffffffffffffffffffffffffffff1673ffffffffffffffffffffffffffffffffffffffff16815260200190815260200160002060009054906101000a900460ff16156122c2576040517f08c379a00000000000000000000000000000000000000000000000000000000081526004016122b990614fa7565b60405180910390fd5b6001600e60008373ffffffffffffffffffffffffffffffffffffffff1673ffffffffffffffffffffffffffffffffffffffff16815260200190815260200160002060006101000a81548160ff021916908315150217905550600f819080600181540180825580915050600190039060005260206000200160009091909190916101000a81548173ffffffffffffffffffffffffffffffffffffffff021916908373ffffffffffffffffffffffffffffffffffffffff1602179055508073ffffffffffffffffffffffffffffffffffffffff167f44d6d25963f097ad14f29f06854a01f575648a1ef82f30e562ccd3889717e33960405160405180910390a250565b60006060806000806123d58787612864565b945094509450945094509295509295909350565b600a602052826000526040600020602052816000526040600020602052806000526040600020600092509250509054906101000a900460ff1681565b6000806007600085815260200190815260200160002060008460ff1660ff16815260200190815260200160002090508060010154421015801561246c575080600201544211155b91505092915050565b600e60003373ffffffffffffffffffffffffffffffffffffffff1673ffffffffffffffffffffffffffffffffffffffff16815260200190815260200160002060009054906101000a900460ff16612501576040517f08c379a00000000000000000000000000000000000000000000000000000000081526004016124f890615013565b60405180910390fd5b600160008273ffffffffffffffffffffffffffffffffffffffff1673ffffffffffffffffffffffffffffffffffffffff16815260200190815260200160002060000160009054906101000a900460ff16612590576040517f08c379a00000000000000000000000000000000000000000000000000000000081526004016125879061507f565b60405180910390fd5b600160008273ffffffffffffffffffffffffffffffffffffffff1673ffffffffffffffffffffffffffffffffffffffff168152602001908152602001600020600080820160006101000a81549060ff02191690556001820160009055505060005b600080549050811015612774578173ffffffffffffffffffffffffffffffffffffffff166000828154811061262957612628614891565b5b9060005260206000200160009054906101000a900473ffffffffffffffffffffffffffffffffffffffff1673ffffffffffffffffffffffffffffffffffffffff1603612767576000600160008054905061268391906148ef565b8154811061269457612693614891565b5b9060005260206000200160009054906101000a900473ffffffffffffffffffffffffffffffffffffffff16600082815481106126d3576126d2614891565b5b9060005260206000200160006101000a81548173ffffffffffffffffffffffffffffffffffffffff021916908373ffffffffffffffffffffffffffffffffffffffff160217905550600080548061272d5761272c614923565b5b6001900381819060005260206000200160006101000a81549073ffffffffffffffffffffffffffffffffffffffff02191690559055612774565b80806001019150506125f1565b508073ffffffffffffffffffffffffffffffffffffffff167fa14a79af012d1756818f9bd59ccfc9ad185a71df86b9392d9059d9e6faf6d64460405160405180910390a250565b6000806007600085815260200190815260200160002060008460ff1660ff16815260200190815260200160002090508060030160009054906101000a900460ff161561280b576002915050612858565b8060020154421015801561282e57508060030160009054906101000a900460ff16155b1561283d576002915050612858565b80600101544210612852576001915050612858565b60009150505b92915050565b60055481565b600060608060008060006007600089815260200190815260200160002060008860ff1660ff1681526020019081526020016000209050806002015442116128e0576040517f08c379a00000000000000000000000000000000000000000000000000000000081526004016128d7906150eb565b60405180910390fd5b8060040154955080600101549250806002015491506006600089815260200190815260200160002060040180548060200260200160405190810160405280929190818152602001828054801561295557602002820191906000526020600020905b815481526020019060010190808311612941575b50505050509450845167ffffffffffffffff811115612977576129766144ea565b5b6040519080825280602002602001820160405280156129a55781602001602082028036833780820191505090505b50935060005b8551811015612a3657600860008a815260200190815260200160002060008960ff1660ff16815260200190815260200160002060008783815181106129f3576129f2614891565b5b6020026020010151815260200190815260200160002054858281518110612a1d57612a1c614891565b5b60200260200101818152505080806001019150506129ab565b50509295509295909350565b600d60009054906101000a900473ffffffffffffffffffffffffffffffffffffffff1681565b60016020528060005260406000206000915090508060000160009054906101000a900460ff16908060010154905082565b6007602052816000526040600020602052806000526040600020600091509150508060000160009054906101000a900460ff16908060010154908060020154908060030160009054906101000a900460ff16908060040154908060050154905086565b60096020528260005260406000206020528160005260406000208181548110612b2457600080fd5b90600052602060002001600092509250509054906101000a900473ffffffffffffffffffffffffffffffffffffffff1681565b600e60003373ffffffffffffffffffffffffffffffffffffffff1673ffffffffffffffffffffffffffffffffffffffff16815260200190815260200160002060009054906101000a900460ff16612be3576040517f08c379a0000000000000000000000000000000000000000000000000000000008152600401612bda90615013565b60405180910390fd5b60008383604051602001612bf8929190615193565b6040516020818303038152906040528051906020012090506003600082815260200190815260200160002060009054906101000a900460ff1615612c71576040517f08c379a0000000000000000000000000000000000000000000000000000000008152600401612c689061520e565b60405180910390fd5b60046000815480929190612c8490614bda565b91905055506040518060800160405280600454815260200185815260200184815260200183815250600260006004548152602001908152602001600020600082015181600001556020820151816001019081612ce091906153d0565b506040820151816002019081612cf691906153d0565b506060820151816003019081612d0c91906153d0565b5090505060016003600083815260200190815260200160002060006101000a81548160ff0219169083151502179055506004547f52b689af7ae3bd15a5156582545571237b58abd804c1456c3269d1b1ee93f6fc858585604051612d72939291906154a2565b60405180910390a250505050565b600b6020528160005260406000208181548110612d9c57600080fd5b90600052602060002001600091509150505481565b601060205282600052604060002060205281600052604060002060205280600052604060002060009250925050508060000154908060010154905082565b600860205282600052604060002060205281600052604060002060205280600052604060002060009250925050505481565b6000600e60003373ffffffffffffffffffffffffffffffffffffffff1673ffffffffffffffffffffffffffffffffffffffff16815260200190815260200160002060009054906101000a900460ff16612eaf576040517f08c379a0000000000000000000000000000000000000000000000000000000008152600401612ea690615013565b60405180910390fd5b612ebb8585858561365c565b9050949350505050565b600d60009054906101000a900473ffffffffffffffffffffffffffffffffffffffff1673ffffffffffffffffffffffffffffffffffffffff163373ffffffffffffffffffffffffffffffffffffffff1614612f55576040517f08c379a0000000000000000000000000000000000000000000000000000000008152600401612f4c90614805565b60405180910390fd5b600073ffffffffffffffffffffffffffffffffffffffff168173ffffffffffffffffffffffffffffffffffffffff1603612fc4576040517f08c379a0000000000000000000000000000000000000000000000000000000008152600401612fbb90614f3b565b60405180910390fd5b8073ffffffffffffffffffffffffffffffffffffffff16600d60009054906101000a900473ffffffffffffffffffffffffffffffffffffffff1673ffffffffffffffffffffffffffffffffffffffff167f8be0079c531659141344cd1fd0a4f28419497f9722a3daafe3b4186f6b6457e060405160405180910390a380600d60006101000a81548173ffffffffffffffffffffffffffffffffffffffff021916908373ffffffffffffffffffffffffffffffffffffffff16021790555050565b600e60003373ffffffffffffffffffffffffffffffffffffffff1673ffffffffffffffffffffffffffffffffffffffff16815260200190815260200160002060009054906101000a900460ff16613110576040517f08c379a000000000000000000000000000000000000000000000000000000000815260040161310790615013565b60405180910390fd5b600160008273ffffffffffffffffffffffffffffffffffffffff1673ffffffffffffffffffffffffffffffffffffffff16815260200190815260200160002060000160009054906101000a900460ff16156131a0576040517f08c379a00000000000000000000000000000000000000000000000000000000081526004016131979061553a565b60405180910390fd5b604051806040016040528060011515815260200142815250600160008373ffffffffffffffffffffffffffffffffffffffff1673ffffffffffffffffffffffffffffffffffffffff16815260200190815260200160002060008201518160000160006101000a81548160ff021916908315150217905550602082015181600101559050506000819080600181540180825580915050600190039060005260206000200160009091909190916101000a81548173ffffffffffffffffffffffffffffffffffffffff021916908373ffffffffffffffffffffffffffffffffffffffff1602179055508073ffffffffffffffffffffffffffffffffffffffff167f56aa1768b52ddcdda65c5561181844717c2eed4bb3c848376d4420860da04dae426040516132cd9190613ccc565b60405180910390a250565b6132e0613aa7565b60006007600085815260200190815260200160002060008460ff1660ff16815260200190815260200160002090506000816006018054905090508067ffffffffffffffff811115613334576133336144ea565b5b6040519080825280602002602001820160405280156133625781602001602082028036833780820191505090505b50836080018190525060005b818110156134fe57600083600601828154811061338e5761338d614891565b5b90600052602060002001549050600081036133a957506134f1565b60006008600089815260200190815260200160002060008860ff1660ff1681526020019081526020016000206000838152602001908152602001600020549050856000015181111561344c57856000015186602001818152505080866000018181525050818660400181815250508186608001516000815181106134305761342f614891565b5b60200260200101818152505060018660600181815250506134b3565b8560000151810361349a5781866080015187606001518151811061347357613472614891565b5b60200260200101818152505085606001805180919061349190614bda565b815250506134b2565b85602001518111156134b157808660200181815250505b5b5b80600c60008a8152602001908152602001600020600084815260200190815260200160002060008282546134e79190614c59565b9250508190555050505b808060010191505061336e565b50505092915050565b606060006135178787868661398b565b90508060016135269190614c59565b67ffffffffffffffff81111561353f5761353e6144ea565b5b60405190808252806020026020018201604052801561356d5781602001602082028036833780820191505090505b509150848260008151811061358557613584614891565b5b60200260200101818152505060006001905060005b84518110156136505760008582815181106135b8576135b7614891565b5b60200260200101519050600081036135d05750613643565b86600860008c815260200190815260200160002060008b60ff1660ff16815260200190815260200160002060008381526020019081526020016000205403613641578085848151811061362657613625614891565b5b602002602001018181525050828061363d90614bda565b9350505b505b808060010191505061359a565b50505095945050505050565b60004285116136a0576040517f08c379a0000000000000000000000000000000000000000000000000000000008152600401613697906155a6565b60405180910390fd5b848410156136e3576040517f08c379a00000000000000000000000000000000000000000000000000000000081526004016136da90615638565b60405180910390fd5b60008383905011613729576040517f08c379a0000000000000000000000000000000000000000000000000000000008152600401613720906156a4565b60405180910390fd5b6005600081548092919061373c90614bda565b91905055506005549050600060066000838152602001908152602001600020905081816000018190555085816001018190555084816002018190555062015180816003018190555060018160050160006101000a81548160ff02191690831515021790555060018160050160016101000a81548160ff021916908360ff1602179055506001848490506137cf9190614c59565b67ffffffffffffffff8111156137e8576137e76144ea565b5b6040519080825280602002602001820160405280156138165781602001602082028036833780820191505090505b5081600401908051906020019061382e929190613a5a565b5060008160040160008154811061384857613847614891565b5b906000526020600020018190555060005b848490508110156138bb5784848281811061387757613876614891565b5b905060200201358260040160018361388f9190614c59565b815481106138a05761389f614891565b5b90600052602060002001819055508080600101915050613859565b506000600760008481526020019081526020016000206000600160ff168152602001908152602001600020905060018160000160006101000a81548160ff021916908360ff160217905550858160010181905550620151808661391e9190614c59565b8160020181905550816004018160060190805461393c929190613ad6565b50827f94d2ca1585096a82008b4e4c47222139e365b7386c639acb5562a4f8a959f4c18888620151808660040160405161397994939291906157d5565b60405180910390a25050949350505050565b600080600090505b8251811015613a295760008382815181106139b1576139b0614891565b5b60200260200101519050600081036139c95750613a1c565b846008600089815260200190815260200160002060008860ff1660ff16815260200190815260200160002060008381526020019081526020016000205403613a1a578280613a1690614bda565b9350505b505b8080600101915050613993565b50949350505050565b6040518060800160405280600081526020016060815260200160608152602001606081525090565b828054828255906000526020600020908101928215613a96579160200282015b82811115613a95578251825591602001919060010190613a7a565b5b509050613aa39190613b28565b5090565b6040518060a0016040528060008152602001600081526020016000815260200160008152602001606081525090565b828054828255906000526020600020908101928215613b175760005260206000209182015b82811115613b16578254825591600101919060010190613afb565b5b509050613b249190613b28565b5090565b5b80821115613b41576000816000905550600101613b29565b5090565b6000604051905090565b600080fd5b600080fd5b6000819050919050565b613b6c81613b59565b8114613b7757600080fd5b50565b600081359050613b8981613b63565b92915050565b600060208284031215613ba557613ba4613b4f565b5b6000613bb384828501613b7a565b91505092915050565b60008115159050919050565b613bd181613bbc565b82525050565b6000602082019050613bec6000830184613bc8565b92915050565b600073ffffffffffffffffffffffffffffffffffffffff82169050919050565b6000613c1d82613bf2565b9050919050565b613c2d81613c12565b8114613c3857600080fd5b50565b600081359050613c4a81613c24565b92915050565b600060208284031215613c6657613c65613b4f565b5b6000613c7484828501613c3b565b91505092915050565b60008060408385031215613c9457613c93613b4f565b5b6000613ca285828601613b7a565b9250506020613cb385828601613b7a565b9150509250929050565b613cc681613b59565b82525050565b6000602082019050613ce16000830184613cbd565b92915050565b600081519050919050565b600082825260208201905092915050565b6000819050602082019050919050565b613d1c81613b59565b82525050565b600081519050919050565b600082825260208201905092915050565b60005b83811015613d5c578082015181840152602081019050613d41565b60008484015250505050565b6000601f19601f8301169050919050565b6000613d8482613d22565b613d8e8185613d2d565b9350613d9e818560208601613d3e565b613da781613d68565b840191505092915050565b6000608083016000830151613dca6000860182613d13565b5060208301518482036020860152613de28282613d79565b91505060408301518482036040860152613dfc8282613d79565b91505060608301518482036060860152613e168282613d79565b9150508091505092915050565b6000613e2f8383613db2565b905092915050565b6000602082019050919050565b6000613e4f82613ce7565b613e598185613cf2565b935083602082028501613e6b85613d03565b8060005b85811015613ea75784840389528151613e888582613e23565b9450613e9383613e37565b925060208a01995050600181019050613e6f565b50829750879550505050505092915050565b60006020820190508181036000830152613ed38184613e44565b905092915050565b600081519050919050565b600082825260208201905092915050565b6000819050602082019050919050565b613f1081613c12565b82525050565b6000613f228383613f07565b60208301905092915050565b6000602082019050919050565b6000613f4682613edb565b613f508185613ee6565b9350613f5b83613ef7565b8060005b83811015613f8c578151613f738882613f16565b9750613f7e83613f2e565b925050600181019050613f5f565b5085935050505092915050565b60006020820190508181036000830152613fb38184613f3b565b905092915050565b600082825260208201905092915050565b6000613fd782613d22565b613fe18185613fbb565b9350613ff1818560208601613d3e565b613ffa81613d68565b840191505092915050565b600060808201905061401a6000830187613cbd565b818103602083015261402c8186613fcc565b905081810360408301526140408185613fcc565b905081810360608301526140548184613fcc565b905095945050505050565b61406881613c12565b82525050565b6000602082019050614083600083018461405f565b92915050565b61409281613bbc565b811461409d57600080fd5b50565b6000813590506140af81614089565b92915050565b600080604083850312156140cc576140cb613b4f565b5b60006140da85828601613b7a565b92505060206140eb858286016140a0565b9150509250929050565b600060ff82169050919050565b61410b816140f5565b82525050565b600060e082019050614126600083018a613cbd565b6141336020830189613cbd565b6141406040830188613cbd565b61414d6060830187613cbd565b61415a6080830186613bc8565b61416760a0830185614102565b61417460c0830184613cbd565b98975050505050505050565b614189816140f5565b811461419457600080fd5b50565b6000813590506141a681614180565b92915050565b600080604083850312156141c3576141c2613b4f565b5b60006141d185828601613b7a565b92505060206141e285828601614197565b9150509250929050565b600081519050919050565b600082825260208201905092915050565b6000819050602082019050919050565b60006142248383613d13565b60208301905092915050565b6000602082019050919050565b6000614248826141ec565b61425281856141f7565b935061425d83614208565b8060005b8381101561428e5781516142758882614218565b975061428083614230565b925050600181019050614261565b5085935050505092915050565b600060208201905081810360008301526142b5818461423d565b905092915050565b600060a0820190506142d26000830188613cbd565b81810360208301526142e4818761423d565b905081810360408301526142f8818661423d565b90506143076060830185613cbd565b6143146080830184613cbd565b9695505050505050565b60008060006060848603121561433757614336613b4f565b5b600061434586828701613b7a565b935050602061435686828701614197565b925050604061436786828701613c3b565b9150509250925092565b7f4e487b7100000000000000000000000000000000000000000000000000000000600052602160045260246000fd5b600381106143b1576143b0614371565b5b50565b60008190506143c2826143a0565b919050565b60006143d2826143b4565b9050919050565b6143e2816143c7565b82525050565b60006020820190506143fd60008301846143d9565b92915050565b60006040820190506144186000830185613bc8565b6144256020830184613cbd565b9392505050565b600060c0820190506144416000830189614102565b61444e6020830188613cbd565b61445b6040830187613cbd565b6144686060830186613bc8565b6144756080830185613cbd565b61448260a0830184613cbd565b979650505050505050565b6000806000606084860312156144a6576144a5613b4f565b5b60006144b486828701613b7a565b93505060206144c586828701614197565b92505060406144d686828701613b7a565b9150509250925092565b600080fd5b600080fd5b7f4e487b7100000000000000000000000000000000000000000000000000000000600052604160045260246000fd5b61452282613d68565b810181811067ffffffffffffffff82111715614541576145406144ea565b5b80604052505050565b6000614554613b45565b90506145608282614519565b919050565b600067ffffffffffffffff8211156145805761457f6144ea565b5b61458982613d68565b9050602081019050919050565b82818337600083830152505050565b60006145b86145b384614565565b61454a565b9050828152602081018484840111156145d4576145d36144e5565b5b6145df848285614596565b509392505050565b600082601f8301126145fc576145fb6144e0565b5b813561460c8482602086016145a5565b91505092915050565b60008060006060848603121561462e5761462d613b4f565b5b600084013567ffffffffffffffff81111561464c5761464b613b54565b5b614658868287016145e7565b935050602084013567ffffffffffffffff81111561467957614678613b54565b5b614685868287016145e7565b925050604084013567ffffffffffffffff8111156146a6576146a5613b54565b5b6146b2868287016145e7565b9150509250925092565b60006040820190506146d16000830185613cbd565b6146de6020830184613cbd565b9392505050565b600080fd5b600080fd5b60008083601f840112614705576147046144e0565b5b8235905067ffffffffffffffff811115614722576147216146e5565b5b60208301915083602082028301111561473e5761473d6146ea565b5b9250929050565b6000806000806060858703121561475f5761475e613b4f565b5b600061476d87828801613b7a565b945050602061477e87828801613b7a565b935050604085013567ffffffffffffffff81111561479f5761479e613b54565b5b6147ab878288016146ef565b925092505092959194509250565b7f4e6f7420636f6e747261637420686f6c64657200000000000000000000000000600082015250565b60006147ef601383613fbb565b91506147fa826147b9565b602082019050919050565b6000602082019050818103600083015261481e816147e2565b9050919050565b7f4e6f742061646d696e0000000000000000000000000000000000000000000000600082015250565b600061485b600983613fbb565b915061486682614825565b602082019050919050565b6000602082019050818103600083015261488a8161484e565b9050919050565b7f4e487b7100000000000000000000000000000000000000000000000000000000600052603260045260246000fd5b7f4e487b7100000000000000000000000000000000000000000000000000000000600052601160045260246000fd5b60006148fa82613b59565b915061490583613b59565b925082820390508181111561491d5761491c6148c0565b5b92915050565b7f4e487b7100000000000000000000000000000000000000000000000000000000600052603160045260246000fd5b7f4e6f742061207265676973746572656420766f74657200000000000000000000600082015250565b6000614988601683613fbb565b915061499382614952565b602082019050919050565b600060208201905081810360008301526149b78161497b565b9050919050565b7f456c656374696f6e206e6f742061637469766500000000000000000000000000600082015250565b60006149f4601383613fbb565b91506149ff826149be565b602082019050919050565b60006020820190508181036000830152614a23816149e7565b9050919050565b7f526f756e64206e6f742073746172746564000000000000000000000000000000600082015250565b6000614a60601183613fbb565b9150614a6b82614a2a565b602082019050919050565b60006020820190508181036000830152614a8f81614a53565b9050919050565b7f526f756e6420656e646564000000000000000000000000000000000000000000600082015250565b6000614acc600b83613fbb565b9150614ad782614a96565b602082019050919050565b60006020820190508181036000830152614afb81614abf565b9050919050565b7f416c726561647920766f74656400000000000000000000000000000000000000600082015250565b6000614b38600d83613fbb565b9150614b4382614b02565b602082019050919050565b60006020820190508181036000830152614b6781614b2b565b9050919050565b7f496e76616c69642063616e646964617465000000000000000000000000000000600082015250565b6000614ba4601183613fbb565b9150614baf82614b6e565b602082019050919050565b60006020820190508181036000830152614bd381614b97565b9050919050565b6000614be582613b59565b91507fffffffffffffffffffffffffffffffffffffffffffffffffffffffffffffffff8203614c1757614c166148c0565b5b600182019050919050565b6000606082019050614c376000830186614102565b614c44602083018561405f565b614c516040830184613cbd565b949350505050565b6000614c6482613b59565b9150614c6f83613b59565b9250828201905080821115614c8757614c866148c0565b5b92915050565b7f4e487b7100000000000000000000000000000000000000000000000000000000600052602260045260246000fd5b60006002820490506001821680614cd457607f821691505b602082108103614ce757614ce6614c8d565b5b50919050565b7f526f756e64206e6f7420656e6465640000000000000000000000000000000000600082015250565b6000614d23600f83613fbb565b9150614d2e82614ced565b602082019050919050565b60006020820190508181036000830152614d5281614d16565b9050919050565b7f526f756e6420616c72656164792066696e616c697a6564000000000000000000600082015250565b6000614d8f601783613fbb565b9150614d9a82614d59565b602082019050919050565b60006020820190508181036000830152614dbe81614d82565b9050919050565b6000614dd082613b59565b9150614ddb83613b59565b9250828202614de981613b59565b91508282048414831517614e0057614dff6148c0565b5b5092915050565b6000606082019050614e1c6000830186614102565b614e296020830185613bc8565b614e366040830184613cbd565b949350505050565b6000614e49826140f5565b9150614e54836140f5565b9250828201905060ff811115614e6d57614e6c6148c0565b5b92915050565b6000819050919050565b6000819050919050565b6000614ea2614e9d614e9884614e73565b614e7d565b613b59565b9050919050565b614eb281614e87565b82525050565b6000606082019050614ecd6000830186614102565b614eda6020830185613bc8565b614ee76040830184614ea9565b949350505050565b7f496e76616c696420616464726573730000000000000000000000000000000000600082015250565b6000614f25600f83613fbb565b9150614f3082614eef565b602082019050919050565b60006020820190508181036000830152614f5481614f18565b9050919050565b7f416c72656164792061646d696e00000000000000000000000000000000000000600082015250565b6000614f91600d83613fbb565b9150614f9c82614f5b565b602082019050919050565b60006020820190508181036000830152614fc081614f84565b9050919050565b7f4e6f7420616e2061646d696e0000000000000000000000000000000000000000600082015250565b6000614ffd600c83613fbb565b915061500882614fc7565b602082019050919050565b6000602082019050818103600083015261502c81614ff0565b9050919050565b7f566f746572206e6f742072656769737465726564000000000000000000000000600082015250565b6000615069601483613fbb565b915061507482615033565b602082019050919050565b600060208201905081810360008301526150988161505c565b9050919050565b7f526f756e64206e6f74206f766572207965740000000000000000000000000000600082015250565b60006150d5601283613fbb565b91506150e08261509f565b602082019050919050565b60006020820190508181036000830152615104816150c8565b9050919050565b600081905092915050565b600061512182613d22565b61512b818561510b565b935061513b818560208601613d3e565b80840191505092915050565b7f7c00000000000000000000000000000000000000000000000000000000000000600082015250565b600061517d60018361510b565b915061518882615147565b600182019050919050565b600061519f8285615116565b91506151aa82615170565b91506151b68284615116565b91508190509392505050565b7f43616e64696461746520616c7265616479206578697374730000000000000000600082015250565b60006151f8601883613fbb565b9150615203826151c2565b602082019050919050565b60006020820190508181036000830152615227816151eb565b9050919050565b60008190508160005260206000209050919050565b60006020601f8301049050919050565b600082821b905092915050565b6000600883026152907fffffffffffffffffffffffffffffffffffffffffffffffffffffffffffffffff82615253565b61529a8683615253565b95508019841693508086168417925050509392505050565b60006152cd6152c86152c384613b59565b614e7d565b613b59565b9050919050565b6000819050919050565b6152e7836152b2565b6152fb6152f3826152d4565b848454615260565b825550505050565b600090565b615310615303565b61531b8184846152de565b505050565b5b8181101561533f57615334600082615308565b600181019050615321565b5050565b601f821115615384576153558161522e565b61535e84615243565b8101602085101561536d578190505b61538161537985615243565b830182615320565b50505b505050565b600082821c905092915050565b60006153a760001984600802615389565b1980831691505092915050565b60006153c08383615396565b9150826002028217905092915050565b6153d982613d22565b67ffffffffffffffff8111156153f2576153f16144ea565b5b6153fc8254614cbc565b615407828285615343565b600060209050601f83116001811461543a5760008415615428578287015190505b61543285826153b4565b86555061549a565b601f1984166154488661522e565b60005b828110156154705784890151825560018201915060208501945060208101905061544b565b8683101561548d5784890151615489601f891682615396565b8355505b6001600288020188555050505b505050505050565b600060608201905081810360008301526154bc8186613fcc565b905081810360208301526154d08185613fcc565b905081810360408301526154e48184613fcc565b9050949350505050565b7f566f74657220616c726561647920726567697374657265640000000000000000600082015250565b6000615524601883613fbb565b915061552f826154ee565b602082019050919050565b6000602082019050818103600083015261555381615517565b9050919050565b7f456c656374696f6e206d75737420626520696e20667574757265000000000000600082015250565b6000615590601a83613fbb565b915061559b8261555a565b602082019050919050565b600060208201905081810360008301526155bf81615583565b9050919050565b7f466972737420726f756e64206d75737420626520616674657220656c6563746960008201527f6f6e207374617274000000000000000000000000000000000000000000000000602082015250565b6000615622602883613fbb565b915061562d826155c6565b604082019050919050565b6000602082019050818103600083015261565181615615565b9050919050565b7f4174206c65617374206f6e652063616e64696461746500000000000000000000600082015250565b600061568e601683613fbb565b915061569982615658565b602082019050919050565b600060208201905081810360008301526156bd81615681565b9050919050565b6000819050919050565b60006156e96156e46156df846156c4565b614e7d565b613b59565b9050919050565b6156f9816156ce565b82525050565b600081549050919050565b60008190508160005260206000209050919050565b60008160001c9050919050565b6000819050919050565b60006157496157448361571f565b61572c565b9050919050565b600061575c8254615736565b9050919050565b6000600182019050919050565b600061577b826156ff565b61578581856141f7565b93506157908361570a565b8060005b838110156157c8576157a582615750565b6157af8882614218565b97506157ba83615763565b925050600181019050615794565b5085935050505092915050565b60006080820190506157ea6000830187613cbd565b6157f76020830186613cbd565b61580460408301856156f0565b81810360608301526158168184615770565b90509594505050505056fea26469706673582212209119b21fe12ae85d46bfb29f69c5a3f4d4ef83d93716efbbfc0bafdb6d99c7df64736f6c634300081c0033","opcodes":"PUSH1 0x80 PUSH1 0x40 MSTORE CALLVALUE DUP1 ISZERO PUSH2 0x10 JUMPI PUSH1 0x0 DUP1 REVERT JUMPDEST POP CALLER PUSH1 0xD PUSH1 0x0 PUSH2 0x100 EXP DUP2 SLOAD DUP2 PUSH20 0xFFFFFFFFFFFFFFFFFFFFFFFFFFFFFFFFFFFFFFFF MUL NOT AND SWAP1 DUP4 PUSH20 0xFFFFFFFFFFFFFFFFFFFFFFFFFFFFFFFFFFFFFFFF AND MUL OR SWAP1 SSTORE POP PUSH1 0x1 PUSH1 0xE PUSH1 0x0 CALLER PUSH20 0xFFFFFFFFFFFFFFFFFFFFFFFFFFFFFFFFFFFFFFFF AND PUSH20 0xFFFFFFFFFFFFFFFFFFFFFFFFFFFFFFFFFFFFFFFF AND DUP2 MSTORE PUSH1 0x20 ADD SWAP1 DUP2 MSTORE PUSH1 0x20 ADD PUSH1 0x0 KECCAK256 PUSH1 0x0 PUSH2 0x100 EXP DUP2 SLOAD DUP2 PUSH1 0xFF MUL NOT AND SWAP1 DUP4 ISZERO ISZERO MUL OR SWAP1 SSTORE POP PUSH1 0xF CALLER SWAP1 DUP1 PUSH1 0x1 DUP2 SLOAD ADD DUP1 DUP3 SSTORE DUP1 SWAP2 POP POP PUSH1 0x1 SWAP1 SUB SWAP1 PUSH1 0x0 MSTORE PUSH1 0x20 PUSH1 0x0 KECCAK256 ADD PUSH1 0x0 SWAP1 SWAP2 SWAP1 SWAP2 SWAP1 SWAP2 PUSH2 0x100 EXP DUP2 SLOAD DUP2 PUSH20 0xFFFFFFFFFFFFFFFFFFFFFFFFFFFFFFFFFFFFFFFF MUL NOT AND SWAP1 DUP4 PUSH20 0xFFFFFFFFFFFFFFFFFFFFFFFFFFFFFFFFFFFFFFFF AND MUL OR SWAP1 SSTORE POP CALLER PUSH20 0xFFFFFFFFFFFFFFFFFFFFFFFFFFFFFFFFFFFFFFFF AND PUSH32 0x44D6D25963F097AD14F29F06854A01F575648A1EF82F30E562CCD3889717E339 PUSH1 0x40 MLOAD PUSH1 0x40 MLOAD DUP1 SWAP2 SUB SWAP1 LOG2 PUSH1 0x40 MLOAD DUP1 PUSH1 0x80 ADD PUSH1 0x40 MSTORE DUP1 PUSH1 0x0 DUP2 MSTORE PUSH1 0x20 ADD PUSH1 0x40 MLOAD DUP1 PUSH1 0x40 ADD PUSH1 0x40 MSTORE DUP1 PUSH1 0x4 DUP2 MSTORE PUSH1 0x20 ADD PUSH32 0x566F746500000000000000000000000000000000000000000000000000000000 DUP2 MSTORE POP DUP2 MSTORE PUSH1 0x20 ADD PUSH1 0x40 MLOAD DUP1 PUSH1 0x40 ADD PUSH1 0x40 MSTORE DUP1 PUSH1 0x5 DUP2 MSTORE PUSH1 0x20 ADD PUSH32 0x426C616E63000000000000000000000000000000000000000000000000000000 DUP2 MSTORE POP DUP2 MSTORE PUSH1 0x20 ADD PUSH1 0x40 MLOAD DUP1 PUSH1 0x40 ADD PUSH1 0x40 MSTORE DUP1 PUSH1 0x5 DUP2 MSTORE PUSH1 0x20 ADD PUSH32 0x417563756E000000000000000000000000000000000000000000000000000000 DUP2 MSTORE POP DUP2 MSTORE POP PUSH1 0x2 PUSH1 0x0 DUP1 DUP2 MSTORE PUSH1 0x20 ADD SWAP1 DUP2 MSTORE PUSH1 0x20 ADD PUSH1 0x0 KECCAK256 PUSH1 0x0 DUP3 ADD MLOAD DUP2 PUSH1 0x0 ADD SSTORE PUSH1 0x20 DUP3 ADD MLOAD DUP2 PUSH1 0x1 ADD SWAP1 DUP2 PUSH2 0x243 SWAP2 SWAP1 PUSH2 0x4C8 JUMP JUMPDEST POP PUSH1 0x40 DUP3 ADD MLOAD DUP2 PUSH1 0x2 ADD SWAP1 DUP2 PUSH2 0x259 SWAP2 SWAP1 PUSH2 0x4C8 JUMP JUMPDEST POP PUSH1 0x60 DUP3 ADD MLOAD DUP2 PUSH1 0x3 ADD SWAP1 DUP2 PUSH2 0x26F SWAP2 SWAP1 PUSH2 0x4C8 JUMP JUMPDEST POP SWAP1 POP POP PUSH2 0x59A JUMP JUMPDEST PUSH1 0x0 DUP2 MLOAD SWAP1 POP SWAP2 SWAP1 POP JUMP JUMPDEST PUSH32 0x4E487B7100000000000000000000000000000000000000000000000000000000 PUSH1 0x0 MSTORE PUSH1 0x41 PUSH1 0x4 MSTORE PUSH1 0x24 PUSH1 0x0 REVERT JUMPDEST PUSH32 0x4E487B7100000000000000000000000000000000000000000000000000000000 PUSH1 0x0 MSTORE PUSH1 0x22 PUSH1 0x4 MSTORE PUSH1 0x24 PUSH1 0x0 REVERT JUMPDEST PUSH1 0x0 PUSH1 0x2 DUP3 DIV SWAP1 POP PUSH1 0x1 DUP3 AND DUP1 PUSH2 0x2F9 JUMPI PUSH1 0x7F DUP3 AND SWAP2 POP JUMPDEST PUSH1 0x20 DUP3 LT DUP2 SUB PUSH2 0x30C JUMPI PUSH2 0x30B PUSH2 0x2B2 JUMP JUMPDEST JUMPDEST POP SWAP2 SWAP1 POP JUMP JUMPDEST PUSH1 0x0 DUP2 SWAP1 POP DUP2 PUSH1 0x0 MSTORE PUSH1 0x20 PUSH1 0x0 KECCAK256 SWAP1 POP SWAP2 SWAP1 POP JUMP JUMPDEST PUSH1 0x0 PUSH1 0x20 PUSH1 0x1F DUP4 ADD DIV SWAP1 POP SWAP2 SWAP1 POP JUMP JUMPDEST PUSH1 0x0 DUP3 DUP3 SHL SWAP1 POP SWAP3 SWAP2 POP POP JUMP JUMPDEST PUSH1 0x0 PUSH1 0x8 DUP4 MUL PUSH2 0x374 PUSH32 0xFFFFFFFFFFFFFFFFFFFFFFFFFFFFFFFFFFFFFFFFFFFFFFFFFFFFFFFFFFFFFFFF DUP3 PUSH2 0x337 JUMP JUMPDEST PUSH2 0x37E DUP7 DUP4 PUSH2 0x337 JUMP JUMPDEST SWAP6 POP DUP1 NOT DUP5 AND SWAP4 POP DUP1 DUP7 AND DUP5 OR SWAP3 POP POP POP SWAP4 SWAP3 POP POP POP JUMP JUMPDEST PUSH1 0x0 DUP2 SWAP1 POP SWAP2 SWAP1 POP JUMP JUMPDEST PUSH1 0x0 DUP2 SWAP1 POP SWAP2 SWAP1 POP JUMP JUMPDEST PUSH1 0x0 PUSH2 0x3C5 PUSH2 0x3C0 PUSH2 0x3BB DUP5 PUSH2 0x396 JUMP JUMPDEST PUSH2 0x3A0 JUMP JUMPDEST PUSH2 0x396 JUMP JUMPDEST SWAP1 POP SWAP2 SWAP1 POP JUMP JUMPDEST PUSH1 0x0 DUP2 SWAP1 POP SWAP2 SWAP1 POP JUMP JUMPDEST PUSH2 0x3DF DUP4 PUSH2 0x3AA JUMP JUMPDEST PUSH2 0x3F3 PUSH2 0x3EB DUP3 PUSH2 0x3CC JUMP JUMPDEST DUP5 DUP5 SLOAD PUSH2 0x344 JUMP JUMPDEST DUP3 SSTORE POP POP POP POP JUMP JUMPDEST PUSH1 0x0 SWAP1 JUMP JUMPDEST PUSH2 0x408 PUSH2 0x3FB JUMP JUMPDEST PUSH2 0x413 DUP2 DUP5 DUP5 PUSH2 0x3D6 JUMP JUMPDEST POP POP POP JUMP JUMPDEST JUMPDEST DUP2 DUP2 LT ISZERO PUSH2 0x437 JUMPI PUSH2 0x42C PUSH1 0x0 DUP3 PUSH2 0x400 JUMP JUMPDEST PUSH1 0x1 DUP2 ADD SWAP1 POP PUSH2 0x419 JUMP JUMPDEST POP POP JUMP JUMPDEST PUSH1 0x1F DUP3 GT ISZERO PUSH2 0x47C JUMPI PUSH2 0x44D DUP2 PUSH2 0x312 JUMP JUMPDEST PUSH2 0x456 DUP5 PUSH2 0x327 JUMP JUMPDEST DUP2 ADD PUSH1 0x20 DUP6 LT ISZERO PUSH2 0x465 JUMPI DUP2 SWAP1 POP JUMPDEST PUSH2 0x479 PUSH2 0x471 DUP6 PUSH2 0x327 JUMP JUMPDEST DUP4 ADD DUP3 PUSH2 0x418 JUMP JUMPDEST POP POP JUMPDEST POP POP POP JUMP JUMPDEST PUSH1 0x0 DUP3 DUP3 SHR SWAP1 POP SWAP3 SWAP2 POP POP JUMP JUMPDEST PUSH1 0x0 PUSH2 0x49F PUSH1 0x0 NOT DUP5 PUSH1 0x8 MUL PUSH2 0x481 JUMP JUMPDEST NOT DUP1 DUP4 AND SWAP2 POP POP SWAP3 SWAP2 POP POP JUMP JUMPDEST PUSH1 0x0 PUSH2 0x4B8 DUP4 DUP4 PUSH2 0x48E JUMP JUMPDEST SWAP2 POP DUP3 PUSH1 0x2 MUL DUP3 OR SWAP1 POP SWAP3 SWAP2 POP POP JUMP JUMPDEST PUSH2 0x4D1 DUP3 PUSH2 0x278 JUMP JUMPDEST PUSH8 0xFFFFFFFFFFFFFFFF DUP2 GT ISZERO PUSH2 0x4EA JUMPI PUSH2 0x4E9 PUSH2 0x283 JUMP JUMPDEST JUMPDEST PUSH2 0x4F4 DUP3 SLOAD PUSH2 0x2E1 JUMP JUMPDEST PUSH2 0x4FF DUP3 DUP3 DUP6 PUSH2 0x43B JUMP JUMPDEST PUSH1 0x0 PUSH1 0x20 SWAP1 POP PUSH1 0x1F DUP4 GT PUSH1 0x1 DUP2 EQ PUSH2 0x532 JUMPI PUSH1 0x0 DUP5 ISZERO PUSH2 0x520 JUMPI DUP3 DUP8 ADD MLOAD SWAP1 POP JUMPDEST PUSH2 0x52A DUP6 DUP3 PUSH2 0x4AC JUMP JUMPDEST DUP7 SSTORE POP PUSH2 0x592 JUMP JUMPDEST PUSH1 0x1F NOT DUP5 AND PUSH2 0x540 DUP7 PUSH2 0x312 JUMP JUMPDEST PUSH1 0x0 JUMPDEST DUP3 DUP2 LT ISZERO PUSH2 0x568 JUMPI DUP5 DUP10 ADD MLOAD DUP3 SSTORE PUSH1 0x1 DUP3 ADD SWAP2 POP PUSH1 0x20 DUP6 ADD SWAP5 POP PUSH1 0x20 DUP2 ADD SWAP1 POP PUSH2 0x543 JUMP JUMPDEST DUP7 DUP4 LT ISZERO PUSH2 0x585 JUMPI DUP5 DUP10 ADD MLOAD PUSH2 0x581 PUSH1 0x1F DUP10 AND DUP3 PUSH2 0x48E JUMP JUMPDEST DUP4 SSTORE POP JUMPDEST PUSH1 0x1 PUSH1 0x2 DUP9 MUL ADD DUP9 SSTORE POP POP POP JUMPDEST POP POP POP POP POP POP JUMP JUMPDEST PUSH2 0x5857 DUP1 PUSH2 0x5A9 PUSH1 0x0 CODECOPY PUSH1 0x0 RETURN INVALID PUSH1 0x80 PUSH1 0x40 MSTORE CALLVALUE DUP1 ISZERO PUSH2 0x10 JUMPI PUSH1 0x0 DUP1 REVERT JUMPDEST POP PUSH1 0x4 CALLDATASIZE LT PUSH2 0x1FA JUMPI PUSH1 0x0 CALLDATALOAD PUSH1 0xE0 SHR DUP1 PUSH4 0x7BF39E12 GT PUSH2 0x11A JUMPI DUP1 PUSH4 0xAA82AE79 GT PUSH2 0xAD JUMPI DUP1 PUSH4 0xCAF1475D GT PUSH2 0x7C JUMPI DUP1 PUSH4 0xCAF1475D EQ PUSH2 0x672 JUMPI DUP1 PUSH4 0xE684CBF9 EQ PUSH2 0x6A3 JUMPI DUP1 PUSH4 0xF0134566 EQ PUSH2 0x6D3 JUMPI DUP1 PUSH4 0xF2FDE38B EQ PUSH2 0x703 JUMPI DUP1 PUSH4 0xF4AB9ADF EQ PUSH2 0x71F JUMPI PUSH2 0x1FA JUMP JUMPDEST DUP1 PUSH4 0xAA82AE79 EQ PUSH2 0x5C1 JUMPI DUP1 PUSH4 0xAB95A7DD EQ PUSH2 0x5F6 JUMPI DUP1 PUSH4 0xAD71F8DC EQ PUSH2 0x626 JUMPI DUP1 PUSH4 0xB04E523E EQ PUSH2 0x642 JUMPI PUSH2 0x1FA JUMP JUMPDEST DUP1 PUSH4 0x9A74C695 GT PUSH2 0xE9 JUMPI DUP1 PUSH4 0x9A74C695 EQ PUSH2 0x520 JUMPI DUP1 PUSH4 0x9ED3E95E EQ PUSH2 0x53E JUMPI DUP1 PUSH4 0xA298CBC1 EQ PUSH2 0x572 JUMPI DUP1 PUSH4 0xA3EC138D EQ PUSH2 0x590 JUMPI PUSH2 0x1FA JUMP JUMPDEST DUP1 PUSH4 0x7BF39E12 EQ PUSH2 0x474 JUMPI DUP1 PUSH4 0x837EC15F EQ PUSH2 0x4A4 JUMPI DUP1 PUSH4 0x86C1FF68 EQ PUSH2 0x4D4 JUMPI DUP1 PUSH4 0x88A2C4B6 EQ PUSH2 0x4F0 JUMPI PUSH2 0x1FA JUMP JUMPDEST DUP1 PUSH4 0x429B62E5 GT PUSH2 0x192 JUMPI DUP1 PUSH4 0x5E6FEF01 GT PUSH2 0x161 JUMPI DUP1 PUSH4 0x5E6FEF01 EQ PUSH2 0x3BE JUMPI DUP1 PUSH4 0x6546D5FD EQ PUSH2 0x3F4 JUMPI DUP1 PUSH4 0x70480275 EQ PUSH2 0x424 JUMPI DUP1 PUSH4 0x7351F0F2 EQ PUSH2 0x440 JUMPI PUSH2 0x1FA JUMP JUMPDEST DUP1 PUSH4 0x429B62E5 EQ PUSH2 0x312 JUMPI DUP1 PUSH4 0x50E2E8AF EQ PUSH2 0x342 JUMPI DUP1 PUSH4 0x545458C8 EQ PUSH2 0x372 JUMPI DUP1 PUSH4 0x55AF4788 EQ PUSH2 0x3A2 JUMPI PUSH2 0x1FA JUMP JUMPDEST DUP1 PUSH4 0x2E6997FE GT PUSH2 0x1CE JUMPI DUP1 PUSH4 0x2E6997FE EQ PUSH2 0x285 JUMPI DUP1 PUSH4 0x31AE450B EQ PUSH2 0x2A3 JUMPI DUP1 PUSH4 0x3477EE2E EQ PUSH2 0x2C1 JUMPI DUP1 PUSH4 0x35BBE70E EQ PUSH2 0x2F4 JUMPI PUSH2 0x1FA JUMP JUMPDEST DUP1 PUSH3 0x3EEE01 EQ PUSH2 0x1FF JUMPI DUP1 PUSH4 0x1785F53C EQ PUSH2 0x22F JUMPI DUP1 PUSH4 0x2C0A3F89 EQ PUSH2 0x24B JUMPI DUP1 PUSH4 0x2D35A8A2 EQ PUSH2 0x267 JUMPI JUMPDEST PUSH1 0x0 DUP1 REVERT JUMPDEST PUSH2 0x219 PUSH1 0x4 DUP1 CALLDATASIZE SUB DUP2 ADD SWAP1 PUSH2 0x214 SWAP2 SWAP1 PUSH2 0x3B8F JUMP JUMPDEST PUSH2 0x73B JUMP JUMPDEST PUSH1 0x40 MLOAD PUSH2 0x226 SWAP2 SWAP1 PUSH2 0x3BD7 JUMP JUMPDEST PUSH1 0x40 MLOAD DUP1 SWAP2 SUB SWAP1 RETURN JUMPDEST PUSH2 0x249 PUSH1 0x4 DUP1 CALLDATASIZE SUB DUP2 ADD SWAP1 PUSH2 0x244 SWAP2 SWAP1 PUSH2 0x3C50 JUMP JUMPDEST PUSH2 0x755 JUMP JUMPDEST STOP JUMPDEST PUSH2 0x265 PUSH1 0x4 DUP1 CALLDATASIZE SUB DUP2 ADD SWAP1 PUSH2 0x260 SWAP2 SWAP1 PUSH2 0x3C7D JUMP JUMPDEST PUSH2 0xA96 JUMP JUMPDEST STOP JUMPDEST PUSH2 0x26F PUSH2 0xFF3 JUMP JUMPDEST PUSH1 0x40 MLOAD PUSH2 0x27C SWAP2 SWAP1 PUSH2 0x3CCC JUMP JUMPDEST PUSH1 0x40 MLOAD DUP1 SWAP2 SUB SWAP1 RETURN JUMPDEST PUSH2 0x28D PUSH2 0xFF9 JUMP JUMPDEST PUSH1 0x40 MLOAD PUSH2 0x29A SWAP2 SWAP1 PUSH2 0x3EB9 JUMP JUMPDEST PUSH1 0x40 MLOAD DUP1 SWAP2 SUB SWAP1 RETURN JUMPDEST PUSH2 0x2AB PUSH2 0x1284 JUMP JUMPDEST PUSH1 0x40 MLOAD PUSH2 0x2B8 SWAP2 SWAP1 PUSH2 0x3F99 JUMP JUMPDEST PUSH1 0x40 MLOAD DUP1 SWAP2 SUB SWAP1 RETURN JUMPDEST PUSH2 0x2DB PUSH1 0x4 DUP1 CALLDATASIZE SUB DUP2 ADD SWAP1 PUSH2 0x2D6 SWAP2 SWAP1 PUSH2 0x3B8F JUMP JUMPDEST PUSH2 0x1312 JUMP JUMPDEST PUSH1 0x40 MLOAD PUSH2 0x2EB SWAP5 SWAP4 SWAP3 SWAP2 SWAP1 PUSH2 0x4005 JUMP JUMPDEST PUSH1 0x40 MLOAD DUP1 SWAP2 SUB SWAP1 RETURN JUMPDEST PUSH2 0x2FC PUSH2 0x14DA JUMP JUMPDEST PUSH1 0x40 MLOAD PUSH2 0x309 SWAP2 SWAP1 PUSH2 0x3F99 JUMP JUMPDEST PUSH1 0x40 MLOAD DUP1 SWAP2 SUB SWAP1 RETURN JUMPDEST PUSH2 0x32C PUSH1 0x4 DUP1 CALLDATASIZE SUB DUP2 ADD SWAP1 PUSH2 0x327 SWAP2 SWAP1 PUSH2 0x3C50 JUMP JUMPDEST PUSH2 0x1568 JUMP JUMPDEST PUSH1 0x40 MLOAD PUSH2 0x339 SWAP2 SWAP1 PUSH2 0x3BD7 JUMP JUMPDEST PUSH1 0x40 MLOAD DUP1 SWAP2 SUB SWAP1 RETURN JUMPDEST PUSH2 0x35C PUSH1 0x4 DUP1 CALLDATASIZE SUB DUP2 ADD SWAP1 PUSH2 0x357 SWAP2 SWAP1 PUSH2 0x3B8F JUMP JUMPDEST PUSH2 0x1588 JUMP JUMPDEST PUSH1 0x40 MLOAD PUSH2 0x369 SWAP2 SWAP1 PUSH2 0x406E JUMP JUMPDEST PUSH1 0x40 MLOAD DUP1 SWAP2 SUB SWAP1 RETURN JUMPDEST PUSH2 0x38C PUSH1 0x4 DUP1 CALLDATASIZE SUB DUP2 ADD SWAP1 PUSH2 0x387 SWAP2 SWAP1 PUSH2 0x3C7D JUMP JUMPDEST PUSH2 0x15C7 JUMP JUMPDEST PUSH1 0x40 MLOAD PUSH2 0x399 SWAP2 SWAP1 PUSH2 0x3CCC JUMP JUMPDEST PUSH1 0x40 MLOAD DUP1 SWAP2 SUB SWAP1 RETURN JUMPDEST PUSH2 0x3BC PUSH1 0x4 DUP1 CALLDATASIZE SUB DUP2 ADD SWAP1 PUSH2 0x3B7 SWAP2 SWAP1 PUSH2 0x40B5 JUMP JUMPDEST PUSH2 0x15EC JUMP JUMPDEST STOP JUMPDEST PUSH2 0x3D8 PUSH1 0x4 DUP1 CALLDATASIZE SUB DUP2 ADD SWAP1 PUSH2 0x3D3 SWAP2 SWAP1 PUSH2 0x3B8F JUMP JUMPDEST PUSH2 0x2054 JUMP JUMPDEST PUSH1 0x40 MLOAD PUSH2 0x3EB SWAP8 SWAP7 SWAP6 SWAP5 SWAP4 SWAP3 SWAP2 SWAP1 PUSH2 0x4111 JUMP JUMPDEST PUSH1 0x40 MLOAD DUP1 SWAP2 SUB SWAP1 RETURN JUMPDEST PUSH2 0x40E PUSH1 0x4 DUP1 CALLDATASIZE SUB DUP2 ADD SWAP1 PUSH2 0x409 SWAP2 SWAP1 PUSH2 0x41AC JUMP JUMPDEST PUSH2 0x20B0 JUMP JUMPDEST PUSH1 0x40 MLOAD PUSH2 0x41B SWAP2 SWAP1 PUSH2 0x429B JUMP JUMPDEST PUSH1 0x40 MLOAD DUP1 SWAP2 SUB SWAP1 RETURN JUMPDEST PUSH2 0x43E PUSH1 0x4 DUP1 CALLDATASIZE SUB DUP2 ADD SWAP1 PUSH2 0x439 SWAP2 SWAP1 PUSH2 0x3C50 JUMP JUMPDEST PUSH2 0x2136 JUMP JUMPDEST STOP JUMPDEST PUSH2 0x45A PUSH1 0x4 DUP1 CALLDATASIZE SUB DUP2 ADD SWAP1 PUSH2 0x455 SWAP2 SWAP1 PUSH2 0x41AC JUMP JUMPDEST PUSH2 0x23C3 JUMP JUMPDEST PUSH1 0x40 MLOAD PUSH2 0x46B SWAP6 SWAP5 SWAP4 SWAP3 SWAP2 SWAP1 PUSH2 0x42BD JUMP JUMPDEST PUSH1 0x40 MLOAD DUP1 SWAP2 SUB SWAP1 RETURN JUMPDEST PUSH2 0x48E PUSH1 0x4 DUP1 CALLDATASIZE SUB DUP2 ADD SWAP1 PUSH2 0x489 SWAP2 SWAP1 PUSH2 0x431E JUMP JUMPDEST PUSH2 0x23E9 JUMP JUMPDEST PUSH1 0x40 MLOAD PUSH2 0x49B SWAP2 SWAP1 PUSH2 0x3BD7 JUMP JUMPDEST PUSH1 0x40 MLOAD DUP1 SWAP2 SUB SWAP1 RETURN JUMPDEST PUSH2 0x4BE PUSH1 0x4 DUP1 CALLDATASIZE SUB DUP2 ADD SWAP1 PUSH2 0x4B9 SWAP2 SWAP1 PUSH2 0x41AC JUMP JUMPDEST PUSH2 0x2425 JUMP JUMPDEST PUSH1 0x40 MLOAD PUSH2 0x4CB SWAP2 SWAP1 PUSH2 0x3BD7 JUMP JUMPDEST PUSH1 0x40 MLOAD DUP1 SWAP2 SUB SWAP1 RETURN JUMPDEST PUSH2 0x4EE PUSH1 0x4 DUP1 CALLDATASIZE SUB DUP2 ADD SWAP1 PUSH2 0x4E9 SWAP2 SWAP1 PUSH2 0x3C50 JUMP JUMPDEST PUSH2 0x2475 JUMP JUMPDEST STOP JUMPDEST PUSH2 0x50A PUSH1 0x4 DUP1 CALLDATASIZE SUB DUP2 ADD SWAP1 PUSH2 0x505 SWAP2 SWAP1 PUSH2 0x41AC JUMP JUMPDEST PUSH2 0x27BB JUMP JUMPDEST PUSH1 0x40 MLOAD PUSH2 0x517 SWAP2 SWAP1 PUSH2 0x43E8 JUMP JUMPDEST PUSH1 0x40 MLOAD DUP1 SWAP2 SUB SWAP1 RETURN JUMPDEST PUSH2 0x528 PUSH2 0x285E JUMP JUMPDEST PUSH1 0x40 MLOAD PUSH2 0x535 SWAP2 SWAP1 PUSH2 0x3CCC JUMP JUMPDEST PUSH1 0x40 MLOAD DUP1 SWAP2 SUB SWAP1 RETURN JUMPDEST PUSH2 0x558 PUSH1 0x4 DUP1 CALLDATASIZE SUB DUP2 ADD SWAP1 PUSH2 0x553 SWAP2 SWAP1 PUSH2 0x41AC JUMP JUMPDEST PUSH2 0x2864 JUMP JUMPDEST PUSH1 0x40 MLOAD PUSH2 0x569 SWAP6 SWAP5 SWAP4 SWAP3 SWAP2 SWAP1 PUSH2 0x42BD JUMP JUMPDEST PUSH1 0x40 MLOAD DUP1 SWAP2 SUB SWAP1 RETURN JUMPDEST PUSH2 0x57A PUSH2 0x2A42 JUMP JUMPDEST PUSH1 0x40 MLOAD PUSH2 0x587 SWAP2 SWAP1 PUSH2 0x406E JUMP JUMPDEST PUSH1 0x40 MLOAD DUP1 SWAP2 SUB SWAP1 RETURN JUMPDEST PUSH2 0x5AA PUSH1 0x4 DUP1 CALLDATASIZE SUB DUP2 ADD SWAP1 PUSH2 0x5A5 SWAP2 SWAP1 PUSH2 0x3C50 JUMP JUMPDEST PUSH2 0x2A68 JUMP JUMPDEST PUSH1 0x40 MLOAD PUSH2 0x5B8 SWAP3 SWAP2 SWAP1 PUSH2 0x4403 JUMP JUMPDEST PUSH1 0x40 MLOAD DUP1 SWAP2 SUB SWAP1 RETURN JUMPDEST PUSH2 0x5DB PUSH1 0x4 DUP1 CALLDATASIZE SUB DUP2 ADD SWAP1 PUSH2 0x5D6 SWAP2 SWAP1 PUSH2 0x41AC JUMP JUMPDEST PUSH2 0x2A99 JUMP JUMPDEST PUSH1 0x40 MLOAD PUSH2 0x5ED SWAP7 SWAP6 SWAP5 SWAP4 SWAP3 SWAP2 SWAP1 PUSH2 0x442C JUMP JUMPDEST PUSH1 0x40 MLOAD DUP1 SWAP2 SUB SWAP1 RETURN JUMPDEST PUSH2 0x610 PUSH1 0x4 DUP1 CALLDATASIZE SUB DUP2 ADD SWAP1 PUSH2 0x60B SWAP2 SWAP1 PUSH2 0x448D JUMP JUMPDEST PUSH2 0x2AFC JUMP JUMPDEST PUSH1 0x40 MLOAD PUSH2 0x61D SWAP2 SWAP1 PUSH2 0x406E JUMP JUMPDEST PUSH1 0x40 MLOAD DUP1 SWAP2 SUB SWAP1 RETURN JUMPDEST PUSH2 0x640 PUSH1 0x4 DUP1 CALLDATASIZE SUB DUP2 ADD SWAP1 PUSH2 0x63B SWAP2 SWAP1 PUSH2 0x4615 JUMP JUMPDEST PUSH2 0x2B57 JUMP JUMPDEST STOP JUMPDEST PUSH2 0x65C PUSH1 0x4 DUP1 CALLDATASIZE SUB DUP2 ADD SWAP1 PUSH2 0x657 SWAP2 SWAP1 PUSH2 0x3C7D JUMP JUMPDEST PUSH2 0x2D80 JUMP JUMPDEST PUSH1 0x40 MLOAD PUSH2 0x669 SWAP2 SWAP1 PUSH2 0x3CCC JUMP JUMPDEST PUSH1 0x40 MLOAD DUP1 SWAP2 SUB SWAP1 RETURN JUMPDEST PUSH2 0x68C PUSH1 0x4 DUP1 CALLDATASIZE SUB DUP2 ADD SWAP1 PUSH2 0x687 SWAP2 SWAP1 PUSH2 0x431E JUMP JUMPDEST PUSH2 0x2DB1 JUMP JUMPDEST PUSH1 0x40 MLOAD PUSH2 0x69A SWAP3 SWAP2 SWAP1 PUSH2 0x46BC JUMP JUMPDEST PUSH1 0x40 MLOAD DUP1 SWAP2 SUB SWAP1 RETURN JUMPDEST PUSH2 0x6BD PUSH1 0x4 DUP1 CALLDATASIZE SUB DUP2 ADD SWAP1 PUSH2 0x6B8 SWAP2 SWAP1 PUSH2 0x448D JUMP JUMPDEST PUSH2 0x2DEF JUMP JUMPDEST PUSH1 0x40 MLOAD PUSH2 0x6CA SWAP2 SWAP1 PUSH2 0x3CCC JUMP JUMPDEST PUSH1 0x40 MLOAD DUP1 SWAP2 SUB SWAP1 RETURN JUMPDEST PUSH2 0x6ED PUSH1 0x4 DUP1 CALLDATASIZE SUB DUP2 ADD SWAP1 PUSH2 0x6E8 SWAP2 SWAP1 PUSH2 0x4745 JUMP JUMPDEST PUSH2 0x2E21 JUMP JUMPDEST PUSH1 0x40 MLOAD PUSH2 0x6FA SWAP2 SWAP1 PUSH2 0x3CCC JUMP JUMPDEST PUSH1 0x40 MLOAD DUP1 SWAP2 SUB SWAP1 RETURN JUMPDEST PUSH2 0x71D PUSH1 0x4 DUP1 CALLDATASIZE SUB DUP2 ADD SWAP1 PUSH2 0x718 SWAP2 SWAP1 PUSH2 0x3C50 JUMP JUMPDEST PUSH2 0x2EC5 JUMP JUMPDEST STOP JUMPDEST PUSH2 0x739 PUSH1 0x4 DUP1 CALLDATASIZE SUB DUP2 ADD SWAP1 PUSH2 0x734 SWAP2 SWAP1 PUSH2 0x3C50 JUMP JUMPDEST PUSH2 0x3084 JUMP JUMPDEST STOP JUMPDEST PUSH1 0x0 DUP1 DUP3 GT DUP1 ISZERO PUSH2 0x74E JUMPI POP PUSH1 0x4 SLOAD DUP3 GT ISZERO JUMPDEST SWAP1 POP SWAP2 SWAP1 POP JUMP JUMPDEST PUSH1 0xD PUSH1 0x0 SWAP1 SLOAD SWAP1 PUSH2 0x100 EXP SWAP1 DIV PUSH20 0xFFFFFFFFFFFFFFFFFFFFFFFFFFFFFFFFFFFFFFFF AND PUSH20 0xFFFFFFFFFFFFFFFFFFFFFFFFFFFFFFFFFFFFFFFF AND CALLER PUSH20 0xFFFFFFFFFFFFFFFFFFFFFFFFFFFFFFFFFFFFFFFF AND EQ PUSH2 0x7E5 JUMPI PUSH1 0x40 MLOAD PUSH32 0x8C379A000000000000000000000000000000000000000000000000000000000 DUP2 MSTORE PUSH1 0x4 ADD PUSH2 0x7DC SWAP1 PUSH2 0x4805 JUMP JUMPDEST PUSH1 0x40 MLOAD DUP1 SWAP2 SUB SWAP1 REVERT JUMPDEST PUSH1 0xE PUSH1 0x0 DUP3 PUSH20 0xFFFFFFFFFFFFFFFFFFFFFFFFFFFFFFFFFFFFFFFF AND PUSH20 0xFFFFFFFFFFFFFFFFFFFFFFFFFFFFFFFFFFFFFFFF AND DUP2 MSTORE PUSH1 0x20 ADD SWAP1 DUP2 MSTORE PUSH1 0x20 ADD PUSH1 0x0 KECCAK256 PUSH1 0x0 SWAP1 SLOAD SWAP1 PUSH2 0x100 EXP SWAP1 DIV PUSH1 0xFF AND PUSH2 0x871 JUMPI PUSH1 0x40 MLOAD PUSH32 0x8C379A000000000000000000000000000000000000000000000000000000000 DUP2 MSTORE PUSH1 0x4 ADD PUSH2 0x868 SWAP1 PUSH2 0x4871 JUMP JUMPDEST PUSH1 0x40 MLOAD DUP1 SWAP2 SUB SWAP1 REVERT JUMPDEST PUSH1 0x0 PUSH1 0xE PUSH1 0x0 DUP4 PUSH20 0xFFFFFFFFFFFFFFFFFFFFFFFFFFFFFFFFFFFFFFFF AND PUSH20 0xFFFFFFFFFFFFFFFFFFFFFFFFFFFFFFFFFFFFFFFF AND DUP2 MSTORE PUSH1 0x20 ADD SWAP1 DUP2 MSTORE PUSH1 0x20 ADD PUSH1 0x0 KECCAK256 PUSH1 0x0 PUSH2 0x100 EXP DUP2 SLOAD DUP2 PUSH1 0xFF MUL NOT AND SWAP1 DUP4 ISZERO ISZERO MUL OR SWAP1 SSTORE POP PUSH1 0x0 JUMPDEST PUSH1 0xF DUP1 SLOAD SWAP1 POP DUP2 LT ISZERO PUSH2 0xA4F JUMPI DUP2 PUSH20 0xFFFFFFFFFFFFFFFFFFFFFFFFFFFFFFFFFFFFFFFF AND PUSH1 0xF DUP3 DUP2 SLOAD DUP2 LT PUSH2 0x904 JUMPI PUSH2 0x903 PUSH2 0x4891 JUMP JUMPDEST JUMPDEST SWAP1 PUSH1 0x0 MSTORE PUSH1 0x20 PUSH1 0x0 KECCAK256 ADD PUSH1 0x0 SWAP1 SLOAD SWAP1 PUSH2 0x100 EXP SWAP1 DIV PUSH20 0xFFFFFFFFFFFFFFFFFFFFFFFFFFFFFFFFFFFFFFFF AND PUSH20 0xFFFFFFFFFFFFFFFFFFFFFFFFFFFFFFFFFFFFFFFF AND SUB PUSH2 0xA42 JUMPI PUSH1 0xF PUSH1 0x1 PUSH1 0xF DUP1 SLOAD SWAP1 POP PUSH2 0x95E SWAP2 SWAP1 PUSH2 0x48EF JUMP JUMPDEST DUP2 SLOAD DUP2 LT PUSH2 0x96F JUMPI PUSH2 0x96E PUSH2 0x4891 JUMP JUMPDEST JUMPDEST SWAP1 PUSH1 0x0 MSTORE PUSH1 0x20 PUSH1 0x0 KECCAK256 ADD PUSH1 0x0 SWAP1 SLOAD SWAP1 PUSH2 0x100 EXP SWAP1 DIV PUSH20 0xFFFFFFFFFFFFFFFFFFFFFFFFFFFFFFFFFFFFFFFF AND PUSH1 0xF DUP3 DUP2 SLOAD DUP2 LT PUSH2 0x9AE JUMPI PUSH2 0x9AD PUSH2 0x4891 JUMP JUMPDEST JUMPDEST SWAP1 PUSH1 0x0 MSTORE PUSH1 0x20 PUSH1 0x0 KECCAK256 ADD PUSH1 0x0 PUSH2 0x100 EXP DUP2 SLOAD DUP2 PUSH20 0xFFFFFFFFFFFFFFFFFFFFFFFFFFFFFFFFFFFFFFFF MUL NOT AND SWAP1 DUP4 PUSH20 0xFFFFFFFFFFFFFFFFFFFFFFFFFFFFFFFFFFFFFFFF AND MUL OR SWAP1 SSTORE POP PUSH1 0xF DUP1 SLOAD DUP1 PUSH2 0xA08 JUMPI PUSH2 0xA07 PUSH2 0x4923 JUMP JUMPDEST JUMPDEST PUSH1 0x1 SWAP1 SUB DUP2 DUP2 SWAP1 PUSH1 0x0 MSTORE PUSH1 0x20 PUSH1 0x0 KECCAK256 ADD PUSH1 0x0 PUSH2 0x100 EXP DUP2 SLOAD SWAP1 PUSH20 0xFFFFFFFFFFFFFFFFFFFFFFFFFFFFFFFFFFFFFFFF MUL NOT AND SWAP1 SSTORE SWAP1 SSTORE PUSH2 0xA4F JUMP JUMPDEST DUP1 DUP1 PUSH1 0x1 ADD SWAP2 POP POP PUSH2 0x8CC JUMP JUMPDEST POP DUP1 PUSH20 0xFFFFFFFFFFFFFFFFFFFFFFFFFFFFFFFFFFFFFFFF AND PUSH32 0xA3B62BC36326052D97EA62D63C3D60308ED4C3EA8AC079DD8499F1E9C4F80C0F PUSH1 0x40 MLOAD PUSH1 0x40 MLOAD DUP1 SWAP2 SUB SWAP1 LOG2 POP JUMP JUMPDEST PUSH1 0x1 PUSH1 0x0 CALLER PUSH20 0xFFFFFFFFFFFFFFFFFFFFFFFFFFFFFFFFFFFFFFFF AND PUSH20 0xFFFFFFFFFFFFFFFFFFFFFFFFFFFFFFFFFFFFFFFF AND DUP2 MSTORE PUSH1 0x20 ADD SWAP1 DUP2 MSTORE PUSH1 0x20 ADD PUSH1 0x0 KECCAK256 PUSH1 0x0 ADD PUSH1 0x0 SWAP1 SLOAD SWAP1 PUSH2 0x100 EXP SWAP1 DIV PUSH1 0xFF AND PUSH2 0xB25 JUMPI PUSH1 0x40 MLOAD PUSH32 0x8C379A000000000000000000000000000000000000000000000000000000000 DUP2 MSTORE PUSH1 0x4 ADD PUSH2 0xB1C SWAP1 PUSH2 0x499E JUMP JUMPDEST PUSH1 0x40 MLOAD DUP1 SWAP2 SUB SWAP1 REVERT JUMPDEST PUSH1 0x0 PUSH1 0x6 PUSH1 0x0 DUP5 DUP2 MSTORE PUSH1 0x20 ADD SWAP1 DUP2 MSTORE PUSH1 0x20 ADD PUSH1 0x0 KECCAK256 SWAP1 POP DUP1 PUSH1 0x5 ADD PUSH1 0x0 SWAP1 SLOAD SWAP1 PUSH2 0x100 EXP SWAP1 DIV PUSH1 0xFF AND PUSH2 0xB8D JUMPI PUSH1 0x40 MLOAD PUSH32 0x8C379A000000000000000000000000000000000000000000000000000000000 DUP2 MSTORE PUSH1 0x4 ADD PUSH2 0xB84 SWAP1 PUSH2 0x4A0A JUMP JUMPDEST PUSH1 0x40 MLOAD DUP1 SWAP2 SUB SWAP1 REVERT JUMPDEST PUSH1 0x0 DUP2 PUSH1 0x5 ADD PUSH1 0x1 SWAP1 SLOAD SWAP1 PUSH2 0x100 EXP SWAP1 DIV PUSH1 0xFF AND SWAP1 POP PUSH1 0x0 PUSH1 0x7 PUSH1 0x0 DUP7 DUP2 MSTORE PUSH1 0x20 ADD SWAP1 DUP2 MSTORE PUSH1 0x20 ADD PUSH1 0x0 KECCAK256 PUSH1 0x0 DUP4 PUSH1 0xFF AND PUSH1 0xFF AND DUP2 MSTORE PUSH1 0x20 ADD SWAP1 DUP2 MSTORE PUSH1 0x20 ADD PUSH1 0x0 KECCAK256 SWAP1 POP DUP1 PUSH1 0x1 ADD SLOAD TIMESTAMP LT ISZERO PUSH2 0xC18 JUMPI PUSH1 0x40 MLOAD PUSH32 0x8C379A000000000000000000000000000000000000000000000000000000000 DUP2 MSTORE PUSH1 0x4 ADD PUSH2 0xC0F SWAP1 PUSH2 0x4A76 JUMP JUMPDEST PUSH1 0x40 MLOAD DUP1 SWAP2 SUB SWAP1 REVERT JUMPDEST DUP1 PUSH1 0x2 ADD SLOAD TIMESTAMP GT ISZERO PUSH2 0xC5F JUMPI PUSH1 0x40 MLOAD PUSH32 0x8C379A000000000000000000000000000000000000000000000000000000000 DUP2 MSTORE PUSH1 0x4 ADD PUSH2 0xC56 SWAP1 PUSH2 0x4AE2 JUMP JUMPDEST PUSH1 0x40 MLOAD DUP1 SWAP2 SUB SWAP1 REVERT JUMPDEST PUSH1 0xA PUSH1 0x0 DUP7 DUP2 MSTORE PUSH1 0x20 ADD SWAP1 DUP2 MSTORE PUSH1 0x20 ADD PUSH1 0x0 KECCAK256 PUSH1 0x0 DUP4 PUSH1 0xFF AND PUSH1 0xFF AND DUP2 MSTORE PUSH1 0x20 ADD SWAP1 DUP2 MSTORE PUSH1 0x20 ADD PUSH1 0x0 KECCAK256 PUSH1 0x0 CALLER PUSH20 0xFFFFFFFFFFFFFFFFFFFFFFFFFFFFFFFFFFFFFFFF AND PUSH20 0xFFFFFFFFFFFFFFFFFFFFFFFFFFFFFFFFFFFFFFFF AND DUP2 MSTORE PUSH1 0x20 ADD SWAP1 DUP2 MSTORE PUSH1 0x20 ADD PUSH1 0x0 KECCAK256 PUSH1 0x0 SWAP1 SLOAD SWAP1 PUSH2 0x100 EXP SWAP1 DIV PUSH1 0xFF AND ISZERO PUSH2 0xD14 JUMPI PUSH1 0x40 MLOAD PUSH32 0x8C379A000000000000000000000000000000000000000000000000000000000 DUP2 MSTORE PUSH1 0x4 ADD PUSH2 0xD0B SWAP1 PUSH2 0x4B4E JUMP JUMPDEST PUSH1 0x40 MLOAD DUP1 SWAP2 SUB SWAP1 REVERT JUMPDEST PUSH1 0x0 DUP1 JUMPDEST DUP3 PUSH1 0x6 ADD DUP1 SLOAD SWAP1 POP DUP2 LT ISZERO PUSH2 0xD64 JUMPI DUP6 DUP4 PUSH1 0x6 ADD DUP3 DUP2 SLOAD DUP2 LT PUSH2 0xD3E JUMPI PUSH2 0xD3D PUSH2 0x4891 JUMP JUMPDEST JUMPDEST SWAP1 PUSH1 0x0 MSTORE PUSH1 0x20 PUSH1 0x0 KECCAK256 ADD SLOAD SUB PUSH2 0xD57 JUMPI PUSH1 0x1 SWAP2 POP PUSH2 0xD64 JUMP JUMPDEST DUP1 DUP1 PUSH1 0x1 ADD SWAP2 POP POP PUSH2 0xD18 JUMP JUMPDEST POP DUP1 PUSH2 0xDA5 JUMPI PUSH1 0x40 MLOAD PUSH32 0x8C379A000000000000000000000000000000000000000000000000000000000 DUP2 MSTORE PUSH1 0x4 ADD PUSH2 0xD9C SWAP1 PUSH2 0x4BBA JUMP JUMPDEST PUSH1 0x40 MLOAD DUP1 SWAP2 SUB SWAP1 REVERT JUMPDEST PUSH1 0x1 PUSH1 0xA PUSH1 0x0 DUP9 DUP2 MSTORE PUSH1 0x20 ADD SWAP1 DUP2 MSTORE PUSH1 0x20 ADD PUSH1 0x0 KECCAK256 PUSH1 0x0 DUP6 PUSH1 0xFF AND PUSH1 0xFF AND DUP2 MSTORE PUSH1 0x20 ADD SWAP1 DUP2 MSTORE PUSH1 0x20 ADD PUSH1 0x0 KECCAK256 PUSH1 0x0 CALLER PUSH20 0xFFFFFFFFFFFFFFFFFFFFFFFFFFFFFFFFFFFFFFFF AND PUSH20 0xFFFFFFFFFFFFFFFFFFFFFFFFFFFFFFFFFFFFFFFF AND DUP2 MSTORE PUSH1 0x20 ADD SWAP1 DUP2 MSTORE PUSH1 0x20 ADD PUSH1 0x0 KECCAK256 PUSH1 0x0 PUSH2 0x100 EXP DUP2 SLOAD DUP2 PUSH1 0xFF MUL NOT AND SWAP1 DUP4 ISZERO ISZERO MUL OR SWAP1 SSTORE POP PUSH1 0x8 PUSH1 0x0 DUP8 DUP2 MSTORE PUSH1 0x20 ADD SWAP1 DUP2 MSTORE PUSH1 0x20 ADD PUSH1 0x0 KECCAK256 PUSH1 0x0 DUP5 PUSH1 0xFF AND PUSH1 0xFF AND DUP2 MSTORE PUSH1 0x20 ADD SWAP1 DUP2 MSTORE PUSH1 0x20 ADD PUSH1 0x0 KECCAK256 PUSH1 0x0 DUP7 DUP2 MSTORE PUSH1 0x20 ADD SWAP1 DUP2 MSTORE PUSH1 0x20 ADD PUSH1 0x0 KECCAK256 PUSH1 0x0 DUP2 SLOAD DUP1 SWAP3 SWAP2 SWAP1 PUSH2 0xE71 SWAP1 PUSH2 0x4BDA JUMP JUMPDEST SWAP2 SWAP1 POP SSTORE POP DUP2 PUSH1 0x4 ADD PUSH1 0x0 DUP2 SLOAD DUP1 SWAP3 SWAP2 SWAP1 PUSH2 0xE8B SWAP1 PUSH2 0x4BDA JUMP JUMPDEST SWAP2 SWAP1 POP SSTORE POP PUSH1 0x40 MLOAD DUP1 PUSH1 0x40 ADD PUSH1 0x40 MSTORE DUP1 DUP7 DUP2 MSTORE PUSH1 0x20 ADD TIMESTAMP DUP2 MSTORE POP PUSH1 0x10 PUSH1 0x0 DUP9 DUP2 MSTORE PUSH1 0x20 ADD SWAP1 DUP2 MSTORE PUSH1 0x20 ADD PUSH1 0x0 KECCAK256 PUSH1 0x0 DUP6 PUSH1 0xFF AND PUSH1 0xFF AND DUP2 MSTORE PUSH1 0x20 ADD SWAP1 DUP2 MSTORE PUSH1 0x20 ADD PUSH1 0x0 KECCAK256 PUSH1 0x0 CALLER PUSH20 0xFFFFFFFFFFFFFFFFFFFFFFFFFFFFFFFFFFFFFFFF AND PUSH20 0xFFFFFFFFFFFFFFFFFFFFFFFFFFFFFFFFFFFFFFFF AND DUP2 MSTORE PUSH1 0x20 ADD SWAP1 DUP2 MSTORE PUSH1 0x20 ADD PUSH1 0x0 KECCAK256 PUSH1 0x0 DUP3 ADD MLOAD DUP2 PUSH1 0x0 ADD SSTORE PUSH1 0x20 DUP3 ADD MLOAD DUP2 PUSH1 0x1 ADD SSTORE SWAP1 POP POP PUSH1 0x9 PUSH1 0x0 DUP8 DUP2 MSTORE PUSH1 0x20 ADD SWAP1 DUP2 MSTORE PUSH1 0x20 ADD PUSH1 0x0 KECCAK256 PUSH1 0x0 DUP5 PUSH1 0xFF AND PUSH1 0xFF AND DUP2 MSTORE PUSH1 0x20 ADD SWAP1 DUP2 MSTORE PUSH1 0x20 ADD PUSH1 0x0 KECCAK256 CALLER SWAP1 DUP1 PUSH1 0x1 DUP2 SLOAD ADD DUP1 DUP3 SSTORE DUP1 SWAP2 POP POP PUSH1 0x1 SWAP1 SUB SWAP1 PUSH1 0x0 MSTORE PUSH1 0x20 PUSH1 0x0 KECCAK256 ADD PUSH1 0x0 SWAP1 SWAP2 SWAP1 SWAP2 SWAP1 SWAP2 PUSH2 0x100 EXP DUP2 SLOAD DUP2 PUSH20 0xFFFFFFFFFFFFFFFFFFFFFFFFFFFFFFFFFFFFFFFF MUL NOT AND SWAP1 DUP4 PUSH20 0xFFFFFFFFFFFFFFFFFFFFFFFFFFFFFFFFFFFFFFFF AND MUL OR SWAP1 SSTORE POP DUP5 DUP7 PUSH32 0xF1F3396E31D1DBD068C4E6169959218FE5AE731D73149DD82EDC33BECA09F22A DUP6 CALLER TIMESTAMP PUSH1 0x40 MLOAD PUSH2 0xFE3 SWAP4 SWAP3 SWAP2 SWAP1 PUSH2 0x4C22 JUMP JUMPDEST PUSH1 0x40 MLOAD DUP1 SWAP2 SUB SWAP1 LOG3 POP POP POP POP POP POP JUMP JUMPDEST PUSH1 0x4 SLOAD DUP2 JUMP JUMPDEST PUSH1 0x60 PUSH1 0x0 PUSH1 0x1 PUSH1 0x4 SLOAD PUSH2 0x100C SWAP2 SWAP1 PUSH2 0x4C59 JUMP JUMPDEST PUSH8 0xFFFFFFFFFFFFFFFF DUP2 GT ISZERO PUSH2 0x1025 JUMPI PUSH2 0x1024 PUSH2 0x44EA JUMP JUMPDEST JUMPDEST PUSH1 0x40 MLOAD SWAP1 DUP1 DUP3 MSTORE DUP1 PUSH1 0x20 MUL PUSH1 0x20 ADD DUP3 ADD PUSH1 0x40 MSTORE DUP1 ISZERO PUSH2 0x105E JUMPI DUP2 PUSH1 0x20 ADD JUMPDEST PUSH2 0x104B PUSH2 0x3A32 JUMP JUMPDEST DUP2 MSTORE PUSH1 0x20 ADD SWAP1 PUSH1 0x1 SWAP1 SUB SWAP1 DUP2 PUSH2 0x1043 JUMPI SWAP1 POP JUMPDEST POP SWAP1 POP PUSH1 0x0 JUMPDEST PUSH1 0x4 SLOAD DUP2 GT PUSH2 0x127C JUMPI PUSH1 0x2 PUSH1 0x0 DUP3 DUP2 MSTORE PUSH1 0x20 ADD SWAP1 DUP2 MSTORE PUSH1 0x20 ADD PUSH1 0x0 KECCAK256 PUSH1 0x40 MLOAD DUP1 PUSH1 0x80 ADD PUSH1 0x40 MSTORE SWAP1 DUP2 PUSH1 0x0 DUP3 ADD SLOAD DUP2 MSTORE PUSH1 0x20 ADD PUSH1 0x1 DUP3 ADD DUP1 SLOAD PUSH2 0x10A5 SWAP1 PUSH2 0x4CBC JUMP JUMPDEST DUP1 PUSH1 0x1F ADD PUSH1 0x20 DUP1 SWAP2 DIV MUL PUSH1 0x20 ADD PUSH1 0x40 MLOAD SWAP1 DUP2 ADD PUSH1 0x40 MSTORE DUP1 SWAP3 SWAP2 SWAP1 DUP2 DUP2 MSTORE PUSH1 0x20 ADD DUP3 DUP1 SLOAD PUSH2 0x10D1 SWAP1 PUSH2 0x4CBC JUMP JUMPDEST DUP1 ISZERO PUSH2 0x111E JUMPI DUP1 PUSH1 0x1F LT PUSH2 0x10F3 JUMPI PUSH2 0x100 DUP1 DUP4 SLOAD DIV MUL DUP4 MSTORE SWAP2 PUSH1 0x20 ADD SWAP2 PUSH2 0x111E JUMP JUMPDEST DUP3 ADD SWAP2 SWAP1 PUSH1 0x0 MSTORE PUSH1 0x20 PUSH1 0x0 KECCAK256 SWAP1 JUMPDEST DUP2 SLOAD DUP2 MSTORE SWAP1 PUSH1 0x1 ADD SWAP1 PUSH1 0x20 ADD DUP1 DUP4 GT PUSH2 0x1101 JUMPI DUP3 SWAP1 SUB PUSH1 0x1F AND DUP3 ADD SWAP2 JUMPDEST POP POP POP POP POP DUP2 MSTORE PUSH1 0x20 ADD PUSH1 0x2 DUP3 ADD DUP1 SLOAD PUSH2 0x1137 SWAP1 PUSH2 0x4CBC JUMP JUMPDEST DUP1 PUSH1 0x1F ADD PUSH1 0x20 DUP1 SWAP2 DIV MUL PUSH1 0x20 ADD PUSH1 0x40 MLOAD SWAP1 DUP2 ADD PUSH1 0x40 MSTORE DUP1 SWAP3 SWAP2 SWAP1 DUP2 DUP2 MSTORE PUSH1 0x20 ADD DUP3 DUP1 SLOAD PUSH2 0x1163 SWAP1 PUSH2 0x4CBC JUMP JUMPDEST DUP1 ISZERO PUSH2 0x11B0 JUMPI DUP1 PUSH1 0x1F LT PUSH2 0x1185 JUMPI PUSH2 0x100 DUP1 DUP4 SLOAD DIV MUL DUP4 MSTORE SWAP2 PUSH1 0x20 ADD SWAP2 PUSH2 0x11B0 JUMP JUMPDEST DUP3 ADD SWAP2 SWAP1 PUSH1 0x0 MSTORE PUSH1 0x20 PUSH1 0x0 KECCAK256 SWAP1 JUMPDEST DUP2 SLOAD DUP2 MSTORE SWAP1 PUSH1 0x1 ADD SWAP1 PUSH1 0x20 ADD DUP1 DUP4 GT PUSH2 0x1193 JUMPI DUP3 SWAP1 SUB PUSH1 0x1F AND DUP3 ADD SWAP2 JUMPDEST POP POP POP POP POP DUP2 MSTORE PUSH1 0x20 ADD PUSH1 0x3 DUP3 ADD DUP1 SLOAD PUSH2 0x11C9 SWAP1 PUSH2 0x4CBC JUMP JUMPDEST DUP1 PUSH1 0x1F ADD PUSH1 0x20 DUP1 SWAP2 DIV MUL PUSH1 0x20 ADD PUSH1 0x40 MLOAD SWAP1 DUP2 ADD PUSH1 0x40 MSTORE DUP1 SWAP3 SWAP2 SWAP1 DUP2 DUP2 MSTORE PUSH1 0x20 ADD DUP3 DUP1 SLOAD PUSH2 0x11F5 SWAP1 PUSH2 0x4CBC JUMP JUMPDEST DUP1 ISZERO PUSH2 0x1242 JUMPI DUP1 PUSH1 0x1F LT PUSH2 0x1217 JUMPI PUSH2 0x100 DUP1 DUP4 SLOAD DIV MUL DUP4 MSTORE SWAP2 PUSH1 0x20 ADD SWAP2 PUSH2 0x1242 JUMP JUMPDEST DUP3 ADD SWAP2 SWAP1 PUSH1 0x0 MSTORE PUSH1 0x20 PUSH1 0x0 KECCAK256 SWAP1 JUMPDEST DUP2 SLOAD DUP2 MSTORE SWAP1 PUSH1 0x1 ADD SWAP1 PUSH1 0x20 ADD DUP1 DUP4 GT PUSH2 0x1225 JUMPI DUP3 SWAP1 SUB PUSH1 0x1F AND DUP3 ADD SWAP2 JUMPDEST POP POP POP POP POP DUP2 MSTORE POP POP DUP3 DUP3 DUP2 MLOAD DUP2 LT PUSH2 0x125E JUMPI PUSH2 0x125D PUSH2 0x4891 JUMP JUMPDEST JUMPDEST PUSH1 0x20 MUL PUSH1 0x20 ADD ADD DUP2 SWAP1 MSTORE POP DUP1 DUP1 PUSH2 0x1274 SWAP1 PUSH2 0x4BDA JUMP JUMPDEST SWAP2 POP POP PUSH2 0x1064 JUMP JUMPDEST POP DUP1 SWAP2 POP POP SWAP1 JUMP JUMPDEST PUSH1 0x60 PUSH1 0xF DUP1 SLOAD DUP1 PUSH1 0x20 MUL PUSH1 0x20 ADD PUSH1 0x40 MLOAD SWAP1 DUP2 ADD PUSH1 0x40 MSTORE DUP1 SWAP3 SWAP2 SWAP1 DUP2 DUP2 MSTORE PUSH1 0x20 ADD DUP3 DUP1 SLOAD DUP1 ISZERO PUSH2 0x1308 JUMPI PUSH1 0x20 MUL DUP3 ADD SWAP2 SWAP1 PUSH1 0x0 MSTORE PUSH1 0x20 PUSH1 0x0 KECCAK256 SWAP1 JUMPDEST DUP2 PUSH1 0x0 SWAP1 SLOAD SWAP1 PUSH2 0x100 EXP SWAP1 DIV PUSH20 0xFFFFFFFFFFFFFFFFFFFFFFFFFFFFFFFFFFFFFFFF AND PUSH20 0xFFFFFFFFFFFFFFFFFFFFFFFFFFFFFFFFFFFFFFFF AND DUP2 MSTORE PUSH1 0x20 ADD SWAP1 PUSH1 0x1 ADD SWAP1 DUP1 DUP4 GT PUSH2 0x12BE JUMPI JUMPDEST POP POP POP POP POP SWAP1 POP SWAP1 JUMP JUMPDEST PUSH1 0x2 PUSH1 0x20 MSTORE DUP1 PUSH1 0x0 MSTORE PUSH1 0x40 PUSH1 0x0 KECCAK256 PUSH1 0x0 SWAP2 POP SWAP1 POP DUP1 PUSH1 0x0 ADD SLOAD SWAP1 DUP1 PUSH1 0x1 ADD DUP1 SLOAD PUSH2 0x133B SWAP1 PUSH2 0x4CBC JUMP JUMPDEST DUP1 PUSH1 0x1F ADD PUSH1 0x20 DUP1 SWAP2 DIV MUL PUSH1 0x20 ADD PUSH1 0x40 MLOAD SWAP1 DUP2 ADD PUSH1 0x40 MSTORE DUP1 SWAP3 SWAP2 SWAP1 DUP2 DUP2 MSTORE PUSH1 0x20 ADD DUP3 DUP1 SLOAD PUSH2 0x1367 SWAP1 PUSH2 0x4CBC JUMP JUMPDEST DUP1 ISZERO PUSH2 0x13B4 JUMPI DUP1 PUSH1 0x1F LT PUSH2 0x1389 JUMPI PUSH2 0x100 DUP1 DUP4 SLOAD DIV MUL DUP4 MSTORE SWAP2 PUSH1 0x20 ADD SWAP2 PUSH2 0x13B4 JUMP JUMPDEST DUP3 ADD SWAP2 SWAP1 PUSH1 0x0 MSTORE PUSH1 0x20 PUSH1 0x0 KECCAK256 SWAP1 JUMPDEST DUP2 SLOAD DUP2 MSTORE SWAP1 PUSH1 0x1 ADD SWAP1 PUSH1 0x20 ADD DUP1 DUP4 GT PUSH2 0x1397 JUMPI DUP3 SWAP1 SUB PUSH1 0x1F AND DUP3 ADD SWAP2 JUMPDEST POP POP POP POP POP SWAP1 DUP1 PUSH1 0x2 ADD DUP1 SLOAD PUSH2 0x13C9 SWAP1 PUSH2 0x4CBC JUMP JUMPDEST DUP1 PUSH1 0x1F ADD PUSH1 0x20 DUP1 SWAP2 DIV MUL PUSH1 0x20 ADD PUSH1 0x40 MLOAD SWAP1 DUP2 ADD PUSH1 0x40 MSTORE DUP1 SWAP3 SWAP2 SWAP1 DUP2 DUP2 MSTORE PUSH1 0x20 ADD DUP3 DUP1 SLOAD PUSH2 0x13F5 SWAP1 PUSH2 0x4CBC JUMP JUMPDEST DUP1 ISZERO PUSH2 0x1442 JUMPI DUP1 PUSH1 0x1F LT PUSH2 0x1417 JUMPI PUSH2 0x100 DUP1 DUP4 SLOAD DIV MUL DUP4 MSTORE SWAP2 PUSH1 0x20 ADD SWAP2 PUSH2 0x1442 JUMP JUMPDEST DUP3 ADD SWAP2 SWAP1 PUSH1 0x0 MSTORE PUSH1 0x20 PUSH1 0x0 KECCAK256 SWAP1 JUMPDEST DUP2 SLOAD DUP2 MSTORE SWAP1 PUSH1 0x1 ADD SWAP1 PUSH1 0x20 ADD DUP1 DUP4 GT PUSH2 0x1425 JUMPI DUP3 SWAP1 SUB PUSH1 0x1F AND DUP3 ADD SWAP2 JUMPDEST POP POP POP POP POP SWAP1 DUP1 PUSH1 0x3 ADD DUP1 SLOAD PUSH2 0x1457 SWAP1 PUSH2 0x4CBC JUMP JUMPDEST DUP1 PUSH1 0x1F ADD PUSH1 0x20 DUP1 SWAP2 DIV MUL PUSH1 0x20 ADD PUSH1 0x40 MLOAD SWAP1 DUP2 ADD PUSH1 0x40 MSTORE DUP1 SWAP3 SWAP2 SWAP1 DUP2 DUP2 MSTORE PUSH1 0x20 ADD DUP3 DUP1 SLOAD PUSH2 0x1483 SWAP1 PUSH2 0x4CBC JUMP JUMPDEST DUP1 ISZERO PUSH2 0x14D0 JUMPI DUP1 PUSH1 0x1F LT PUSH2 0x14A5 JUMPI PUSH2 0x100 DUP1 DUP4 SLOAD DIV MUL DUP4 MSTORE SWAP2 PUSH1 0x20 ADD SWAP2 PUSH2 0x14D0 JUMP JUMPDEST DUP3 ADD SWAP2 SWAP1 PUSH1 0x0 MSTORE PUSH1 0x20 PUSH1 0x0 KECCAK256 SWAP1 JUMPDEST DUP2 SLOAD DUP2 MSTORE SWAP1 PUSH1 0x1 ADD SWAP1 PUSH1 0x20 ADD DUP1 DUP4 GT PUSH2 0x14B3 JUMPI DUP3 SWAP1 SUB PUSH1 0x1F AND DUP3 ADD SWAP2 JUMPDEST POP POP POP POP POP SWAP1 POP DUP5 JUMP JUMPDEST PUSH1 0x60 PUSH1 0x0 DUP1 SLOAD DUP1 PUSH1 0x20 MUL PUSH1 0x20 ADD PUSH1 0x40 MLOAD SWAP1 DUP2 ADD PUSH1 0x40 MSTORE DUP1 SWAP3 SWAP2 SWAP1 DUP2 DUP2 MSTORE PUSH1 0x20 ADD DUP3 DUP1 SLOAD DUP1 ISZERO PUSH2 0x155E JUMPI PUSH1 0x20 MUL DUP3 ADD SWAP2 SWAP1 PUSH1 0x0 MSTORE PUSH1 0x20 PUSH1 0x0 KECCAK256 SWAP1 JUMPDEST DUP2 PUSH1 0x0 SWAP1 SLOAD SWAP1 PUSH2 0x100 EXP SWAP1 DIV PUSH20 0xFFFFFFFFFFFFFFFFFFFFFFFFFFFFFFFFFFFFFFFF AND PUSH20 0xFFFFFFFFFFFFFFFFFFFFFFFFFFFFFFFFFFFFFFFF AND DUP2 MSTORE PUSH1 0x20 ADD SWAP1 PUSH1 0x1 ADD SWAP1 DUP1 DUP4 GT PUSH2 0x1514 JUMPI JUMPDEST POP POP POP POP POP SWAP1 POP SWAP1 JUMP JUMPDEST PUSH1 0xE PUSH1 0x20 MSTORE DUP1 PUSH1 0x0 MSTORE PUSH1 0x40 PUSH1 0x0 KECCAK256 PUSH1 0x0 SWAP2 POP SLOAD SWAP1 PUSH2 0x100 EXP SWAP1 DIV PUSH1 0xFF AND DUP2 JUMP JUMPDEST PUSH1 0x0 DUP2 DUP2 SLOAD DUP2 LT PUSH2 0x1598 JUMPI PUSH1 0x0 DUP1 REVERT JUMPDEST SWAP1 PUSH1 0x0 MSTORE PUSH1 0x20 PUSH1 0x0 KECCAK256 ADD PUSH1 0x0 SWAP2 POP SLOAD SWAP1 PUSH2 0x100 EXP SWAP1 DIV PUSH20 0xFFFFFFFFFFFFFFFFFFFFFFFFFFFFFFFFFFFFFFFF AND DUP2 JUMP JUMPDEST PUSH1 0xC PUSH1 0x20 MSTORE DUP2 PUSH1 0x0 MSTORE PUSH1 0x40 PUSH1 0x0 KECCAK256 PUSH1 0x20 MSTORE DUP1 PUSH1 0x0 MSTORE PUSH1 0x40 PUSH1 0x0 KECCAK256 PUSH1 0x0 SWAP2 POP SWAP2 POP POP SLOAD DUP2 JUMP JUMPDEST PUSH1 0x0 PUSH1 0x6 PUSH1 0x0 DUP5 DUP2 MSTORE PUSH1 0x20 ADD SWAP1 DUP2 MSTORE PUSH1 0x20 ADD PUSH1 0x0 KECCAK256 SWAP1 POP PUSH1 0x0 DUP2 PUSH1 0x5 ADD PUSH1 0x1 SWAP1 SLOAD SWAP1 PUSH2 0x100 EXP SWAP1 DIV PUSH1 0xFF AND SWAP1 POP PUSH1 0x0 PUSH1 0x7 PUSH1 0x0 DUP7 DUP2 MSTORE PUSH1 0x20 ADD SWAP1 DUP2 MSTORE PUSH1 0x20 ADD PUSH1 0x0 KECCAK256 PUSH1 0x0 DUP4 PUSH1 0xFF AND PUSH1 0xFF AND DUP2 MSTORE PUSH1 0x20 ADD SWAP1 DUP2 MSTORE PUSH1 0x20 ADD PUSH1 0x0 KECCAK256 SWAP1 POP DUP4 PUSH2 0x1693 JUMPI DUP1 PUSH1 0x2 ADD SLOAD TIMESTAMP GT PUSH2 0x1692 JUMPI PUSH1 0x40 MLOAD PUSH32 0x8C379A000000000000000000000000000000000000000000000000000000000 DUP2 MSTORE PUSH1 0x4 ADD PUSH2 0x1689 SWAP1 PUSH2 0x4D39 JUMP JUMPDEST PUSH1 0x40 MLOAD DUP1 SWAP2 SUB SWAP1 REVERT JUMPDEST JUMPDEST DUP1 PUSH1 0x3 ADD PUSH1 0x0 SWAP1 SLOAD SWAP1 PUSH2 0x100 EXP SWAP1 DIV PUSH1 0xFF AND ISZERO PUSH2 0x16E5 JUMPI PUSH1 0x40 MLOAD PUSH32 0x8C379A000000000000000000000000000000000000000000000000000000000 DUP2 MSTORE PUSH1 0x4 ADD PUSH2 0x16DC SWAP1 PUSH2 0x4DA5 JUMP JUMPDEST PUSH1 0x40 MLOAD DUP1 SWAP2 SUB SWAP1 REVERT JUMPDEST PUSH1 0x0 PUSH1 0x8 PUSH1 0x0 DUP8 DUP2 MSTORE PUSH1 0x20 ADD SWAP1 DUP2 MSTORE PUSH1 0x20 ADD PUSH1 0x0 KECCAK256 PUSH1 0x0 DUP5 PUSH1 0xFF AND PUSH1 0xFF AND DUP2 MSTORE PUSH1 0x20 ADD SWAP1 DUP2 MSTORE PUSH1 0x20 ADD PUSH1 0x0 KECCAK256 PUSH1 0x0 DUP1 DUP2 MSTORE PUSH1 0x20 ADD SWAP1 DUP2 MSTORE PUSH1 0x20 ADD PUSH1 0x0 KECCAK256 SLOAD DUP3 PUSH1 0x4 ADD SLOAD PUSH2 0x1732 SWAP2 SWAP1 PUSH2 0x48EF JUMP JUMPDEST SWAP1 POP PUSH1 0x0 PUSH2 0x1740 DUP8 DUP6 PUSH2 0x32D8 JUMP JUMPDEST SWAP1 POP PUSH1 0x1 DUP5 PUSH1 0xFF AND SUB PUSH2 0x1B35 JUMPI PUSH1 0x0 DUP3 GT DUP1 ISZERO PUSH2 0x1778 JUMPI POP PUSH1 0x32 DUP3 PUSH2 0x1765 SWAP2 SWAP1 PUSH2 0x4DC5 JUMP JUMPDEST PUSH1 0x64 DUP3 PUSH1 0x0 ADD MLOAD PUSH2 0x1776 SWAP2 SWAP1 PUSH2 0x4DC5 JUMP JUMPDEST GT JUMPDEST DUP1 ISZERO PUSH2 0x1788 JUMPI POP PUSH1 0x1 DUP2 PUSH1 0x60 ADD MLOAD EQ JUMPDEST ISZERO PUSH2 0x181A JUMPI DUP1 PUSH1 0x40 ADD MLOAD DUP6 PUSH1 0x6 ADD DUP2 SWAP1 SSTORE POP PUSH1 0x1 DUP4 PUSH1 0x3 ADD PUSH1 0x0 PUSH2 0x100 EXP DUP2 SLOAD DUP2 PUSH1 0xFF MUL NOT AND SWAP1 DUP4 ISZERO ISZERO MUL OR SWAP1 SSTORE POP DUP7 PUSH32 0x3A9CDA69EE0D6DFEE4ACF22426DF9B50F9AF0D2ACD191BD409070A7A51C3AC7B DUP6 PUSH1 0x1 DUP5 PUSH1 0x40 ADD MLOAD PUSH1 0x40 MLOAD PUSH2 0x17F0 SWAP4 SWAP3 SWAP2 SWAP1 PUSH2 0x4E07 JUMP JUMPDEST PUSH1 0x40 MLOAD DUP1 SWAP2 SUB SWAP1 LOG2 PUSH1 0x0 DUP6 PUSH1 0x5 ADD PUSH1 0x0 PUSH2 0x100 EXP DUP2 SLOAD DUP2 PUSH1 0xFF MUL NOT AND SWAP1 DUP4 ISZERO ISZERO MUL OR SWAP1 SSTORE POP PUSH2 0x1B30 JUMP JUMPDEST PUSH1 0x0 PUSH1 0x1 DUP6 PUSH2 0x1829 SWAP2 SWAP1 PUSH2 0x4E3E JUMP JUMPDEST SWAP1 POP DUP1 DUP7 PUSH1 0x5 ADD PUSH1 0x1 PUSH2 0x100 EXP DUP2 SLOAD DUP2 PUSH1 0xFF MUL NOT AND SWAP1 DUP4 PUSH1 0xFF AND MUL OR SWAP1 SSTORE POP PUSH1 0x0 PUSH1 0x7 PUSH1 0x0 DUP11 DUP2 MSTORE PUSH1 0x20 ADD SWAP1 DUP2 MSTORE PUSH1 0x20 ADD PUSH1 0x0 KECCAK256 PUSH1 0x0 DUP4 PUSH1 0xFF AND PUSH1 0xFF AND DUP2 MSTORE PUSH1 0x20 ADD SWAP1 DUP2 MSTORE PUSH1 0x20 ADD PUSH1 0x0 KECCAK256 SWAP1 POP DUP2 DUP2 PUSH1 0x0 ADD PUSH1 0x0 PUSH2 0x100 EXP DUP2 SLOAD DUP2 PUSH1 0xFF MUL NOT AND SWAP1 DUP4 PUSH1 0xFF AND MUL OR SWAP1 SSTORE POP TIMESTAMP DUP2 PUSH1 0x1 ADD DUP2 SWAP1 SSTORE POP DUP7 PUSH1 0x3 ADD SLOAD TIMESTAMP PUSH2 0x18AC SWAP2 SWAP1 PUSH2 0x4C59 JUMP JUMPDEST DUP2 PUSH1 0x2 ADD DUP2 SWAP1 SSTORE POP PUSH1 0x60 PUSH1 0x1 DUP5 PUSH1 0x60 ADD MLOAD GT ISZERO PUSH2 0x1972 JUMPI DUP4 PUSH1 0x60 ADD MLOAD PUSH8 0xFFFFFFFFFFFFFFFF DUP2 GT ISZERO PUSH2 0x18E1 JUMPI PUSH2 0x18E0 PUSH2 0x44EA JUMP JUMPDEST JUMPDEST PUSH1 0x40 MLOAD SWAP1 DUP1 DUP3 MSTORE DUP1 PUSH1 0x20 MUL PUSH1 0x20 ADD DUP3 ADD PUSH1 0x40 MSTORE DUP1 ISZERO PUSH2 0x190F JUMPI DUP2 PUSH1 0x20 ADD PUSH1 0x20 DUP3 MUL DUP1 CALLDATASIZE DUP4 CALLDATACOPY DUP1 DUP3 ADD SWAP2 POP POP SWAP1 POP JUMPDEST POP SWAP1 POP PUSH1 0x0 JUMPDEST DUP5 PUSH1 0x60 ADD MLOAD DUP2 LT ISZERO PUSH2 0x196C JUMPI DUP5 PUSH1 0x80 ADD MLOAD DUP2 DUP2 MLOAD DUP2 LT PUSH2 0x1938 JUMPI PUSH2 0x1937 PUSH2 0x4891 JUMP JUMPDEST JUMPDEST PUSH1 0x20 MUL PUSH1 0x20 ADD ADD MLOAD DUP3 DUP3 DUP2 MLOAD DUP2 LT PUSH2 0x1953 JUMPI PUSH2 0x1952 PUSH2 0x4891 JUMP JUMPDEST JUMPDEST PUSH1 0x20 MUL PUSH1 0x20 ADD ADD DUP2 DUP2 MSTORE POP POP DUP1 DUP1 PUSH1 0x1 ADD SWAP2 POP POP PUSH2 0x1915 JUMP JUMPDEST POP PUSH2 0x19DC JUMP JUMPDEST PUSH2 0x19D9 DUP11 DUP9 DUP7 PUSH1 0x40 ADD MLOAD DUP8 PUSH1 0x20 ADD MLOAD DUP11 PUSH1 0x6 ADD DUP1 SLOAD DUP1 PUSH1 0x20 MUL PUSH1 0x20 ADD PUSH1 0x40 MLOAD SWAP1 DUP2 ADD PUSH1 0x40 MSTORE DUP1 SWAP3 SWAP2 SWAP1 DUP2 DUP2 MSTORE PUSH1 0x20 ADD DUP3 DUP1 SLOAD DUP1 ISZERO PUSH2 0x19CF JUMPI PUSH1 0x20 MUL DUP3 ADD SWAP2 SWAP1 PUSH1 0x0 MSTORE PUSH1 0x20 PUSH1 0x0 KECCAK256 SWAP1 JUMPDEST DUP2 SLOAD DUP2 MSTORE PUSH1 0x20 ADD SWAP1 PUSH1 0x1 ADD SWAP1 DUP1 DUP4 GT PUSH2 0x19BB JUMPI JUMPDEST POP POP POP POP POP PUSH2 0x3507 JUMP JUMPDEST SWAP1 POP JUMPDEST PUSH1 0x0 PUSH1 0x1 DUP3 MLOAD PUSH2 0x19EC SWAP2 SWAP1 PUSH2 0x4C59 JUMP JUMPDEST PUSH8 0xFFFFFFFFFFFFFFFF DUP2 GT ISZERO PUSH2 0x1A05 JUMPI PUSH2 0x1A04 PUSH2 0x44EA JUMP JUMPDEST JUMPDEST PUSH1 0x40 MLOAD SWAP1 DUP1 DUP3 MSTORE DUP1 PUSH1 0x20 MUL PUSH1 0x20 ADD DUP3 ADD PUSH1 0x40 MSTORE DUP1 ISZERO PUSH2 0x1A33 JUMPI DUP2 PUSH1 0x20 ADD PUSH1 0x20 DUP3 MUL DUP1 CALLDATASIZE DUP4 CALLDATACOPY DUP1 DUP3 ADD SWAP2 POP POP SWAP1 POP JUMPDEST POP SWAP1 POP PUSH1 0x0 DUP2 PUSH1 0x0 DUP2 MLOAD DUP2 LT PUSH2 0x1A4C JUMPI PUSH2 0x1A4B PUSH2 0x4891 JUMP JUMPDEST JUMPDEST PUSH1 0x20 MUL PUSH1 0x20 ADD ADD DUP2 DUP2 MSTORE POP POP PUSH1 0x0 JUMPDEST DUP3 MLOAD DUP2 LT ISZERO PUSH2 0x1AB7 JUMPI DUP3 DUP2 DUP2 MLOAD DUP2 LT PUSH2 0x1A77 JUMPI PUSH2 0x1A76 PUSH2 0x4891 JUMP JUMPDEST JUMPDEST PUSH1 0x20 MUL PUSH1 0x20 ADD ADD MLOAD DUP3 PUSH1 0x1 DUP4 PUSH2 0x1A8D SWAP2 SWAP1 PUSH2 0x4C59 JUMP JUMPDEST DUP2 MLOAD DUP2 LT PUSH2 0x1A9E JUMPI PUSH2 0x1A9D PUSH2 0x4891 JUMP JUMPDEST JUMPDEST PUSH1 0x20 MUL PUSH1 0x20 ADD ADD DUP2 DUP2 MSTORE POP POP DUP1 DUP1 PUSH1 0x1 ADD SWAP2 POP POP PUSH2 0x1A5B JUMP JUMPDEST POP DUP1 DUP4 PUSH1 0x6 ADD SWAP1 DUP1 MLOAD SWAP1 PUSH1 0x20 ADD SWAP1 PUSH2 0x1AD0 SWAP3 SWAP2 SWAP1 PUSH2 0x3A5A JUMP JUMPDEST POP PUSH1 0x1 DUP8 PUSH1 0x3 ADD PUSH1 0x0 PUSH2 0x100 EXP DUP2 SLOAD DUP2 PUSH1 0xFF MUL NOT AND SWAP1 DUP4 ISZERO ISZERO MUL OR SWAP1 SSTORE POP DUP11 PUSH32 0x3A9CDA69EE0D6DFEE4ACF22426DF9B50F9AF0D2ACD191BD409070A7A51C3AC7B DUP10 PUSH1 0x0 DUP1 PUSH1 0x40 MLOAD PUSH2 0x1B23 SWAP4 SWAP3 SWAP2 SWAP1 PUSH2 0x4EB8 JUMP JUMPDEST PUSH1 0x40 MLOAD DUP1 SWAP2 SUB SWAP1 LOG2 POP POP POP POP JUMPDEST PUSH2 0x204B JUMP JUMPDEST PUSH1 0x2 DUP5 PUSH1 0xFF AND SUB PUSH2 0x1E78 JUMPI PUSH1 0x1 DUP2 PUSH1 0x60 ADD MLOAD SUB PUSH2 0x1BD9 JUMPI DUP1 PUSH1 0x40 ADD MLOAD DUP6 PUSH1 0x6 ADD DUP2 SWAP1 SSTORE POP PUSH1 0x1 DUP4 PUSH1 0x3 ADD PUSH1 0x0 PUSH2 0x100 EXP DUP2 SLOAD DUP2 PUSH1 0xFF MUL NOT AND SWAP1 DUP4 ISZERO ISZERO MUL OR SWAP1 SSTORE POP DUP7 PUSH32 0x3A9CDA69EE0D6DFEE4ACF22426DF9B50F9AF0D2ACD191BD409070A7A51C3AC7B DUP6 PUSH1 0x1 DUP5 PUSH1 0x40 ADD MLOAD PUSH1 0x40 MLOAD PUSH2 0x1BAF SWAP4 SWAP3 SWAP2 SWAP1 PUSH2 0x4E07 JUMP JUMPDEST PUSH1 0x40 MLOAD DUP1 SWAP2 SUB SWAP1 LOG2 PUSH1 0x0 DUP6 PUSH1 0x5 ADD PUSH1 0x0 PUSH2 0x100 EXP DUP2 SLOAD DUP2 PUSH1 0xFF MUL NOT AND SWAP1 DUP4 ISZERO ISZERO MUL OR SWAP1 SSTORE POP PUSH2 0x1E73 JUMP JUMPDEST PUSH1 0x0 PUSH1 0x1 DUP6 PUSH2 0x1BE8 SWAP2 SWAP1 PUSH2 0x4E3E JUMP JUMPDEST SWAP1 POP DUP1 DUP7 PUSH1 0x5 ADD PUSH1 0x1 PUSH2 0x100 EXP DUP2 SLOAD DUP2 PUSH1 0xFF MUL NOT AND SWAP1 DUP4 PUSH1 0xFF AND MUL OR SWAP1 SSTORE POP PUSH1 0x0 PUSH1 0x7 PUSH1 0x0 DUP11 DUP2 MSTORE PUSH1 0x20 ADD SWAP1 DUP2 MSTORE PUSH1 0x20 ADD PUSH1 0x0 KECCAK256 PUSH1 0x0 DUP4 PUSH1 0xFF AND PUSH1 0xFF AND DUP2 MSTORE PUSH1 0x20 ADD SWAP1 DUP2 MSTORE PUSH1 0x20 ADD PUSH1 0x0 KECCAK256 SWAP1 POP DUP2 DUP2 PUSH1 0x0 ADD PUSH1 0x0 PUSH2 0x100 EXP DUP2 SLOAD DUP2 PUSH1 0xFF MUL NOT AND SWAP1 DUP4 PUSH1 0xFF AND MUL OR SWAP1 SSTORE POP TIMESTAMP DUP2 PUSH1 0x1 ADD DUP2 SWAP1 SSTORE POP DUP7 PUSH1 0x3 ADD SLOAD TIMESTAMP PUSH2 0x1C6B SWAP2 SWAP1 PUSH2 0x4C59 JUMP JUMPDEST DUP2 PUSH1 0x2 ADD DUP2 SWAP1 SSTORE POP PUSH1 0x0 DUP4 PUSH1 0x60 ADD MLOAD PUSH8 0xFFFFFFFFFFFFFFFF DUP2 GT ISZERO PUSH2 0x1C93 JUMPI PUSH2 0x1C92 PUSH2 0x44EA JUMP JUMPDEST JUMPDEST PUSH1 0x40 MLOAD SWAP1 DUP1 DUP3 MSTORE DUP1 PUSH1 0x20 MUL PUSH1 0x20 ADD DUP3 ADD PUSH1 0x40 MSTORE DUP1 ISZERO PUSH2 0x1CC1 JUMPI DUP2 PUSH1 0x20 ADD PUSH1 0x20 DUP3 MUL DUP1 CALLDATASIZE DUP4 CALLDATACOPY DUP1 DUP3 ADD SWAP2 POP POP SWAP1 POP JUMPDEST POP SWAP1 POP PUSH1 0x0 JUMPDEST DUP5 PUSH1 0x60 ADD MLOAD DUP2 LT ISZERO PUSH2 0x1D1E JUMPI DUP5 PUSH1 0x80 ADD MLOAD DUP2 DUP2 MLOAD DUP2 LT PUSH2 0x1CEA JUMPI PUSH2 0x1CE9 PUSH2 0x4891 JUMP JUMPDEST JUMPDEST PUSH1 0x20 MUL PUSH1 0x20 ADD ADD MLOAD DUP3 DUP3 DUP2 MLOAD DUP2 LT PUSH2 0x1D05 JUMPI PUSH2 0x1D04 PUSH2 0x4891 JUMP JUMPDEST JUMPDEST PUSH1 0x20 MUL PUSH1 0x20 ADD ADD DUP2 DUP2 MSTORE POP POP DUP1 DUP1 PUSH1 0x1 ADD SWAP2 POP POP PUSH2 0x1CC7 JUMP JUMPDEST POP PUSH1 0x0 PUSH1 0x1 DUP3 MLOAD PUSH2 0x1D2F SWAP2 SWAP1 PUSH2 0x4C59 JUMP JUMPDEST PUSH8 0xFFFFFFFFFFFFFFFF DUP2 GT ISZERO PUSH2 0x1D48 JUMPI PUSH2 0x1D47 PUSH2 0x44EA JUMP JUMPDEST JUMPDEST PUSH1 0x40 MLOAD SWAP1 DUP1 DUP3 MSTORE DUP1 PUSH1 0x20 MUL PUSH1 0x20 ADD DUP3 ADD PUSH1 0x40 MSTORE DUP1 ISZERO PUSH2 0x1D76 JUMPI DUP2 PUSH1 0x20 ADD PUSH1 0x20 DUP3 MUL DUP1 CALLDATASIZE DUP4 CALLDATACOPY DUP1 DUP3 ADD SWAP2 POP POP SWAP1 POP JUMPDEST POP SWAP1 POP PUSH1 0x0 DUP2 PUSH1 0x0 DUP2 MLOAD DUP2 LT PUSH2 0x1D8F JUMPI PUSH2 0x1D8E PUSH2 0x4891 JUMP JUMPDEST JUMPDEST PUSH1 0x20 MUL PUSH1 0x20 ADD ADD DUP2 DUP2 MSTORE POP POP PUSH1 0x0 JUMPDEST DUP3 MLOAD DUP2 LT ISZERO PUSH2 0x1DFA JUMPI DUP3 DUP2 DUP2 MLOAD DUP2 LT PUSH2 0x1DBA JUMPI PUSH2 0x1DB9 PUSH2 0x4891 JUMP JUMPDEST JUMPDEST PUSH1 0x20 MUL PUSH1 0x20 ADD ADD MLOAD DUP3 PUSH1 0x1 DUP4 PUSH2 0x1DD0 SWAP2 SWAP1 PUSH2 0x4C59 JUMP JUMPDEST DUP2 MLOAD DUP2 LT PUSH2 0x1DE1 JUMPI PUSH2 0x1DE0 PUSH2 0x4891 JUMP JUMPDEST JUMPDEST PUSH1 0x20 MUL PUSH1 0x20 ADD ADD DUP2 DUP2 MSTORE POP POP DUP1 DUP1 PUSH1 0x1 ADD SWAP2 POP POP PUSH2 0x1D9E JUMP JUMPDEST POP DUP1 DUP4 PUSH1 0x6 ADD SWAP1 DUP1 MLOAD SWAP1 PUSH1 0x20 ADD SWAP1 PUSH2 0x1E13 SWAP3 SWAP2 SWAP1 PUSH2 0x3A5A JUMP JUMPDEST POP PUSH1 0x1 DUP8 PUSH1 0x3 ADD PUSH1 0x0 PUSH2 0x100 EXP DUP2 SLOAD DUP2 PUSH1 0xFF MUL NOT AND SWAP1 DUP4 ISZERO ISZERO MUL OR SWAP1 SSTORE POP DUP11 PUSH32 0x3A9CDA69EE0D6DFEE4ACF22426DF9B50F9AF0D2ACD191BD409070A7A51C3AC7B DUP10 PUSH1 0x0 DUP1 PUSH1 0x40 MLOAD PUSH2 0x1E66 SWAP4 SWAP3 SWAP2 SWAP1 PUSH2 0x4EB8 JUMP JUMPDEST PUSH1 0x40 MLOAD DUP1 SWAP2 SUB SWAP1 LOG2 POP POP POP POP JUMPDEST PUSH2 0x204A JUMP JUMPDEST PUSH1 0x3 DUP5 PUSH1 0xFF AND SUB PUSH2 0x2049 JUMPI PUSH1 0x1 DUP2 PUSH1 0x60 ADD MLOAD SUB PUSH2 0x1F1C JUMPI DUP1 PUSH1 0x40 ADD MLOAD DUP6 PUSH1 0x6 ADD DUP2 SWAP1 SSTORE POP PUSH1 0x1 DUP4 PUSH1 0x3 ADD PUSH1 0x0 PUSH2 0x100 EXP DUP2 SLOAD DUP2 PUSH1 0xFF MUL NOT AND SWAP1 DUP4 ISZERO ISZERO MUL OR SWAP1 SSTORE POP DUP7 PUSH32 0x3A9CDA69EE0D6DFEE4ACF22426DF9B50F9AF0D2ACD191BD409070A7A51C3AC7B DUP6 PUSH1 0x1 DUP5 PUSH1 0x40 ADD MLOAD PUSH1 0x40 MLOAD PUSH2 0x1EF2 SWAP4 SWAP3 SWAP2 SWAP1 PUSH2 0x4E07 JUMP JUMPDEST PUSH1 0x40 MLOAD DUP1 SWAP2 SUB SWAP1 LOG2 PUSH1 0x0 DUP6 PUSH1 0x5 ADD PUSH1 0x0 PUSH2 0x100 EXP DUP2 SLOAD DUP2 PUSH1 0xFF MUL NOT AND SWAP1 DUP4 ISZERO ISZERO MUL OR SWAP1 SSTORE POP PUSH2 0x2048 JUMP JUMPDEST PUSH1 0x0 DUP1 PUSH1 0x0 JUMPDEST DUP4 PUSH1 0x60 ADD MLOAD DUP2 LT ISZERO PUSH2 0x1F98 JUMPI PUSH1 0x0 DUP5 PUSH1 0x80 ADD MLOAD DUP3 DUP2 MLOAD DUP2 LT PUSH2 0x1F47 JUMPI PUSH2 0x1F46 PUSH2 0x4891 JUMP JUMPDEST JUMPDEST PUSH1 0x20 MUL PUSH1 0x20 ADD ADD MLOAD SWAP1 POP PUSH1 0x0 PUSH1 0xC PUSH1 0x0 DUP14 DUP2 MSTORE PUSH1 0x20 ADD SWAP1 DUP2 MSTORE PUSH1 0x20 ADD PUSH1 0x0 KECCAK256 PUSH1 0x0 DUP4 DUP2 MSTORE PUSH1 0x20 ADD SWAP1 DUP2 MSTORE PUSH1 0x20 ADD PUSH1 0x0 KECCAK256 SLOAD SWAP1 POP DUP4 DUP2 GT ISZERO PUSH2 0x1F89 JUMPI DUP1 SWAP4 POP DUP2 SWAP5 POP JUMPDEST POP POP DUP1 DUP1 PUSH1 0x1 ADD SWAP2 POP POP PUSH2 0x1F22 JUMP JUMPDEST POP DUP2 DUP8 PUSH1 0x6 ADD DUP2 SWAP1 SSTORE POP DUP3 PUSH1 0x80 ADD MLOAD PUSH1 0xB PUSH1 0x0 DUP12 DUP2 MSTORE PUSH1 0x20 ADD SWAP1 DUP2 MSTORE PUSH1 0x20 ADD PUSH1 0x0 KECCAK256 SWAP1 DUP1 MLOAD SWAP1 PUSH1 0x20 ADD SWAP1 PUSH2 0x1FCD SWAP3 SWAP2 SWAP1 PUSH2 0x3A5A JUMP JUMPDEST POP PUSH1 0x1 DUP6 PUSH1 0x3 ADD PUSH1 0x0 PUSH2 0x100 EXP DUP2 SLOAD DUP2 PUSH1 0xFF MUL NOT AND SWAP1 DUP4 ISZERO ISZERO MUL OR SWAP1 SSTORE POP DUP9 PUSH32 0x3A9CDA69EE0D6DFEE4ACF22426DF9B50F9AF0D2ACD191BD409070A7A51C3AC7B DUP8 PUSH1 0x1 DUP6 PUSH1 0x40 MLOAD PUSH2 0x2020 SWAP4 SWAP3 SWAP2 SWAP1 PUSH2 0x4E07 JUMP JUMPDEST PUSH1 0x40 MLOAD DUP1 SWAP2 SUB SWAP1 LOG2 PUSH1 0x0 DUP8 PUSH1 0x5 ADD PUSH1 0x0 PUSH2 0x100 EXP DUP2 SLOAD DUP2 PUSH1 0xFF MUL NOT AND SWAP1 DUP4 ISZERO ISZERO MUL OR SWAP1 SSTORE POP POP POP JUMPDEST JUMPDEST JUMPDEST JUMPDEST POP POP POP POP POP POP POP JUMP JUMPDEST PUSH1 0x6 PUSH1 0x20 MSTORE DUP1 PUSH1 0x0 MSTORE PUSH1 0x40 PUSH1 0x0 KECCAK256 PUSH1 0x0 SWAP2 POP SWAP1 POP DUP1 PUSH1 0x0 ADD SLOAD SWAP1 DUP1 PUSH1 0x1 ADD SLOAD SWAP1 DUP1 PUSH1 0x2 ADD SLOAD SWAP1 DUP1 PUSH1 0x3 ADD SLOAD SWAP1 DUP1 PUSH1 0x5 ADD PUSH1 0x0 SWAP1 SLOAD SWAP1 PUSH2 0x100 EXP SWAP1 DIV PUSH1 0xFF AND SWAP1 DUP1 PUSH1 0x5 ADD PUSH1 0x1 SWAP1 SLOAD SWAP1 PUSH2 0x100 EXP SWAP1 DIV PUSH1 0xFF AND SWAP1 DUP1 PUSH1 0x6 ADD SLOAD SWAP1 POP DUP8 JUMP JUMPDEST PUSH1 0x60 PUSH1 0x7 PUSH1 0x0 DUP5 DUP2 MSTORE PUSH1 0x20 ADD SWAP1 DUP2 MSTORE PUSH1 0x20 ADD PUSH1 0x0 KECCAK256 PUSH1 0x0 DUP4 PUSH1 0xFF AND PUSH1 0xFF AND DUP2 MSTORE PUSH1 0x20 ADD SWAP1 DUP2 MSTORE PUSH1 0x20 ADD PUSH1 0x0 KECCAK256 PUSH1 0x6 ADD DUP1 SLOAD DUP1 PUSH1 0x20 MUL PUSH1 0x20 ADD PUSH1 0x40 MLOAD SWAP1 DUP2 ADD PUSH1 0x40 MSTORE DUP1 SWAP3 SWAP2 SWAP1 DUP2 DUP2 MSTORE PUSH1 0x20 ADD DUP3 DUP1 SLOAD DUP1 ISZERO PUSH2 0x2129 JUMPI PUSH1 0x20 MUL DUP3 ADD SWAP2 SWAP1 PUSH1 0x0 MSTORE PUSH1 0x20 PUSH1 0x0 KECCAK256 SWAP1 JUMPDEST DUP2 SLOAD DUP2 MSTORE PUSH1 0x20 ADD SWAP1 PUSH1 0x1 ADD SWAP1 DUP1 DUP4 GT PUSH2 0x2115 JUMPI JUMPDEST POP POP POP POP POP SWAP1 POP SWAP3 SWAP2 POP POP JUMP JUMPDEST PUSH1 0xD PUSH1 0x0 SWAP1 SLOAD SWAP1 PUSH2 0x100 EXP SWAP1 DIV PUSH20 0xFFFFFFFFFFFFFFFFFFFFFFFFFFFFFFFFFFFFFFFF AND PUSH20 0xFFFFFFFFFFFFFFFFFFFFFFFFFFFFFFFFFFFFFFFF AND CALLER PUSH20 0xFFFFFFFFFFFFFFFFFFFFFFFFFFFFFFFFFFFFFFFF AND EQ PUSH2 0x21C6 JUMPI PUSH1 0x40 MLOAD PUSH32 0x8C379A000000000000000000000000000000000000000000000000000000000 DUP2 MSTORE PUSH1 0x4 ADD PUSH2 0x21BD SWAP1 PUSH2 0x4805 JUMP JUMPDEST PUSH1 0x40 MLOAD DUP1 SWAP2 SUB SWAP1 REVERT JUMPDEST PUSH1 0x0 PUSH20 0xFFFFFFFFFFFFFFFFFFFFFFFFFFFFFFFFFFFFFFFF AND DUP2 PUSH20 0xFFFFFFFFFFFFFFFFFFFFFFFFFFFFFFFFFFFFFFFF AND SUB PUSH2 0x2235 JUMPI PUSH1 0x40 MLOAD PUSH32 0x8C379A000000000000000000000000000000000000000000000000000000000 DUP2 MSTORE PUSH1 0x4 ADD PUSH2 0x222C SWAP1 PUSH2 0x4F3B JUMP JUMPDEST PUSH1 0x40 MLOAD DUP1 SWAP2 SUB SWAP1 REVERT JUMPDEST PUSH1 0xE PUSH1 0x0 DUP3 PUSH20 0xFFFFFFFFFFFFFFFFFFFFFFFFFFFFFFFFFFFFFFFF AND PUSH20 0xFFFFFFFFFFFFFFFFFFFFFFFFFFFFFFFFFFFFFFFF AND DUP2 MSTORE PUSH1 0x20 ADD SWAP1 DUP2 MSTORE PUSH1 0x20 ADD PUSH1 0x0 KECCAK256 PUSH1 0x0 SWAP1 SLOAD SWAP1 PUSH2 0x100 EXP SWAP1 DIV PUSH1 0xFF AND ISZERO PUSH2 0x22C2 JUMPI PUSH1 0x40 MLOAD PUSH32 0x8C379A000000000000000000000000000000000000000000000000000000000 DUP2 MSTORE PUSH1 0x4 ADD PUSH2 0x22B9 SWAP1 PUSH2 0x4FA7 JUMP JUMPDEST PUSH1 0x40 MLOAD DUP1 SWAP2 SUB SWAP1 REVERT JUMPDEST PUSH1 0x1 PUSH1 0xE PUSH1 0x0 DUP4 PUSH20 0xFFFFFFFFFFFFFFFFFFFFFFFFFFFFFFFFFFFFFFFF AND PUSH20 0xFFFFFFFFFFFFFFFFFFFFFFFFFFFFFFFFFFFFFFFF AND DUP2 MSTORE PUSH1 0x20 ADD SWAP1 DUP2 MSTORE PUSH1 0x20 ADD PUSH1 0x0 KECCAK256 PUSH1 0x0 PUSH2 0x100 EXP DUP2 SLOAD DUP2 PUSH1 0xFF MUL NOT AND SWAP1 DUP4 ISZERO ISZERO MUL OR SWAP1 SSTORE POP PUSH1 0xF DUP2 SWAP1 DUP1 PUSH1 0x1 DUP2 SLOAD ADD DUP1 DUP3 SSTORE DUP1 SWAP2 POP POP PUSH1 0x1 SWAP1 SUB SWAP1 PUSH1 0x0 MSTORE PUSH1 0x20 PUSH1 0x0 KECCAK256 ADD PUSH1 0x0 SWAP1 SWAP2 SWAP1 SWAP2 SWAP1 SWAP2 PUSH2 0x100 EXP DUP2 SLOAD DUP2 PUSH20 0xFFFFFFFFFFFFFFFFFFFFFFFFFFFFFFFFFFFFFFFF MUL NOT AND SWAP1 DUP4 PUSH20 0xFFFFFFFFFFFFFFFFFFFFFFFFFFFFFFFFFFFFFFFF AND MUL OR SWAP1 SSTORE POP DUP1 PUSH20 0xFFFFFFFFFFFFFFFFFFFFFFFFFFFFFFFFFFFFFFFF AND PUSH32 0x44D6D25963F097AD14F29F06854A01F575648A1EF82F30E562CCD3889717E339 PUSH1 0x40 MLOAD PUSH1 0x40 MLOAD DUP1 SWAP2 SUB SWAP1 LOG2 POP JUMP JUMPDEST PUSH1 0x0 PUSH1 0x60 DUP1 PUSH1 0x0 DUP1 PUSH2 0x23D5 DUP8 DUP8 PUSH2 0x2864 JUMP JUMPDEST SWAP5 POP SWAP5 POP SWAP5 POP SWAP5 POP SWAP5 POP SWAP3 SWAP6 POP SWAP3 SWAP6 SWAP1 SWAP4 POP JUMP JUMPDEST PUSH1 0xA PUSH1 0x20 MSTORE DUP3 PUSH1 0x0 MSTORE PUSH1 0x40 PUSH1 0x0 KECCAK256 PUSH1 0x20 MSTORE DUP2 PUSH1 0x0 MSTORE PUSH1 0x40 PUSH1 0x0 KECCAK256 PUSH1 0x20 MSTORE DUP1 PUSH1 0x0 MSTORE PUSH1 0x40 PUSH1 0x0 KECCAK256 PUSH1 0x0 SWAP3 POP SWAP3 POP POP SWAP1 SLOAD SWAP1 PUSH2 0x100 EXP SWAP1 DIV PUSH1 0xFF AND DUP2 JUMP JUMPDEST PUSH1 0x0 DUP1 PUSH1 0x7 PUSH1 0x0 DUP6 DUP2 MSTORE PUSH1 0x20 ADD SWAP1 DUP2 MSTORE PUSH1 0x20 ADD PUSH1 0x0 KECCAK256 PUSH1 0x0 DUP5 PUSH1 0xFF AND PUSH1 0xFF AND DUP2 MSTORE PUSH1 0x20 ADD SWAP1 DUP2 MSTORE PUSH1 0x20 ADD PUSH1 0x0 KECCAK256 SWAP1 POP DUP1 PUSH1 0x1 ADD SLOAD TIMESTAMP LT ISZERO DUP1 ISZERO PUSH2 0x246C JUMPI POP DUP1 PUSH1 0x2 ADD SLOAD TIMESTAMP GT ISZERO JUMPDEST SWAP2 POP POP SWAP3 SWAP2 POP POP JUMP JUMPDEST PUSH1 0xE PUSH1 0x0 CALLER PUSH20 0xFFFFFFFFFFFFFFFFFFFFFFFFFFFFFFFFFFFFFFFF AND PUSH20 0xFFFFFFFFFFFFFFFFFFFFFFFFFFFFFFFFFFFFFFFF AND DUP2 MSTORE PUSH1 0x20 ADD SWAP1 DUP2 MSTORE PUSH1 0x20 ADD PUSH1 0x0 KECCAK256 PUSH1 0x0 SWAP1 SLOAD SWAP1 PUSH2 0x100 EXP SWAP1 DIV PUSH1 0xFF AND PUSH2 0x2501 JUMPI PUSH1 0x40 MLOAD PUSH32 0x8C379A000000000000000000000000000000000000000000000000000000000 DUP2 MSTORE PUSH1 0x4 ADD PUSH2 0x24F8 SWAP1 PUSH2 0x5013 JUMP JUMPDEST PUSH1 0x40 MLOAD DUP1 SWAP2 SUB SWAP1 REVERT JUMPDEST PUSH1 0x1 PUSH1 0x0 DUP3 PUSH20 0xFFFFFFFFFFFFFFFFFFFFFFFFFFFFFFFFFFFFFFFF AND PUSH20 0xFFFFFFFFFFFFFFFFFFFFFFFFFFFFFFFFFFFFFFFF AND DUP2 MSTORE PUSH1 0x20 ADD SWAP1 DUP2 MSTORE PUSH1 0x20 ADD PUSH1 0x0 KECCAK256 PUSH1 0x0 ADD PUSH1 0x0 SWAP1 SLOAD SWAP1 PUSH2 0x100 EXP SWAP1 DIV PUSH1 0xFF AND PUSH2 0x2590 JUMPI PUSH1 0x40 MLOAD PUSH32 0x8C379A000000000000000000000000000000000000000000000000000000000 DUP2 MSTORE PUSH1 0x4 ADD PUSH2 0x2587 SWAP1 PUSH2 0x507F JUMP JUMPDEST PUSH1 0x40 MLOAD DUP1 SWAP2 SUB SWAP1 REVERT JUMPDEST PUSH1 0x1 PUSH1 0x0 DUP3 PUSH20 0xFFFFFFFFFFFFFFFFFFFFFFFFFFFFFFFFFFFFFFFF AND PUSH20 0xFFFFFFFFFFFFFFFFFFFFFFFFFFFFFFFFFFFFFFFF AND DUP2 MSTORE PUSH1 0x20 ADD SWAP1 DUP2 MSTORE PUSH1 0x20 ADD PUSH1 0x0 KECCAK256 PUSH1 0x0 DUP1 DUP3 ADD PUSH1 0x0 PUSH2 0x100 EXP DUP2 SLOAD SWAP1 PUSH1 0xFF MUL NOT AND SWAP1 SSTORE PUSH1 0x1 DUP3 ADD PUSH1 0x0 SWAP1 SSTORE POP POP PUSH1 0x0 JUMPDEST PUSH1 0x0 DUP1 SLOAD SWAP1 POP DUP2 LT ISZERO PUSH2 0x2774 JUMPI DUP2 PUSH20 0xFFFFFFFFFFFFFFFFFFFFFFFFFFFFFFFFFFFFFFFF AND PUSH1 0x0 DUP3 DUP2 SLOAD DUP2 LT PUSH2 0x2629 JUMPI PUSH2 0x2628 PUSH2 0x4891 JUMP JUMPDEST JUMPDEST SWAP1 PUSH1 0x0 MSTORE PUSH1 0x20 PUSH1 0x0 KECCAK256 ADD PUSH1 0x0 SWAP1 SLOAD SWAP1 PUSH2 0x100 EXP SWAP1 DIV PUSH20 0xFFFFFFFFFFFFFFFFFFFFFFFFFFFFFFFFFFFFFFFF AND PUSH20 0xFFFFFFFFFFFFFFFFFFFFFFFFFFFFFFFFFFFFFFFF AND SUB PUSH2 0x2767 JUMPI PUSH1 0x0 PUSH1 0x1 PUSH1 0x0 DUP1 SLOAD SWAP1 POP PUSH2 0x2683 SWAP2 SWAP1 PUSH2 0x48EF JUMP JUMPDEST DUP2 SLOAD DUP2 LT PUSH2 0x2694 JUMPI PUSH2 0x2693 PUSH2 0x4891 JUMP JUMPDEST JUMPDEST SWAP1 PUSH1 0x0 MSTORE PUSH1 0x20 PUSH1 0x0 KECCAK256 ADD PUSH1 0x0 SWAP1 SLOAD SWAP1 PUSH2 0x100 EXP SWAP1 DIV PUSH20 0xFFFFFFFFFFFFFFFFFFFFFFFFFFFFFFFFFFFFFFFF AND PUSH1 0x0 DUP3 DUP2 SLOAD DUP2 LT PUSH2 0x26D3 JUMPI PUSH2 0x26D2 PUSH2 0x4891 JUMP JUMPDEST JUMPDEST SWAP1 PUSH1 0x0 MSTORE PUSH1 0x20 PUSH1 0x0 KECCAK256 ADD PUSH1 0x0 PUSH2 0x100 EXP DUP2 SLOAD DUP2 PUSH20 0xFFFFFFFFFFFFFFFFFFFFFFFFFFFFFFFFFFFFFFFF MUL NOT AND SWAP1 DUP4 PUSH20 0xFFFFFFFFFFFFFFFFFFFFFFFFFFFFFFFFFFFFFFFF AND MUL OR SWAP1 SSTORE POP PUSH1 0x0 DUP1 SLOAD DUP1 PUSH2 0x272D JUMPI PUSH2 0x272C PUSH2 0x4923 JUMP JUMPDEST JUMPDEST PUSH1 0x1 SWAP1 SUB DUP2 DUP2 SWAP1 PUSH1 0x0 MSTORE PUSH1 0x20 PUSH1 0x0 KECCAK256 ADD PUSH1 0x0 PUSH2 0x100 EXP DUP2 SLOAD SWAP1 PUSH20 0xFFFFFFFFFFFFFFFFFFFFFFFFFFFFFFFFFFFFFFFF MUL NOT AND SWAP1 SSTORE SWAP1 SSTORE PUSH2 0x2774 JUMP JUMPDEST DUP1 DUP1 PUSH1 0x1 ADD SWAP2 POP POP PUSH2 0x25F1 JUMP JUMPDEST POP DUP1 PUSH20 0xFFFFFFFFFFFFFFFFFFFFFFFFFFFFFFFFFFFFFFFF AND PUSH32 0xA14A79AF012D1756818F9BD59CCFC9AD185A71DF86B9392D9059D9E6FAF6D644 PUSH1 0x40 MLOAD PUSH1 0x40 MLOAD DUP1 SWAP2 SUB SWAP1 LOG2 POP JUMP JUMPDEST PUSH1 0x0 DUP1 PUSH1 0x7 PUSH1 0x0 DUP6 DUP2 MSTORE PUSH1 0x20 ADD SWAP1 DUP2 MSTORE PUSH1 0x20 ADD PUSH1 0x0 KECCAK256 PUSH1 0x0 DUP5 PUSH1 0xFF AND PUSH1 0xFF AND DUP2 MSTORE PUSH1 0x20 ADD SWAP1 DUP2 MSTORE PUSH1 0x20 ADD PUSH1 0x0 KECCAK256 SWAP1 POP DUP1 PUSH1 0x3 ADD PUSH1 0x0 SWAP1 SLOAD SWAP1 PUSH2 0x100 EXP SWAP1 DIV PUSH1 0xFF AND ISZERO PUSH2 0x280B JUMPI PUSH1 0x2 SWAP2 POP POP PUSH2 0x2858 JUMP JUMPDEST DUP1 PUSH1 0x2 ADD SLOAD TIMESTAMP LT ISZERO DUP1 ISZERO PUSH2 0x282E JUMPI POP DUP1 PUSH1 0x3 ADD PUSH1 0x0 SWAP1 SLOAD SWAP1 PUSH2 0x100 EXP SWAP1 DIV PUSH1 0xFF AND ISZERO JUMPDEST ISZERO PUSH2 0x283D JUMPI PUSH1 0x2 SWAP2 POP POP PUSH2 0x2858 JUMP JUMPDEST DUP1 PUSH1 0x1 ADD SLOAD TIMESTAMP LT PUSH2 0x2852 JUMPI PUSH1 0x1 SWAP2 POP POP PUSH2 0x2858 JUMP JUMPDEST PUSH1 0x0 SWAP2 POP POP JUMPDEST SWAP3 SWAP2 POP POP JUMP JUMPDEST PUSH1 0x5 SLOAD DUP2 JUMP JUMPDEST PUSH1 0x0 PUSH1 0x60 DUP1 PUSH1 0x0 DUP1 PUSH1 0x0 PUSH1 0x7 PUSH1 0x0 DUP10 DUP2 MSTORE PUSH1 0x20 ADD SWAP1 DUP2 MSTORE PUSH1 0x20 ADD PUSH1 0x0 KECCAK256 PUSH1 0x0 DUP9 PUSH1 0xFF AND PUSH1 0xFF AND DUP2 MSTORE PUSH1 0x20 ADD SWAP1 DUP2 MSTORE PUSH1 0x20 ADD PUSH1 0x0 KECCAK256 SWAP1 POP DUP1 PUSH1 0x2 ADD SLOAD TIMESTAMP GT PUSH2 0x28E0 JUMPI PUSH1 0x40 MLOAD PUSH32 0x8C379A000000000000000000000000000000000000000000000000000000000 DUP2 MSTORE PUSH1 0x4 ADD PUSH2 0x28D7 SWAP1 PUSH2 0x50EB JUMP JUMPDEST PUSH1 0x40 MLOAD DUP1 SWAP2 SUB SWAP1 REVERT JUMPDEST DUP1 PUSH1 0x4 ADD SLOAD SWAP6 POP DUP1 PUSH1 0x1 ADD SLOAD SWAP3 POP DUP1 PUSH1 0x2 ADD SLOAD SWAP2 POP PUSH1 0x6 PUSH1 0x0 DUP10 DUP2 MSTORE PUSH1 0x20 ADD SWAP1 DUP2 MSTORE PUSH1 0x20 ADD PUSH1 0x0 KECCAK256 PUSH1 0x4 ADD DUP1 SLOAD DUP1 PUSH1 0x20 MUL PUSH1 0x20 ADD PUSH1 0x40 MLOAD SWAP1 DUP2 ADD PUSH1 0x40 MSTORE DUP1 SWAP3 SWAP2 SWAP1 DUP2 DUP2 MSTORE PUSH1 0x20 ADD DUP3 DUP1 SLOAD DUP1 ISZERO PUSH2 0x2955 JUMPI PUSH1 0x20 MUL DUP3 ADD SWAP2 SWAP1 PUSH1 0x0 MSTORE PUSH1 0x20 PUSH1 0x0 KECCAK256 SWAP1 JUMPDEST DUP2 SLOAD DUP2 MSTORE PUSH1 0x20 ADD SWAP1 PUSH1 0x1 ADD SWAP1 DUP1 DUP4 GT PUSH2 0x2941 JUMPI JUMPDEST POP POP POP POP POP SWAP5 POP DUP5 MLOAD PUSH8 0xFFFFFFFFFFFFFFFF DUP2 GT ISZERO PUSH2 0x2977 JUMPI PUSH2 0x2976 PUSH2 0x44EA JUMP JUMPDEST JUMPDEST PUSH1 0x40 MLOAD SWAP1 DUP1 DUP3 MSTORE DUP1 PUSH1 0x20 MUL PUSH1 0x20 ADD DUP3 ADD PUSH1 0x40 MSTORE DUP1 ISZERO PUSH2 0x29A5 JUMPI DUP2 PUSH1 0x20 ADD PUSH1 0x20 DUP3 MUL DUP1 CALLDATASIZE DUP4 CALLDATACOPY DUP1 DUP3 ADD SWAP2 POP POP SWAP1 POP JUMPDEST POP SWAP4 POP PUSH1 0x0 JUMPDEST DUP6 MLOAD DUP2 LT ISZERO PUSH2 0x2A36 JUMPI PUSH1 0x8 PUSH1 0x0 DUP11 DUP2 MSTORE PUSH1 0x20 ADD SWAP1 DUP2 MSTORE PUSH1 0x20 ADD PUSH1 0x0 KECCAK256 PUSH1 0x0 DUP10 PUSH1 0xFF AND PUSH1 0xFF AND DUP2 MSTORE PUSH1 0x20 ADD SWAP1 DUP2 MSTORE PUSH1 0x20 ADD PUSH1 0x0 KECCAK256 PUSH1 0x0 DUP8 DUP4 DUP2 MLOAD DUP2 LT PUSH2 0x29F3 JUMPI PUSH2 0x29F2 PUSH2 0x4891 JUMP JUMPDEST JUMPDEST PUSH1 0x20 MUL PUSH1 0x20 ADD ADD MLOAD DUP2 MSTORE PUSH1 0x20 ADD SWAP1 DUP2 MSTORE PUSH1 0x20 ADD PUSH1 0x0 KECCAK256 SLOAD DUP6 DUP3 DUP2 MLOAD DUP2 LT PUSH2 0x2A1D JUMPI PUSH2 0x2A1C PUSH2 0x4891 JUMP JUMPDEST JUMPDEST PUSH1 0x20 MUL PUSH1 0x20 ADD ADD DUP2 DUP2 MSTORE POP POP DUP1 DUP1 PUSH1 0x1 ADD SWAP2 POP POP PUSH2 0x29AB JUMP JUMPDEST POP POP SWAP3 SWAP6 POP SWAP3 SWAP6 SWAP1 SWAP4 POP JUMP JUMPDEST PUSH1 0xD PUSH1 0x0 SWAP1 SLOAD SWAP1 PUSH2 0x100 EXP SWAP1 DIV PUSH20 0xFFFFFFFFFFFFFFFFFFFFFFFFFFFFFFFFFFFFFFFF AND DUP2 JUMP JUMPDEST PUSH1 0x1 PUSH1 0x20 MSTORE DUP1 PUSH1 0x0 MSTORE PUSH1 0x40 PUSH1 0x0 KECCAK256 PUSH1 0x0 SWAP2 POP SWAP1 POP DUP1 PUSH1 0x0 ADD PUSH1 0x0 SWAP1 SLOAD SWAP1 PUSH2 0x100 EXP SWAP1 DIV PUSH1 0xFF AND SWAP1 DUP1 PUSH1 0x1 ADD SLOAD SWAP1 POP DUP3 JUMP JUMPDEST PUSH1 0x7 PUSH1 0x20 MSTORE DUP2 PUSH1 0x0 MSTORE PUSH1 0x40 PUSH1 0x0 KECCAK256 PUSH1 0x20 MSTORE DUP1 PUSH1 0x0 MSTORE PUSH1 0x40 PUSH1 0x0 KECCAK256 PUSH1 0x0 SWAP2 POP SWAP2 POP POP DUP1 PUSH1 0x0 ADD PUSH1 0x0 SWAP1 SLOAD SWAP1 PUSH2 0x100 EXP SWAP1 DIV PUSH1 0xFF AND SWAP1 DUP1 PUSH1 0x1 ADD SLOAD SWAP1 DUP1 PUSH1 0x2 ADD SLOAD SWAP1 DUP1 PUSH1 0x3 ADD PUSH1 0x0 SWAP1 SLOAD SWAP1 PUSH2 0x100 EXP SWAP1 DIV PUSH1 0xFF AND SWAP1 DUP1 PUSH1 0x4 ADD SLOAD SWAP1 DUP1 PUSH1 0x5 ADD SLOAD SWAP1 POP DUP7 JUMP JUMPDEST PUSH1 0x9 PUSH1 0x20 MSTORE DUP3 PUSH1 0x0 MSTORE PUSH1 0x40 PUSH1 0x0 KECCAK256 PUSH1 0x20 MSTORE DUP2 PUSH1 0x0 MSTORE PUSH1 0x40 PUSH1 0x0 KECCAK256 DUP2 DUP2 SLOAD DUP2 LT PUSH2 0x2B24 JUMPI PUSH1 0x0 DUP1 REVERT JUMPDEST SWAP1 PUSH1 0x0 MSTORE PUSH1 0x20 PUSH1 0x0 KECCAK256 ADD PUSH1 0x0 SWAP3 POP SWAP3 POP POP SWAP1 SLOAD SWAP1 PUSH2 0x100 EXP SWAP1 DIV PUSH20 0xFFFFFFFFFFFFFFFFFFFFFFFFFFFFFFFFFFFFFFFF AND DUP2 JUMP JUMPDEST PUSH1 0xE PUSH1 0x0 CALLER PUSH20 0xFFFFFFFFFFFFFFFFFFFFFFFFFFFFFFFFFFFFFFFF AND PUSH20 0xFFFFFFFFFFFFFFFFFFFFFFFFFFFFFFFFFFFFFFFF AND DUP2 MSTORE PUSH1 0x20 ADD SWAP1 DUP2 MSTORE PUSH1 0x20 ADD PUSH1 0x0 KECCAK256 PUSH1 0x0 SWAP1 SLOAD SWAP1 PUSH2 0x100 EXP SWAP1 DIV PUSH1 0xFF AND PUSH2 0x2BE3 JUMPI PUSH1 0x40 MLOAD PUSH32 0x8C379A000000000000000000000000000000000000000000000000000000000 DUP2 MSTORE PUSH1 0x4 ADD PUSH2 0x2BDA SWAP1 PUSH2 0x5013 JUMP JUMPDEST PUSH1 0x40 MLOAD DUP1 SWAP2 SUB SWAP1 REVERT JUMPDEST PUSH1 0x0 DUP4 DUP4 PUSH1 0x40 MLOAD PUSH1 0x20 ADD PUSH2 0x2BF8 SWAP3 SWAP2 SWAP1 PUSH2 0x5193 JUMP JUMPDEST PUSH1 0x40 MLOAD PUSH1 0x20 DUP2 DUP4 SUB SUB DUP2 MSTORE SWAP1 PUSH1 0x40 MSTORE DUP1 MLOAD SWAP1 PUSH1 0x20 ADD KECCAK256 SWAP1 POP PUSH1 0x3 PUSH1 0x0 DUP3 DUP2 MSTORE PUSH1 0x20 ADD SWAP1 DUP2 MSTORE PUSH1 0x20 ADD PUSH1 0x0 KECCAK256 PUSH1 0x0 SWAP1 SLOAD SWAP1 PUSH2 0x100 EXP SWAP1 DIV PUSH1 0xFF AND ISZERO PUSH2 0x2C71 JUMPI PUSH1 0x40 MLOAD PUSH32 0x8C379A000000000000000000000000000000000000000000000000000000000 DUP2 MSTORE PUSH1 0x4 ADD PUSH2 0x2C68 SWAP1 PUSH2 0x520E JUMP JUMPDEST PUSH1 0x40 MLOAD DUP1 SWAP2 SUB SWAP1 REVERT JUMPDEST PUSH1 0x4 PUSH1 0x0 DUP2 SLOAD DUP1 SWAP3 SWAP2 SWAP1 PUSH2 0x2C84 SWAP1 PUSH2 0x4BDA JUMP JUMPDEST SWAP2 SWAP1 POP SSTORE POP PUSH1 0x40 MLOAD DUP1 PUSH1 0x80 ADD PUSH1 0x40 MSTORE DUP1 PUSH1 0x4 SLOAD DUP2 MSTORE PUSH1 0x20 ADD DUP6 DUP2 MSTORE PUSH1 0x20 ADD DUP5 DUP2 MSTORE PUSH1 0x20 ADD DUP4 DUP2 MSTORE POP PUSH1 0x2 PUSH1 0x0 PUSH1 0x4 SLOAD DUP2 MSTORE PUSH1 0x20 ADD SWAP1 DUP2 MSTORE PUSH1 0x20 ADD PUSH1 0x0 KECCAK256 PUSH1 0x0 DUP3 ADD MLOAD DUP2 PUSH1 0x0 ADD SSTORE PUSH1 0x20 DUP3 ADD MLOAD DUP2 PUSH1 0x1 ADD SWAP1 DUP2 PUSH2 0x2CE0 SWAP2 SWAP1 PUSH2 0x53D0 JUMP JUMPDEST POP PUSH1 0x40 DUP3 ADD MLOAD DUP2 PUSH1 0x2 ADD SWAP1 DUP2 PUSH2 0x2CF6 SWAP2 SWAP1 PUSH2 0x53D0 JUMP JUMPDEST POP PUSH1 0x60 DUP3 ADD MLOAD DUP2 PUSH1 0x3 ADD SWAP1 DUP2 PUSH2 0x2D0C SWAP2 SWAP1 PUSH2 0x53D0 JUMP JUMPDEST POP SWAP1 POP POP PUSH1 0x1 PUSH1 0x3 PUSH1 0x0 DUP4 DUP2 MSTORE PUSH1 0x20 ADD SWAP1 DUP2 MSTORE PUSH1 0x20 ADD PUSH1 0x0 KECCAK256 PUSH1 0x0 PUSH2 0x100 EXP DUP2 SLOAD DUP2 PUSH1 0xFF MUL NOT AND SWAP1 DUP4 ISZERO ISZERO MUL OR SWAP1 SSTORE POP PUSH1 0x4 SLOAD PUSH32 0x52B689AF7AE3BD15A5156582545571237B58ABD804C1456C3269D1B1EE93F6FC DUP6 DUP6 DUP6 PUSH1 0x40 MLOAD PUSH2 0x2D72 SWAP4 SWAP3 SWAP2 SWAP1 PUSH2 0x54A2 JUMP JUMPDEST PUSH1 0x40 MLOAD DUP1 SWAP2 SUB SWAP1 LOG2 POP POP POP POP JUMP JUMPDEST PUSH1 0xB PUSH1 0x20 MSTORE DUP2 PUSH1 0x0 MSTORE PUSH1 0x40 PUSH1 0x0 KECCAK256 DUP2 DUP2 SLOAD DUP2 LT PUSH2 0x2D9C JUMPI PUSH1 0x0 DUP1 REVERT JUMPDEST SWAP1 PUSH1 0x0 MSTORE PUSH1 0x20 PUSH1 0x0 KECCAK256 ADD PUSH1 0x0 SWAP2 POP SWAP2 POP POP SLOAD DUP2 JUMP JUMPDEST PUSH1 0x10 PUSH1 0x20 MSTORE DUP3 PUSH1 0x0 MSTORE PUSH1 0x40 PUSH1 0x0 KECCAK256 PUSH1 0x20 MSTORE DUP2 PUSH1 0x0 MSTORE PUSH1 0x40 PUSH1 0x0 KECCAK256 PUSH1 0x20 MSTORE DUP1 PUSH1 0x0 MSTORE PUSH1 0x40 PUSH1 0x0 KECCAK256 PUSH1 0x0 SWAP3 POP SWAP3 POP POP POP DUP1 PUSH1 0x0 ADD SLOAD SWAP1 DUP1 PUSH1 0x1 ADD SLOAD SWAP1 POP DUP3 JUMP JUMPDEST PUSH1 0x8 PUSH1 0x20 MSTORE DUP3 PUSH1 0x0 MSTORE PUSH1 0x40 PUSH1 0x0 KECCAK256 PUSH1 0x20 MSTORE DUP2 PUSH1 0x0 MSTORE PUSH1 0x40 PUSH1 0x0 KECCAK256 PUSH1 0x20 MSTORE DUP1 PUSH1 0x0 MSTORE PUSH1 0x40 PUSH1 0x0 KECCAK256 PUSH1 0x0 SWAP3 POP SWAP3 POP POP POP SLOAD DUP2 JUMP JUMPDEST PUSH1 0x0 PUSH1 0xE PUSH1 0x0 CALLER PUSH20 0xFFFFFFFFFFFFFFFFFFFFFFFFFFFFFFFFFFFFFFFF AND PUSH20 0xFFFFFFFFFFFFFFFFFFFFFFFFFFFFFFFFFFFFFFFF AND DUP2 MSTORE PUSH1 0x20 ADD SWAP1 DUP2 MSTORE PUSH1 0x20 ADD PUSH1 0x0 KECCAK256 PUSH1 0x0 SWAP1 SLOAD SWAP1 PUSH2 0x100 EXP SWAP1 DIV PUSH1 0xFF AND PUSH2 0x2EAF JUMPI PUSH1 0x40 MLOAD PUSH32 0x8C379A000000000000000000000000000000000000000000000000000000000 DUP2 MSTORE PUSH1 0x4 ADD PUSH2 0x2EA6 SWAP1 PUSH2 0x5013 JUMP JUMPDEST PUSH1 0x40 MLOAD DUP1 SWAP2 SUB SWAP1 REVERT JUMPDEST PUSH2 0x2EBB DUP6 DUP6 DUP6 DUP6 PUSH2 0x365C JUMP JUMPDEST SWAP1 POP SWAP5 SWAP4 POP POP POP POP JUMP JUMPDEST PUSH1 0xD PUSH1 0x0 SWAP1 SLOAD SWAP1 PUSH2 0x100 EXP SWAP1 DIV PUSH20 0xFFFFFFFFFFFFFFFFFFFFFFFFFFFFFFFFFFFFFFFF AND PUSH20 0xFFFFFFFFFFFFFFFFFFFFFFFFFFFFFFFFFFFFFFFF AND CALLER PUSH20 0xFFFFFFFFFFFFFFFFFFFFFFFFFFFFFFFFFFFFFFFF AND EQ PUSH2 0x2F55 JUMPI PUSH1 0x40 MLOAD PUSH32 0x8C379A000000000000000000000000000000000000000000000000000000000 DUP2 MSTORE PUSH1 0x4 ADD PUSH2 0x2F4C SWAP1 PUSH2 0x4805 JUMP JUMPDEST PUSH1 0x40 MLOAD DUP1 SWAP2 SUB SWAP1 REVERT JUMPDEST PUSH1 0x0 PUSH20 0xFFFFFFFFFFFFFFFFFFFFFFFFFFFFFFFFFFFFFFFF AND DUP2 PUSH20 0xFFFFFFFFFFFFFFFFFFFFFFFFFFFFFFFFFFFFFFFF AND SUB PUSH2 0x2FC4 JUMPI PUSH1 0x40 MLOAD PUSH32 0x8C379A000000000000000000000000000000000000000000000000000000000 DUP2 MSTORE PUSH1 0x4 ADD PUSH2 0x2FBB SWAP1 PUSH2 0x4F3B JUMP JUMPDEST PUSH1 0x40 MLOAD DUP1 SWAP2 SUB SWAP1 REVERT JUMPDEST DUP1 PUSH20 0xFFFFFFFFFFFFFFFFFFFFFFFFFFFFFFFFFFFFFFFF AND PUSH1 0xD PUSH1 0x0 SWAP1 SLOAD SWAP1 PUSH2 0x100 EXP SWAP1 DIV PUSH20 0xFFFFFFFFFFFFFFFFFFFFFFFFFFFFFFFFFFFFFFFF AND PUSH20 0xFFFFFFFFFFFFFFFFFFFFFFFFFFFFFFFFFFFFFFFF AND PUSH32 0x8BE0079C531659141344CD1FD0A4F28419497F9722A3DAAFE3B4186F6B6457E0 PUSH1 0x40 MLOAD PUSH1 0x40 MLOAD DUP1 SWAP2 SUB SWAP1 LOG3 DUP1 PUSH1 0xD PUSH1 0x0 PUSH2 0x100 EXP DUP2 SLOAD DUP2 PUSH20 0xFFFFFFFFFFFFFFFFFFFFFFFFFFFFFFFFFFFFFFFF MUL NOT AND SWAP1 DUP4 PUSH20 0xFFFFFFFFFFFFFFFFFFFFFFFFFFFFFFFFFFFFFFFF AND MUL OR SWAP1 SSTORE POP POP JUMP JUMPDEST PUSH1 0xE PUSH1 0x0 CALLER PUSH20 0xFFFFFFFFFFFFFFFFFFFFFFFFFFFFFFFFFFFFFFFF AND PUSH20 0xFFFFFFFFFFFFFFFFFFFFFFFFFFFFFFFFFFFFFFFF AND DUP2 MSTORE PUSH1 0x20 ADD SWAP1 DUP2 MSTORE PUSH1 0x20 ADD PUSH1 0x0 KECCAK256 PUSH1 0x0 SWAP1 SLOAD SWAP1 PUSH2 0x100 EXP SWAP1 DIV PUSH1 0xFF AND PUSH2 0x3110 JUMPI PUSH1 0x40 MLOAD PUSH32 0x8C379A000000000000000000000000000000000000000000000000000000000 DUP2 MSTORE PUSH1 0x4 ADD PUSH2 0x3107 SWAP1 PUSH2 0x5013 JUMP JUMPDEST PUSH1 0x40 MLOAD DUP1 SWAP2 SUB SWAP1 REVERT JUMPDEST PUSH1 0x1 PUSH1 0x0 DUP3 PUSH20 0xFFFFFFFFFFFFFFFFFFFFFFFFFFFFFFFFFFFFFFFF AND PUSH20 0xFFFFFFFFFFFFFFFFFFFFFFFFFFFFFFFFFFFFFFFF AND DUP2 MSTORE PUSH1 0x20 ADD SWAP1 DUP2 MSTORE PUSH1 0x20 ADD PUSH1 0x0 KECCAK256 PUSH1 0x0 ADD PUSH1 0x0 SWAP1 SLOAD SWAP1 PUSH2 0x100 EXP SWAP1 DIV PUSH1 0xFF AND ISZERO PUSH2 0x31A0 JUMPI PUSH1 0x40 MLOAD PUSH32 0x8C379A000000000000000000000000000000000000000000000000000000000 DUP2 MSTORE PUSH1 0x4 ADD PUSH2 0x3197 SWAP1 PUSH2 0x553A JUMP JUMPDEST PUSH1 0x40 MLOAD DUP1 SWAP2 SUB SWAP1 REVERT JUMPDEST PUSH1 0x40 MLOAD DUP1 PUSH1 0x40 ADD PUSH1 0x40 MSTORE DUP1 PUSH1 0x1 ISZERO ISZERO DUP2 MSTORE PUSH1 0x20 ADD TIMESTAMP DUP2 MSTORE POP PUSH1 0x1 PUSH1 0x0 DUP4 PUSH20 0xFFFFFFFFFFFFFFFFFFFFFFFFFFFFFFFFFFFFFFFF AND PUSH20 0xFFFFFFFFFFFFFFFFFFFFFFFFFFFFFFFFFFFFFFFF AND DUP2 MSTORE PUSH1 0x20 ADD SWAP1 DUP2 MSTORE PUSH1 0x20 ADD PUSH1 0x0 KECCAK256 PUSH1 0x0 DUP3 ADD MLOAD DUP2 PUSH1 0x0 ADD PUSH1 0x0 PUSH2 0x100 EXP DUP2 SLOAD DUP2 PUSH1 0xFF MUL NOT AND SWAP1 DUP4 ISZERO ISZERO MUL OR SWAP1 SSTORE POP PUSH1 0x20 DUP3 ADD MLOAD DUP2 PUSH1 0x1 ADD SSTORE SWAP1 POP POP PUSH1 0x0 DUP2 SWAP1 DUP1 PUSH1 0x1 DUP2 SLOAD ADD DUP1 DUP3 SSTORE DUP1 SWAP2 POP POP PUSH1 0x1 SWAP1 SUB SWAP1 PUSH1 0x0 MSTORE PUSH1 0x20 PUSH1 0x0 KECCAK256 ADD PUSH1 0x0 SWAP1 SWAP2 SWAP1 SWAP2 SWAP1 SWAP2 PUSH2 0x100 EXP DUP2 SLOAD DUP2 PUSH20 0xFFFFFFFFFFFFFFFFFFFFFFFFFFFFFFFFFFFFFFFF MUL NOT AND SWAP1 DUP4 PUSH20 0xFFFFFFFFFFFFFFFFFFFFFFFFFFFFFFFFFFFFFFFF AND MUL OR SWAP1 SSTORE POP DUP1 PUSH20 0xFFFFFFFFFFFFFFFFFFFFFFFFFFFFFFFFFFFFFFFF AND PUSH32 0x56AA1768B52DDCDDA65C5561181844717C2EED4BB3C848376D4420860DA04DAE TIMESTAMP PUSH1 0x40 MLOAD PUSH2 0x32CD SWAP2 SWAP1 PUSH2 0x3CCC JUMP JUMPDEST PUSH1 0x40 MLOAD DUP1 SWAP2 SUB SWAP1 LOG2 POP JUMP JUMPDEST PUSH2 0x32E0 PUSH2 0x3AA7 JUMP JUMPDEST PUSH1 0x0 PUSH1 0x7 PUSH1 0x0 DUP6 DUP2 MSTORE PUSH1 0x20 ADD SWAP1 DUP2 MSTORE PUSH1 0x20 ADD PUSH1 0x0 KECCAK256 PUSH1 0x0 DUP5 PUSH1 0xFF AND PUSH1 0xFF AND DUP2 MSTORE PUSH1 0x20 ADD SWAP1 DUP2 MSTORE PUSH1 0x20 ADD PUSH1 0x0 KECCAK256 SWAP1 POP PUSH1 0x0 DUP2 PUSH1 0x6 ADD DUP1 SLOAD SWAP1 POP SWAP1 POP DUP1 PUSH8 0xFFFFFFFFFFFFFFFF DUP2 GT ISZERO PUSH2 0x3334 JUMPI PUSH2 0x3333 PUSH2 0x44EA JUMP JUMPDEST JUMPDEST PUSH1 0x40 MLOAD SWAP1 DUP1 DUP3 MSTORE DUP1 PUSH1 0x20 MUL PUSH1 0x20 ADD DUP3 ADD PUSH1 0x40 MSTORE DUP1 ISZERO PUSH2 0x3362 JUMPI DUP2 PUSH1 0x20 ADD PUSH1 0x20 DUP3 MUL DUP1 CALLDATASIZE DUP4 CALLDATACOPY DUP1 DUP3 ADD SWAP2 POP POP SWAP1 POP JUMPDEST POP DUP4 PUSH1 0x80 ADD DUP2 SWAP1 MSTORE POP PUSH1 0x0 JUMPDEST DUP2 DUP2 LT ISZERO PUSH2 0x34FE JUMPI PUSH1 0x0 DUP4 PUSH1 0x6 ADD DUP3 DUP2 SLOAD DUP2 LT PUSH2 0x338E JUMPI PUSH2 0x338D PUSH2 0x4891 JUMP JUMPDEST JUMPDEST SWAP1 PUSH1 0x0 MSTORE PUSH1 0x20 PUSH1 0x0 KECCAK256 ADD SLOAD SWAP1 POP PUSH1 0x0 DUP2 SUB PUSH2 0x33A9 JUMPI POP PUSH2 0x34F1 JUMP JUMPDEST PUSH1 0x0 PUSH1 0x8 PUSH1 0x0 DUP10 DUP2 MSTORE PUSH1 0x20 ADD SWAP1 DUP2 MSTORE PUSH1 0x20 ADD PUSH1 0x0 KECCAK256 PUSH1 0x0 DUP9 PUSH1 0xFF AND PUSH1 0xFF AND DUP2 MSTORE PUSH1 0x20 ADD SWAP1 DUP2 MSTORE PUSH1 0x20 ADD PUSH1 0x0 KECCAK256 PUSH1 0x0 DUP4 DUP2 MSTORE PUSH1 0x20 ADD SWAP1 DUP2 MSTORE PUSH1 0x20 ADD PUSH1 0x0 KECCAK256 SLOAD SWAP1 POP DUP6 PUSH1 0x0 ADD MLOAD DUP2 GT ISZERO PUSH2 0x344C JUMPI DUP6 PUSH1 0x0 ADD MLOAD DUP7 PUSH1 0x20 ADD DUP2 DUP2 MSTORE POP POP DUP1 DUP7 PUSH1 0x0 ADD DUP2 DUP2 MSTORE POP POP DUP2 DUP7 PUSH1 0x40 ADD DUP2 DUP2 MSTORE POP POP DUP2 DUP7 PUSH1 0x80 ADD MLOAD PUSH1 0x0 DUP2 MLOAD DUP2 LT PUSH2 0x3430 JUMPI PUSH2 0x342F PUSH2 0x4891 JUMP JUMPDEST JUMPDEST PUSH1 0x20 MUL PUSH1 0x20 ADD ADD DUP2 DUP2 MSTORE POP POP PUSH1 0x1 DUP7 PUSH1 0x60 ADD DUP2 DUP2 MSTORE POP POP PUSH2 0x34B3 JUMP JUMPDEST DUP6 PUSH1 0x0 ADD MLOAD DUP2 SUB PUSH2 0x349A JUMPI DUP2 DUP7 PUSH1 0x80 ADD MLOAD DUP8 PUSH1 0x60 ADD MLOAD DUP2 MLOAD DUP2 LT PUSH2 0x3473 JUMPI PUSH2 0x3472 PUSH2 0x4891 JUMP JUMPDEST JUMPDEST PUSH1 0x20 MUL PUSH1 0x20 ADD ADD DUP2 DUP2 MSTORE POP POP DUP6 PUSH1 0x60 ADD DUP1 MLOAD DUP1 SWAP2 SWAP1 PUSH2 0x3491 SWAP1 PUSH2 0x4BDA JUMP JUMPDEST DUP2 MSTORE POP POP PUSH2 0x34B2 JUMP JUMPDEST DUP6 PUSH1 0x20 ADD MLOAD DUP2 GT ISZERO PUSH2 0x34B1 JUMPI DUP1 DUP7 PUSH1 0x20 ADD DUP2 DUP2 MSTORE POP POP JUMPDEST JUMPDEST JUMPDEST DUP1 PUSH1 0xC PUSH1 0x0 DUP11 DUP2 MSTORE PUSH1 0x20 ADD SWAP1 DUP2 MSTORE PUSH1 0x20 ADD PUSH1 0x0 KECCAK256 PUSH1 0x0 DUP5 DUP2 MSTORE PUSH1 0x20 ADD SWAP1 DUP2 MSTORE PUSH1 0x20 ADD PUSH1 0x0 KECCAK256 PUSH1 0x0 DUP3 DUP3 SLOAD PUSH2 0x34E7 SWAP2 SWAP1 PUSH2 0x4C59 JUMP JUMPDEST SWAP3 POP POP DUP2 SWAP1 SSTORE POP POP POP JUMPDEST DUP1 DUP1 PUSH1 0x1 ADD SWAP2 POP POP PUSH2 0x336E JUMP JUMPDEST POP POP POP SWAP3 SWAP2 POP POP JUMP JUMPDEST PUSH1 0x60 PUSH1 0x0 PUSH2 0x3517 DUP8 DUP8 DUP7 DUP7 PUSH2 0x398B JUMP JUMPDEST SWAP1 POP DUP1 PUSH1 0x1 PUSH2 0x3526 SWAP2 SWAP1 PUSH2 0x4C59 JUMP JUMPDEST PUSH8 0xFFFFFFFFFFFFFFFF DUP2 GT ISZERO PUSH2 0x353F JUMPI PUSH2 0x353E PUSH2 0x44EA JUMP JUMPDEST JUMPDEST PUSH1 0x40 MLOAD SWAP1 DUP1 DUP3 MSTORE DUP1 PUSH1 0x20 MUL PUSH1 0x20 ADD DUP3 ADD PUSH1 0x40 MSTORE DUP1 ISZERO PUSH2 0x356D JUMPI DUP2 PUSH1 0x20 ADD PUSH1 0x20 DUP3 MUL DUP1 CALLDATASIZE DUP4 CALLDATACOPY DUP1 DUP3 ADD SWAP2 POP POP SWAP1 POP JUMPDEST POP SWAP2 POP DUP5 DUP3 PUSH1 0x0 DUP2 MLOAD DUP2 LT PUSH2 0x3585 JUMPI PUSH2 0x3584 PUSH2 0x4891 JUMP JUMPDEST JUMPDEST PUSH1 0x20 MUL PUSH1 0x20 ADD ADD DUP2 DUP2 MSTORE POP POP PUSH1 0x0 PUSH1 0x1 SWAP1 POP PUSH1 0x0 JUMPDEST DUP5 MLOAD DUP2 LT ISZERO PUSH2 0x3650 JUMPI PUSH1 0x0 DUP6 DUP3 DUP2 MLOAD DUP2 LT PUSH2 0x35B8 JUMPI PUSH2 0x35B7 PUSH2 0x4891 JUMP JUMPDEST JUMPDEST PUSH1 0x20 MUL PUSH1 0x20 ADD ADD MLOAD SWAP1 POP PUSH1 0x0 DUP2 SUB PUSH2 0x35D0 JUMPI POP PUSH2 0x3643 JUMP JUMPDEST DUP7 PUSH1 0x8 PUSH1 0x0 DUP13 DUP2 MSTORE PUSH1 0x20 ADD SWAP1 DUP2 MSTORE PUSH1 0x20 ADD PUSH1 0x0 KECCAK256 PUSH1 0x0 DUP12 PUSH1 0xFF AND PUSH1 0xFF AND DUP2 MSTORE PUSH1 0x20 ADD SWAP1 DUP2 MSTORE PUSH1 0x20 ADD PUSH1 0x0 KECCAK256 PUSH1 0x0 DUP4 DUP2 MSTORE PUSH1 0x20 ADD SWAP1 DUP2 MSTORE PUSH1 0x20 ADD PUSH1 0x0 KECCAK256 SLOAD SUB PUSH2 0x3641 JUMPI DUP1 DUP6 DUP5 DUP2 MLOAD DUP2 LT PUSH2 0x3626 JUMPI PUSH2 0x3625 PUSH2 0x4891 JUMP JUMPDEST JUMPDEST PUSH1 0x20 MUL PUSH1 0x20 ADD ADD DUP2 DUP2 MSTORE POP POP DUP3 DUP1 PUSH2 0x363D SWAP1 PUSH2 0x4BDA JUMP JUMPDEST SWAP4 POP POP JUMPDEST POP JUMPDEST DUP1 DUP1 PUSH1 0x1 ADD SWAP2 POP POP PUSH2 0x359A JUMP JUMPDEST POP POP POP SWAP6 SWAP5 POP POP POP POP POP JUMP JUMPDEST PUSH1 0x0 TIMESTAMP DUP6 GT PUSH2 0x36A0 JUMPI PUSH1 0x40 MLOAD PUSH32 0x8C379A000000000000000000000000000000000000000000000000000000000 DUP2 MSTORE PUSH1 0x4 ADD PUSH2 0x3697 SWAP1 PUSH2 0x55A6 JUMP JUMPDEST PUSH1 0x40 MLOAD DUP1 SWAP2 SUB SWAP1 REVERT JUMPDEST DUP5 DUP5 LT ISZERO PUSH2 0x36E3 JUMPI PUSH1 0x40 MLOAD PUSH32 0x8C379A000000000000000000000000000000000000000000000000000000000 DUP2 MSTORE PUSH1 0x4 ADD PUSH2 0x36DA SWAP1 PUSH2 0x5638 JUMP JUMPDEST PUSH1 0x40 MLOAD DUP1 SWAP2 SUB SWAP1 REVERT JUMPDEST PUSH1 0x0 DUP4 DUP4 SWAP1 POP GT PUSH2 0x3729 JUMPI PUSH1 0x40 MLOAD PUSH32 0x8C379A000000000000000000000000000000000000000000000000000000000 DUP2 MSTORE PUSH1 0x4 ADD PUSH2 0x3720 SWAP1 PUSH2 0x56A4 JUMP JUMPDEST PUSH1 0x40 MLOAD DUP1 SWAP2 SUB SWAP1 REVERT JUMPDEST PUSH1 0x5 PUSH1 0x0 DUP2 SLOAD DUP1 SWAP3 SWAP2 SWAP1 PUSH2 0x373C SWAP1 PUSH2 0x4BDA JUMP JUMPDEST SWAP2 SWAP1 POP SSTORE POP PUSH1 0x5 SLOAD SWAP1 POP PUSH1 0x0 PUSH1 0x6 PUSH1 0x0 DUP4 DUP2 MSTORE PUSH1 0x20 ADD SWAP1 DUP2 MSTORE PUSH1 0x20 ADD PUSH1 0x0 KECCAK256 SWAP1 POP DUP2 DUP2 PUSH1 0x0 ADD DUP2 SWAP1 SSTORE POP DUP6 DUP2 PUSH1 0x1 ADD DUP2 SWAP1 SSTORE POP DUP5 DUP2 PUSH1 0x2 ADD DUP2 SWAP1 SSTORE POP PUSH3 0x15180 DUP2 PUSH1 0x3 ADD DUP2 SWAP1 SSTORE POP PUSH1 0x1 DUP2 PUSH1 0x5 ADD PUSH1 0x0 PUSH2 0x100 EXP DUP2 SLOAD DUP2 PUSH1 0xFF MUL NOT AND SWAP1 DUP4 ISZERO ISZERO MUL OR SWAP1 SSTORE POP PUSH1 0x1 DUP2 PUSH1 0x5 ADD PUSH1 0x1 PUSH2 0x100 EXP DUP2 SLOAD DUP2 PUSH1 0xFF MUL NOT AND SWAP1 DUP4 PUSH1 0xFF AND MUL OR SWAP1 SSTORE POP PUSH1 0x1 DUP5 DUP5 SWAP1 POP PUSH2 0x37CF SWAP2 SWAP1 PUSH2 0x4C59 JUMP JUMPDEST PUSH8 0xFFFFFFFFFFFFFFFF DUP2 GT ISZERO PUSH2 0x37E8 JUMPI PUSH2 0x37E7 PUSH2 0x44EA JUMP JUMPDEST JUMPDEST PUSH1 0x40 MLOAD SWAP1 DUP1 DUP3 MSTORE DUP1 PUSH1 0x20 MUL PUSH1 0x20 ADD DUP3 ADD PUSH1 0x40 MSTORE DUP1 ISZERO PUSH2 0x3816 JUMPI DUP2 PUSH1 0x20 ADD PUSH1 0x20 DUP3 MUL DUP1 CALLDATASIZE DUP4 CALLDATACOPY DUP1 DUP3 ADD SWAP2 POP POP SWAP1 POP JUMPDEST POP DUP2 PUSH1 0x4 ADD SWAP1 DUP1 MLOAD SWAP1 PUSH1 0x20 ADD SWAP1 PUSH2 0x382E SWAP3 SWAP2 SWAP1 PUSH2 0x3A5A JUMP JUMPDEST POP PUSH1 0x0 DUP2 PUSH1 0x4 ADD PUSH1 0x0 DUP2 SLOAD DUP2 LT PUSH2 0x3848 JUMPI PUSH2 0x3847 PUSH2 0x4891 JUMP JUMPDEST JUMPDEST SWAP1 PUSH1 0x0 MSTORE PUSH1 0x20 PUSH1 0x0 KECCAK256 ADD DUP2 SWAP1 SSTORE POP PUSH1 0x0 JUMPDEST DUP5 DUP5 SWAP1 POP DUP2 LT ISZERO PUSH2 0x38BB JUMPI DUP5 DUP5 DUP3 DUP2 DUP2 LT PUSH2 0x3877 JUMPI PUSH2 0x3876 PUSH2 0x4891 JUMP JUMPDEST JUMPDEST SWAP1 POP PUSH1 0x20 MUL ADD CALLDATALOAD DUP3 PUSH1 0x4 ADD PUSH1 0x1 DUP4 PUSH2 0x388F SWAP2 SWAP1 PUSH2 0x4C59 JUMP JUMPDEST DUP2 SLOAD DUP2 LT PUSH2 0x38A0 JUMPI PUSH2 0x389F PUSH2 0x4891 JUMP JUMPDEST JUMPDEST SWAP1 PUSH1 0x0 MSTORE PUSH1 0x20 PUSH1 0x0 KECCAK256 ADD DUP2 SWAP1 SSTORE POP DUP1 DUP1 PUSH1 0x1 ADD SWAP2 POP POP PUSH2 0x3859 JUMP JUMPDEST POP PUSH1 0x0 PUSH1 0x7 PUSH1 0x0 DUP5 DUP2 MSTORE PUSH1 0x20 ADD SWAP1 DUP2 MSTORE PUSH1 0x20 ADD PUSH1 0x0 KECCAK256 PUSH1 0x0 PUSH1 0x1 PUSH1 0xFF AND DUP2 MSTORE PUSH1 0x20 ADD SWAP1 DUP2 MSTORE PUSH1 0x20 ADD PUSH1 0x0 KECCAK256 SWAP1 POP PUSH1 0x1 DUP2 PUSH1 0x0 ADD PUSH1 0x0 PUSH2 0x100 EXP DUP2 SLOAD DUP2 PUSH1 0xFF MUL NOT AND SWAP1 DUP4 PUSH1 0xFF AND MUL OR SWAP1 SSTORE POP DUP6 DUP2 PUSH1 0x1 ADD DUP2 SWAP1 SSTORE POP PUSH3 0x15180 DUP7 PUSH2 0x391E SWAP2 SWAP1 PUSH2 0x4C59 JUMP JUMPDEST DUP2 PUSH1 0x2 ADD DUP2 SWAP1 SSTORE POP DUP2 PUSH1 0x4 ADD DUP2 PUSH1 0x6 ADD SWAP1 DUP1 SLOAD PUSH2 0x393C SWAP3 SWAP2 SWAP1 PUSH2 0x3AD6 JUMP JUMPDEST POP DUP3 PUSH32 0x94D2CA1585096A82008B4E4C47222139E365B7386C639ACB5562A4F8A959F4C1 DUP9 DUP9 PUSH3 0x15180 DUP7 PUSH1 0x4 ADD PUSH1 0x40 MLOAD PUSH2 0x3979 SWAP5 SWAP4 SWAP3 SWAP2 SWAP1 PUSH2 0x57D5 JUMP JUMPDEST PUSH1 0x40 MLOAD DUP1 SWAP2 SUB SWAP1 LOG2 POP POP SWAP5 SWAP4 POP POP POP POP JUMP JUMPDEST PUSH1 0x0 DUP1 PUSH1 0x0 SWAP1 POP JUMPDEST DUP3 MLOAD DUP2 LT ISZERO PUSH2 0x3A29 JUMPI PUSH1 0x0 DUP4 DUP3 DUP2 MLOAD DUP2 LT PUSH2 0x39B1 JUMPI PUSH2 0x39B0 PUSH2 0x4891 JUMP JUMPDEST JUMPDEST PUSH1 0x20 MUL PUSH1 0x20 ADD ADD MLOAD SWAP1 POP PUSH1 0x0 DUP2 SUB PUSH2 0x39C9 JUMPI POP PUSH2 0x3A1C JUMP JUMPDEST DUP5 PUSH1 0x8 PUSH1 0x0 DUP10 DUP2 MSTORE PUSH1 0x20 ADD SWAP1 DUP2 MSTORE PUSH1 0x20 ADD PUSH1 0x0 KECCAK256 PUSH1 0x0 DUP9 PUSH1 0xFF AND PUSH1 0xFF AND DUP2 MSTORE PUSH1 0x20 ADD SWAP1 DUP2 MSTORE PUSH1 0x20 ADD PUSH1 0x0 KECCAK256 PUSH1 0x0 DUP4 DUP2 MSTORE PUSH1 0x20 ADD SWAP1 DUP2 MSTORE PUSH1 0x20 ADD PUSH1 0x0 KECCAK256 SLOAD SUB PUSH2 0x3A1A JUMPI DUP3 DUP1 PUSH2 0x3A16 SWAP1 PUSH2 0x4BDA JUMP JUMPDEST SWAP4 POP POP JUMPDEST POP JUMPDEST DUP1 DUP1 PUSH1 0x1 ADD SWAP2 POP POP PUSH2 0x3993 JUMP JUMPDEST POP SWAP5 SWAP4 POP POP POP POP JUMP JUMPDEST PUSH1 0x40 MLOAD DUP1 PUSH1 0x80 ADD PUSH1 0x40 MSTORE DUP1 PUSH1 0x0 DUP2 MSTORE PUSH1 0x20 ADD PUSH1 0x60 DUP2 MSTORE PUSH1 0x20 ADD PUSH1 0x60 DUP2 MSTORE PUSH1 0x20 ADD PUSH1 0x60 DUP2 MSTORE POP SWAP1 JUMP JUMPDEST DUP3 DUP1 SLOAD DUP3 DUP3 SSTORE SWAP1 PUSH1 0x0 MSTORE PUSH1 0x20 PUSH1 0x0 KECCAK256 SWAP1 DUP2 ADD SWAP3 DUP3 ISZERO PUSH2 0x3A96 JUMPI SWAP2 PUSH1 0x20 MUL DUP3 ADD JUMPDEST DUP3 DUP2 GT ISZERO PUSH2 0x3A95 JUMPI DUP3 MLOAD DUP3 SSTORE SWAP2 PUSH1 0x20 ADD SWAP2 SWAP1 PUSH1 0x1 ADD SWAP1 PUSH2 0x3A7A JUMP JUMPDEST JUMPDEST POP SWAP1 POP PUSH2 0x3AA3 SWAP2 SWAP1 PUSH2 0x3B28 JUMP JUMPDEST POP SWAP1 JUMP JUMPDEST PUSH1 0x40 MLOAD DUP1 PUSH1 0xA0 ADD PUSH1 0x40 MSTORE DUP1 PUSH1 0x0 DUP2 MSTORE PUSH1 0x20 ADD PUSH1 0x0 DUP2 MSTORE PUSH1 0x20 ADD PUSH1 0x0 DUP2 MSTORE PUSH1 0x20 ADD PUSH1 0x0 DUP2 MSTORE PUSH1 0x20 ADD PUSH1 0x60 DUP2 MSTORE POP SWAP1 JUMP JUMPDEST DUP3 DUP1 SLOAD DUP3 DUP3 SSTORE SWAP1 PUSH1 0x0 MSTORE PUSH1 0x20 PUSH1 0x0 KECCAK256 SWAP1 DUP2 ADD SWAP3 DUP3 ISZERO PUSH2 0x3B17 JUMPI PUSH1 0x0 MSTORE PUSH1 0x20 PUSH1 0x0 KECCAK256 SWAP2 DUP3 ADD JUMPDEST DUP3 DUP2 GT ISZERO PUSH2 0x3B16 JUMPI DUP3 SLOAD DUP3 SSTORE SWAP2 PUSH1 0x1 ADD SWAP2 SWAP1 PUSH1 0x1 ADD SWAP1 PUSH2 0x3AFB JUMP JUMPDEST JUMPDEST POP SWAP1 POP PUSH2 0x3B24 SWAP2 SWAP1 PUSH2 0x3B28 JUMP JUMPDEST POP SWAP1 JUMP JUMPDEST JUMPDEST DUP1 DUP3 GT ISZERO PUSH2 0x3B41 JUMPI PUSH1 0x0 DUP2 PUSH1 0x0 SWAP1 SSTORE POP PUSH1 0x1 ADD PUSH2 0x3B29 JUMP JUMPDEST POP SWAP1 JUMP JUMPDEST PUSH1 0x0 PUSH1 0x40 MLOAD SWAP1 POP SWAP1 JUMP JUMPDEST PUSH1 0x0 DUP1 REVERT JUMPDEST PUSH1 0x0 DUP1 REVERT JUMPDEST PUSH1 0x0 DUP2 SWAP1 POP SWAP2 SWAP1 POP JUMP JUMPDEST PUSH2 0x3B6C DUP2 PUSH2 0x3B59 JUMP JUMPDEST DUP2 EQ PUSH2 0x3B77 JUMPI PUSH1 0x0 DUP1 REVERT JUMPDEST POP JUMP JUMPDEST PUSH1 0x0 DUP2 CALLDATALOAD SWAP1 POP PUSH2 0x3B89 DUP2 PUSH2 0x3B63 JUMP JUMPDEST SWAP3 SWAP2 POP POP JUMP JUMPDEST PUSH1 0x0 PUSH1 0x20 DUP3 DUP5 SUB SLT ISZERO PUSH2 0x3BA5 JUMPI PUSH2 0x3BA4 PUSH2 0x3B4F JUMP JUMPDEST JUMPDEST PUSH1 0x0 PUSH2 0x3BB3 DUP5 DUP3 DUP6 ADD PUSH2 0x3B7A JUMP JUMPDEST SWAP2 POP POP SWAP3 SWAP2 POP POP JUMP JUMPDEST PUSH1 0x0 DUP2 ISZERO ISZERO SWAP1 POP SWAP2 SWAP1 POP JUMP JUMPDEST PUSH2 0x3BD1 DUP2 PUSH2 0x3BBC JUMP JUMPDEST DUP3 MSTORE POP POP JUMP JUMPDEST PUSH1 0x0 PUSH1 0x20 DUP3 ADD SWAP1 POP PUSH2 0x3BEC PUSH1 0x0 DUP4 ADD DUP5 PUSH2 0x3BC8 JUMP JUMPDEST SWAP3 SWAP2 POP POP JUMP JUMPDEST PUSH1 0x0 PUSH20 0xFFFFFFFFFFFFFFFFFFFFFFFFFFFFFFFFFFFFFFFF DUP3 AND SWAP1 POP SWAP2 SWAP1 POP JUMP JUMPDEST PUSH1 0x0 PUSH2 0x3C1D DUP3 PUSH2 0x3BF2 JUMP JUMPDEST SWAP1 POP SWAP2 SWAP1 POP JUMP JUMPDEST PUSH2 0x3C2D DUP2 PUSH2 0x3C12 JUMP JUMPDEST DUP2 EQ PUSH2 0x3C38 JUMPI PUSH1 0x0 DUP1 REVERT JUMPDEST POP JUMP JUMPDEST PUSH1 0x0 DUP2 CALLDATALOAD SWAP1 POP PUSH2 0x3C4A DUP2 PUSH2 0x3C24 JUMP JUMPDEST SWAP3 SWAP2 POP POP JUMP JUMPDEST PUSH1 0x0 PUSH1 0x20 DUP3 DUP5 SUB SLT ISZERO PUSH2 0x3C66 JUMPI PUSH2 0x3C65 PUSH2 0x3B4F JUMP JUMPDEST JUMPDEST PUSH1 0x0 PUSH2 0x3C74 DUP5 DUP3 DUP6 ADD PUSH2 0x3C3B JUMP JUMPDEST SWAP2 POP POP SWAP3 SWAP2 POP POP JUMP JUMPDEST PUSH1 0x0 DUP1 PUSH1 0x40 DUP4 DUP6 SUB SLT ISZERO PUSH2 0x3C94 JUMPI PUSH2 0x3C93 PUSH2 0x3B4F JUMP JUMPDEST JUMPDEST PUSH1 0x0 PUSH2 0x3CA2 DUP6 DUP3 DUP7 ADD PUSH2 0x3B7A JUMP JUMPDEST SWAP3 POP POP PUSH1 0x20 PUSH2 0x3CB3 DUP6 DUP3 DUP7 ADD PUSH2 0x3B7A JUMP JUMPDEST SWAP2 POP POP SWAP3 POP SWAP3 SWAP1 POP JUMP JUMPDEST PUSH2 0x3CC6 DUP2 PUSH2 0x3B59 JUMP JUMPDEST DUP3 MSTORE POP POP JUMP JUMPDEST PUSH1 0x0 PUSH1 0x20 DUP3 ADD SWAP1 POP PUSH2 0x3CE1 PUSH1 0x0 DUP4 ADD DUP5 PUSH2 0x3CBD JUMP JUMPDEST SWAP3 SWAP2 POP POP JUMP JUMPDEST PUSH1 0x0 DUP2 MLOAD SWAP1 POP SWAP2 SWAP1 POP JUMP JUMPDEST PUSH1 0x0 DUP3 DUP3 MSTORE PUSH1 0x20 DUP3 ADD SWAP1 POP SWAP3 SWAP2 POP POP JUMP JUMPDEST PUSH1 0x0 DUP2 SWAP1 POP PUSH1 0x20 DUP3 ADD SWAP1 POP SWAP2 SWAP1 POP JUMP JUMPDEST PUSH2 0x3D1C DUP2 PUSH2 0x3B59 JUMP JUMPDEST DUP3 MSTORE POP POP JUMP JUMPDEST PUSH1 0x0 DUP2 MLOAD SWAP1 POP SWAP2 SWAP1 POP JUMP JUMPDEST PUSH1 0x0 DUP3 DUP3 MSTORE PUSH1 0x20 DUP3 ADD SWAP1 POP SWAP3 SWAP2 POP POP JUMP JUMPDEST PUSH1 0x0 JUMPDEST DUP4 DUP2 LT ISZERO PUSH2 0x3D5C JUMPI DUP1 DUP3 ADD MLOAD DUP2 DUP5 ADD MSTORE PUSH1 0x20 DUP2 ADD SWAP1 POP PUSH2 0x3D41 JUMP JUMPDEST PUSH1 0x0 DUP5 DUP5 ADD MSTORE POP POP POP POP JUMP JUMPDEST PUSH1 0x0 PUSH1 0x1F NOT PUSH1 0x1F DUP4 ADD AND SWAP1 POP SWAP2 SWAP1 POP JUMP JUMPDEST PUSH1 0x0 PUSH2 0x3D84 DUP3 PUSH2 0x3D22 JUMP JUMPDEST PUSH2 0x3D8E DUP2 DUP6 PUSH2 0x3D2D JUMP JUMPDEST SWAP4 POP PUSH2 0x3D9E DUP2 DUP6 PUSH1 0x20 DUP7 ADD PUSH2 0x3D3E JUMP JUMPDEST PUSH2 0x3DA7 DUP2 PUSH2 0x3D68 JUMP JUMPDEST DUP5 ADD SWAP2 POP POP SWAP3 SWAP2 POP POP JUMP JUMPDEST PUSH1 0x0 PUSH1 0x80 DUP4 ADD PUSH1 0x0 DUP4 ADD MLOAD PUSH2 0x3DCA PUSH1 0x0 DUP7 ADD DUP3 PUSH2 0x3D13 JUMP JUMPDEST POP PUSH1 0x20 DUP4 ADD MLOAD DUP5 DUP3 SUB PUSH1 0x20 DUP7 ADD MSTORE PUSH2 0x3DE2 DUP3 DUP3 PUSH2 0x3D79 JUMP JUMPDEST SWAP2 POP POP PUSH1 0x40 DUP4 ADD MLOAD DUP5 DUP3 SUB PUSH1 0x40 DUP7 ADD MSTORE PUSH2 0x3DFC DUP3 DUP3 PUSH2 0x3D79 JUMP JUMPDEST SWAP2 POP POP PUSH1 0x60 DUP4 ADD MLOAD DUP5 DUP3 SUB PUSH1 0x60 DUP7 ADD MSTORE PUSH2 0x3E16 DUP3 DUP3 PUSH2 0x3D79 JUMP JUMPDEST SWAP2 POP POP DUP1 SWAP2 POP POP SWAP3 SWAP2 POP POP JUMP JUMPDEST PUSH1 0x0 PUSH2 0x3E2F DUP4 DUP4 PUSH2 0x3DB2 JUMP JUMPDEST SWAP1 POP SWAP3 SWAP2 POP POP JUMP JUMPDEST PUSH1 0x0 PUSH1 0x20 DUP3 ADD SWAP1 POP SWAP2 SWAP1 POP JUMP JUMPDEST PUSH1 0x0 PUSH2 0x3E4F DUP3 PUSH2 0x3CE7 JUMP JUMPDEST PUSH2 0x3E59 DUP2 DUP6 PUSH2 0x3CF2 JUMP JUMPDEST SWAP4 POP DUP4 PUSH1 0x20 DUP3 MUL DUP6 ADD PUSH2 0x3E6B DUP6 PUSH2 0x3D03 JUMP JUMPDEST DUP1 PUSH1 0x0 JUMPDEST DUP6 DUP2 LT ISZERO PUSH2 0x3EA7 JUMPI DUP5 DUP5 SUB DUP10 MSTORE DUP2 MLOAD PUSH2 0x3E88 DUP6 DUP3 PUSH2 0x3E23 JUMP JUMPDEST SWAP5 POP PUSH2 0x3E93 DUP4 PUSH2 0x3E37 JUMP JUMPDEST SWAP3 POP PUSH1 0x20 DUP11 ADD SWAP10 POP POP PUSH1 0x1 DUP2 ADD SWAP1 POP PUSH2 0x3E6F JUMP JUMPDEST POP DUP3 SWAP8 POP DUP8 SWAP6 POP POP POP POP POP POP SWAP3 SWAP2 POP POP JUMP JUMPDEST PUSH1 0x0 PUSH1 0x20 DUP3 ADD SWAP1 POP DUP2 DUP2 SUB PUSH1 0x0 DUP4 ADD MSTORE PUSH2 0x3ED3 DUP2 DUP5 PUSH2 0x3E44 JUMP JUMPDEST SWAP1 POP SWAP3 SWAP2 POP POP JUMP JUMPDEST PUSH1 0x0 DUP2 MLOAD SWAP1 POP SWAP2 SWAP1 POP JUMP JUMPDEST PUSH1 0x0 DUP3 DUP3 MSTORE PUSH1 0x20 DUP3 ADD SWAP1 POP SWAP3 SWAP2 POP POP JUMP JUMPDEST PUSH1 0x0 DUP2 SWAP1 POP PUSH1 0x20 DUP3 ADD SWAP1 POP SWAP2 SWAP1 POP JUMP JUMPDEST PUSH2 0x3F10 DUP2 PUSH2 0x3C12 JUMP JUMPDEST DUP3 MSTORE POP POP JUMP JUMPDEST PUSH1 0x0 PUSH2 0x3F22 DUP4 DUP4 PUSH2 0x3F07 JUMP JUMPDEST PUSH1 0x20 DUP4 ADD SWAP1 POP SWAP3 SWAP2 POP POP JUMP JUMPDEST PUSH1 0x0 PUSH1 0x20 DUP3 ADD SWAP1 POP SWAP2 SWAP1 POP JUMP JUMPDEST PUSH1 0x0 PUSH2 0x3F46 DUP3 PUSH2 0x3EDB JUMP JUMPDEST PUSH2 0x3F50 DUP2 DUP6 PUSH2 0x3EE6 JUMP JUMPDEST SWAP4 POP PUSH2 0x3F5B DUP4 PUSH2 0x3EF7 JUMP JUMPDEST DUP1 PUSH1 0x0 JUMPDEST DUP4 DUP2 LT ISZERO PUSH2 0x3F8C JUMPI DUP2 MLOAD PUSH2 0x3F73 DUP9 DUP3 PUSH2 0x3F16 JUMP JUMPDEST SWAP8 POP PUSH2 0x3F7E DUP4 PUSH2 0x3F2E JUMP JUMPDEST SWAP3 POP POP PUSH1 0x1 DUP2 ADD SWAP1 POP PUSH2 0x3F5F JUMP JUMPDEST POP DUP6 SWAP4 POP POP POP POP SWAP3 SWAP2 POP POP JUMP JUMPDEST PUSH1 0x0 PUSH1 0x20 DUP3 ADD SWAP1 POP DUP2 DUP2 SUB PUSH1 0x0 DUP4 ADD MSTORE PUSH2 0x3FB3 DUP2 DUP5 PUSH2 0x3F3B JUMP JUMPDEST SWAP1 POP SWAP3 SWAP2 POP POP JUMP JUMPDEST PUSH1 0x0 DUP3 DUP3 MSTORE PUSH1 0x20 DUP3 ADD SWAP1 POP SWAP3 SWAP2 POP POP JUMP JUMPDEST PUSH1 0x0 PUSH2 0x3FD7 DUP3 PUSH2 0x3D22 JUMP JUMPDEST PUSH2 0x3FE1 DUP2 DUP6 PUSH2 0x3FBB JUMP JUMPDEST SWAP4 POP PUSH2 0x3FF1 DUP2 DUP6 PUSH1 0x20 DUP7 ADD PUSH2 0x3D3E JUMP JUMPDEST PUSH2 0x3FFA DUP2 PUSH2 0x3D68 JUMP JUMPDEST DUP5 ADD SWAP2 POP POP SWAP3 SWAP2 POP POP JUMP JUMPDEST PUSH1 0x0 PUSH1 0x80 DUP3 ADD SWAP1 POP PUSH2 0x401A PUSH1 0x0 DUP4 ADD DUP8 PUSH2 0x3CBD JUMP JUMPDEST DUP2 DUP2 SUB PUSH1 0x20 DUP4 ADD MSTORE PUSH2 0x402C DUP2 DUP7 PUSH2 0x3FCC JUMP JUMPDEST SWAP1 POP DUP2 DUP2 SUB PUSH1 0x40 DUP4 ADD MSTORE PUSH2 0x4040 DUP2 DUP6 PUSH2 0x3FCC JUMP JUMPDEST SWAP1 POP DUP2 DUP2 SUB PUSH1 0x60 DUP4 ADD MSTORE PUSH2 0x4054 DUP2 DUP5 PUSH2 0x3FCC JUMP JUMPDEST SWAP1 POP SWAP6 SWAP5 POP POP POP POP POP JUMP JUMPDEST PUSH2 0x4068 DUP2 PUSH2 0x3C12 JUMP JUMPDEST DUP3 MSTORE POP POP JUMP JUMPDEST PUSH1 0x0 PUSH1 0x20 DUP3 ADD SWAP1 POP PUSH2 0x4083 PUSH1 0x0 DUP4 ADD DUP5 PUSH2 0x405F JUMP JUMPDEST SWAP3 SWAP2 POP POP JUMP JUMPDEST PUSH2 0x4092 DUP2 PUSH2 0x3BBC JUMP JUMPDEST DUP2 EQ PUSH2 0x409D JUMPI PUSH1 0x0 DUP1 REVERT JUMPDEST POP JUMP JUMPDEST PUSH1 0x0 DUP2 CALLDATALOAD SWAP1 POP PUSH2 0x40AF DUP2 PUSH2 0x4089 JUMP JUMPDEST SWAP3 SWAP2 POP POP JUMP JUMPDEST PUSH1 0x0 DUP1 PUSH1 0x40 DUP4 DUP6 SUB SLT ISZERO PUSH2 0x40CC JUMPI PUSH2 0x40CB PUSH2 0x3B4F JUMP JUMPDEST JUMPDEST PUSH1 0x0 PUSH2 0x40DA DUP6 DUP3 DUP7 ADD PUSH2 0x3B7A JUMP JUMPDEST SWAP3 POP POP PUSH1 0x20 PUSH2 0x40EB DUP6 DUP3 DUP7 ADD PUSH2 0x40A0 JUMP JUMPDEST SWAP2 POP POP SWAP3 POP SWAP3 SWAP1 POP JUMP JUMPDEST PUSH1 0x0 PUSH1 0xFF DUP3 AND SWAP1 POP SWAP2 SWAP1 POP JUMP JUMPDEST PUSH2 0x410B DUP2 PUSH2 0x40F5 JUMP JUMPDEST DUP3 MSTORE POP POP JUMP JUMPDEST PUSH1 0x0 PUSH1 0xE0 DUP3 ADD SWAP1 POP PUSH2 0x4126 PUSH1 0x0 DUP4 ADD DUP11 PUSH2 0x3CBD JUMP JUMPDEST PUSH2 0x4133 PUSH1 0x20 DUP4 ADD DUP10 PUSH2 0x3CBD JUMP JUMPDEST PUSH2 0x4140 PUSH1 0x40 DUP4 ADD DUP9 PUSH2 0x3CBD JUMP JUMPDEST PUSH2 0x414D PUSH1 0x60 DUP4 ADD DUP8 PUSH2 0x3CBD JUMP JUMPDEST PUSH2 0x415A PUSH1 0x80 DUP4 ADD DUP7 PUSH2 0x3BC8 JUMP JUMPDEST PUSH2 0x4167 PUSH1 0xA0 DUP4 ADD DUP6 PUSH2 0x4102 JUMP JUMPDEST PUSH2 0x4174 PUSH1 0xC0 DUP4 ADD DUP5 PUSH2 0x3CBD JUMP JUMPDEST SWAP9 SWAP8 POP POP POP POP POP POP POP POP JUMP JUMPDEST PUSH2 0x4189 DUP2 PUSH2 0x40F5 JUMP JUMPDEST DUP2 EQ PUSH2 0x4194 JUMPI PUSH1 0x0 DUP1 REVERT JUMPDEST POP JUMP JUMPDEST PUSH1 0x0 DUP2 CALLDATALOAD SWAP1 POP PUSH2 0x41A6 DUP2 PUSH2 0x4180 JUMP JUMPDEST SWAP3 SWAP2 POP POP JUMP JUMPDEST PUSH1 0x0 DUP1 PUSH1 0x40 DUP4 DUP6 SUB SLT ISZERO PUSH2 0x41C3 JUMPI PUSH2 0x41C2 PUSH2 0x3B4F JUMP JUMPDEST JUMPDEST PUSH1 0x0 PUSH2 0x41D1 DUP6 DUP3 DUP7 ADD PUSH2 0x3B7A JUMP JUMPDEST SWAP3 POP POP PUSH1 0x20 PUSH2 0x41E2 DUP6 DUP3 DUP7 ADD PUSH2 0x4197 JUMP JUMPDEST SWAP2 POP POP SWAP3 POP SWAP3 SWAP1 POP JUMP JUMPDEST PUSH1 0x0 DUP2 MLOAD SWAP1 POP SWAP2 SWAP1 POP JUMP JUMPDEST PUSH1 0x0 DUP3 DUP3 MSTORE PUSH1 0x20 DUP3 ADD SWAP1 POP SWAP3 SWAP2 POP POP JUMP JUMPDEST PUSH1 0x0 DUP2 SWAP1 POP PUSH1 0x20 DUP3 ADD SWAP1 POP SWAP2 SWAP1 POP JUMP JUMPDEST PUSH1 0x0 PUSH2 0x4224 DUP4 DUP4 PUSH2 0x3D13 JUMP JUMPDEST PUSH1 0x20 DUP4 ADD SWAP1 POP SWAP3 SWAP2 POP POP JUMP JUMPDEST PUSH1 0x0 PUSH1 0x20 DUP3 ADD SWAP1 POP SWAP2 SWAP1 POP JUMP JUMPDEST PUSH1 0x0 PUSH2 0x4248 DUP3 PUSH2 0x41EC JUMP JUMPDEST PUSH2 0x4252 DUP2 DUP6 PUSH2 0x41F7 JUMP JUMPDEST SWAP4 POP PUSH2 0x425D DUP4 PUSH2 0x4208 JUMP JUMPDEST DUP1 PUSH1 0x0 JUMPDEST DUP4 DUP2 LT ISZERO PUSH2 0x428E JUMPI DUP2 MLOAD PUSH2 0x4275 DUP9 DUP3 PUSH2 0x4218 JUMP JUMPDEST SWAP8 POP PUSH2 0x4280 DUP4 PUSH2 0x4230 JUMP JUMPDEST SWAP3 POP POP PUSH1 0x1 DUP2 ADD SWAP1 POP PUSH2 0x4261 JUMP JUMPDEST POP DUP6 SWAP4 POP POP POP POP SWAP3 SWAP2 POP POP JUMP JUMPDEST PUSH1 0x0 PUSH1 0x20 DUP3 ADD SWAP1 POP DUP2 DUP2 SUB PUSH1 0x0 DUP4 ADD MSTORE PUSH2 0x42B5 DUP2 DUP5 PUSH2 0x423D JUMP JUMPDEST SWAP1 POP SWAP3 SWAP2 POP POP JUMP JUMPDEST PUSH1 0x0 PUSH1 0xA0 DUP3 ADD SWAP1 POP PUSH2 0x42D2 PUSH1 0x0 DUP4 ADD DUP9 PUSH2 0x3CBD JUMP JUMPDEST DUP2 DUP2 SUB PUSH1 0x20 DUP4 ADD MSTORE PUSH2 0x42E4 DUP2 DUP8 PUSH2 0x423D JUMP JUMPDEST SWAP1 POP DUP2 DUP2 SUB PUSH1 0x40 DUP4 ADD MSTORE PUSH2 0x42F8 DUP2 DUP7 PUSH2 0x423D JUMP JUMPDEST SWAP1 POP PUSH2 0x4307 PUSH1 0x60 DUP4 ADD DUP6 PUSH2 0x3CBD JUMP JUMPDEST PUSH2 0x4314 PUSH1 0x80 DUP4 ADD DUP5 PUSH2 0x3CBD JUMP JUMPDEST SWAP7 SWAP6 POP POP POP POP POP POP JUMP JUMPDEST PUSH1 0x0 DUP1 PUSH1 0x0 PUSH1 0x60 DUP5 DUP7 SUB SLT ISZERO PUSH2 0x4337 JUMPI PUSH2 0x4336 PUSH2 0x3B4F JUMP JUMPDEST JUMPDEST PUSH1 0x0 PUSH2 0x4345 DUP7 DUP3 DUP8 ADD PUSH2 0x3B7A JUMP JUMPDEST SWAP4 POP POP PUSH1 0x20 PUSH2 0x4356 DUP7 DUP3 DUP8 ADD PUSH2 0x4197 JUMP JUMPDEST SWAP3 POP POP PUSH1 0x40 PUSH2 0x4367 DUP7 DUP3 DUP8 ADD PUSH2 0x3C3B JUMP JUMPDEST SWAP2 POP POP SWAP3 POP SWAP3 POP SWAP3 JUMP JUMPDEST PUSH32 0x4E487B7100000000000000000000000000000000000000000000000000000000 PUSH1 0x0 MSTORE PUSH1 0x21 PUSH1 0x4 MSTORE PUSH1 0x24 PUSH1 0x0 REVERT JUMPDEST PUSH1 0x3 DUP2 LT PUSH2 0x43B1 JUMPI PUSH2 0x43B0 PUSH2 0x4371 JUMP JUMPDEST JUMPDEST POP JUMP JUMPDEST PUSH1 0x0 DUP2 SWAP1 POP PUSH2 0x43C2 DUP3 PUSH2 0x43A0 JUMP JUMPDEST SWAP2 SWAP1 POP JUMP JUMPDEST PUSH1 0x0 PUSH2 0x43D2 DUP3 PUSH2 0x43B4 JUMP JUMPDEST SWAP1 POP SWAP2 SWAP1 POP JUMP JUMPDEST PUSH2 0x43E2 DUP2 PUSH2 0x43C7 JUMP JUMPDEST DUP3 MSTORE POP POP JUMP JUMPDEST PUSH1 0x0 PUSH1 0x20 DUP3 ADD SWAP1 POP PUSH2 0x43FD PUSH1 0x0 DUP4 ADD DUP5 PUSH2 0x43D9 JUMP JUMPDEST SWAP3 SWAP2 POP POP JUMP JUMPDEST PUSH1 0x0 PUSH1 0x40 DUP3 ADD SWAP1 POP PUSH2 0x4418 PUSH1 0x0 DUP4 ADD DUP6 PUSH2 0x3BC8 JUMP JUMPDEST PUSH2 0x4425 PUSH1 0x20 DUP4 ADD DUP5 PUSH2 0x3CBD JUMP JUMPDEST SWAP4 SWAP3 POP POP POP JUMP JUMPDEST PUSH1 0x0 PUSH1 0xC0 DUP3 ADD SWAP1 POP PUSH2 0x4441 PUSH1 0x0 DUP4 ADD DUP10 PUSH2 0x4102 JUMP JUMPDEST PUSH2 0x444E PUSH1 0x20 DUP4 ADD DUP9 PUSH2 0x3CBD JUMP JUMPDEST PUSH2 0x445B PUSH1 0x40 DUP4 ADD DUP8 PUSH2 0x3CBD JUMP JUMPDEST PUSH2 0x4468 PUSH1 0x60 DUP4 ADD DUP7 PUSH2 0x3BC8 JUMP JUMPDEST PUSH2 0x4475 PUSH1 0x80 DUP4 ADD DUP6 PUSH2 0x3CBD JUMP JUMPDEST PUSH2 0x4482 PUSH1 0xA0 DUP4 ADD DUP5 PUSH2 0x3CBD JUMP JUMPDEST SWAP8 SWAP7 POP POP POP POP POP POP POP JUMP JUMPDEST PUSH1 0x0 DUP1 PUSH1 0x0 PUSH1 0x60 DUP5 DUP7 SUB SLT ISZERO PUSH2 0x44A6 JUMPI PUSH2 0x44A5 PUSH2 0x3B4F JUMP JUMPDEST JUMPDEST PUSH1 0x0 PUSH2 0x44B4 DUP7 DUP3 DUP8 ADD PUSH2 0x3B7A JUMP JUMPDEST SWAP4 POP POP PUSH1 0x20 PUSH2 0x44C5 DUP7 DUP3 DUP8 ADD PUSH2 0x4197 JUMP JUMPDEST SWAP3 POP POP PUSH1 0x40 PUSH2 0x44D6 DUP7 DUP3 DUP8 ADD PUSH2 0x3B7A JUMP JUMPDEST SWAP2 POP POP SWAP3 POP SWAP3 POP SWAP3 JUMP JUMPDEST PUSH1 0x0 DUP1 REVERT JUMPDEST PUSH1 0x0 DUP1 REVERT JUMPDEST PUSH32 0x4E487B7100000000000000000000000000000000000000000000000000000000 PUSH1 0x0 MSTORE PUSH1 0x41 PUSH1 0x4 MSTORE PUSH1 0x24 PUSH1 0x0 REVERT JUMPDEST PUSH2 0x4522 DUP3 PUSH2 0x3D68 JUMP JUMPDEST DUP2 ADD DUP2 DUP2 LT PUSH8 0xFFFFFFFFFFFFFFFF DUP3 GT OR ISZERO PUSH2 0x4541 JUMPI PUSH2 0x4540 PUSH2 0x44EA JUMP JUMPDEST JUMPDEST DUP1 PUSH1 0x40 MSTORE POP POP POP JUMP JUMPDEST PUSH1 0x0 PUSH2 0x4554 PUSH2 0x3B45 JUMP JUMPDEST SWAP1 POP PUSH2 0x4560 DUP3 DUP3 PUSH2 0x4519 JUMP JUMPDEST SWAP2 SWAP1 POP JUMP JUMPDEST PUSH1 0x0 PUSH8 0xFFFFFFFFFFFFFFFF DUP3 GT ISZERO PUSH2 0x4580 JUMPI PUSH2 0x457F PUSH2 0x44EA JUMP JUMPDEST JUMPDEST PUSH2 0x4589 DUP3 PUSH2 0x3D68 JUMP JUMPDEST SWAP1 POP PUSH1 0x20 DUP2 ADD SWAP1 POP SWAP2 SWAP1 POP JUMP JUMPDEST DUP3 DUP2 DUP4 CALLDATACOPY PUSH1 0x0 DUP4 DUP4 ADD MSTORE POP POP POP JUMP JUMPDEST PUSH1 0x0 PUSH2 0x45B8 PUSH2 0x45B3 DUP5 PUSH2 0x4565 JUMP JUMPDEST PUSH2 0x454A JUMP JUMPDEST SWAP1 POP DUP3 DUP2 MSTORE PUSH1 0x20 DUP2 ADD DUP5 DUP5 DUP5 ADD GT ISZERO PUSH2 0x45D4 JUMPI PUSH2 0x45D3 PUSH2 0x44E5 JUMP JUMPDEST JUMPDEST PUSH2 0x45DF DUP5 DUP3 DUP6 PUSH2 0x4596 JUMP JUMPDEST POP SWAP4 SWAP3 POP POP POP JUMP JUMPDEST PUSH1 0x0 DUP3 PUSH1 0x1F DUP4 ADD SLT PUSH2 0x45FC JUMPI PUSH2 0x45FB PUSH2 0x44E0 JUMP JUMPDEST JUMPDEST DUP2 CALLDATALOAD PUSH2 0x460C DUP5 DUP3 PUSH1 0x20 DUP7 ADD PUSH2 0x45A5 JUMP JUMPDEST SWAP2 POP POP SWAP3 SWAP2 POP POP JUMP JUMPDEST PUSH1 0x0 DUP1 PUSH1 0x0 PUSH1 0x60 DUP5 DUP7 SUB SLT ISZERO PUSH2 0x462E JUMPI PUSH2 0x462D PUSH2 0x3B4F JUMP JUMPDEST JUMPDEST PUSH1 0x0 DUP5 ADD CALLDATALOAD PUSH8 0xFFFFFFFFFFFFFFFF DUP2 GT ISZERO PUSH2 0x464C JUMPI PUSH2 0x464B PUSH2 0x3B54 JUMP JUMPDEST JUMPDEST PUSH2 0x4658 DUP7 DUP3 DUP8 ADD PUSH2 0x45E7 JUMP JUMPDEST SWAP4 POP POP PUSH1 0x20 DUP5 ADD CALLDATALOAD PUSH8 0xFFFFFFFFFFFFFFFF DUP2 GT ISZERO PUSH2 0x4679 JUMPI PUSH2 0x4678 PUSH2 0x3B54 JUMP JUMPDEST JUMPDEST PUSH2 0x4685 DUP7 DUP3 DUP8 ADD PUSH2 0x45E7 JUMP JUMPDEST SWAP3 POP POP PUSH1 0x40 DUP5 ADD CALLDATALOAD PUSH8 0xFFFFFFFFFFFFFFFF DUP2 GT ISZERO PUSH2 0x46A6 JUMPI PUSH2 0x46A5 PUSH2 0x3B54 JUMP JUMPDEST JUMPDEST PUSH2 0x46B2 DUP7 DUP3 DUP8 ADD PUSH2 0x45E7 JUMP JUMPDEST SWAP2 POP POP SWAP3 POP SWAP3 POP SWAP3 JUMP JUMPDEST PUSH1 0x0 PUSH1 0x40 DUP3 ADD SWAP1 POP PUSH2 0x46D1 PUSH1 0x0 DUP4 ADD DUP6 PUSH2 0x3CBD JUMP JUMPDEST PUSH2 0x46DE PUSH1 0x20 DUP4 ADD DUP5 PUSH2 0x3CBD JUMP JUMPDEST SWAP4 SWAP3 POP POP POP JUMP JUMPDEST PUSH1 0x0 DUP1 REVERT JUMPDEST PUSH1 0x0 DUP1 REVERT JUMPDEST PUSH1 0x0 DUP1 DUP4 PUSH1 0x1F DUP5 ADD SLT PUSH2 0x4705 JUMPI PUSH2 0x4704 PUSH2 0x44E0 JUMP JUMPDEST JUMPDEST DUP3 CALLDATALOAD SWAP1 POP PUSH8 0xFFFFFFFFFFFFFFFF DUP2 GT ISZERO PUSH2 0x4722 JUMPI PUSH2 0x4721 PUSH2 0x46E5 JUMP JUMPDEST JUMPDEST PUSH1 0x20 DUP4 ADD SWAP2 POP DUP4 PUSH1 0x20 DUP3 MUL DUP4 ADD GT ISZERO PUSH2 0x473E JUMPI PUSH2 0x473D PUSH2 0x46EA JUMP JUMPDEST JUMPDEST SWAP3 POP SWAP3 SWAP1 POP JUMP JUMPDEST PUSH1 0x0 DUP1 PUSH1 0x0 DUP1 PUSH1 0x60 DUP6 DUP8 SUB SLT ISZERO PUSH2 0x475F JUMPI PUSH2 0x475E PUSH2 0x3B4F JUMP JUMPDEST JUMPDEST PUSH1 0x0 PUSH2 0x476D DUP8 DUP3 DUP9 ADD PUSH2 0x3B7A JUMP JUMPDEST SWAP5 POP POP PUSH1 0x20 PUSH2 0x477E DUP8 DUP3 DUP9 ADD PUSH2 0x3B7A JUMP JUMPDEST SWAP4 POP POP PUSH1 0x40 DUP6 ADD CALLDATALOAD PUSH8 0xFFFFFFFFFFFFFFFF DUP2 GT ISZERO PUSH2 0x479F JUMPI PUSH2 0x479E PUSH2 0x3B54 JUMP JUMPDEST JUMPDEST PUSH2 0x47AB DUP8 DUP3 DUP9 ADD PUSH2 0x46EF JUMP JUMPDEST SWAP3 POP SWAP3 POP POP SWAP3 SWAP6 SWAP2 SWAP5 POP SWAP3 POP JUMP JUMPDEST PUSH32 0x4E6F7420636F6E747261637420686F6C64657200000000000000000000000000 PUSH1 0x0 DUP3 ADD MSTORE POP JUMP JUMPDEST PUSH1 0x0 PUSH2 0x47EF PUSH1 0x13 DUP4 PUSH2 0x3FBB JUMP JUMPDEST SWAP2 POP PUSH2 0x47FA DUP3 PUSH2 0x47B9 JUMP JUMPDEST PUSH1 0x20 DUP3 ADD SWAP1 POP SWAP2 SWAP1 POP JUMP JUMPDEST PUSH1 0x0 PUSH1 0x20 DUP3 ADD SWAP1 POP DUP2 DUP2 SUB PUSH1 0x0 DUP4 ADD MSTORE PUSH2 0x481E DUP2 PUSH2 0x47E2 JUMP JUMPDEST SWAP1 POP SWAP2 SWAP1 POP JUMP JUMPDEST PUSH32 0x4E6F742061646D696E0000000000000000000000000000000000000000000000 PUSH1 0x0 DUP3 ADD MSTORE POP JUMP JUMPDEST PUSH1 0x0 PUSH2 0x485B PUSH1 0x9 DUP4 PUSH2 0x3FBB JUMP JUMPDEST SWAP2 POP PUSH2 0x4866 DUP3 PUSH2 0x4825 JUMP JUMPDEST PUSH1 0x20 DUP3 ADD SWAP1 POP SWAP2 SWAP1 POP JUMP JUMPDEST PUSH1 0x0 PUSH1 0x20 DUP3 ADD SWAP1 POP DUP2 DUP2 SUB PUSH1 0x0 DUP4 ADD MSTORE PUSH2 0x488A DUP2 PUSH2 0x484E JUMP JUMPDEST SWAP1 POP SWAP2 SWAP1 POP JUMP JUMPDEST PUSH32 0x4E487B7100000000000000000000000000000000000000000000000000000000 PUSH1 0x0 MSTORE PUSH1 0x32 PUSH1 0x4 MSTORE PUSH1 0x24 PUSH1 0x0 REVERT JUMPDEST PUSH32 0x4E487B7100000000000000000000000000000000000000000000000000000000 PUSH1 0x0 MSTORE PUSH1 0x11 PUSH1 0x4 MSTORE PUSH1 0x24 PUSH1 0x0 REVERT JUMPDEST PUSH1 0x0 PUSH2 0x48FA DUP3 PUSH2 0x3B59 JUMP JUMPDEST SWAP2 POP PUSH2 0x4905 DUP4 PUSH2 0x3B59 JUMP JUMPDEST SWAP3 POP DUP3 DUP3 SUB SWAP1 POP DUP2 DUP2 GT ISZERO PUSH2 0x491D JUMPI PUSH2 0x491C PUSH2 0x48C0 JUMP JUMPDEST JUMPDEST SWAP3 SWAP2 POP POP JUMP JUMPDEST PUSH32 0x4E487B7100000000000000000000000000000000000000000000000000000000 PUSH1 0x0 MSTORE PUSH1 0x31 PUSH1 0x4 MSTORE PUSH1 0x24 PUSH1 0x0 REVERT JUMPDEST PUSH32 0x4E6F742061207265676973746572656420766F74657200000000000000000000 PUSH1 0x0 DUP3 ADD MSTORE POP JUMP JUMPDEST PUSH1 0x0 PUSH2 0x4988 PUSH1 0x16 DUP4 PUSH2 0x3FBB JUMP JUMPDEST SWAP2 POP PUSH2 0x4993 DUP3 PUSH2 0x4952 JUMP JUMPDEST PUSH1 0x20 DUP3 ADD SWAP1 POP SWAP2 SWAP1 POP JUMP JUMPDEST PUSH1 0x0 PUSH1 0x20 DUP3 ADD SWAP1 POP DUP2 DUP2 SUB PUSH1 0x0 DUP4 ADD MSTORE PUSH2 0x49B7 DUP2 PUSH2 0x497B JUMP JUMPDEST SWAP1 POP SWAP2 SWAP1 POP JUMP JUMPDEST PUSH32 0x456C656374696F6E206E6F742061637469766500000000000000000000000000 PUSH1 0x0 DUP3 ADD MSTORE POP JUMP JUMPDEST PUSH1 0x0 PUSH2 0x49F4 PUSH1 0x13 DUP4 PUSH2 0x3FBB JUMP JUMPDEST SWAP2 POP PUSH2 0x49FF DUP3 PUSH2 0x49BE JUMP JUMPDEST PUSH1 0x20 DUP3 ADD SWAP1 POP SWAP2 SWAP1 POP JUMP JUMPDEST PUSH1 0x0 PUSH1 0x20 DUP3 ADD SWAP1 POP DUP2 DUP2 SUB PUSH1 0x0 DUP4 ADD MSTORE PUSH2 0x4A23 DUP2 PUSH2 0x49E7 JUMP JUMPDEST SWAP1 POP SWAP2 SWAP1 POP JUMP JUMPDEST PUSH32 0x526F756E64206E6F742073746172746564000000000000000000000000000000 PUSH1 0x0 DUP3 ADD MSTORE POP JUMP JUMPDEST PUSH1 0x0 PUSH2 0x4A60 PUSH1 0x11 DUP4 PUSH2 0x3FBB JUMP JUMPDEST SWAP2 POP PUSH2 0x4A6B DUP3 PUSH2 0x4A2A JUMP JUMPDEST PUSH1 0x20 DUP3 ADD SWAP1 POP SWAP2 SWAP1 POP JUMP JUMPDEST PUSH1 0x0 PUSH1 0x20 DUP3 ADD SWAP1 POP DUP2 DUP2 SUB PUSH1 0x0 DUP4 ADD MSTORE PUSH2 0x4A8F DUP2 PUSH2 0x4A53 JUMP JUMPDEST SWAP1 POP SWAP2 SWAP1 POP JUMP JUMPDEST PUSH32 0x526F756E6420656E646564000000000000000000000000000000000000000000 PUSH1 0x0 DUP3 ADD MSTORE POP JUMP JUMPDEST PUSH1 0x0 PUSH2 0x4ACC PUSH1 0xB DUP4 PUSH2 0x3FBB JUMP JUMPDEST SWAP2 POP PUSH2 0x4AD7 DUP3 PUSH2 0x4A96 JUMP JUMPDEST PUSH1 0x20 DUP3 ADD SWAP1 POP SWAP2 SWAP1 POP JUMP JUMPDEST PUSH1 0x0 PUSH1 0x20 DUP3 ADD SWAP1 POP DUP2 DUP2 SUB PUSH1 0x0 DUP4 ADD MSTORE PUSH2 0x4AFB DUP2 PUSH2 0x4ABF JUMP JUMPDEST SWAP1 POP SWAP2 SWAP1 POP JUMP JUMPDEST PUSH32 0x416C726561647920766F74656400000000000000000000000000000000000000 PUSH1 0x0 DUP3 ADD MSTORE POP JUMP JUMPDEST PUSH1 0x0 PUSH2 0x4B38 PUSH1 0xD DUP4 PUSH2 0x3FBB JUMP JUMPDEST SWAP2 POP PUSH2 0x4B43 DUP3 PUSH2 0x4B02 JUMP JUMPDEST PUSH1 0x20 DUP3 ADD SWAP1 POP SWAP2 SWAP1 POP JUMP JUMPDEST PUSH1 0x0 PUSH1 0x20 DUP3 ADD SWAP1 POP DUP2 DUP2 SUB PUSH1 0x0 DUP4 ADD MSTORE PUSH2 0x4B67 DUP2 PUSH2 0x4B2B JUMP JUMPDEST SWAP1 POP SWAP2 SWAP1 POP JUMP JUMPDEST PUSH32 0x496E76616C69642063616E646964617465000000000000000000000000000000 PUSH1 0x0 DUP3 ADD MSTORE POP JUMP JUMPDEST PUSH1 0x0 PUSH2 0x4BA4 PUSH1 0x11 DUP4 PUSH2 0x3FBB JUMP JUMPDEST SWAP2 POP PUSH2 0x4BAF DUP3 PUSH2 0x4B6E JUMP JUMPDEST PUSH1 0x20 DUP3 ADD SWAP1 POP SWAP2 SWAP1 POP JUMP JUMPDEST PUSH1 0x0 PUSH1 0x20 DUP3 ADD SWAP1 POP DUP2 DUP2 SUB PUSH1 0x0 DUP4 ADD MSTORE PUSH2 0x4BD3 DUP2 PUSH2 0x4B97 JUMP JUMPDEST SWAP1 POP SWAP2 SWAP1 POP JUMP JUMPDEST PUSH1 0x0 PUSH2 0x4BE5 DUP3 PUSH2 0x3B59 JUMP JUMPDEST SWAP2 POP PUSH32 0xFFFFFFFFFFFFFFFFFFFFFFFFFFFFFFFFFFFFFFFFFFFFFFFFFFFFFFFFFFFFFFFF DUP3 SUB PUSH2 0x4C17 JUMPI PUSH2 0x4C16 PUSH2 0x48C0 JUMP JUMPDEST JUMPDEST PUSH1 0x1 DUP3 ADD SWAP1 POP SWAP2 SWAP1 POP JUMP JUMPDEST PUSH1 0x0 PUSH1 0x60 DUP3 ADD SWAP1 POP PUSH2 0x4C37 PUSH1 0x0 DUP4 ADD DUP7 PUSH2 0x4102 JUMP JUMPDEST PUSH2 0x4C44 PUSH1 0x20 DUP4 ADD DUP6 PUSH2 0x405F JUMP JUMPDEST PUSH2 0x4C51 PUSH1 0x40 DUP4 ADD DUP5 PUSH2 0x3CBD JUMP JUMPDEST SWAP5 SWAP4 POP POP POP POP JUMP JUMPDEST PUSH1 0x0 PUSH2 0x4C64 DUP3 PUSH2 0x3B59 JUMP JUMPDEST SWAP2 POP PUSH2 0x4C6F DUP4 PUSH2 0x3B59 JUMP JUMPDEST SWAP3 POP DUP3 DUP3 ADD SWAP1 POP DUP1 DUP3 GT ISZERO PUSH2 0x4C87 JUMPI PUSH2 0x4C86 PUSH2 0x48C0 JUMP JUMPDEST JUMPDEST SWAP3 SWAP2 POP POP JUMP JUMPDEST PUSH32 0x4E487B7100000000000000000000000000000000000000000000000000000000 PUSH1 0x0 MSTORE PUSH1 0x22 PUSH1 0x4 MSTORE PUSH1 0x24 PUSH1 0x0 REVERT JUMPDEST PUSH1 0x0 PUSH1 0x2 DUP3 DIV SWAP1 POP PUSH1 0x1 DUP3 AND DUP1 PUSH2 0x4CD4 JUMPI PUSH1 0x7F DUP3 AND SWAP2 POP JUMPDEST PUSH1 0x20 DUP3 LT DUP2 SUB PUSH2 0x4CE7 JUMPI PUSH2 0x4CE6 PUSH2 0x4C8D JUMP JUMPDEST JUMPDEST POP SWAP2 SWAP1 POP JUMP JUMPDEST PUSH32 0x526F756E64206E6F7420656E6465640000000000000000000000000000000000 PUSH1 0x0 DUP3 ADD MSTORE POP JUMP JUMPDEST PUSH1 0x0 PUSH2 0x4D23 PUSH1 0xF DUP4 PUSH2 0x3FBB JUMP JUMPDEST SWAP2 POP PUSH2 0x4D2E DUP3 PUSH2 0x4CED JUMP JUMPDEST PUSH1 0x20 DUP3 ADD SWAP1 POP SWAP2 SWAP1 POP JUMP JUMPDEST PUSH1 0x0 PUSH1 0x20 DUP3 ADD SWAP1 POP DUP2 DUP2 SUB PUSH1 0x0 DUP4 ADD MSTORE PUSH2 0x4D52 DUP2 PUSH2 0x4D16 JUMP JUMPDEST SWAP1 POP SWAP2 SWAP1 POP JUMP JUMPDEST PUSH32 0x526F756E6420616C72656164792066696E616C697A6564000000000000000000 PUSH1 0x0 DUP3 ADD MSTORE POP JUMP JUMPDEST PUSH1 0x0 PUSH2 0x4D8F PUSH1 0x17 DUP4 PUSH2 0x3FBB JUMP JUMPDEST SWAP2 POP PUSH2 0x4D9A DUP3 PUSH2 0x4D59 JUMP JUMPDEST PUSH1 0x20 DUP3 ADD SWAP1 POP SWAP2 SWAP1 POP JUMP JUMPDEST PUSH1 0x0 PUSH1 0x20 DUP3 ADD SWAP1 POP DUP2 DUP2 SUB PUSH1 0x0 DUP4 ADD MSTORE PUSH2 0x4DBE DUP2 PUSH2 0x4D82 JUMP JUMPDEST SWAP1 POP SWAP2 SWAP1 POP JUMP JUMPDEST PUSH1 0x0 PUSH2 0x4DD0 DUP3 PUSH2 0x3B59 JUMP JUMPDEST SWAP2 POP PUSH2 0x4DDB DUP4 PUSH2 0x3B59 JUMP JUMPDEST SWAP3 POP DUP3 DUP3 MUL PUSH2 0x4DE9 DUP2 PUSH2 0x3B59 JUMP JUMPDEST SWAP2 POP DUP3 DUP3 DIV DUP5 EQ DUP4 ISZERO OR PUSH2 0x4E00 JUMPI PUSH2 0x4DFF PUSH2 0x48C0 JUMP JUMPDEST JUMPDEST POP SWAP3 SWAP2 POP POP JUMP JUMPDEST PUSH1 0x0 PUSH1 0x60 DUP3 ADD SWAP1 POP PUSH2 0x4E1C PUSH1 0x0 DUP4 ADD DUP7 PUSH2 0x4102 JUMP JUMPDEST PUSH2 0x4E29 PUSH1 0x20 DUP4 ADD DUP6 PUSH2 0x3BC8 JUMP JUMPDEST PUSH2 0x4E36 PUSH1 0x40 DUP4 ADD DUP5 PUSH2 0x3CBD JUMP JUMPDEST SWAP5 SWAP4 POP POP POP POP JUMP JUMPDEST PUSH1 0x0 PUSH2 0x4E49 DUP3 PUSH2 0x40F5 JUMP JUMPDEST SWAP2 POP PUSH2 0x4E54 DUP4 PUSH2 0x40F5 JUMP JUMPDEST SWAP3 POP DUP3 DUP3 ADD SWAP1 POP PUSH1 0xFF DUP2 GT ISZERO PUSH2 0x4E6D JUMPI PUSH2 0x4E6C PUSH2 0x48C0 JUMP JUMPDEST JUMPDEST SWAP3 SWAP2 POP POP JUMP JUMPDEST PUSH1 0x0 DUP2 SWAP1 POP SWAP2 SWAP1 POP JUMP JUMPDEST PUSH1 0x0 DUP2 SWAP1 POP SWAP2 SWAP1 POP JUMP JUMPDEST PUSH1 0x0 PUSH2 0x4EA2 PUSH2 0x4E9D PUSH2 0x4E98 DUP5 PUSH2 0x4E73 JUMP JUMPDEST PUSH2 0x4E7D JUMP JUMPDEST PUSH2 0x3B59 JUMP JUMPDEST SWAP1 POP SWAP2 SWAP1 POP JUMP JUMPDEST PUSH2 0x4EB2 DUP2 PUSH2 0x4E87 JUMP JUMPDEST DUP3 MSTORE POP POP JUMP JUMPDEST PUSH1 0x0 PUSH1 0x60 DUP3 ADD SWAP1 POP PUSH2 0x4ECD PUSH1 0x0 DUP4 ADD DUP7 PUSH2 0x4102 JUMP JUMPDEST PUSH2 0x4EDA PUSH1 0x20 DUP4 ADD DUP6 PUSH2 0x3BC8 JUMP JUMPDEST PUSH2 0x4EE7 PUSH1 0x40 DUP4 ADD DUP5 PUSH2 0x4EA9 JUMP JUMPDEST SWAP5 SWAP4 POP POP POP POP JUMP JUMPDEST PUSH32 0x496E76616C696420616464726573730000000000000000000000000000000000 PUSH1 0x0 DUP3 ADD MSTORE POP JUMP JUMPDEST PUSH1 0x0 PUSH2 0x4F25 PUSH1 0xF DUP4 PUSH2 0x3FBB JUMP JUMPDEST SWAP2 POP PUSH2 0x4F30 DUP3 PUSH2 0x4EEF JUMP JUMPDEST PUSH1 0x20 DUP3 ADD SWAP1 POP SWAP2 SWAP1 POP JUMP JUMPDEST PUSH1 0x0 PUSH1 0x20 DUP3 ADD SWAP1 POP DUP2 DUP2 SUB PUSH1 0x0 DUP4 ADD MSTORE PUSH2 0x4F54 DUP2 PUSH2 0x4F18 JUMP JUMPDEST SWAP1 POP SWAP2 SWAP1 POP JUMP JUMPDEST PUSH32 0x416C72656164792061646D696E00000000000000000000000000000000000000 PUSH1 0x0 DUP3 ADD MSTORE POP JUMP JUMPDEST PUSH1 0x0 PUSH2 0x4F91 PUSH1 0xD DUP4 PUSH2 0x3FBB JUMP JUMPDEST SWAP2 POP PUSH2 0x4F9C DUP3 PUSH2 0x4F5B JUMP JUMPDEST PUSH1 0x20 DUP3 ADD SWAP1 POP SWAP2 SWAP1 POP JUMP JUMPDEST PUSH1 0x0 PUSH1 0x20 DUP3 ADD SWAP1 POP DUP2 DUP2 SUB PUSH1 0x0 DUP4 ADD MSTORE PUSH2 0x4FC0 DUP2 PUSH2 0x4F84 JUMP JUMPDEST SWAP1 POP SWAP2 SWAP1 POP JUMP JUMPDEST PUSH32 0x4E6F7420616E2061646D696E0000000000000000000000000000000000000000 PUSH1 0x0 DUP3 ADD MSTORE POP JUMP JUMPDEST PUSH1 0x0 PUSH2 0x4FFD PUSH1 0xC DUP4 PUSH2 0x3FBB JUMP JUMPDEST SWAP2 POP PUSH2 0x5008 DUP3 PUSH2 0x4FC7 JUMP JUMPDEST PUSH1 0x20 DUP3 ADD SWAP1 POP SWAP2 SWAP1 POP JUMP JUMPDEST PUSH1 0x0 PUSH1 0x20 DUP3 ADD SWAP1 POP DUP2 DUP2 SUB PUSH1 0x0 DUP4 ADD MSTORE PUSH2 0x502C DUP2 PUSH2 0x4FF0 JUMP JUMPDEST SWAP1 POP SWAP2 SWAP1 POP JUMP JUMPDEST PUSH32 0x566F746572206E6F742072656769737465726564000000000000000000000000 PUSH1 0x0 DUP3 ADD MSTORE POP JUMP JUMPDEST PUSH1 0x0 PUSH2 0x5069 PUSH1 0x14 DUP4 PUSH2 0x3FBB JUMP JUMPDEST SWAP2 POP PUSH2 0x5074 DUP3 PUSH2 0x5033 JUMP JUMPDEST PUSH1 0x20 DUP3 ADD SWAP1 POP SWAP2 SWAP1 POP JUMP JUMPDEST PUSH1 0x0 PUSH1 0x20 DUP3 ADD SWAP1 POP DUP2 DUP2 SUB PUSH1 0x0 DUP4 ADD MSTORE PUSH2 0x5098 DUP2 PUSH2 0x505C JUMP JUMPDEST SWAP1 POP SWAP2 SWAP1 POP JUMP JUMPDEST PUSH32 0x526F756E64206E6F74206F766572207965740000000000000000000000000000 PUSH1 0x0 DUP3 ADD MSTORE POP JUMP JUMPDEST PUSH1 0x0 PUSH2 0x50D5 PUSH1 0x12 DUP4 PUSH2 0x3FBB JUMP JUMPDEST SWAP2 POP PUSH2 0x50E0 DUP3 PUSH2 0x509F JUMP JUMPDEST PUSH1 0x20 DUP3 ADD SWAP1 POP SWAP2 SWAP1 POP JUMP JUMPDEST PUSH1 0x0 PUSH1 0x20 DUP3 ADD SWAP1 POP DUP2 DUP2 SUB PUSH1 0x0 DUP4 ADD MSTORE PUSH2 0x5104 DUP2 PUSH2 0x50C8 JUMP JUMPDEST SWAP1 POP SWAP2 SWAP1 POP JUMP JUMPDEST PUSH1 0x0 DUP2 SWAP1 POP SWAP3 SWAP2 POP POP JUMP JUMPDEST PUSH1 0x0 PUSH2 0x5121 DUP3 PUSH2 0x3D22 JUMP JUMPDEST PUSH2 0x512B DUP2 DUP6 PUSH2 0x510B JUMP JUMPDEST SWAP4 POP PUSH2 0x513B DUP2 DUP6 PUSH1 0x20 DUP7 ADD PUSH2 0x3D3E JUMP JUMPDEST DUP1 DUP5 ADD SWAP2 POP POP SWAP3 SWAP2 POP POP JUMP JUMPDEST PUSH32 0x7C00000000000000000000000000000000000000000000000000000000000000 PUSH1 0x0 DUP3 ADD MSTORE POP JUMP JUMPDEST PUSH1 0x0 PUSH2 0x517D PUSH1 0x1 DUP4 PUSH2 0x510B JUMP JUMPDEST SWAP2 POP PUSH2 0x5188 DUP3 PUSH2 0x5147 JUMP JUMPDEST PUSH1 0x1 DUP3 ADD SWAP1 POP SWAP2 SWAP1 POP JUMP JUMPDEST PUSH1 0x0 PUSH2 0x519F DUP3 DUP6 PUSH2 0x5116 JUMP JUMPDEST SWAP2 POP PUSH2 0x51AA DUP3 PUSH2 0x5170 JUMP JUMPDEST SWAP2 POP PUSH2 0x51B6 DUP3 DUP5 PUSH2 0x5116 JUMP JUMPDEST SWAP2 POP DUP2 SWAP1 POP SWAP4 SWAP3 POP POP POP JUMP JUMPDEST PUSH32 0x43616E64696461746520616C7265616479206578697374730000000000000000 PUSH1 0x0 DUP3 ADD MSTORE POP JUMP JUMPDEST PUSH1 0x0 PUSH2 0x51F8 PUSH1 0x18 DUP4 PUSH2 0x3FBB JUMP JUMPDEST SWAP2 POP PUSH2 0x5203 DUP3 PUSH2 0x51C2 JUMP JUMPDEST PUSH1 0x20 DUP3 ADD SWAP1 POP SWAP2 SWAP1 POP JUMP JUMPDEST PUSH1 0x0 PUSH1 0x20 DUP3 ADD SWAP1 POP DUP2 DUP2 SUB PUSH1 0x0 DUP4 ADD MSTORE PUSH2 0x5227 DUP2 PUSH2 0x51EB JUMP JUMPDEST SWAP1 POP SWAP2 SWAP1 POP JUMP JUMPDEST PUSH1 0x0 DUP2 SWAP1 POP DUP2 PUSH1 0x0 MSTORE PUSH1 0x20 PUSH1 0x0 KECCAK256 SWAP1 POP SWAP2 SWAP1 POP JUMP JUMPDEST PUSH1 0x0 PUSH1 0x20 PUSH1 0x1F DUP4 ADD DIV SWAP1 POP SWAP2 SWAP1 POP JUMP JUMPDEST PUSH1 0x0 DUP3 DUP3 SHL SWAP1 POP SWAP3 SWAP2 POP POP JUMP JUMPDEST PUSH1 0x0 PUSH1 0x8 DUP4 MUL PUSH2 0x5290 PUSH32 0xFFFFFFFFFFFFFFFFFFFFFFFFFFFFFFFFFFFFFFFFFFFFFFFFFFFFFFFFFFFFFFFF DUP3 PUSH2 0x5253 JUMP JUMPDEST PUSH2 0x529A DUP7 DUP4 PUSH2 0x5253 JUMP JUMPDEST SWAP6 POP DUP1 NOT DUP5 AND SWAP4 POP DUP1 DUP7 AND DUP5 OR SWAP3 POP POP POP SWAP4 SWAP3 POP POP POP JUMP JUMPDEST PUSH1 0x0 PUSH2 0x52CD PUSH2 0x52C8 PUSH2 0x52C3 DUP5 PUSH2 0x3B59 JUMP JUMPDEST PUSH2 0x4E7D JUMP JUMPDEST PUSH2 0x3B59 JUMP JUMPDEST SWAP1 POP SWAP2 SWAP1 POP JUMP JUMPDEST PUSH1 0x0 DUP2 SWAP1 POP SWAP2 SWAP1 POP JUMP JUMPDEST PUSH2 0x52E7 DUP4 PUSH2 0x52B2 JUMP JUMPDEST PUSH2 0x52FB PUSH2 0x52F3 DUP3 PUSH2 0x52D4 JUMP JUMPDEST DUP5 DUP5 SLOAD PUSH2 0x5260 JUMP JUMPDEST DUP3 SSTORE POP POP POP POP JUMP JUMPDEST PUSH1 0x0 SWAP1 JUMP JUMPDEST PUSH2 0x5310 PUSH2 0x5303 JUMP JUMPDEST PUSH2 0x531B DUP2 DUP5 DUP5 PUSH2 0x52DE JUMP JUMPDEST POP POP POP JUMP JUMPDEST JUMPDEST DUP2 DUP2 LT ISZERO PUSH2 0x533F JUMPI PUSH2 0x5334 PUSH1 0x0 DUP3 PUSH2 0x5308 JUMP JUMPDEST PUSH1 0x1 DUP2 ADD SWAP1 POP PUSH2 0x5321 JUMP JUMPDEST POP POP JUMP JUMPDEST PUSH1 0x1F DUP3 GT ISZERO PUSH2 0x5384 JUMPI PUSH2 0x5355 DUP2 PUSH2 0x522E JUMP JUMPDEST PUSH2 0x535E DUP5 PUSH2 0x5243 JUMP JUMPDEST DUP2 ADD PUSH1 0x20 DUP6 LT ISZERO PUSH2 0x536D JUMPI DUP2 SWAP1 POP JUMPDEST PUSH2 0x5381 PUSH2 0x5379 DUP6 PUSH2 0x5243 JUMP JUMPDEST DUP4 ADD DUP3 PUSH2 0x5320 JUMP JUMPDEST POP POP JUMPDEST POP POP POP JUMP JUMPDEST PUSH1 0x0 DUP3 DUP3 SHR SWAP1 POP SWAP3 SWAP2 POP POP JUMP JUMPDEST PUSH1 0x0 PUSH2 0x53A7 PUSH1 0x0 NOT DUP5 PUSH1 0x8 MUL PUSH2 0x5389 JUMP JUMPDEST NOT DUP1 DUP4 AND SWAP2 POP POP SWAP3 SWAP2 POP POP JUMP JUMPDEST PUSH1 0x0 PUSH2 0x53C0 DUP4 DUP4 PUSH2 0x5396 JUMP JUMPDEST SWAP2 POP DUP3 PUSH1 0x2 MUL DUP3 OR SWAP1 POP SWAP3 SWAP2 POP POP JUMP JUMPDEST PUSH2 0x53D9 DUP3 PUSH2 0x3D22 JUMP JUMPDEST PUSH8 0xFFFFFFFFFFFFFFFF DUP2 GT ISZERO PUSH2 0x53F2 JUMPI PUSH2 0x53F1 PUSH2 0x44EA JUMP JUMPDEST JUMPDEST PUSH2 0x53FC DUP3 SLOAD PUSH2 0x4CBC JUMP JUMPDEST PUSH2 0x5407 DUP3 DUP3 DUP6 PUSH2 0x5343 JUMP JUMPDEST PUSH1 0x0 PUSH1 0x20 SWAP1 POP PUSH1 0x1F DUP4 GT PUSH1 0x1 DUP2 EQ PUSH2 0x543A JUMPI PUSH1 0x0 DUP5 ISZERO PUSH2 0x5428 JUMPI DUP3 DUP8 ADD MLOAD SWAP1 POP JUMPDEST PUSH2 0x5432 DUP6 DUP3 PUSH2 0x53B4 JUMP JUMPDEST DUP7 SSTORE POP PUSH2 0x549A JUMP JUMPDEST PUSH1 0x1F NOT DUP5 AND PUSH2 0x5448 DUP7 PUSH2 0x522E JUMP JUMPDEST PUSH1 0x0 JUMPDEST DUP3 DUP2 LT ISZERO PUSH2 0x5470 JUMPI DUP5 DUP10 ADD MLOAD DUP3 SSTORE PUSH1 0x1 DUP3 ADD SWAP2 POP PUSH1 0x20 DUP6 ADD SWAP5 POP PUSH1 0x20 DUP2 ADD SWAP1 POP PUSH2 0x544B JUMP JUMPDEST DUP7 DUP4 LT ISZERO PUSH2 0x548D JUMPI DUP5 DUP10 ADD MLOAD PUSH2 0x5489 PUSH1 0x1F DUP10 AND DUP3 PUSH2 0x5396 JUMP JUMPDEST DUP4 SSTORE POP JUMPDEST PUSH1 0x1 PUSH1 0x2 DUP9 MUL ADD DUP9 SSTORE POP POP POP JUMPDEST POP POP POP POP POP POP JUMP JUMPDEST PUSH1 0x0 PUSH1 0x60 DUP3 ADD SWAP1 POP DUP2 DUP2 SUB PUSH1 0x0 DUP4 ADD MSTORE PUSH2 0x54BC DUP2 DUP7 PUSH2 0x3FCC JUMP JUMPDEST SWAP1 POP DUP2 DUP2 SUB PUSH1 0x20 DUP4 ADD MSTORE PUSH2 0x54D0 DUP2 DUP6 PUSH2 0x3FCC JUMP JUMPDEST SWAP1 POP DUP2 DUP2 SUB PUSH1 0x40 DUP4 ADD MSTORE PUSH2 0x54E4 DUP2 DUP5 PUSH2 0x3FCC JUMP JUMPDEST SWAP1 POP SWAP5 SWAP4 POP POP POP POP JUMP JUMPDEST PUSH32 0x566F74657220616C726561647920726567697374657265640000000000000000 PUSH1 0x0 DUP3 ADD MSTORE POP JUMP JUMPDEST PUSH1 0x0 PUSH2 0x5524 PUSH1 0x18 DUP4 PUSH2 0x3FBB JUMP JUMPDEST SWAP2 POP PUSH2 0x552F DUP3 PUSH2 0x54EE JUMP JUMPDEST PUSH1 0x20 DUP3 ADD SWAP1 POP SWAP2 SWAP1 POP JUMP JUMPDEST PUSH1 0x0 PUSH1 0x20 DUP3 ADD SWAP1 POP DUP2 DUP2 SUB PUSH1 0x0 DUP4 ADD MSTORE PUSH2 0x5553 DUP2 PUSH2 0x5517 JUMP JUMPDEST SWAP1 POP SWAP2 SWAP1 POP JUMP JUMPDEST PUSH32 0x456C656374696F6E206D75737420626520696E20667574757265000000000000 PUSH1 0x0 DUP3 ADD MSTORE POP JUMP JUMPDEST PUSH1 0x0 PUSH2 0x5590 PUSH1 0x1A DUP4 PUSH2 0x3FBB JUMP JUMPDEST SWAP2 POP PUSH2 0x559B DUP3 PUSH2 0x555A JUMP JUMPDEST PUSH1 0x20 DUP3 ADD SWAP1 POP SWAP2 SWAP1 POP JUMP JUMPDEST PUSH1 0x0 PUSH1 0x20 DUP3 ADD SWAP1 POP DUP2 DUP2 SUB PUSH1 0x0 DUP4 ADD MSTORE PUSH2 0x55BF DUP2 PUSH2 0x5583 JUMP JUMPDEST SWAP1 POP SWAP2 SWAP1 POP JUMP JUMPDEST PUSH32 0x466972737420726F756E64206D75737420626520616674657220656C65637469 PUSH1 0x0 DUP3 ADD MSTORE PUSH32 0x6F6E207374617274000000000000000000000000000000000000000000000000 PUSH1 0x20 DUP3 ADD MSTORE POP JUMP JUMPDEST PUSH1 0x0 PUSH2 0x5622 PUSH1 0x28 DUP4 PUSH2 0x3FBB JUMP JUMPDEST SWAP2 POP PUSH2 0x562D DUP3 PUSH2 0x55C6 JUMP JUMPDEST PUSH1 0x40 DUP3 ADD SWAP1 POP SWAP2 SWAP1 POP JUMP JUMPDEST PUSH1 0x0 PUSH1 0x20 DUP3 ADD SWAP1 POP DUP2 DUP2 SUB PUSH1 0x0 DUP4 ADD MSTORE PUSH2 0x5651 DUP2 PUSH2 0x5615 JUMP JUMPDEST SWAP1 POP SWAP2 SWAP1 POP JUMP JUMPDEST PUSH32 0x4174206C65617374206F6E652063616E64696461746500000000000000000000 PUSH1 0x0 DUP3 ADD MSTORE POP JUMP JUMPDEST PUSH1 0x0 PUSH2 0x568E PUSH1 0x16 DUP4 PUSH2 0x3FBB JUMP JUMPDEST SWAP2 POP PUSH2 0x5699 DUP3 PUSH2 0x5658 JUMP JUMPDEST PUSH1 0x20 DUP3 ADD SWAP1 POP SWAP2 SWAP1 POP JUMP JUMPDEST PUSH1 0x0 PUSH1 0x20 DUP3 ADD SWAP1 POP DUP2 DUP2 SUB PUSH1 0x0 DUP4 ADD MSTORE PUSH2 0x56BD DUP2 PUSH2 0x5681 JUMP JUMPDEST SWAP1 POP SWAP2 SWAP1 POP JUMP JUMPDEST PUSH1 0x0 DUP2 SWAP1 POP SWAP2 SWAP1 POP JUMP JUMPDEST PUSH1 0x0 PUSH2 0x56E9 PUSH2 0x56E4 PUSH2 0x56DF DUP5 PUSH2 0x56C4 JUMP JUMPDEST PUSH2 0x4E7D JUMP JUMPDEST PUSH2 0x3B59 JUMP JUMPDEST SWAP1 POP SWAP2 SWAP1 POP JUMP JUMPDEST PUSH2 0x56F9 DUP2 PUSH2 0x56CE JUMP JUMPDEST DUP3 MSTORE POP POP JUMP JUMPDEST PUSH1 0x0 DUP2 SLOAD SWAP1 POP SWAP2 SWAP1 POP JUMP JUMPDEST PUSH1 0x0 DUP2 SWAP1 POP DUP2 PUSH1 0x0 MSTORE PUSH1 0x20 PUSH1 0x0 KECCAK256 SWAP1 POP SWAP2 SWAP1 POP JUMP JUMPDEST PUSH1 0x0 DUP2 PUSH1 0x0 SHR SWAP1 POP SWAP2 SWAP1 POP JUMP JUMPDEST PUSH1 0x0 DUP2 SWAP1 POP SWAP2 SWAP1 POP JUMP JUMPDEST PUSH1 0x0 PUSH2 0x5749 PUSH2 0x5744 DUP4 PUSH2 0x571F JUMP JUMPDEST PUSH2 0x572C JUMP JUMPDEST SWAP1 POP SWAP2 SWAP1 POP JUMP JUMPDEST PUSH1 0x0 PUSH2 0x575C DUP3 SLOAD PUSH2 0x5736 JUMP JUMPDEST SWAP1 POP SWAP2 SWAP1 POP JUMP JUMPDEST PUSH1 0x0 PUSH1 0x1 DUP3 ADD SWAP1 POP SWAP2 SWAP1 POP JUMP JUMPDEST PUSH1 0x0 PUSH2 0x577B DUP3 PUSH2 0x56FF JUMP JUMPDEST PUSH2 0x5785 DUP2 DUP6 PUSH2 0x41F7 JUMP JUMPDEST SWAP4 POP PUSH2 0x5790 DUP4 PUSH2 0x570A JUMP JUMPDEST DUP1 PUSH1 0x0 JUMPDEST DUP4 DUP2 LT ISZERO PUSH2 0x57C8 JUMPI PUSH2 0x57A5 DUP3 PUSH2 0x5750 JUMP JUMPDEST PUSH2 0x57AF DUP9 DUP3 PUSH2 0x4218 JUMP JUMPDEST SWAP8 POP PUSH2 0x57BA DUP4 PUSH2 0x5763 JUMP JUMPDEST SWAP3 POP POP PUSH1 0x1 DUP2 ADD SWAP1 POP PUSH2 0x5794 JUMP JUMPDEST POP DUP6 SWAP4 POP POP POP POP SWAP3 SWAP2 POP POP JUMP JUMPDEST PUSH1 0x0 PUSH1 0x80 DUP3 ADD SWAP1 POP PUSH2 0x57EA PUSH1 0x0 DUP4 ADD DUP8 PUSH2 0x3CBD JUMP JUMPDEST PUSH2 0x57F7 PUSH1 0x20 DUP4 ADD DUP7 PUSH2 0x3CBD JUMP JUMPDEST PUSH2 0x5804 PUSH1 0x40 DUP4 ADD DUP6 PUSH2 0x56F0 JUMP JUMPDEST DUP2 DUP2 SUB PUSH1 0x60 DUP4 ADD MSTORE PUSH2 0x5816 DUP2 DUP5 PUSH2 0x5770 JUMP JUMPDEST SWAP1 POP SWAP6 SWAP5 POP POP POP POP POP JUMP INVALID LOG2 PUSH5 0x6970667358 0x22 SLT KECCAK256 SWAP2 NOT 0xB2 0x1F 0xE1 0x2A 0xE8 TSTORE CHAINID 0xBF 0xB2 SWAP16 PUSH10 0xC5A3F4D4EF83D93716EF 0xBB 0xFC SIGNEXTEND 0xAF 0xDB PUSH14 0x99C7DF64736F6C634300081C0033 "},"methodIdentifiers":{"addAdmin(address)":"70480275","addCandidate(string,string,string)":"ad71f8dc","addVoter(address)":"f4ab9adf","admins(address)":"429b62e5","candidateExistsById(uint256)":"003eee01","candidateTotalVotes(uint256,uint256)":"545458c8","candidates(uint256)":"3477ee2e","candidatesCount()":"2d35a8a2","castVote(uint256,uint256)":"2c0a3f89","contractHolder()":"a298cbc1","createElection(uint256,uint256,uint256[])":"f0134566","electionRounds(uint256,uint8)":"aa82ae79","electionWinners(uint256,uint256)":"b04e523e","elections(uint256)":"5e6fef01","electionsCount()":"9a74c695","finalizeRound(uint256,bool)":"55af4788","getAdmins()":"31ae450b","getAllCandidates()":"2e6997fe","getAllVoters()":"35bbe70e","getCandidateIdsForRound(uint256,uint8)":"6546d5fd","getElectionRoundResults(uint256,uint8)":"7351f0f2","getRoundResults(uint256,uint8)":"9ed3e95e","getRoundStatus(uint256,uint8)":"88a2c4b6","isRoundActive(uint256,uint8)":"837ec15f","removeAdmin(address)":"1785f53c","removeVoter(address)":"86c1ff68","roundCandidateVotes(uint256,uint8,uint256)":"e684cbf9","roundHasVoted(uint256,uint8,address)":"7bf39e12","transferOwnership(address)":"f2fde38b","voterList(uint256)":"50e2e8af","voters(address)":"a3ec138d","votersByRound(uint256,uint8,uint256)":"ab95a7dd","votes(uint256,uint8,address)":"caf1475d"}}}}}