{
  "_format": "hh-sol-artifact-1",
  "contractName": "PresidentialElection",
  "sourceName": "contracts/PresidentialElection.sol",
  "abi": [
    {
      "anonymous": false,
      "inputs": [
        {
          "indexed": true,
          "internalType": "address",
          "name": "admin",
          "type": "address"
        }
      ],
      "name": "AdminAdded",
      "type": "event"
    },
    {
      "anonymous": false,
      "inputs": [
        {
          "indexed": true,
          "internalType": "address",
          "name": "admin",
          "type": "address"
        }
      ],
      "name": "AdminRemoved",
      "type": "event"
    },
    {
      "anonymous": false,
      "inputs": [
        {
          "indexed": true,
          "internalType": "uint256",
          "name": "candidateId",
          "type": "uint256"
        },
        {
          "indexed": false,
          "internalType": "string",
          "name": "firstName",
          "type": "string"
        },
        {
          "indexed": false,
          "internalType": "string",
          "name": "lastName",
          "type": "string"
        },
        {
          "indexed": false,
          "internalType": "string",
          "name": "politicalParty",
          "type": "string"
        }
      ],
      "name": "CandidateAdded",
      "type": "event"
    },
    {
      "anonymous": false,
      "inputs": [
        {
          "indexed": true,
          "internalType": "uint256",
          "name": "electionId",
          "type": "uint256"
        },
        {
          "indexed": false,
          "internalType": "uint256",
          "name": "electionStartDate",
          "type": "uint256"
        },
        {
          "indexed": false,
          "internalType": "uint256",
          "name": "firstRoundStartDate",
          "type": "uint256"
        },
        {
          "indexed": false,
          "internalType": "uint256",
          "name": "roundDuration",
          "type": "uint256"
        },
        {
          "indexed": false,
          "internalType": "uint256[]",
          "name": "candidateIds",
          "type": "uint256[]"
        }
      ],
      "name": "ElectionCreated",
      "type": "event"
    },
    {
      "anonymous": false,
      "inputs": [
        {
          "indexed": true,
          "internalType": "address",
          "name": "previousHolder",
          "type": "address"
        },
        {
          "indexed": true,
          "internalType": "address",
          "name": "newHolder",
          "type": "address"
        }
      ],
      "name": "OwnershipTransferred",
      "type": "event"
    },
    {
      "anonymous": false,
      "inputs": [
        {
          "indexed": true,
          "internalType": "uint256",
          "name": "electionId",
          "type": "uint256"
        },
        {
          "indexed": false,
          "internalType": "uint8",
          "name": "round",
          "type": "uint8"
        },
        {
          "indexed": false,
          "internalType": "bool",
          "name": "finished",
          "type": "bool"
        },
        {
          "indexed": false,
          "internalType": "uint256",
          "name": "winnerCandidateId",
          "type": "uint256"
        }
      ],
      "name": "RoundFinalized",
      "type": "event"
    },
    {
      "anonymous": false,
      "inputs": [
        {
          "indexed": true,
          "internalType": "uint256",
          "name": "electionId",
          "type": "uint256"
        },
        {
          "indexed": false,
          "internalType": "uint8",
          "name": "round",
          "type": "uint8"
        },
        {
          "indexed": true,
          "internalType": "uint256",
          "name": "candidateId",
          "type": "uint256"
        },
        {
          "indexed": false,
          "internalType": "address",
          "name": "voter",
          "type": "address"
        },
        {
          "indexed": false,
          "internalType": "uint256",
          "name": "timestamp",
          "type": "uint256"
        }
      ],
      "name": "VoteCast",
      "type": "event"
    },
    {
      "anonymous": false,
      "inputs": [
        {
          "indexed": true,
          "internalType": "address",
          "name": "voter",
          "type": "address"
        },
        {
          "indexed": false,
          "internalType": "uint256",
          "name": "registrationTime",
          "type": "uint256"
        }
      ],
      "name": "VoterAdded",
      "type": "event"
    },
    {
      "anonymous": false,
      "inputs": [
        {
          "indexed": true,
          "internalType": "address",
          "name": "voter",
          "type": "address"
        }
      ],
      "name": "VoterRemoved",
      "type": "event"
    },
    {
      "inputs": [
        {
          "internalType": "address",
          "name": "_admin",
          "type": "address"
        }
      ],
      "name": "addAdmin",
      "outputs": [],
      "stateMutability": "nonpayable",
      "type": "function"
    },
    {
      "inputs": [
        {
          "internalType": "string",
          "name": "_firstName",
          "type": "string"
        },
        {
          "internalType": "string",
          "name": "_lastName",
          "type": "string"
        },
        {
          "internalType": "string",
          "name": "_politicalParty",
          "type": "string"
        }
      ],
      "name": "addCandidate",
      "outputs": [],
      "stateMutability": "nonpayable",
      "type": "function"
    },
    {
      "inputs": [
        {
          "internalType": "address",
          "name": "_voter",
          "type": "address"
        }
      ],
      "name": "addVoter",
      "outputs": [],
      "stateMutability": "nonpayable",
      "type": "function"
    },
    {
      "inputs": [
        {
          "internalType": "address",
          "name": "",
          "type": "address"
        }
      ],
      "name": "admins",
      "outputs": [
        {
          "internalType": "bool",
          "name": "",
          "type": "bool"
        }
      ],
      "stateMutability": "view",
      "type": "function"
    },
    {
      "inputs": [
        {
          "internalType": "uint256",
          "name": "candidateId",
          "type": "uint256"
        }
      ],
      "name": "candidateExistsById",
      "outputs": [
        {
          "internalType": "bool",
          "name": "",
          "type": "bool"
        }
      ],
      "stateMutability": "view",
      "type": "function"
    },
    {
      "inputs": [
        {
          "internalType": "uint256",
          "name": "",
          "type": "uint256"
        },
        {
          "internalType": "uint256",
          "name": "",
          "type": "uint256"
        }
      ],
      "name": "candidateTotalVotes",
      "outputs": [
        {
          "internalType": "uint256",
          "name": "",
          "type": "uint256"
        }
      ],
      "stateMutability": "view",
      "type": "function"
    },
    {
      "inputs": [
        {
          "internalType": "uint256",
          "name": "",
          "type": "uint256"
        }
      ],
      "name": "candidates",
      "outputs": [
        {
          "internalType": "uint256",
          "name": "id",
          "type": "uint256"
        },
        {
          "internalType": "string",
          "name": "firstName",
          "type": "string"
        },
        {
          "internalType": "string",
          "name": "lastName",
          "type": "string"
        },
        {
          "internalType": "string",
          "name": "politicalParty",
          "type": "string"
        }
      ],
      "stateMutability": "view",
      "type": "function"
    },
    {
      "inputs": [],
      "name": "candidatesCount",
      "outputs": [
        {
          "internalType": "uint256",
          "name": "",
          "type": "uint256"
        }
      ],
      "stateMutability": "view",
      "type": "function"
    },
    {
      "inputs": [
        {
          "internalType": "uint256",
          "name": "electionId",
          "type": "uint256"
        },
        {
          "internalType": "uint256",
          "name": "candidateId",
          "type": "uint256"
        }
      ],
      "name": "castVote",
      "outputs": [],
      "stateMutability": "nonpayable",
      "type": "function"
    },
    {
      "inputs": [],
      "name": "contractHolder",
      "outputs": [
        {
          "internalType": "address",
          "name": "",
          "type": "address"
        }
      ],
      "stateMutability": "view",
      "type": "function"
    },
    {
      "inputs": [
        {
          "internalType": "uint256",
          "name": "_electionStartDate",
          "type": "uint256"
        },
        {
          "internalType": "uint256",
          "name": "_firstRoundStartDate",
          "type": "uint256"
        },
        {
          "internalType": "uint256[]",
          "name": "_candidateIds",
          "type": "uint256[]"
        }
      ],
      "name": "createElection",
      "outputs": [
        {
          "internalType": "uint256",
          "name": "",
          "type": "uint256"
        }
      ],
      "stateMutability": "nonpayable",
      "type": "function"
    },
    {
      "inputs": [
        {
          "internalType": "uint256",
          "name": "",
          "type": "uint256"
        },
        {
          "internalType": "uint8",
          "name": "",
          "type": "uint8"
        }
      ],
      "name": "electionRounds",
      "outputs": [
        {
          "internalType": "uint8",
          "name": "roundNumber",
          "type": "uint8"
        },
        {
          "internalType": "uint256",
          "name": "startDate",
          "type": "uint256"
        },
        {
          "internalType": "uint256",
          "name": "endDate",
          "type": "uint256"
        },
        {
          "internalType": "bool",
          "name": "finalized",
          "type": "bool"
        },
        {
          "internalType": "uint256",
          "name": "totalVotes",
          "type": "uint256"
        },
        {
          "internalType": "uint256",
          "name": "winnerCandidateId",
          "type": "uint256"
        }
      ],
      "stateMutability": "view",
      "type": "function"
    },
    {
      "inputs": [
        {
          "internalType": "uint256",
          "name": "",
          "type": "uint256"
        },
        {
          "internalType": "uint256",
          "name": "",
          "type": "uint256"
        }
      ],
      "name": "electionWinners",
      "outputs": [
        {
          "internalType": "uint256",
          "name": "",
          "type": "uint256"
        }
      ],
      "stateMutability": "view",
      "type": "function"
    },
    {
      "inputs": [
        {
          "internalType": "uint256",
          "name": "",
          "type": "uint256"
        }
      ],
      "name": "elections",
      "outputs": [
        {
          "internalType": "uint256",
          "name": "electionId",
          "type": "uint256"
        },
        {
          "internalType": "uint256",
          "name": "electionStartDate",
          "type": "uint256"
        },
        {
          "internalType": "uint256",
          "name": "firstRoundStartDate",
          "type": "uint256"
        },
        {
          "internalType": "uint256",
          "name": "roundDuration",
          "type": "uint256"
        },
        {
          "internalType": "bool",
          "name": "isActive",
          "type": "bool"
        },
        {
          "internalType": "uint8",
          "name": "currentRound",
          "type": "uint8"
        },
        {
          "internalType": "uint256",
          "name": "winnerCandidateId",
          "type": "uint256"
        }
      ],
      "stateMutability": "view",
      "type": "function"
    },
    {
      "inputs": [],
      "name": "electionsCount",
      "outputs": [
        {
          "internalType": "uint256",
          "name": "",
          "type": "uint256"
        }
      ],
      "stateMutability": "view",
      "type": "function"
    },
    {
      "inputs": [
        {
          "internalType": "uint256",
          "name": "electionId",
          "type": "uint256"
        },
        {
          "internalType": "bool",
          "name": "force",
          "type": "bool"
        }
      ],
      "name": "finalizeRound",
      "outputs": [],
      "stateMutability": "nonpayable",
      "type": "function"
    },
    {
      "inputs": [],
      "name": "getAdmins",
      "outputs": [
        {
          "internalType": "address[]",
          "name": "",
          "type": "address[]"
        }
      ],
      "stateMutability": "view",
      "type": "function"
    },
    {
      "inputs": [],
      "name": "getAllCandidates",
      "outputs": [
        {
          "components": [
            {
              "internalType": "uint256",
              "name": "id",
              "type": "uint256"
            },
            {
              "internalType": "string",
              "name": "firstName",
              "type": "string"
            },
            {
              "internalType": "string",
              "name": "lastName",
              "type": "string"
            },
            {
              "internalType": "string",
              "name": "politicalParty",
              "type": "string"
            }
          ],
          "internalType": "struct CandidatesManager.Candidate[]",
          "name": "",
          "type": "tuple[]"
        }
      ],
      "stateMutability": "view",
      "type": "function"
    },
    {
      "inputs": [],
      "name": "getAllVoters",
      "outputs": [
        {
          "internalType": "address[]",
          "name": "",
          "type": "address[]"
        }
      ],
      "stateMutability": "view",
      "type": "function"
    },
    {
      "inputs": [
        {
          "internalType": "uint256",
          "name": "electionId",
          "type": "uint256"
        },
        {
          "internalType": "uint8",
          "name": "roundNumber",
          "type": "uint8"
        }
      ],
      "name": "getCandidateIdsForRound",
      "outputs": [
        {
          "internalType": "uint256[]",
          "name": "",
          "type": "uint256[]"
        }
      ],
      "stateMutability": "view",
      "type": "function"
    },
    {
      "inputs": [
        {
          "internalType": "uint256",
          "name": "electionId",
          "type": "uint256"
        },
        {
          "internalType": "uint8",
          "name": "round",
          "type": "uint8"
        }
      ],
      "name": "getElectionRoundResults",
      "outputs": [
        {
          "internalType": "uint256",
          "name": "totalVotes",
          "type": "uint256"
        },
        {
          "internalType": "uint256[]",
          "name": "candidateIds",
          "type": "uint256[]"
        },
        {
          "internalType": "uint256[]",
          "name": "votesPerCandidate",
          "type": "uint256[]"
        },
        {
          "internalType": "uint256",
          "name": "startDate",
          "type": "uint256"
        },
        {
          "internalType": "uint256",
          "name": "endDate",
          "type": "uint256"
        }
      ],
      "stateMutability": "view",
      "type": "function"
    },
    {
      "inputs": [
        {
          "internalType": "uint256",
          "name": "_electionId",
          "type": "uint256"
        },
        {
          "internalType": "uint8",
          "name": "_round",
          "type": "uint8"
        }
      ],
      "name": "getRoundResults",
      "outputs": [
        {
          "internalType": "uint256",
          "name": "totalVotes",
          "type": "uint256"
        },
        {
          "internalType": "uint256[]",
          "name": "candidateIds",
          "type": "uint256[]"
        },
        {
          "internalType": "uint256[]",
          "name": "votesPerCandidate",
          "type": "uint256[]"
        },
        {
          "internalType": "uint256",
          "name": "startDate",
          "type": "uint256"
        },
        {
          "internalType": "uint256",
          "name": "endDate",
          "type": "uint256"
        }
      ],
      "stateMutability": "view",
      "type": "function"
    },
    {
      "inputs": [
        {
          "internalType": "address",
          "name": "_admin",
          "type": "address"
        }
      ],
      "name": "removeAdmin",
      "outputs": [],
      "stateMutability": "nonpayable",
      "type": "function"
    },
    {
      "inputs": [
        {
          "internalType": "address",
          "name": "_voter",
          "type": "address"
        }
      ],
      "name": "removeVoter",
      "outputs": [],
      "stateMutability": "nonpayable",
      "type": "function"
    },
    {
      "inputs": [
        {
          "internalType": "uint256",
          "name": "",
          "type": "uint256"
        },
        {
          "internalType": "uint8",
          "name": "",
          "type": "uint8"
        },
        {
          "internalType": "uint256",
          "name": "",
          "type": "uint256"
        }
      ],
      "name": "roundCandidateVotes",
      "outputs": [
        {
          "internalType": "uint256",
          "name": "",
          "type": "uint256"
        }
      ],
      "stateMutability": "view",
      "type": "function"
    },
    {
      "inputs": [
        {
          "internalType": "uint256",
          "name": "",
          "type": "uint256"
        },
        {
          "internalType": "uint8",
          "name": "",
          "type": "uint8"
        },
        {
          "internalType": "address",
          "name": "",
          "type": "address"
        }
      ],
      "name": "roundHasVoted",
      "outputs": [
        {
          "internalType": "bool",
          "name": "",
          "type": "bool"
        }
      ],
      "stateMutability": "view",
      "type": "function"
    },
    {
      "inputs": [
        {
          "internalType": "address",
          "name": "_newHolder",
          "type": "address"
        }
      ],
      "name": "transferOwnership",
      "outputs": [],
      "stateMutability": "nonpayable",
      "type": "function"
    },
    {
      "inputs": [
        {
          "internalType": "uint256",
          "name": "",
          "type": "uint256"
        }
      ],
      "name": "voterList",
      "outputs": [
        {
          "internalType": "address",
          "name": "",
          "type": "address"
        }
      ],
      "stateMutability": "view",
      "type": "function"
    },
    {
      "inputs": [
        {
          "internalType": "address",
          "name": "",
          "type": "address"
        }
      ],
      "name": "voters",
      "outputs": [
        {
          "internalType": "bool",
          "name": "isRegistered",
          "type": "bool"
        },
        {
          "internalType": "uint256",
          "name": "registrationTime",
          "type": "uint256"
        }
      ],
      "stateMutability": "view",
      "type": "function"
    },
    {
      "inputs": [
        {
          "internalType": "uint256",
          "name": "",
          "type": "uint256"
        },
        {
          "internalType": "uint8",
          "name": "",
          "type": "uint8"
        },
        {
          "internalType": "uint256",
          "name": "",
          "type": "uint256"
        }
      ],
      "name": "votersByRound",
      "outputs": [
        {
          "internalType": "address",
          "name": "",
          "type": "address"
        }
      ],
      "stateMutability": "view",
      "type": "function"
    },
    {
      "inputs": [
        {
          "internalType": "uint256",
          "name": "",
          "type": "uint256"
        },
        {
          "internalType": "uint8",
          "name": "",
          "type": "uint8"
        },
        {
          "internalType": "address",
          "name": "",
          "type": "address"
        }
      ],
      "name": "votes",
      "outputs": [
        {
          "internalType": "uint256",
          "name": "candidateId",
          "type": "uint256"
        },
        {
          "internalType": "uint256",
          "name": "timestamp",
          "type": "uint256"
        }
      ],
      "stateMutability": "view",
      "type": "function"
    }
  ],
  "bytecode": "0x608060405234801561001057600080fd5b5033600d60006101000a81548173ffffffffffffffffffffffffffffffffffffffff021916908373ffffffffffffffffffffffffffffffffffffffff1602179055506001600e60003373ffffffffffffffffffffffffffffffffffffffff1673ffffffffffffffffffffffffffffffffffffffff16815260200190815260200160002060006101000a81548160ff021916908315150217905550600f339080600181540180825580915050600190039060005260206000200160009091909190916101000a81548173ffffffffffffffffffffffffffffffffffffffff021916908373ffffffffffffffffffffffffffffffffffffffff1602179055503373ffffffffffffffffffffffffffffffffffffffff167f44d6d25963f097ad14f29f06854a01f575648a1ef82f30e562ccd3889717e33960405160405180910390a26040518060800160405280600081526020016040518060400160405280600481526020017f566f74650000000000000000000000000000000000000000000000000000000081525081526020016040518060400160405280600581526020017f426c616e6300000000000000000000000000000000000000000000000000000081525081526020016040518060400160405280600581526020017f417563756e0000000000000000000000000000000000000000000000000000008152508152506002600080815260200190815260200160002060008201518160000155602082015181600101908161024391906104c8565b50604082015181600201908161025991906104c8565b50606082015181600301908161026f91906104c8565b5090505061059a565b600081519050919050565b7f4e487b7100000000000000000000000000000000000000000000000000000000600052604160045260246000fd5b7f4e487b7100000000000000000000000000000000000000000000000000000000600052602260045260246000fd5b600060028204905060018216806102f957607f821691505b60208210810361030c5761030b6102b2565b5b50919050565b60008190508160005260206000209050919050565b60006020601f8301049050919050565b600082821b905092915050565b6000600883026103747fffffffffffffffffffffffffffffffffffffffffffffffffffffffffffffffff82610337565b61037e8683610337565b95508019841693508086168417925050509392505050565b6000819050919050565b6000819050919050565b60006103c56103c06103bb84610396565b6103a0565b610396565b9050919050565b6000819050919050565b6103df836103aa565b6103f36103eb826103cc565b848454610344565b825550505050565b600090565b6104086103fb565b6104138184846103d6565b505050565b5b818110156104375761042c600082610400565b600181019050610419565b5050565b601f82111561047c5761044d81610312565b61045684610327565b81016020851015610465578190505b61047961047185610327565b830182610418565b50505b505050565b600082821c905092915050565b600061049f60001984600802610481565b1980831691505092915050565b60006104b8838361048e565b9150826002028217905092915050565b6104d182610278565b67ffffffffffffffff8111156104ea576104e9610283565b5b6104f482546102e1565b6104ff82828561043b565b600060209050601f8311600181146105325760008415610520578287015190505b61052a85826104ac565b865550610592565b601f19841661054086610312565b60005b8281101561056857848901518255600182019150602085019450602081019050610543565b868310156105855784890151610581601f89168261048e565b8355505b6001600288020188555050505b505050505050565b61565c806105a96000396000f3fe608060405234801561001057600080fd5b50600436106101e45760003560e01c80637351f0f21161010f578063ab95a7dd116100a2578063e684cbf911610071578063e684cbf91461062d578063f01345661461065d578063f2fde38b1461068d578063f4ab9adf146106a9576101e4565b8063ab95a7dd14610580578063ad71f8dc146105b0578063b04e523e146105cc578063caf1475d146105fc576101e4565b80639ed3e95e116100de5780639ed3e95e146104c8578063a298cbc1146104fc578063a3ec138d1461051a578063aa82ae791461054b576101e4565b80637351f0f21461042a5780637bf39e121461045e57806386c1ff681461048e5780639a74c695146104aa576101e4565b806335bbe70e1161018757806355af47881161015657806355af47881461038c5780635e6fef01146103a85780636546d5fd146103de578063704802751461040e576101e4565b806335bbe70e146102de578063429b62e5146102fc57806350e2e8af1461032c578063545458c81461035c576101e4565b80632d35a8a2116101c35780632d35a8a2146102515780632e6997fe1461026f57806331ae450b1461028d5780633477ee2e146102ab576101e4565b80623eee01146101e95780631785f53c146102195780632c0a3f8914610235575b600080fd5b61020360048036038101906101fe9190613a26565b6106c5565b6040516102109190613a6e565b60405180910390f35b610233600480360381019061022e9190613ae7565b6106df565b005b61024f600480360381019061024a9190613b14565b610a20565b005b610259610f7d565b6040516102669190613b63565b60405180910390f35b610277610f83565b6040516102849190613d50565b60405180910390f35b61029561120e565b6040516102a29190613e30565b60405180910390f35b6102c560048036038101906102c09190613a26565b61129c565b6040516102d59493929190613e9c565b60405180910390f35b6102e6611464565b6040516102f39190613e30565b60405180910390f35b61031660048036038101906103119190613ae7565b6114f2565b6040516103239190613a6e565b60405180910390f35b61034660048036038101906103419190613a26565b611512565b6040516103539190613f05565b60405180910390f35b61037660048036038101906103719190613b14565b611551565b6040516103839190613b63565b60405180910390f35b6103a660048036038101906103a19190613f4c565b611576565b005b6103c260048036038101906103bd9190613a26565b611fde565b6040516103d59796959493929190613fa8565b60405180910390f35b6103f860048036038101906103f39190614043565b61203a565b6040516104059190614132565b60405180910390f35b61042860048036038101906104239190613ae7565b6120c0565b005b610444600480360381019061043f9190614043565b61234d565b604051610455959493929190614154565b60405180910390f35b610478600480360381019061047391906141b5565b612373565b6040516104859190613a6e565b60405180910390f35b6104a860048036038101906104a39190613ae7565b6123af565b005b6104b26126f5565b6040516104bf9190613b63565b60405180910390f35b6104e260048036038101906104dd9190614043565b6126fb565b6040516104f3959493929190614154565b60405180910390f35b6105046128d9565b6040516105119190613f05565b60405180910390f35b610534600480360381019061052f9190613ae7565b6128ff565b604051610542929190614208565b60405180910390f35b61056560048036038101906105609190614043565b612930565b60405161057796959493929190614231565b60405180910390f35b61059a60048036038101906105959190614292565b612993565b6040516105a79190613f05565b60405180910390f35b6105ca60048036038101906105c5919061441a565b6129ee565b005b6105e660048036038101906105e19190613b14565b612c17565b6040516105f39190613b63565b60405180910390f35b610616600480360381019061061191906141b5565b612c48565b6040516106249291906144c1565b60405180910390f35b61064760048036038101906106429190614292565b612c86565b6040516106549190613b63565b60405180910390f35b6106776004803603810190610672919061454a565b612cb8565b6040516106849190613b63565b60405180910390f35b6106a760048036038101906106a29190613ae7565b612d5c565b005b6106c360048036038101906106be9190613ae7565b612f1b565b005b600080821180156106d857506004548211155b9050919050565b600d60009054906101000a900473ffffffffffffffffffffffffffffffffffffffff1673ffffffffffffffffffffffffffffffffffffffff163373ffffffffffffffffffffffffffffffffffffffff161461076f576040517f08c379a00000000000000000000000000000000000000000000000000000000081526004016107669061460a565b60405180910390fd5b600e60008273ffffffffffffffffffffffffffffffffffffffff1673ffffffffffffffffffffffffffffffffffffffff16815260200190815260200160002060009054906101000a900460ff166107fb576040517f08c379a00000000000000000000000000000000000000000000000000000000081526004016107f290614676565b60405180910390fd5b6000600e60008373ffffffffffffffffffffffffffffffffffffffff1673ffffffffffffffffffffffffffffffffffffffff16815260200190815260200160002060006101000a81548160ff02191690831515021790555060005b600f805490508110156109d9578173ffffffffffffffffffffffffffffffffffffffff16600f828154811061088e5761088d614696565b5b9060005260206000200160009054906101000a900473ffffffffffffffffffffffffffffffffffffffff1673ffffffffffffffffffffffffffffffffffffffff16036109cc57600f6001600f805490506108e891906146f4565b815481106108f9576108f8614696565b5b9060005260206000200160009054906101000a900473ffffffffffffffffffffffffffffffffffffffff16600f828154811061093857610937614696565b5b9060005260206000200160006101000a81548173ffffffffffffffffffffffffffffffffffffffff021916908373ffffffffffffffffffffffffffffffffffffffff160217905550600f80548061099257610991614728565b5b6001900381819060005260206000200160006101000a81549073ffffffffffffffffffffffffffffffffffffffff021916905590556109d9565b8080600101915050610856565b508073ffffffffffffffffffffffffffffffffffffffff167fa3b62bc36326052d97ea62d63c3d60308ed4c3ea8ac079dd8499f1e9c4f80c0f60405160405180910390a250565b600160003373ffffffffffffffffffffffffffffffffffffffff1673ffffffffffffffffffffffffffffffffffffffff16815260200190815260200160002060000160009054906101000a900460ff16610aaf576040517f08c379a0000000000000000000000000000000000000000000000000000000008152600401610aa6906147a3565b60405180910390fd5b60006006600084815260200190815260200160002090508060050160009054906101000a900460ff16610b17576040517f08c379a0000000000000000000000000000000000000000000000000000000008152600401610b0e9061480f565b60405180910390fd5b60008160050160019054906101000a900460ff16905060006007600086815260200190815260200160002060008360ff1660ff16815260200190815260200160002090508060010154421015610ba2576040517f08c379a0000000000000000000000000000000000000000000000000000000008152600401610b999061487b565b60405180910390fd5b8060020154421115610be9576040517f08c379a0000000000000000000000000000000000000000000000000000000008152600401610be0906148e7565b60405180910390fd5b600a600086815260200190815260200160002060008360ff1660ff16815260200190815260200160002060003373ffffffffffffffffffffffffffffffffffffffff1673ffffffffffffffffffffffffffffffffffffffff16815260200190815260200160002060009054906101000a900460ff1615610c9e576040517f08c379a0000000000000000000000000000000000000000000000000000000008152600401610c9590614953565b60405180910390fd5b6000805b8260060180549050811015610cee5785836006018281548110610cc857610cc7614696565b5b906000526020600020015403610ce15760019150610cee565b8080600101915050610ca2565b5080610d2f576040517f08c379a0000000000000000000000000000000000000000000000000000000008152600401610d26906149bf565b60405180910390fd5b6001600a600088815260200190815260200160002060008560ff1660ff16815260200190815260200160002060003373ffffffffffffffffffffffffffffffffffffffff1673ffffffffffffffffffffffffffffffffffffffff16815260200190815260200160002060006101000a81548160ff0219169083151502179055506008600087815260200190815260200160002060008460ff1660ff16815260200190815260200160002060008681526020019081526020016000206000815480929190610dfb906149df565b9190505550816004016000815480929190610e15906149df565b91905055506040518060400160405280868152602001428152506010600088815260200190815260200160002060008560ff1660ff16815260200190815260200160002060003373ffffffffffffffffffffffffffffffffffffffff1673ffffffffffffffffffffffffffffffffffffffff16815260200190815260200160002060008201518160000155602082015181600101559050506009600087815260200190815260200160002060008460ff1660ff168152602001908152602001600020339080600181540180825580915050600190039060005260206000200160009091909190916101000a81548173ffffffffffffffffffffffffffffffffffffffff021916908373ffffffffffffffffffffffffffffffffffffffff16021790555084867ff1f3396e31d1dbd068c4e6169959218fe5ae731d73149dd82edc33beca09f22a853342604051610f6d93929190614a27565b60405180910390a3505050505050565b60045481565b606060006001600454610f969190614a5e565b67ffffffffffffffff811115610faf57610fae6142ef565b5b604051908082528060200260200182016040528015610fe857816020015b610fd56138c9565b815260200190600190039081610fcd5790505b50905060005b600454811161120657600260008281526020019081526020016000206040518060800160405290816000820154815260200160018201805461102f90614ac1565b80601f016020809104026020016040519081016040528092919081815260200182805461105b90614ac1565b80156110a85780601f1061107d576101008083540402835291602001916110a8565b820191906000526020600020905b81548152906001019060200180831161108b57829003601f168201915b505050505081526020016002820180546110c190614ac1565b80601f01602080910402602001604051908101604052809291908181526020018280546110ed90614ac1565b801561113a5780601f1061110f5761010080835404028352916020019161113a565b820191906000526020600020905b81548152906001019060200180831161111d57829003601f168201915b5050505050815260200160038201805461115390614ac1565b80601f016020809104026020016040519081016040528092919081815260200182805461117f90614ac1565b80156111cc5780601f106111a1576101008083540402835291602001916111cc565b820191906000526020600020905b8154815290600101906020018083116111af57829003601f168201915b5050505050815250508282815181106111e8576111e7614696565b5b602002602001018190525080806111fe906149df565b915050610fee565b508091505090565b6060600f80548060200260200160405190810160405280929190818152602001828054801561129257602002820191906000526020600020905b8160009054906101000a900473ffffffffffffffffffffffffffffffffffffffff1673ffffffffffffffffffffffffffffffffffffffff1681526020019060010190808311611248575b5050505050905090565b60026020528060005260406000206000915090508060000154908060010180546112c590614ac1565b80601f01602080910402602001604051908101604052809291908181526020018280546112f190614ac1565b801561133e5780601f106113135761010080835404028352916020019161133e565b820191906000526020600020905b81548152906001019060200180831161132157829003601f168201915b50505050509080600201805461135390614ac1565b80601f016020809104026020016040519081016040528092919081815260200182805461137f90614ac1565b80156113cc5780601f106113a1576101008083540402835291602001916113cc565b820191906000526020600020905b8154815290600101906020018083116113af57829003601f168201915b5050505050908060030180546113e190614ac1565b80601f016020809104026020016040519081016040528092919081815260200182805461140d90614ac1565b801561145a5780601f1061142f5761010080835404028352916020019161145a565b820191906000526020600020905b81548152906001019060200180831161143d57829003601f168201915b5050505050905084565b606060008054806020026020016040519081016040528092919081815260200182805480156114e857602002820191906000526020600020905b8160009054906101000a900473ffffffffffffffffffffffffffffffffffffffff1673ffffffffffffffffffffffffffffffffffffffff168152602001906001019080831161149e575b5050505050905090565b600e6020528060005260406000206000915054906101000a900460ff1681565b6000818154811061152257600080fd5b906000526020600020016000915054906101000a900473ffffffffffffffffffffffffffffffffffffffff1681565b600c602052816000526040600020602052806000526040600020600091509150505481565b600060066000848152602001908152602001600020905060008160050160019054906101000a900460ff16905060006007600086815260200190815260200160002060008360ff1660ff16815260200190815260200160002090508361161d578060020154421161161c576040517f08c379a000000000000000000000000000000000000000000000000000000000815260040161161390614b3e565b60405180910390fd5b5b8060030160009054906101000a900460ff161561166f576040517f08c379a000000000000000000000000000000000000000000000000000000000815260040161166690614baa565b60405180910390fd5b60006008600087815260200190815260200160002060008460ff1660ff16815260200190815260200160002060008081526020019081526020016000205482600401546116bc91906146f4565b905060006116ca878561316f565b905060018460ff1603611abf5760008211801561170257506032826116ef9190614bca565b606482600001516117009190614bca565b115b8015611712575060018160600151145b156117a4578060400151856006018190555060018360030160006101000a81548160ff021916908315150217905550867f3a9cda69ee0d6dfee4acf22426df9b50f9af0d2acd191bd409070a7a51c3ac7b856001846040015160405161177a93929190614c0c565b60405180910390a260008560050160006101000a81548160ff021916908315150217905550611aba565b60006001856117b39190614c43565b9050808660050160016101000a81548160ff021916908360ff1602179055506000600760008a815260200190815260200160002060008360ff1660ff1681526020019081526020016000209050818160000160006101000a81548160ff021916908360ff1602179055504281600101819055508660030154426118369190614a5e565b816002018190555060606001846060015111156118fc57836060015167ffffffffffffffff81111561186b5761186a6142ef565b5b6040519080825280602002602001820160405280156118995781602001602082028036833780820191505090505b50905060005b84606001518110156118f657846080015181815181106118c2576118c1614696565b5b60200260200101518282815181106118dd576118dc614696565b5b602002602001018181525050808060010191505061189f565b50611966565b6119638a88866040015187602001518a60060180548060200260200160405190810160405280929190818152602001828054801561195957602002820191906000526020600020905b815481526020019060010190808311611945575b505050505061339e565b90505b6000600182516119769190614a5e565b67ffffffffffffffff81111561198f5761198e6142ef565b5b6040519080825280602002602001820160405280156119bd5781602001602082028036833780820191505090505b5090506000816000815181106119d6576119d5614696565b5b60200260200101818152505060005b8251811015611a4157828181518110611a0157611a00614696565b5b602002602001015182600183611a179190614a5e565b81518110611a2857611a27614696565b5b60200260200101818152505080806001019150506119e5565b5080836006019080519060200190611a5a9291906138f1565b5060018760030160006101000a81548160ff0219169083151502179055508a7f3a9cda69ee0d6dfee4acf22426df9b50f9af0d2acd191bd409070a7a51c3ac7b89600080604051611aad93929190614cbd565b60405180910390a2505050505b611fd5565b60028460ff1603611e02576001816060015103611b63578060400151856006018190555060018360030160006101000a81548160ff021916908315150217905550867f3a9cda69ee0d6dfee4acf22426df9b50f9af0d2acd191bd409070a7a51c3ac7b8560018460400151604051611b3993929190614c0c565b60405180910390a260008560050160006101000a81548160ff021916908315150217905550611dfd565b6000600185611b729190614c43565b9050808660050160016101000a81548160ff021916908360ff1602179055506000600760008a815260200190815260200160002060008360ff1660ff1681526020019081526020016000209050818160000160006101000a81548160ff021916908360ff160217905550428160010181905550866003015442611bf59190614a5e565b81600201819055506000836060015167ffffffffffffffff811115611c1d57611c1c6142ef565b5b604051908082528060200260200182016040528015611c4b5781602001602082028036833780820191505090505b50905060005b8460600151811015611ca85784608001518181518110611c7457611c73614696565b5b6020026020010151828281518110611c8f57611c8e614696565b5b6020026020010181815250508080600101915050611c51565b50600060018251611cb99190614a5e565b67ffffffffffffffff811115611cd257611cd16142ef565b5b604051908082528060200260200182016040528015611d005781602001602082028036833780820191505090505b509050600081600081518110611d1957611d18614696565b5b60200260200101818152505060005b8251811015611d8457828181518110611d4457611d43614696565b5b602002602001015182600183611d5a9190614a5e565b81518110611d6b57611d6a614696565b5b6020026020010181815250508080600101915050611d28565b5080836006019080519060200190611d9d9291906138f1565b5060018760030160006101000a81548160ff0219169083151502179055508a7f3a9cda69ee0d6dfee4acf22426df9b50f9af0d2acd191bd409070a7a51c3ac7b89600080604051611df093929190614cbd565b60405180910390a2505050505b611fd4565b60038460ff1603611fd3576001816060015103611ea6578060400151856006018190555060018360030160006101000a81548160ff021916908315150217905550867f3a9cda69ee0d6dfee4acf22426df9b50f9af0d2acd191bd409070a7a51c3ac7b8560018460400151604051611e7c93929190614c0c565b60405180910390a260008560050160006101000a81548160ff021916908315150217905550611fd2565b60008060005b8360600151811015611f2257600084608001518281518110611ed157611ed0614696565b5b602002602001015190506000600c60008d8152602001908152602001600020600083815260200190815260200160002054905083811115611f13578093508194505b50508080600101915050611eac565b508187600601819055508260800151600b60008b81526020019081526020016000209080519060200190611f579291906138f1565b5060018560030160006101000a81548160ff021916908315150217905550887f3a9cda69ee0d6dfee4acf22426df9b50f9af0d2acd191bd409070a7a51c3ac7b87600185604051611faa93929190614c0c565b60405180910390a260008760050160006101000a81548160ff02191690831515021790555050505b5b5b5b50505050505050565b60066020528060005260406000206000915090508060000154908060010154908060020154908060030154908060050160009054906101000a900460ff16908060050160019054906101000a900460ff16908060060154905087565b60606007600084815260200190815260200160002060008360ff1660ff1681526020019081526020016000206006018054806020026020016040519081016040528092919081815260200182805480156120b357602002820191906000526020600020905b81548152602001906001019080831161209f575b5050505050905092915050565b600d60009054906101000a900473ffffffffffffffffffffffffffffffffffffffff1673ffffffffffffffffffffffffffffffffffffffff163373ffffffffffffffffffffffffffffffffffffffff1614612150576040517f08c379a00000000000000000000000000000000000000000000000000000000081526004016121479061460a565b60405180910390fd5b600073ffffffffffffffffffffffffffffffffffffffff168173ffffffffffffffffffffffffffffffffffffffff16036121bf576040517f08c379a00000000000000000000000000000000000000000000000000000000081526004016121b690614d40565b60405180910390fd5b600e60008273ffffffffffffffffffffffffffffffffffffffff1673ffffffffffffffffffffffffffffffffffffffff16815260200190815260200160002060009054906101000a900460ff161561224c576040517f08c379a000000000000000000000000000000000000000000000000000000000815260040161224390614dac565b60405180910390fd5b6001600e60008373ffffffffffffffffffffffffffffffffffffffff1673ffffffffffffffffffffffffffffffffffffffff16815260200190815260200160002060006101000a81548160ff021916908315150217905550600f819080600181540180825580915050600190039060005260206000200160009091909190916101000a81548173ffffffffffffffffffffffffffffffffffffffff021916908373ffffffffffffffffffffffffffffffffffffffff1602179055508073ffffffffffffffffffffffffffffffffffffffff167f44d6d25963f097ad14f29f06854a01f575648a1ef82f30e562ccd3889717e33960405160405180910390a250565b600060608060008061235f87876126fb565b945094509450945094509295509295909350565b600a602052826000526040600020602052816000526040600020602052806000526040600020600092509250509054906101000a900460ff1681565b600e60003373ffffffffffffffffffffffffffffffffffffffff1673ffffffffffffffffffffffffffffffffffffffff16815260200190815260200160002060009054906101000a900460ff1661243b576040517f08c379a000000000000000000000000000000000000000000000000000000000815260040161243290614e18565b60405180910390fd5b600160008273ffffffffffffffffffffffffffffffffffffffff1673ffffffffffffffffffffffffffffffffffffffff16815260200190815260200160002060000160009054906101000a900460ff166124ca576040517f08c379a00000000000000000000000000000000000000000000000000000000081526004016124c190614e84565b60405180910390fd5b600160008273ffffffffffffffffffffffffffffffffffffffff1673ffffffffffffffffffffffffffffffffffffffff168152602001908152602001600020600080820160006101000a81549060ff02191690556001820160009055505060005b6000805490508110156126ae578173ffffffffffffffffffffffffffffffffffffffff166000828154811061256357612562614696565b5b9060005260206000200160009054906101000a900473ffffffffffffffffffffffffffffffffffffffff1673ffffffffffffffffffffffffffffffffffffffff16036126a157600060016000805490506125bd91906146f4565b815481106125ce576125cd614696565b5b9060005260206000200160009054906101000a900473ffffffffffffffffffffffffffffffffffffffff166000828154811061260d5761260c614696565b5b9060005260206000200160006101000a81548173ffffffffffffffffffffffffffffffffffffffff021916908373ffffffffffffffffffffffffffffffffffffffff160217905550600080548061266757612666614728565b5b6001900381819060005260206000200160006101000a81549073ffffffffffffffffffffffffffffffffffffffff021916905590556126ae565b808060010191505061252b565b508073ffffffffffffffffffffffffffffffffffffffff167fa14a79af012d1756818f9bd59ccfc9ad185a71df86b9392d9059d9e6faf6d64460405160405180910390a250565b60055481565b600060608060008060006007600089815260200190815260200160002060008860ff1660ff168152602001908152602001600020905080600201544211612777576040517f08c379a000000000000000000000000000000000000000000000000000000000815260040161276e90614ef0565b60405180910390fd5b806004015495508060010154925080600201549150600660008981526020019081526020016000206004018054806020026020016040519081016040528092919081815260200182805480156127ec57602002820191906000526020600020905b8154815260200190600101908083116127d8575b50505050509450845167ffffffffffffffff81111561280e5761280d6142ef565b5b60405190808252806020026020018201604052801561283c5781602001602082028036833780820191505090505b50935060005b85518110156128cd57600860008a815260200190815260200160002060008960ff1660ff168152602001908152602001600020600087838151811061288a57612889614696565b5b60200260200101518152602001908152602001600020548582815181106128b4576128b3614696565b5b6020026020010181815250508080600101915050612842565b50509295509295909350565b600d60009054906101000a900473ffffffffffffffffffffffffffffffffffffffff1681565b60016020528060005260406000206000915090508060000160009054906101000a900460ff16908060010154905082565b6007602052816000526040600020602052806000526040600020600091509150508060000160009054906101000a900460ff16908060010154908060020154908060030160009054906101000a900460ff16908060040154908060050154905086565b600960205282600052604060002060205281600052604060002081815481106129bb57600080fd5b90600052602060002001600092509250509054906101000a900473ffffffffffffffffffffffffffffffffffffffff1681565b600e60003373ffffffffffffffffffffffffffffffffffffffff1673ffffffffffffffffffffffffffffffffffffffff16815260200190815260200160002060009054906101000a900460ff16612a7a576040517f08c379a0000000000000000000000000000000000000000000000000000000008152600401612a7190614e18565b60405180910390fd5b60008383604051602001612a8f929190614f98565b6040516020818303038152906040528051906020012090506003600082815260200190815260200160002060009054906101000a900460ff1615612b08576040517f08c379a0000000000000000000000000000000000000000000000000000000008152600401612aff90615013565b60405180910390fd5b60046000815480929190612b1b906149df565b91905055506040518060800160405280600454815260200185815260200184815260200183815250600260006004548152602001908152602001600020600082015181600001556020820151816001019081612b7791906151d5565b506040820151816002019081612b8d91906151d5565b506060820151816003019081612ba391906151d5565b5090505060016003600083815260200190815260200160002060006101000a81548160ff0219169083151502179055506004547f52b689af7ae3bd15a5156582545571237b58abd804c1456c3269d1b1ee93f6fc858585604051612c09939291906152a7565b60405180910390a250505050565b600b6020528160005260406000208181548110612c3357600080fd5b90600052602060002001600091509150505481565b601060205282600052604060002060205281600052604060002060205280600052604060002060009250925050508060000154908060010154905082565b600860205282600052604060002060205281600052604060002060205280600052604060002060009250925050505481565b6000600e60003373ffffffffffffffffffffffffffffffffffffffff1673ffffffffffffffffffffffffffffffffffffffff16815260200190815260200160002060009054906101000a900460ff16612d46576040517f08c379a0000000000000000000000000000000000000000000000000000000008152600401612d3d90614e18565b60405180910390fd5b612d52858585856134f3565b9050949350505050565b600d60009054906101000a900473ffffffffffffffffffffffffffffffffffffffff1673ffffffffffffffffffffffffffffffffffffffff163373ffffffffffffffffffffffffffffffffffffffff1614612dec576040517f08c379a0000000000000000000000000000000000000000000000000000000008152600401612de39061460a565b60405180910390fd5b600073ffffffffffffffffffffffffffffffffffffffff168173ffffffffffffffffffffffffffffffffffffffff1603612e5b576040517f08c379a0000000000000000000000000000000000000000000000000000000008152600401612e5290614d40565b60405180910390fd5b8073ffffffffffffffffffffffffffffffffffffffff16600d60009054906101000a900473ffffffffffffffffffffffffffffffffffffffff1673ffffffffffffffffffffffffffffffffffffffff167f8be0079c531659141344cd1fd0a4f28419497f9722a3daafe3b4186f6b6457e060405160405180910390a380600d60006101000a81548173ffffffffffffffffffffffffffffffffffffffff021916908373ffffffffffffffffffffffffffffffffffffffff16021790555050565b600e60003373ffffffffffffffffffffffffffffffffffffffff1673ffffffffffffffffffffffffffffffffffffffff16815260200190815260200160002060009054906101000a900460ff16612fa7576040517f08c379a0000000000000000000000000000000000000000000000000000000008152600401612f9e90614e18565b60405180910390fd5b600160008273ffffffffffffffffffffffffffffffffffffffff1673ffffffffffffffffffffffffffffffffffffffff16815260200190815260200160002060000160009054906101000a900460ff1615613037576040517f08c379a000000000000000000000000000000000000000000000000000000000815260040161302e9061533f565b60405180910390fd5b604051806040016040528060011515815260200142815250600160008373ffffffffffffffffffffffffffffffffffffffff1673ffffffffffffffffffffffffffffffffffffffff16815260200190815260200160002060008201518160000160006101000a81548160ff021916908315150217905550602082015181600101559050506000819080600181540180825580915050600190039060005260206000200160009091909190916101000a81548173ffffffffffffffffffffffffffffffffffffffff021916908373ffffffffffffffffffffffffffffffffffffffff1602179055508073ffffffffffffffffffffffffffffffffffffffff167f56aa1768b52ddcdda65c5561181844717c2eed4bb3c848376d4420860da04dae426040516131649190613b63565b60405180910390a250565b61317761393e565b60006007600085815260200190815260200160002060008460ff1660ff16815260200190815260200160002090506000816006018054905090508067ffffffffffffffff8111156131cb576131ca6142ef565b5b6040519080825280602002602001820160405280156131f95781602001602082028036833780820191505090505b50836080018190525060005b8181101561339557600083600601828154811061322557613224614696565b5b90600052602060002001549050600081036132405750613388565b60006008600089815260200190815260200160002060008860ff1660ff168152602001908152602001600020600083815260200190815260200160002054905085600001518111156132e357856000015186602001818152505080866000018181525050818660400181815250508186608001516000815181106132c7576132c6614696565b5b602002602001018181525050600186606001818152505061334a565b856000015181036133315781866080015187606001518151811061330a57613309614696565b5b602002602001018181525050856060018051809190613328906149df565b81525050613349565b856020015181111561334857808660200181815250505b5b5b80600c60008a81526020019081526020016000206000848152602001908152602001600020600082825461337e9190614a5e565b9250508190555050505b8080600101915050613205565b50505092915050565b606060006133ae87878686613822565b90508060016133bd9190614a5e565b67ffffffffffffffff8111156133d6576133d56142ef565b5b6040519080825280602002602001820160405280156134045781602001602082028036833780820191505090505b509150848260008151811061341c5761341b614696565b5b60200260200101818152505060006001905060005b84518110156134e757600085828151811061344f5761344e614696565b5b602002602001015190506000810361346757506134da565b86600860008c815260200190815260200160002060008b60ff1660ff168152602001908152602001600020600083815260200190815260200160002054036134d857808584815181106134bd576134bc614696565b5b60200260200101818152505082806134d4906149df565b9350505b505b8080600101915050613431565b50505095945050505050565b6000428511613537576040517f08c379a000000000000000000000000000000000000000000000000000000000815260040161352e906153ab565b60405180910390fd5b8484101561357a576040517f08c379a00000000000000000000000000000000000000000000000000000000081526004016135719061543d565b60405180910390fd5b600083839050116135c0576040517f08c379a00000000000000000000000000000000000000000000000000000000081526004016135b7906154a9565b60405180910390fd5b600560008154809291906135d3906149df565b91905055506005549050600060066000838152602001908152602001600020905081816000018190555085816001018190555084816002018190555062015180816003018190555060018160050160006101000a81548160ff02191690831515021790555060018160050160016101000a81548160ff021916908360ff1602179055506001848490506136669190614a5e565b67ffffffffffffffff81111561367f5761367e6142ef565b5b6040519080825280602002602001820160405280156136ad5781602001602082028036833780820191505090505b508160040190805190602001906136c59291906138f1565b506000816004016000815481106136df576136de614696565b5b906000526020600020018190555060005b848490508110156137525784848281811061370e5761370d614696565b5b90506020020135826004016001836137269190614a5e565b8154811061373757613736614696565b5b906000526020600020018190555080806001019150506136f0565b506000600760008481526020019081526020016000206000600160ff168152602001908152602001600020905060018160000160006101000a81548160ff021916908360ff16021790555085816001018190555062015180866137b59190614a5e565b816002018190555081600401816006019080546137d392919061396d565b50827f94d2ca1585096a82008b4e4c47222139e365b7386c639acb5562a4f8a959f4c18888620151808660040160405161381094939291906155da565b60405180910390a25050949350505050565b600080600090505b82518110156138c057600083828151811061384857613847614696565b5b602002602001015190506000810361386057506138b3565b846008600089815260200190815260200160002060008860ff1660ff168152602001908152602001600020600083815260200190815260200160002054036138b15782806138ad906149df565b9350505b505b808060010191505061382a565b50949350505050565b6040518060800160405280600081526020016060815260200160608152602001606081525090565b82805482825590600052602060002090810192821561392d579160200282015b8281111561392c578251825591602001919060010190613911565b5b50905061393a91906139bf565b5090565b6040518060a0016040528060008152602001600081526020016000815260200160008152602001606081525090565b8280548282559060005260206000209081019282156139ae5760005260206000209182015b828111156139ad578254825591600101919060010190613992565b5b5090506139bb91906139bf565b5090565b5b808211156139d85760008160009055506001016139c0565b5090565b6000604051905090565b600080fd5b600080fd5b6000819050919050565b613a03816139f0565b8114613a0e57600080fd5b50565b600081359050613a20816139fa565b92915050565b600060208284031215613a3c57613a3b6139e6565b5b6000613a4a84828501613a11565b91505092915050565b60008115159050919050565b613a6881613a53565b82525050565b6000602082019050613a836000830184613a5f565b92915050565b600073ffffffffffffffffffffffffffffffffffffffff82169050919050565b6000613ab482613a89565b9050919050565b613ac481613aa9565b8114613acf57600080fd5b50565b600081359050613ae181613abb565b92915050565b600060208284031215613afd57613afc6139e6565b5b6000613b0b84828501613ad2565b91505092915050565b60008060408385031215613b2b57613b2a6139e6565b5b6000613b3985828601613a11565b9250506020613b4a85828601613a11565b9150509250929050565b613b5d816139f0565b82525050565b6000602082019050613b786000830184613b54565b92915050565b600081519050919050565b600082825260208201905092915050565b6000819050602082019050919050565b613bb3816139f0565b82525050565b600081519050919050565b600082825260208201905092915050565b60005b83811015613bf3578082015181840152602081019050613bd8565b60008484015250505050565b6000601f19601f8301169050919050565b6000613c1b82613bb9565b613c258185613bc4565b9350613c35818560208601613bd5565b613c3e81613bff565b840191505092915050565b6000608083016000830151613c616000860182613baa565b5060208301518482036020860152613c798282613c10565b91505060408301518482036040860152613c938282613c10565b91505060608301518482036060860152613cad8282613c10565b9150508091505092915050565b6000613cc68383613c49565b905092915050565b6000602082019050919050565b6000613ce682613b7e565b613cf08185613b89565b935083602082028501613d0285613b9a565b8060005b85811015613d3e5784840389528151613d1f8582613cba565b9450613d2a83613cce565b925060208a01995050600181019050613d06565b50829750879550505050505092915050565b60006020820190508181036000830152613d6a8184613cdb565b905092915050565b600081519050919050565b600082825260208201905092915050565b6000819050602082019050919050565b613da781613aa9565b82525050565b6000613db98383613d9e565b60208301905092915050565b6000602082019050919050565b6000613ddd82613d72565b613de78185613d7d565b9350613df283613d8e565b8060005b83811015613e23578151613e0a8882613dad565b9750613e1583613dc5565b925050600181019050613df6565b5085935050505092915050565b60006020820190508181036000830152613e4a8184613dd2565b905092915050565b600082825260208201905092915050565b6000613e6e82613bb9565b613e788185613e52565b9350613e88818560208601613bd5565b613e9181613bff565b840191505092915050565b6000608082019050613eb16000830187613b54565b8181036020830152613ec38186613e63565b90508181036040830152613ed78185613e63565b90508181036060830152613eeb8184613e63565b905095945050505050565b613eff81613aa9565b82525050565b6000602082019050613f1a6000830184613ef6565b92915050565b613f2981613a53565b8114613f3457600080fd5b50565b600081359050613f4681613f20565b92915050565b60008060408385031215613f6357613f626139e6565b5b6000613f7185828601613a11565b9250506020613f8285828601613f37565b9150509250929050565b600060ff82169050919050565b613fa281613f8c565b82525050565b600060e082019050613fbd600083018a613b54565b613fca6020830189613b54565b613fd76040830188613b54565b613fe46060830187613b54565b613ff16080830186613a5f565b613ffe60a0830185613f99565b61400b60c0830184613b54565b98975050505050505050565b61402081613f8c565b811461402b57600080fd5b50565b60008135905061403d81614017565b92915050565b6000806040838503121561405a576140596139e6565b5b600061406885828601613a11565b92505060206140798582860161402e565b9150509250929050565b600081519050919050565b600082825260208201905092915050565b6000819050602082019050919050565b60006140bb8383613baa565b60208301905092915050565b6000602082019050919050565b60006140df82614083565b6140e9818561408e565b93506140f48361409f565b8060005b8381101561412557815161410c88826140af565b9750614117836140c7565b9250506001810190506140f8565b5085935050505092915050565b6000602082019050818103600083015261414c81846140d4565b905092915050565b600060a0820190506141696000830188613b54565b818103602083015261417b81876140d4565b9050818103604083015261418f81866140d4565b905061419e6060830185613b54565b6141ab6080830184613b54565b9695505050505050565b6000806000606084860312156141ce576141cd6139e6565b5b60006141dc86828701613a11565b93505060206141ed8682870161402e565b92505060406141fe86828701613ad2565b9150509250925092565b600060408201905061421d6000830185613a5f565b61422a6020830184613b54565b9392505050565b600060c0820190506142466000830189613f99565b6142536020830188613b54565b6142606040830187613b54565b61426d6060830186613a5f565b61427a6080830185613b54565b61428760a0830184613b54565b979650505050505050565b6000806000606084860312156142ab576142aa6139e6565b5b60006142b986828701613a11565b93505060206142ca8682870161402e565b92505060406142db86828701613a11565b9150509250925092565b600080fd5b600080fd5b7f4e487b7100000000000000000000000000000000000000000000000000000000600052604160045260246000fd5b61432782613bff565b810181811067ffffffffffffffff82111715614346576143456142ef565b5b80604052505050565b60006143596139dc565b9050614365828261431e565b919050565b600067ffffffffffffffff821115614385576143846142ef565b5b61438e82613bff565b9050602081019050919050565b82818337600083830152505050565b60006143bd6143b88461436a565b61434f565b9050828152602081018484840111156143d9576143d86142ea565b5b6143e484828561439b565b509392505050565b600082601f830112614401576144006142e5565b5b81356144118482602086016143aa565b91505092915050565b600080600060608486031215614433576144326139e6565b5b600084013567ffffffffffffffff811115614451576144506139eb565b5b61445d868287016143ec565b935050602084013567ffffffffffffffff81111561447e5761447d6139eb565b5b61448a868287016143ec565b925050604084013567ffffffffffffffff8111156144ab576144aa6139eb565b5b6144b7868287016143ec565b9150509250925092565b60006040820190506144d66000830185613b54565b6144e36020830184613b54565b9392505050565b600080fd5b600080fd5b60008083601f84011261450a576145096142e5565b5b8235905067ffffffffffffffff811115614527576145266144ea565b5b602083019150836020820283011115614543576145426144ef565b5b9250929050565b60008060008060608587031215614564576145636139e6565b5b600061457287828801613a11565b945050602061458387828801613a11565b935050604085013567ffffffffffffffff8111156145a4576145a36139eb565b5b6145b0878288016144f4565b925092505092959194509250565b7f4e6f7420636f6e747261637420686f6c64657200000000000000000000000000600082015250565b60006145f4601383613e52565b91506145ff826145be565b602082019050919050565b60006020820190508181036000830152614623816145e7565b9050919050565b7f4e6f742061646d696e0000000000000000000000000000000000000000000000600082015250565b6000614660600983613e52565b915061466b8261462a565b602082019050919050565b6000602082019050818103600083015261468f81614653565b9050919050565b7f4e487b7100000000000000000000000000000000000000000000000000000000600052603260045260246000fd5b7f4e487b7100000000000000000000000000000000000000000000000000000000600052601160045260246000fd5b60006146ff826139f0565b915061470a836139f0565b9250828203905081811115614722576147216146c5565b5b92915050565b7f4e487b7100000000000000000000000000000000000000000000000000000000600052603160045260246000fd5b7f4e6f742061207265676973746572656420766f74657200000000000000000000600082015250565b600061478d601683613e52565b915061479882614757565b602082019050919050565b600060208201905081810360008301526147bc81614780565b9050919050565b7f456c656374696f6e206e6f742061637469766500000000000000000000000000600082015250565b60006147f9601383613e52565b9150614804826147c3565b602082019050919050565b60006020820190508181036000830152614828816147ec565b9050919050565b7f526f756e64206e6f742073746172746564000000000000000000000000000000600082015250565b6000614865601183613e52565b91506148708261482f565b602082019050919050565b6000602082019050818103600083015261489481614858565b9050919050565b7f526f756e6420656e646564000000000000000000000000000000000000000000600082015250565b60006148d1600b83613e52565b91506148dc8261489b565b602082019050919050565b60006020820190508181036000830152614900816148c4565b9050919050565b7f416c726561647920766f74656400000000000000000000000000000000000000600082015250565b600061493d600d83613e52565b915061494882614907565b602082019050919050565b6000602082019050818103600083015261496c81614930565b9050919050565b7f496e76616c69642063616e646964617465000000000000000000000000000000600082015250565b60006149a9601183613e52565b91506149b482614973565b602082019050919050565b600060208201905081810360008301526149d88161499c565b9050919050565b60006149ea826139f0565b91507fffffffffffffffffffffffffffffffffffffffffffffffffffffffffffffffff8203614a1c57614a1b6146c5565b5b600182019050919050565b6000606082019050614a3c6000830186613f99565b614a496020830185613ef6565b614a566040830184613b54565b949350505050565b6000614a69826139f0565b9150614a74836139f0565b9250828201905080821115614a8c57614a8b6146c5565b5b92915050565b7f4e487b7100000000000000000000000000000000000000000000000000000000600052602260045260246000fd5b60006002820490506001821680614ad957607f821691505b602082108103614aec57614aeb614a92565b5b50919050565b7f526f756e64206e6f7420656e6465640000000000000000000000000000000000600082015250565b6000614b28600f83613e52565b9150614b3382614af2565b602082019050919050565b60006020820190508181036000830152614b5781614b1b565b9050919050565b7f526f756e6420616c72656164792066696e616c697a6564000000000000000000600082015250565b6000614b94601783613e52565b9150614b9f82614b5e565b602082019050919050565b60006020820190508181036000830152614bc381614b87565b9050919050565b6000614bd5826139f0565b9150614be0836139f0565b9250828202614bee816139f0565b91508282048414831517614c0557614c046146c5565b5b5092915050565b6000606082019050614c216000830186613f99565b614c2e6020830185613a5f565b614c3b6040830184613b54565b949350505050565b6000614c4e82613f8c565b9150614c5983613f8c565b9250828201905060ff811115614c7257614c716146c5565b5b92915050565b6000819050919050565b6000819050919050565b6000614ca7614ca2614c9d84614c78565b614c82565b6139f0565b9050919050565b614cb781614c8c565b82525050565b6000606082019050614cd26000830186613f99565b614cdf6020830185613a5f565b614cec6040830184614cae565b949350505050565b7f496e76616c696420616464726573730000000000000000000000000000000000600082015250565b6000614d2a600f83613e52565b9150614d3582614cf4565b602082019050919050565b60006020820190508181036000830152614d5981614d1d565b9050919050565b7f416c72656164792061646d696e00000000000000000000000000000000000000600082015250565b6000614d96600d83613e52565b9150614da182614d60565b602082019050919050565b60006020820190508181036000830152614dc581614d89565b9050919050565b7f4e6f7420616e2061646d696e0000000000000000000000000000000000000000600082015250565b6000614e02600c83613e52565b9150614e0d82614dcc565b602082019050919050565b60006020820190508181036000830152614e3181614df5565b9050919050565b7f566f746572206e6f742072656769737465726564000000000000000000000000600082015250565b6000614e6e601483613e52565b9150614e7982614e38565b602082019050919050565b60006020820190508181036000830152614e9d81614e61565b9050919050565b7f526f756e64206e6f74206f766572207965740000000000000000000000000000600082015250565b6000614eda601283613e52565b9150614ee582614ea4565b602082019050919050565b60006020820190508181036000830152614f0981614ecd565b9050919050565b600081905092915050565b6000614f2682613bb9565b614f308185614f10565b9350614f40818560208601613bd5565b80840191505092915050565b7f7c00000000000000000000000000000000000000000000000000000000000000600082015250565b6000614f82600183614f10565b9150614f8d82614f4c565b600182019050919050565b6000614fa48285614f1b565b9150614faf82614f75565b9150614fbb8284614f1b565b91508190509392505050565b7f43616e64696461746520616c7265616479206578697374730000000000000000600082015250565b6000614ffd601883613e52565b915061500882614fc7565b602082019050919050565b6000602082019050818103600083015261502c81614ff0565b9050919050565b60008190508160005260206000209050919050565b60006020601f8301049050919050565b600082821b905092915050565b6000600883026150957fffffffffffffffffffffffffffffffffffffffffffffffffffffffffffffffff82615058565b61509f8683615058565b95508019841693508086168417925050509392505050565b60006150d26150cd6150c8846139f0565b614c82565b6139f0565b9050919050565b6000819050919050565b6150ec836150b7565b6151006150f8826150d9565b848454615065565b825550505050565b600090565b615115615108565b6151208184846150e3565b505050565b5b818110156151445761513960008261510d565b600181019050615126565b5050565b601f8211156151895761515a81615033565b61516384615048565b81016020851015615172578190505b61518661517e85615048565b830182615125565b50505b505050565b600082821c905092915050565b60006151ac6000198460080261518e565b1980831691505092915050565b60006151c5838361519b565b9150826002028217905092915050565b6151de82613bb9565b67ffffffffffffffff8111156151f7576151f66142ef565b5b6152018254614ac1565b61520c828285615148565b600060209050601f83116001811461523f576000841561522d578287015190505b61523785826151b9565b86555061529f565b601f19841661524d86615033565b60005b8281101561527557848901518255600182019150602085019450602081019050615250565b86831015615292578489015161528e601f89168261519b565b8355505b6001600288020188555050505b505050505050565b600060608201905081810360008301526152c18186613e63565b905081810360208301526152d58185613e63565b905081810360408301526152e98184613e63565b9050949350505050565b7f566f74657220616c726561647920726567697374657265640000000000000000600082015250565b6000615329601883613e52565b9150615334826152f3565b602082019050919050565b600060208201905081810360008301526153588161531c565b9050919050565b7f456c656374696f6e206d75737420626520696e20667574757265000000000000600082015250565b6000615395601a83613e52565b91506153a08261535f565b602082019050919050565b600060208201905081810360008301526153c481615388565b9050919050565b7f466972737420726f756e64206d75737420626520616674657220656c6563746960008201527f6f6e207374617274000000000000000000000000000000000000000000000000602082015250565b6000615427602883613e52565b9150615432826153cb565b604082019050919050565b600060208201905081810360008301526154568161541a565b9050919050565b7f4174206c65617374206f6e652063616e64696461746500000000000000000000600082015250565b6000615493601683613e52565b915061549e8261545d565b602082019050919050565b600060208201905081810360008301526154c281615486565b9050919050565b6000819050919050565b60006154ee6154e96154e4846154c9565b614c82565b6139f0565b9050919050565b6154fe816154d3565b82525050565b600081549050919050565b60008190508160005260206000209050919050565b60008160001c9050919050565b6000819050919050565b600061554e61554983615524565b615531565b9050919050565b6000615561825461553b565b9050919050565b6000600182019050919050565b600061558082615504565b61558a818561408e565b93506155958361550f565b8060005b838110156155cd576155aa82615555565b6155b488826140af565b97506155bf83615568565b925050600181019050615599565b5085935050505092915050565b60006080820190506155ef6000830187613b54565b6155fc6020830186613b54565b61560960408301856154f5565b818103606083015261561b8184615575565b90509594505050505056fea2646970667358221220f6c1ccc8ca27c1f6204b859a27ba16990d9f9b425dd90d82160035fbf6e026dd64736f6c634300081c0033",
  "linkReferences": {},
  "deployedLinkReferences": {}
}