{
  "_format": "hh-sol-artifact-1",
  "contractName": "PresidentialElection",
  "sourceName": "contracts/PresidentialElection.sol",
  "abi": [
    {
      "anonymous": false,
      "inputs": [
        {
          "indexed": true,
          "internalType": "address",
          "name": "admin",
          "type": "address"
        }
      ],
      "name": "AdminAdded",
      "type": "event"
    },
    {
      "anonymous": false,
      "inputs": [
        {
          "indexed": true,
          "internalType": "address",
          "name": "admin",
          "type": "address"
        }
      ],
      "name": "AdminRemoved",
      "type": "event"
    },
    {
      "anonymous": false,
      "inputs": [
        {
          "indexed": true,
          "internalType": "uint256",
          "name": "candidateId",
          "type": "uint256"
        },
        {
          "indexed": false,
          "internalType": "string",
          "name": "firstName",
          "type": "string"
        },
        {
          "indexed": false,
          "internalType": "string",
          "name": "lastName",
          "type": "string"
        },
        {
          "indexed": false,
          "internalType": "string",
          "name": "politicalParty",
          "type": "string"
        }
      ],
      "name": "CandidateAdded",
      "type": "event"
    },
    {
      "anonymous": false,
      "inputs": [
        {
          "indexed": true,
          "internalType": "uint256",
          "name": "electionId",
          "type": "uint256"
        },
        {
          "indexed": false,
          "internalType": "uint256",
          "name": "electionStartDate",
          "type": "uint256"
        },
        {
          "indexed": false,
          "internalType": "uint256",
          "name": "firstRoundStartDate",
          "type": "uint256"
        },
        {
          "indexed": false,
          "internalType": "uint256",
          "name": "roundDuration",
          "type": "uint256"
        },
        {
          "indexed": false,
          "internalType": "uint256[]",
          "name": "candidateIds",
          "type": "uint256[]"
        }
      ],
      "name": "ElectionCreated",
      "type": "event"
    },
    {
      "anonymous": false,
      "inputs": [
        {
          "indexed": true,
          "internalType": "address",
          "name": "previousHolder",
          "type": "address"
        },
        {
          "indexed": true,
          "internalType": "address",
          "name": "newHolder",
          "type": "address"
        }
      ],
      "name": "OwnershipTransferred",
      "type": "event"
    },
    {
      "anonymous": false,
      "inputs": [
        {
          "indexed": true,
          "internalType": "uint256",
          "name": "electionId",
          "type": "uint256"
        },
        {
          "indexed": false,
          "internalType": "uint8",
          "name": "round",
          "type": "uint8"
        },
        {
          "indexed": false,
          "internalType": "bool",
          "name": "finished",
          "type": "bool"
        },
        {
          "indexed": false,
          "internalType": "uint256",
          "name": "winnerCandidateId",
          "type": "uint256"
        }
      ],
      "name": "RoundFinalized",
      "type": "event"
    },
    {
      "anonymous": false,
      "inputs": [
        {
          "indexed": true,
          "internalType": "uint256",
          "name": "electionId",
          "type": "uint256"
        },
        {
          "indexed": false,
          "internalType": "uint8",
          "name": "round",
          "type": "uint8"
        },
        {
          "indexed": true,
          "internalType": "uint256",
          "name": "candidateId",
          "type": "uint256"
        },
        {
          "indexed": false,
          "internalType": "address",
          "name": "voter",
          "type": "address"
        },
        {
          "indexed": false,
          "internalType": "uint256",
          "name": "timestamp",
          "type": "uint256"
        }
      ],
      "name": "VoteCast",
      "type": "event"
    },
    {
      "anonymous": false,
      "inputs": [
        {
          "indexed": true,
          "internalType": "address",
          "name": "voter",
          "type": "address"
        },
        {
          "indexed": false,
          "internalType": "uint256",
          "name": "registrationTime",
          "type": "uint256"
        }
      ],
      "name": "VoterAdded",
      "type": "event"
    },
    {
      "anonymous": false,
      "inputs": [
        {
          "indexed": true,
          "internalType": "address",
          "name": "voter",
          "type": "address"
        }
      ],
      "name": "VoterRemoved",
      "type": "event"
    },
    {
      "inputs": [
        {
          "internalType": "address",
          "name": "_admin",
          "type": "address"
        }
      ],
      "name": "addAdmin",
      "outputs": [],
      "stateMutability": "nonpayable",
      "type": "function"
    },
    {
      "inputs": [
        {
          "internalType": "string",
          "name": "_firstName",
          "type": "string"
        },
        {
          "internalType": "string",
          "name": "_lastName",
          "type": "string"
        },
        {
          "internalType": "string",
          "name": "_politicalParty",
          "type": "string"
        }
      ],
      "name": "addCandidate",
      "outputs": [],
      "stateMutability": "nonpayable",
      "type": "function"
    },
    {
      "inputs": [
        {
          "internalType": "address",
          "name": "_voter",
          "type": "address"
        }
      ],
      "name": "addVoter",
      "outputs": [],
      "stateMutability": "nonpayable",
      "type": "function"
    },
    {
      "inputs": [
        {
          "internalType": "address",
          "name": "",
          "type": "address"
        }
      ],
      "name": "admins",
      "outputs": [
        {
          "internalType": "bool",
          "name": "",
          "type": "bool"
        }
      ],
      "stateMutability": "view",
      "type": "function"
    },
    {
      "inputs": [
        {
          "internalType": "uint256",
          "name": "candidateId",
          "type": "uint256"
        }
      ],
      "name": "candidateExistsById",
      "outputs": [
        {
          "internalType": "bool",
          "name": "",
          "type": "bool"
        }
      ],
      "stateMutability": "view",
      "type": "function"
    },
    {
      "inputs": [
        {
          "internalType": "uint256",
          "name": "",
          "type": "uint256"
        },
        {
          "internalType": "uint256",
          "name": "",
          "type": "uint256"
        }
      ],
      "name": "candidateTotalVotes",
      "outputs": [
        {
          "internalType": "uint256",
          "name": "",
          "type": "uint256"
        }
      ],
      "stateMutability": "view",
      "type": "function"
    },
    {
      "inputs": [
        {
          "internalType": "uint256",
          "name": "",
          "type": "uint256"
        }
      ],
      "name": "candidates",
      "outputs": [
        {
          "internalType": "uint256",
          "name": "id",
          "type": "uint256"
        },
        {
          "internalType": "string",
          "name": "firstName",
          "type": "string"
        },
        {
          "internalType": "string",
          "name": "lastName",
          "type": "string"
        },
        {
          "internalType": "string",
          "name": "politicalParty",
          "type": "string"
        }
      ],
      "stateMutability": "view",
      "type": "function"
    },
    {
      "inputs": [],
      "name": "candidatesCount",
      "outputs": [
        {
          "internalType": "uint256",
          "name": "",
          "type": "uint256"
        }
      ],
      "stateMutability": "view",
      "type": "function"
    },
    {
      "inputs": [
        {
          "internalType": "uint256",
          "name": "electionId",
          "type": "uint256"
        },
        {
          "internalType": "uint256",
          "name": "candidateId",
          "type": "uint256"
        }
      ],
      "name": "castVote",
      "outputs": [],
      "stateMutability": "nonpayable",
      "type": "function"
    },
    {
      "inputs": [],
      "name": "contractHolder",
      "outputs": [
        {
          "internalType": "address",
          "name": "",
          "type": "address"
        }
      ],
      "stateMutability": "view",
      "type": "function"
    },
    {
      "inputs": [
        {
          "internalType": "uint256",
          "name": "_electionStartDate",
          "type": "uint256"
        },
        {
          "internalType": "uint256",
          "name": "_firstRoundStartDate",
          "type": "uint256"
        },
        {
          "internalType": "uint256[]",
          "name": "_candidateIds",
          "type": "uint256[]"
        }
      ],
      "name": "createElection",
      "outputs": [
        {
          "internalType": "uint256",
          "name": "",
          "type": "uint256"
        }
      ],
      "stateMutability": "nonpayable",
      "type": "function"
    },
    {
      "inputs": [
        {
          "internalType": "uint256",
          "name": "",
          "type": "uint256"
        },
        {
          "internalType": "uint8",
          "name": "",
          "type": "uint8"
        }
      ],
      "name": "electionRounds",
      "outputs": [
        {
          "internalType": "uint8",
          "name": "roundNumber",
          "type": "uint8"
        },
        {
          "internalType": "uint256",
          "name": "startDate",
          "type": "uint256"
        },
        {
          "internalType": "uint256",
          "name": "endDate",
          "type": "uint256"
        },
        {
          "internalType": "bool",
          "name": "finalized",
          "type": "bool"
        },
        {
          "internalType": "uint256",
          "name": "totalVotes",
          "type": "uint256"
        },
        {
          "internalType": "uint256",
          "name": "winnerCandidateId",
          "type": "uint256"
        }
      ],
      "stateMutability": "view",
      "type": "function"
    },
    {
      "inputs": [
        {
          "internalType": "uint256",
          "name": "",
          "type": "uint256"
        },
        {
          "internalType": "uint256",
          "name": "",
          "type": "uint256"
        }
      ],
      "name": "electionWinners",
      "outputs": [
        {
          "internalType": "uint256",
          "name": "",
          "type": "uint256"
        }
      ],
      "stateMutability": "view",
      "type": "function"
    },
    {
      "inputs": [
        {
          "internalType": "uint256",
          "name": "",
          "type": "uint256"
        }
      ],
      "name": "elections",
      "outputs": [
        {
          "internalType": "uint256",
          "name": "electionId",
          "type": "uint256"
        },
        {
          "internalType": "uint256",
          "name": "electionStartDate",
          "type": "uint256"
        },
        {
          "internalType": "uint256",
          "name": "firstRoundStartDate",
          "type": "uint256"
        },
        {
          "internalType": "uint256",
          "name": "roundDuration",
          "type": "uint256"
        },
        {
          "internalType": "bool",
          "name": "isActive",
          "type": "bool"
        },
        {
          "internalType": "uint8",
          "name": "currentRound",
          "type": "uint8"
        },
        {
          "internalType": "uint256",
          "name": "winnerCandidateId",
          "type": "uint256"
        }
      ],
      "stateMutability": "view",
      "type": "function"
    },
    {
      "inputs": [],
      "name": "electionsCount",
      "outputs": [
        {
          "internalType": "uint256",
          "name": "",
          "type": "uint256"
        }
      ],
      "stateMutability": "view",
      "type": "function"
    },
    {
      "inputs": [
        {
          "internalType": "uint256",
          "name": "electionId",
          "type": "uint256"
        },
        {
          "internalType": "bool",
          "name": "force",
          "type": "bool"
        }
      ],
      "name": "finalizeRound",
      "outputs": [],
      "stateMutability": "nonpayable",
      "type": "function"
    },
    {
      "inputs": [],
      "name": "getAdmins",
      "outputs": [
        {
          "internalType": "address[]",
          "name": "",
          "type": "address[]"
        }
      ],
      "stateMutability": "view",
      "type": "function"
    },
    {
      "inputs": [],
      "name": "getAllCandidates",
      "outputs": [
        {
          "components": [
            {
              "internalType": "uint256",
              "name": "id",
              "type": "uint256"
            },
            {
              "internalType": "string",
              "name": "firstName",
              "type": "string"
            },
            {
              "internalType": "string",
              "name": "lastName",
              "type": "string"
            },
            {
              "internalType": "string",
              "name": "politicalParty",
              "type": "string"
            }
          ],
          "internalType": "struct CandidatesManager.Candidate[]",
          "name": "",
          "type": "tuple[]"
        }
      ],
      "stateMutability": "view",
      "type": "function"
    },
    {
      "inputs": [],
      "name": "getAllVoters",
      "outputs": [
        {
          "internalType": "address[]",
          "name": "",
          "type": "address[]"
        }
      ],
      "stateMutability": "view",
      "type": "function"
    },
    {
      "inputs": [
        {
          "internalType": "uint256",
          "name": "electionId",
          "type": "uint256"
        },
        {
          "internalType": "uint8",
          "name": "roundNumber",
          "type": "uint8"
        }
      ],
      "name": "getCandidateIdsForRound",
      "outputs": [
        {
          "internalType": "uint256[]",
          "name": "",
          "type": "uint256[]"
        }
      ],
      "stateMutability": "view",
      "type": "function"
    },
    {
      "inputs": [
        {
          "internalType": "uint256",
          "name": "electionId",
          "type": "uint256"
        },
        {
          "internalType": "uint8",
          "name": "round",
          "type": "uint8"
        }
      ],
      "name": "getElectionRoundResults",
      "outputs": [
        {
          "internalType": "uint256",
          "name": "totalVotes",
          "type": "uint256"
        },
        {
          "internalType": "uint256[]",
          "name": "candidateIds",
          "type": "uint256[]"
        },
        {
          "internalType": "uint256[]",
          "name": "votesPerCandidate",
          "type": "uint256[]"
        },
        {
          "internalType": "uint256",
          "name": "startDate",
          "type": "uint256"
        },
        {
          "internalType": "uint256",
          "name": "endDate",
          "type": "uint256"
        }
      ],
      "stateMutability": "view",
      "type": "function"
    },
    {
      "inputs": [
        {
          "internalType": "uint256",
          "name": "_electionId",
          "type": "uint256"
        },
        {
          "internalType": "uint8",
          "name": "_round",
          "type": "uint8"
        }
      ],
      "name": "getRoundResults",
      "outputs": [
        {
          "internalType": "uint256",
          "name": "totalVotes",
          "type": "uint256"
        },
        {
          "internalType": "uint256[]",
          "name": "candidateIds",
          "type": "uint256[]"
        },
        {
          "internalType": "uint256[]",
          "name": "votesPerCandidate",
          "type": "uint256[]"
        },
        {
          "internalType": "uint256",
          "name": "startDate",
          "type": "uint256"
        },
        {
          "internalType": "uint256",
          "name": "endDate",
          "type": "uint256"
        }
      ],
      "stateMutability": "view",
      "type": "function"
    },
    {
      "inputs": [
        {
          "internalType": "uint256",
          "name": "_electionId",
          "type": "uint256"
        },
        {
          "internalType": "uint8",
          "name": "_round",
          "type": "uint8"
        }
      ],
      "name": "getRoundStatus",
      "outputs": [
        {
          "internalType": "enum ElectionLogic.RoundStatus",
          "name": "",
          "type": "uint8"
        }
      ],
      "stateMutability": "view",
      "type": "function"
    },
    {
      "inputs": [
        {
          "internalType": "uint256",
          "name": "electionId",
          "type": "uint256"
        },
        {
          "internalType": "uint8",
          "name": "roundNumber",
          "type": "uint8"
        }
      ],
      "name": "isRoundActive",
      "outputs": [
        {
          "internalType": "bool",
          "name": "",
          "type": "bool"
        }
      ],
      "stateMutability": "view",
      "type": "function"
    },
    {
      "inputs": [
        {
          "internalType": "address",
          "name": "_admin",
          "type": "address"
        }
      ],
      "name": "removeAdmin",
      "outputs": [],
      "stateMutability": "nonpayable",
      "type": "function"
    },
    {
      "inputs": [
        {
          "internalType": "address",
          "name": "_voter",
          "type": "address"
        }
      ],
      "name": "removeVoter",
      "outputs": [],
      "stateMutability": "nonpayable",
      "type": "function"
    },
    {
      "inputs": [
        {
          "internalType": "uint256",
          "name": "",
          "type": "uint256"
        },
        {
          "internalType": "uint8",
          "name": "",
          "type": "uint8"
        },
        {
          "internalType": "uint256",
          "name": "",
          "type": "uint256"
        }
      ],
      "name": "roundCandidateVotes",
      "outputs": [
        {
          "internalType": "uint256",
          "name": "",
          "type": "uint256"
        }
      ],
      "stateMutability": "view",
      "type": "function"
    },
    {
      "inputs": [
        {
          "internalType": "uint256",
          "name": "",
          "type": "uint256"
        },
        {
          "internalType": "uint8",
          "name": "",
          "type": "uint8"
        },
        {
          "internalType": "address",
          "name": "",
          "type": "address"
        }
      ],
      "name": "roundHasVoted",
      "outputs": [
        {
          "internalType": "bool",
          "name": "",
          "type": "bool"
        }
      ],
      "stateMutability": "view",
      "type": "function"
    },
    {
      "inputs": [
        {
          "internalType": "address",
          "name": "_newHolder",
          "type": "address"
        }
      ],
      "name": "transferOwnership",
      "outputs": [],
      "stateMutability": "nonpayable",
      "type": "function"
    },
    {
      "inputs": [
        {
          "internalType": "uint256",
          "name": "",
          "type": "uint256"
        }
      ],
      "name": "voterList",
      "outputs": [
        {
          "internalType": "address",
          "name": "",
          "type": "address"
        }
      ],
      "stateMutability": "view",
      "type": "function"
    },
    {
      "inputs": [
        {
          "internalType": "address",
          "name": "",
          "type": "address"
        }
      ],
      "name": "voters",
      "outputs": [
        {
          "internalType": "bool",
          "name": "isRegistered",
          "type": "bool"
        },
        {
          "internalType": "uint256",
          "name": "registrationTime",
          "type": "uint256"
        }
      ],
      "stateMutability": "view",
      "type": "function"
    },
    {
      "inputs": [
        {
          "internalType": "uint256",
          "name": "",
          "type": "uint256"
        },
        {
          "internalType": "uint8",
          "name": "",
          "type": "uint8"
        },
        {
          "internalType": "uint256",
          "name": "",
          "type": "uint256"
        }
      ],
      "name": "votersByRound",
      "outputs": [
        {
          "internalType": "address",
          "name": "",
          "type": "address"
        }
      ],
      "stateMutability": "view",
      "type": "function"
    },
    {
      "inputs": [
        {
          "internalType": "uint256",
          "name": "",
          "type": "uint256"
        },
        {
          "internalType": "uint8",
          "name": "",
          "type": "uint8"
        },
        {
          "internalType": "address",
          "name": "",
          "type": "address"
        }
      ],
      "name": "votes",
      "outputs": [
        {
          "internalType": "uint256",
          "name": "candidateId",
          "type": "uint256"
        },
        {
          "internalType": "uint256",
          "name": "timestamp",
          "type": "uint256"
        }
      ],
      "stateMutability": "view",
      "type": "function"
    }
  ],
  "bytecode": "0x608060405234801561001057600080fd5b5033600d60006101000a81548173ffffffffffffffffffffffffffffffffffffffff021916908373ffffffffffffffffffffffffffffffffffffffff1602179055506001600e60003373ffffffffffffffffffffffffffffffffffffffff1673ffffffffffffffffffffffffffffffffffffffff16815260200190815260200160002060006101000a81548160ff021916908315150217905550600f339080600181540180825580915050600190039060005260206000200160009091909190916101000a81548173ffffffffffffffffffffffffffffffffffffffff021916908373ffffffffffffffffffffffffffffffffffffffff1602179055503373ffffffffffffffffffffffffffffffffffffffff167f44d6d25963f097ad14f29f06854a01f575648a1ef82f30e562ccd3889717e33960405160405180910390a26040518060800160405280600081526020016040518060400160405280600481526020017f566f74650000000000000000000000000000000000000000000000000000000081525081526020016040518060400160405280600581526020017f426c616e6300000000000000000000000000000000000000000000000000000081525081526020016040518060400160405280600581526020017f417563756e0000000000000000000000000000000000000000000000000000008152508152506002600080815260200190815260200160002060008201518160000155602082015181600101908161024391906104c8565b50604082015181600201908161025991906104c8565b50606082015181600301908161026f91906104c8565b5090505061059a565b600081519050919050565b7f4e487b7100000000000000000000000000000000000000000000000000000000600052604160045260246000fd5b7f4e487b7100000000000000000000000000000000000000000000000000000000600052602260045260246000fd5b600060028204905060018216806102f957607f821691505b60208210810361030c5761030b6102b2565b5b50919050565b60008190508160005260206000209050919050565b60006020601f8301049050919050565b600082821b905092915050565b6000600883026103747fffffffffffffffffffffffffffffffffffffffffffffffffffffffffffffffff82610337565b61037e8683610337565b95508019841693508086168417925050509392505050565b6000819050919050565b6000819050919050565b60006103c56103c06103bb84610396565b6103a0565b610396565b9050919050565b6000819050919050565b6103df836103aa565b6103f36103eb826103cc565b848454610344565b825550505050565b600090565b6104086103fb565b6104138184846103d6565b505050565b5b818110156104375761042c600082610400565b600181019050610419565b5050565b601f82111561047c5761044d81610312565b61045684610327565b81016020851015610465578190505b61047961047185610327565b830182610418565b50505b505050565b600082821c905092915050565b600061049f60001984600802610481565b1980831691505092915050565b60006104b8838361048e565b9150826002028217905092915050565b6104d182610278565b67ffffffffffffffff8111156104ea576104e9610283565b5b6104f482546102e1565b6104ff82828561043b565b600060209050601f8311600181146105325760008415610520578287015190505b61052a85826104ac565b865550610592565b601f19841661054086610312565b60005b8281101561056857848901518255600182019150602085019450602081019050610543565b868310156105855784890151610581601f89168261048e565b8355505b6001600288020188555050505b505050505050565b615857806105a96000396000f3fe608060405234801561001057600080fd5b50600436106101fa5760003560e01c80637bf39e121161011a578063aa82ae79116100ad578063caf1475d1161007c578063caf1475d14610672578063e684cbf9146106a3578063f0134566146106d3578063f2fde38b14610703578063f4ab9adf1461071f576101fa565b8063aa82ae79146105c1578063ab95a7dd146105f6578063ad71f8dc14610626578063b04e523e14610642576101fa565b80639a74c695116100e95780639a74c695146105205780639ed3e95e1461053e578063a298cbc114610572578063a3ec138d14610590576101fa565b80637bf39e1214610474578063837ec15f146104a457806386c1ff68146104d457806388a2c4b6146104f0576101fa565b8063429b62e5116101925780635e6fef01116101615780635e6fef01146103be5780636546d5fd146103f457806370480275146104245780637351f0f214610440576101fa565b8063429b62e51461031257806350e2e8af14610342578063545458c81461037257806355af4788146103a2576101fa565b80632e6997fe116101ce5780632e6997fe1461028557806331ae450b146102a35780633477ee2e146102c157806335bbe70e146102f4576101fa565b80623eee01146101ff5780631785f53c1461022f5780632c0a3f891461024b5780632d35a8a214610267575b600080fd5b61021960048036038101906102149190613b8f565b61073b565b6040516102269190613bd7565b60405180910390f35b61024960048036038101906102449190613c50565b610755565b005b61026560048036038101906102609190613c7d565b610a96565b005b61026f610ff3565b60405161027c9190613ccc565b60405180910390f35b61028d610ff9565b60405161029a9190613eb9565b60405180910390f35b6102ab611284565b6040516102b89190613f99565b60405180910390f35b6102db60048036038101906102d69190613b8f565b611312565b6040516102eb9493929190614005565b60405180910390f35b6102fc6114da565b6040516103099190613f99565b60405180910390f35b61032c60048036038101906103279190613c50565b611568565b6040516103399190613bd7565b60405180910390f35b61035c60048036038101906103579190613b8f565b611588565b604051610369919061406e565b60405180910390f35b61038c60048036038101906103879190613c7d565b6115c7565b6040516103999190613ccc565b60405180910390f35b6103bc60048036038101906103b791906140b5565b6115ec565b005b6103d860048036038101906103d39190613b8f565b612054565b6040516103eb9796959493929190614111565b60405180910390f35b61040e600480360381019061040991906141ac565b6120b0565b60405161041b919061429b565b60405180910390f35b61043e60048036038101906104399190613c50565b612136565b005b61045a600480360381019061045591906141ac565b6123c3565b60405161046b9594939291906142bd565b60405180910390f35b61048e6004803603810190610489919061431e565b6123e9565b60405161049b9190613bd7565b60405180910390f35b6104be60048036038101906104b991906141ac565b612425565b6040516104cb9190613bd7565b60405180910390f35b6104ee60048036038101906104e99190613c50565b612475565b005b61050a600480360381019061050591906141ac565b6127bb565b60405161051791906143e8565b60405180910390f35b61052861285e565b6040516105359190613ccc565b60405180910390f35b610558600480360381019061055391906141ac565b612864565b6040516105699594939291906142bd565b60405180910390f35b61057a612a42565b604051610587919061406e565b60405180910390f35b6105aa60048036038101906105a59190613c50565b612a68565b6040516105b8929190614403565b60405180910390f35b6105db60048036038101906105d691906141ac565b612a99565b6040516105ed9695949392919061442c565b60405180910390f35b610610600480360381019061060b919061448d565b612afc565b60405161061d919061406e565b60405180910390f35b610640600480360381019061063b9190614615565b612b57565b005b61065c60048036038101906106579190613c7d565b612d80565b6040516106699190613ccc565b60405180910390f35b61068c6004803603810190610687919061431e565b612db1565b60405161069a9291906146bc565b60405180910390f35b6106bd60048036038101906106b8919061448d565b612def565b6040516106ca9190613ccc565b60405180910390f35b6106ed60048036038101906106e89190614745565b612e21565b6040516106fa9190613ccc565b60405180910390f35b61071d60048036038101906107189190613c50565b612ec5565b005b61073960048036038101906107349190613c50565b613084565b005b6000808211801561074e57506004548211155b9050919050565b600d60009054906101000a900473ffffffffffffffffffffffffffffffffffffffff1673ffffffffffffffffffffffffffffffffffffffff163373ffffffffffffffffffffffffffffffffffffffff16146107e5576040517f08c379a00000000000000000000000000000000000000000000000000000000081526004016107dc90614805565b60405180910390fd5b600e60008273ffffffffffffffffffffffffffffffffffffffff1673ffffffffffffffffffffffffffffffffffffffff16815260200190815260200160002060009054906101000a900460ff16610871576040517f08c379a000000000000000000000000000000000000000000000000000000000815260040161086890614871565b60405180910390fd5b6000600e60008373ffffffffffffffffffffffffffffffffffffffff1673ffffffffffffffffffffffffffffffffffffffff16815260200190815260200160002060006101000a81548160ff02191690831515021790555060005b600f80549050811015610a4f578173ffffffffffffffffffffffffffffffffffffffff16600f828154811061090457610903614891565b5b9060005260206000200160009054906101000a900473ffffffffffffffffffffffffffffffffffffffff1673ffffffffffffffffffffffffffffffffffffffff1603610a4257600f6001600f8054905061095e91906148ef565b8154811061096f5761096e614891565b5b9060005260206000200160009054906101000a900473ffffffffffffffffffffffffffffffffffffffff16600f82815481106109ae576109ad614891565b5b9060005260206000200160006101000a81548173ffffffffffffffffffffffffffffffffffffffff021916908373ffffffffffffffffffffffffffffffffffffffff160217905550600f805480610a0857610a07614923565b5b6001900381819060005260206000200160006101000a81549073ffffffffffffffffffffffffffffffffffffffff02191690559055610a4f565b80806001019150506108cc565b508073ffffffffffffffffffffffffffffffffffffffff167fa3b62bc36326052d97ea62d63c3d60308ed4c3ea8ac079dd8499f1e9c4f80c0f60405160405180910390a250565b600160003373ffffffffffffffffffffffffffffffffffffffff1673ffffffffffffffffffffffffffffffffffffffff16815260200190815260200160002060000160009054906101000a900460ff16610b25576040517f08c379a0000000000000000000000000000000000000000000000000000000008152600401610b1c9061499e565b60405180910390fd5b60006006600084815260200190815260200160002090508060050160009054906101000a900460ff16610b8d576040517f08c379a0000000000000000000000000000000000000000000000000000000008152600401610b8490614a0a565b60405180910390fd5b60008160050160019054906101000a900460ff16905060006007600086815260200190815260200160002060008360ff1660ff16815260200190815260200160002090508060010154421015610c18576040517f08c379a0000000000000000000000000000000000000000000000000000000008152600401610c0f90614a76565b60405180910390fd5b8060020154421115610c5f576040517f08c379a0000000000000000000000000000000000000000000000000000000008152600401610c5690614ae2565b60405180910390fd5b600a600086815260200190815260200160002060008360ff1660ff16815260200190815260200160002060003373ffffffffffffffffffffffffffffffffffffffff1673ffffffffffffffffffffffffffffffffffffffff16815260200190815260200160002060009054906101000a900460ff1615610d14576040517f08c379a0000000000000000000000000000000000000000000000000000000008152600401610d0b90614b4e565b60405180910390fd5b6000805b8260060180549050811015610d645785836006018281548110610d3e57610d3d614891565b5b906000526020600020015403610d575760019150610d64565b8080600101915050610d18565b5080610da5576040517f08c379a0000000000000000000000000000000000000000000000000000000008152600401610d9c90614bba565b60405180910390fd5b6001600a600088815260200190815260200160002060008560ff1660ff16815260200190815260200160002060003373ffffffffffffffffffffffffffffffffffffffff1673ffffffffffffffffffffffffffffffffffffffff16815260200190815260200160002060006101000a81548160ff0219169083151502179055506008600087815260200190815260200160002060008460ff1660ff16815260200190815260200160002060008681526020019081526020016000206000815480929190610e7190614bda565b9190505550816004016000815480929190610e8b90614bda565b91905055506040518060400160405280868152602001428152506010600088815260200190815260200160002060008560ff1660ff16815260200190815260200160002060003373ffffffffffffffffffffffffffffffffffffffff1673ffffffffffffffffffffffffffffffffffffffff16815260200190815260200160002060008201518160000155602082015181600101559050506009600087815260200190815260200160002060008460ff1660ff168152602001908152602001600020339080600181540180825580915050600190039060005260206000200160009091909190916101000a81548173ffffffffffffffffffffffffffffffffffffffff021916908373ffffffffffffffffffffffffffffffffffffffff16021790555084867ff1f3396e31d1dbd068c4e6169959218fe5ae731d73149dd82edc33beca09f22a853342604051610fe393929190614c22565b60405180910390a3505050505050565b60045481565b60606000600160045461100c9190614c59565b67ffffffffffffffff811115611025576110246144ea565b5b60405190808252806020026020018201604052801561105e57816020015b61104b613a32565b8152602001906001900390816110435790505b50905060005b600454811161127c5760026000828152602001908152602001600020604051806080016040529081600082015481526020016001820180546110a590614cbc565b80601f01602080910402602001604051908101604052809291908181526020018280546110d190614cbc565b801561111e5780601f106110f35761010080835404028352916020019161111e565b820191906000526020600020905b81548152906001019060200180831161110157829003601f168201915b5050505050815260200160028201805461113790614cbc565b80601f016020809104026020016040519081016040528092919081815260200182805461116390614cbc565b80156111b05780601f10611185576101008083540402835291602001916111b0565b820191906000526020600020905b81548152906001019060200180831161119357829003601f168201915b505050505081526020016003820180546111c990614cbc565b80601f01602080910402602001604051908101604052809291908181526020018280546111f590614cbc565b80156112425780601f1061121757610100808354040283529160200191611242565b820191906000526020600020905b81548152906001019060200180831161122557829003601f168201915b50505050508152505082828151811061125e5761125d614891565b5b6020026020010181905250808061127490614bda565b915050611064565b508091505090565b6060600f80548060200260200160405190810160405280929190818152602001828054801561130857602002820191906000526020600020905b8160009054906101000a900473ffffffffffffffffffffffffffffffffffffffff1673ffffffffffffffffffffffffffffffffffffffff16815260200190600101908083116112be575b5050505050905090565b600260205280600052604060002060009150905080600001549080600101805461133b90614cbc565b80601f016020809104026020016040519081016040528092919081815260200182805461136790614cbc565b80156113b45780601f10611389576101008083540402835291602001916113b4565b820191906000526020600020905b81548152906001019060200180831161139757829003601f168201915b5050505050908060020180546113c990614cbc565b80601f01602080910402602001604051908101604052809291908181526020018280546113f590614cbc565b80156114425780601f1061141757610100808354040283529160200191611442565b820191906000526020600020905b81548152906001019060200180831161142557829003601f168201915b50505050509080600301805461145790614cbc565b80601f016020809104026020016040519081016040528092919081815260200182805461148390614cbc565b80156114d05780601f106114a5576101008083540402835291602001916114d0565b820191906000526020600020905b8154815290600101906020018083116114b357829003601f168201915b5050505050905084565b6060600080548060200260200160405190810160405280929190818152602001828054801561155e57602002820191906000526020600020905b8160009054906101000a900473ffffffffffffffffffffffffffffffffffffffff1673ffffffffffffffffffffffffffffffffffffffff1681526020019060010190808311611514575b5050505050905090565b600e6020528060005260406000206000915054906101000a900460ff1681565b6000818154811061159857600080fd5b906000526020600020016000915054906101000a900473ffffffffffffffffffffffffffffffffffffffff1681565b600c602052816000526040600020602052806000526040600020600091509150505481565b600060066000848152602001908152602001600020905060008160050160019054906101000a900460ff16905060006007600086815260200190815260200160002060008360ff1660ff1681526020019081526020016000209050836116935780600201544211611692576040517f08c379a000000000000000000000000000000000000000000000000000000000815260040161168990614d39565b60405180910390fd5b5b8060030160009054906101000a900460ff16156116e5576040517f08c379a00000000000000000000000000000000000000000000000000000000081526004016116dc90614da5565b60405180910390fd5b60006008600087815260200190815260200160002060008460ff1660ff168152602001908152602001600020600080815260200190815260200160002054826004015461173291906148ef565b9050600061174087856132d8565b905060018460ff1603611b355760008211801561177857506032826117659190614dc5565b606482600001516117769190614dc5565b115b8015611788575060018160600151145b1561181a578060400151856006018190555060018360030160006101000a81548160ff021916908315150217905550867f3a9cda69ee0d6dfee4acf22426df9b50f9af0d2acd191bd409070a7a51c3ac7b85600184604001516040516117f093929190614e07565b60405180910390a260008560050160006101000a81548160ff021916908315150217905550611b30565b60006001856118299190614e3e565b9050808660050160016101000a81548160ff021916908360ff1602179055506000600760008a815260200190815260200160002060008360ff1660ff1681526020019081526020016000209050818160000160006101000a81548160ff021916908360ff1602179055504281600101819055508660030154426118ac9190614c59565b8160020181905550606060018460600151111561197257836060015167ffffffffffffffff8111156118e1576118e06144ea565b5b60405190808252806020026020018201604052801561190f5781602001602082028036833780820191505090505b50905060005b846060015181101561196c578460800151818151811061193857611937614891565b5b602002602001015182828151811061195357611952614891565b5b6020026020010181815250508080600101915050611915565b506119dc565b6119d98a88866040015187602001518a6006018054806020026020016040519081016040528092919081815260200182805480156119cf57602002820191906000526020600020905b8154815260200190600101908083116119bb575b5050505050613507565b90505b6000600182516119ec9190614c59565b67ffffffffffffffff811115611a0557611a046144ea565b5b604051908082528060200260200182016040528015611a335781602001602082028036833780820191505090505b509050600081600081518110611a4c57611a4b614891565b5b60200260200101818152505060005b8251811015611ab757828181518110611a7757611a76614891565b5b602002602001015182600183611a8d9190614c59565b81518110611a9e57611a9d614891565b5b6020026020010181815250508080600101915050611a5b565b5080836006019080519060200190611ad0929190613a5a565b5060018760030160006101000a81548160ff0219169083151502179055508a7f3a9cda69ee0d6dfee4acf22426df9b50f9af0d2acd191bd409070a7a51c3ac7b89600080604051611b2393929190614eb8565b60405180910390a2505050505b61204b565b60028460ff1603611e78576001816060015103611bd9578060400151856006018190555060018360030160006101000a81548160ff021916908315150217905550867f3a9cda69ee0d6dfee4acf22426df9b50f9af0d2acd191bd409070a7a51c3ac7b8560018460400151604051611baf93929190614e07565b60405180910390a260008560050160006101000a81548160ff021916908315150217905550611e73565b6000600185611be89190614e3e565b9050808660050160016101000a81548160ff021916908360ff1602179055506000600760008a815260200190815260200160002060008360ff1660ff1681526020019081526020016000209050818160000160006101000a81548160ff021916908360ff160217905550428160010181905550866003015442611c6b9190614c59565b81600201819055506000836060015167ffffffffffffffff811115611c9357611c926144ea565b5b604051908082528060200260200182016040528015611cc15781602001602082028036833780820191505090505b50905060005b8460600151811015611d1e5784608001518181518110611cea57611ce9614891565b5b6020026020010151828281518110611d0557611d04614891565b5b6020026020010181815250508080600101915050611cc7565b50600060018251611d2f9190614c59565b67ffffffffffffffff811115611d4857611d476144ea565b5b604051908082528060200260200182016040528015611d765781602001602082028036833780820191505090505b509050600081600081518110611d8f57611d8e614891565b5b60200260200101818152505060005b8251811015611dfa57828181518110611dba57611db9614891565b5b602002602001015182600183611dd09190614c59565b81518110611de157611de0614891565b5b6020026020010181815250508080600101915050611d9e565b5080836006019080519060200190611e13929190613a5a565b5060018760030160006101000a81548160ff0219169083151502179055508a7f3a9cda69ee0d6dfee4acf22426df9b50f9af0d2acd191bd409070a7a51c3ac7b89600080604051611e6693929190614eb8565b60405180910390a2505050505b61204a565b60038460ff1603612049576001816060015103611f1c578060400151856006018190555060018360030160006101000a81548160ff021916908315150217905550867f3a9cda69ee0d6dfee4acf22426df9b50f9af0d2acd191bd409070a7a51c3ac7b8560018460400151604051611ef293929190614e07565b60405180910390a260008560050160006101000a81548160ff021916908315150217905550612048565b60008060005b8360600151811015611f9857600084608001518281518110611f4757611f46614891565b5b602002602001015190506000600c60008d8152602001908152602001600020600083815260200190815260200160002054905083811115611f89578093508194505b50508080600101915050611f22565b508187600601819055508260800151600b60008b81526020019081526020016000209080519060200190611fcd929190613a5a565b5060018560030160006101000a81548160ff021916908315150217905550887f3a9cda69ee0d6dfee4acf22426df9b50f9af0d2acd191bd409070a7a51c3ac7b8760018560405161202093929190614e07565b60405180910390a260008760050160006101000a81548160ff02191690831515021790555050505b5b5b5b50505050505050565b60066020528060005260406000206000915090508060000154908060010154908060020154908060030154908060050160009054906101000a900460ff16908060050160019054906101000a900460ff16908060060154905087565b60606007600084815260200190815260200160002060008360ff1660ff16815260200190815260200160002060060180548060200260200160405190810160405280929190818152602001828054801561212957602002820191906000526020600020905b815481526020019060010190808311612115575b5050505050905092915050565b600d60009054906101000a900473ffffffffffffffffffffffffffffffffffffffff1673ffffffffffffffffffffffffffffffffffffffff163373ffffffffffffffffffffffffffffffffffffffff16146121c6576040517f08c379a00000000000000000000000000000000000000000000000000000000081526004016121bd90614805565b60405180910390fd5b600073ffffffffffffffffffffffffffffffffffffffff168173ffffffffffffffffffffffffffffffffffffffff1603612235576040517f08c379a000000000000000000000000000000000000000000000000000000000815260040161222c90614f3b565b60405180910390fd5b600e60008273ffffffffffffffffffffffffffffffffffffffff1673ffffffffffffffffffffffffffffffffffffffff16815260200190815260200160002060009054906101000a900460ff16156122c2576040517f08c379a00000000000000000000000000000000000000000000000000000000081526004016122b990614fa7565b60405180910390fd5b6001600e60008373ffffffffffffffffffffffffffffffffffffffff1673ffffffffffffffffffffffffffffffffffffffff16815260200190815260200160002060006101000a81548160ff021916908315150217905550600f819080600181540180825580915050600190039060005260206000200160009091909190916101000a81548173ffffffffffffffffffffffffffffffffffffffff021916908373ffffffffffffffffffffffffffffffffffffffff1602179055508073ffffffffffffffffffffffffffffffffffffffff167f44d6d25963f097ad14f29f06854a01f575648a1ef82f30e562ccd3889717e33960405160405180910390a250565b60006060806000806123d58787612864565b945094509450945094509295509295909350565b600a602052826000526040600020602052816000526040600020602052806000526040600020600092509250509054906101000a900460ff1681565b6000806007600085815260200190815260200160002060008460ff1660ff16815260200190815260200160002090508060010154421015801561246c575080600201544211155b91505092915050565b600e60003373ffffffffffffffffffffffffffffffffffffffff1673ffffffffffffffffffffffffffffffffffffffff16815260200190815260200160002060009054906101000a900460ff16612501576040517f08c379a00000000000000000000000000000000000000000000000000000000081526004016124f890615013565b60405180910390fd5b600160008273ffffffffffffffffffffffffffffffffffffffff1673ffffffffffffffffffffffffffffffffffffffff16815260200190815260200160002060000160009054906101000a900460ff16612590576040517f08c379a00000000000000000000000000000000000000000000000000000000081526004016125879061507f565b60405180910390fd5b600160008273ffffffffffffffffffffffffffffffffffffffff1673ffffffffffffffffffffffffffffffffffffffff168152602001908152602001600020600080820160006101000a81549060ff02191690556001820160009055505060005b600080549050811015612774578173ffffffffffffffffffffffffffffffffffffffff166000828154811061262957612628614891565b5b9060005260206000200160009054906101000a900473ffffffffffffffffffffffffffffffffffffffff1673ffffffffffffffffffffffffffffffffffffffff1603612767576000600160008054905061268391906148ef565b8154811061269457612693614891565b5b9060005260206000200160009054906101000a900473ffffffffffffffffffffffffffffffffffffffff16600082815481106126d3576126d2614891565b5b9060005260206000200160006101000a81548173ffffffffffffffffffffffffffffffffffffffff021916908373ffffffffffffffffffffffffffffffffffffffff160217905550600080548061272d5761272c614923565b5b6001900381819060005260206000200160006101000a81549073ffffffffffffffffffffffffffffffffffffffff02191690559055612774565b80806001019150506125f1565b508073ffffffffffffffffffffffffffffffffffffffff167fa14a79af012d1756818f9bd59ccfc9ad185a71df86b9392d9059d9e6faf6d64460405160405180910390a250565b6000806007600085815260200190815260200160002060008460ff1660ff16815260200190815260200160002090508060030160009054906101000a900460ff161561280b576002915050612858565b8060020154421015801561282e57508060030160009054906101000a900460ff16155b1561283d576002915050612858565b80600101544210612852576001915050612858565b60009150505b92915050565b60055481565b600060608060008060006007600089815260200190815260200160002060008860ff1660ff1681526020019081526020016000209050806002015442116128e0576040517f08c379a00000000000000000000000000000000000000000000000000000000081526004016128d7906150eb565b60405180910390fd5b8060040154955080600101549250806002015491506006600089815260200190815260200160002060040180548060200260200160405190810160405280929190818152602001828054801561295557602002820191906000526020600020905b815481526020019060010190808311612941575b50505050509450845167ffffffffffffffff811115612977576129766144ea565b5b6040519080825280602002602001820160405280156129a55781602001602082028036833780820191505090505b50935060005b8551811015612a3657600860008a815260200190815260200160002060008960ff1660ff16815260200190815260200160002060008783815181106129f3576129f2614891565b5b6020026020010151815260200190815260200160002054858281518110612a1d57612a1c614891565b5b60200260200101818152505080806001019150506129ab565b50509295509295909350565b600d60009054906101000a900473ffffffffffffffffffffffffffffffffffffffff1681565b60016020528060005260406000206000915090508060000160009054906101000a900460ff16908060010154905082565b6007602052816000526040600020602052806000526040600020600091509150508060000160009054906101000a900460ff16908060010154908060020154908060030160009054906101000a900460ff16908060040154908060050154905086565b60096020528260005260406000206020528160005260406000208181548110612b2457600080fd5b90600052602060002001600092509250509054906101000a900473ffffffffffffffffffffffffffffffffffffffff1681565b600e60003373ffffffffffffffffffffffffffffffffffffffff1673ffffffffffffffffffffffffffffffffffffffff16815260200190815260200160002060009054906101000a900460ff16612be3576040517f08c379a0000000000000000000000000000000000000000000000000000000008152600401612bda90615013565b60405180910390fd5b60008383604051602001612bf8929190615193565b6040516020818303038152906040528051906020012090506003600082815260200190815260200160002060009054906101000a900460ff1615612c71576040517f08c379a0000000000000000000000000000000000000000000000000000000008152600401612c689061520e565b60405180910390fd5b60046000815480929190612c8490614bda565b91905055506040518060800160405280600454815260200185815260200184815260200183815250600260006004548152602001908152602001600020600082015181600001556020820151816001019081612ce091906153d0565b506040820151816002019081612cf691906153d0565b506060820151816003019081612d0c91906153d0565b5090505060016003600083815260200190815260200160002060006101000a81548160ff0219169083151502179055506004547f52b689af7ae3bd15a5156582545571237b58abd804c1456c3269d1b1ee93f6fc858585604051612d72939291906154a2565b60405180910390a250505050565b600b6020528160005260406000208181548110612d9c57600080fd5b90600052602060002001600091509150505481565b601060205282600052604060002060205281600052604060002060205280600052604060002060009250925050508060000154908060010154905082565b600860205282600052604060002060205281600052604060002060205280600052604060002060009250925050505481565b6000600e60003373ffffffffffffffffffffffffffffffffffffffff1673ffffffffffffffffffffffffffffffffffffffff16815260200190815260200160002060009054906101000a900460ff16612eaf576040517f08c379a0000000000000000000000000000000000000000000000000000000008152600401612ea690615013565b60405180910390fd5b612ebb8585858561365c565b9050949350505050565b600d60009054906101000a900473ffffffffffffffffffffffffffffffffffffffff1673ffffffffffffffffffffffffffffffffffffffff163373ffffffffffffffffffffffffffffffffffffffff1614612f55576040517f08c379a0000000000000000000000000000000000000000000000000000000008152600401612f4c90614805565b60405180910390fd5b600073ffffffffffffffffffffffffffffffffffffffff168173ffffffffffffffffffffffffffffffffffffffff1603612fc4576040517f08c379a0000000000000000000000000000000000000000000000000000000008152600401612fbb90614f3b565b60405180910390fd5b8073ffffffffffffffffffffffffffffffffffffffff16600d60009054906101000a900473ffffffffffffffffffffffffffffffffffffffff1673ffffffffffffffffffffffffffffffffffffffff167f8be0079c531659141344cd1fd0a4f28419497f9722a3daafe3b4186f6b6457e060405160405180910390a380600d60006101000a81548173ffffffffffffffffffffffffffffffffffffffff021916908373ffffffffffffffffffffffffffffffffffffffff16021790555050565b600e60003373ffffffffffffffffffffffffffffffffffffffff1673ffffffffffffffffffffffffffffffffffffffff16815260200190815260200160002060009054906101000a900460ff16613110576040517f08c379a000000000000000000000000000000000000000000000000000000000815260040161310790615013565b60405180910390fd5b600160008273ffffffffffffffffffffffffffffffffffffffff1673ffffffffffffffffffffffffffffffffffffffff16815260200190815260200160002060000160009054906101000a900460ff16156131a0576040517f08c379a00000000000000000000000000000000000000000000000000000000081526004016131979061553a565b60405180910390fd5b604051806040016040528060011515815260200142815250600160008373ffffffffffffffffffffffffffffffffffffffff1673ffffffffffffffffffffffffffffffffffffffff16815260200190815260200160002060008201518160000160006101000a81548160ff021916908315150217905550602082015181600101559050506000819080600181540180825580915050600190039060005260206000200160009091909190916101000a81548173ffffffffffffffffffffffffffffffffffffffff021916908373ffffffffffffffffffffffffffffffffffffffff1602179055508073ffffffffffffffffffffffffffffffffffffffff167f56aa1768b52ddcdda65c5561181844717c2eed4bb3c848376d4420860da04dae426040516132cd9190613ccc565b60405180910390a250565b6132e0613aa7565b60006007600085815260200190815260200160002060008460ff1660ff16815260200190815260200160002090506000816006018054905090508067ffffffffffffffff811115613334576133336144ea565b5b6040519080825280602002602001820160405280156133625781602001602082028036833780820191505090505b50836080018190525060005b818110156134fe57600083600601828154811061338e5761338d614891565b5b90600052602060002001549050600081036133a957506134f1565b60006008600089815260200190815260200160002060008860ff1660ff1681526020019081526020016000206000838152602001908152602001600020549050856000015181111561344c57856000015186602001818152505080866000018181525050818660400181815250508186608001516000815181106134305761342f614891565b5b60200260200101818152505060018660600181815250506134b3565b8560000151810361349a5781866080015187606001518151811061347357613472614891565b5b60200260200101818152505085606001805180919061349190614bda565b815250506134b2565b85602001518111156134b157808660200181815250505b5b5b80600c60008a8152602001908152602001600020600084815260200190815260200160002060008282546134e79190614c59565b9250508190555050505b808060010191505061336e565b50505092915050565b606060006135178787868661398b565b90508060016135269190614c59565b67ffffffffffffffff81111561353f5761353e6144ea565b5b60405190808252806020026020018201604052801561356d5781602001602082028036833780820191505090505b509150848260008151811061358557613584614891565b5b60200260200101818152505060006001905060005b84518110156136505760008582815181106135b8576135b7614891565b5b60200260200101519050600081036135d05750613643565b86600860008c815260200190815260200160002060008b60ff1660ff16815260200190815260200160002060008381526020019081526020016000205403613641578085848151811061362657613625614891565b5b602002602001018181525050828061363d90614bda565b9350505b505b808060010191505061359a565b50505095945050505050565b60004285116136a0576040517f08c379a0000000000000000000000000000000000000000000000000000000008152600401613697906155a6565b60405180910390fd5b848410156136e3576040517f08c379a00000000000000000000000000000000000000000000000000000000081526004016136da90615638565b60405180910390fd5b60008383905011613729576040517f08c379a0000000000000000000000000000000000000000000000000000000008152600401613720906156a4565b60405180910390fd5b6005600081548092919061373c90614bda565b91905055506005549050600060066000838152602001908152602001600020905081816000018190555085816001018190555084816002018190555062015180816003018190555060018160050160006101000a81548160ff02191690831515021790555060018160050160016101000a81548160ff021916908360ff1602179055506001848490506137cf9190614c59565b67ffffffffffffffff8111156137e8576137e76144ea565b5b6040519080825280602002602001820160405280156138165781602001602082028036833780820191505090505b5081600401908051906020019061382e929190613a5a565b5060008160040160008154811061384857613847614891565b5b906000526020600020018190555060005b848490508110156138bb5784848281811061387757613876614891565b5b905060200201358260040160018361388f9190614c59565b815481106138a05761389f614891565b5b90600052602060002001819055508080600101915050613859565b506000600760008481526020019081526020016000206000600160ff168152602001908152602001600020905060018160000160006101000a81548160ff021916908360ff160217905550858160010181905550620151808661391e9190614c59565b8160020181905550816004018160060190805461393c929190613ad6565b50827f94d2ca1585096a82008b4e4c47222139e365b7386c639acb5562a4f8a959f4c18888620151808660040160405161397994939291906157d5565b60405180910390a25050949350505050565b600080600090505b8251811015613a295760008382815181106139b1576139b0614891565b5b60200260200101519050600081036139c95750613a1c565b846008600089815260200190815260200160002060008860ff1660ff16815260200190815260200160002060008381526020019081526020016000205403613a1a578280613a1690614bda565b9350505b505b8080600101915050613993565b50949350505050565b6040518060800160405280600081526020016060815260200160608152602001606081525090565b828054828255906000526020600020908101928215613a96579160200282015b82811115613a95578251825591602001919060010190613a7a565b5b509050613aa39190613b28565b5090565b6040518060a0016040528060008152602001600081526020016000815260200160008152602001606081525090565b828054828255906000526020600020908101928215613b175760005260206000209182015b82811115613b16578254825591600101919060010190613afb565b5b509050613b249190613b28565b5090565b5b80821115613b41576000816000905550600101613b29565b5090565b6000604051905090565b600080fd5b600080fd5b6000819050919050565b613b6c81613b59565b8114613b7757600080fd5b50565b600081359050613b8981613b63565b92915050565b600060208284031215613ba557613ba4613b4f565b5b6000613bb384828501613b7a565b91505092915050565b60008115159050919050565b613bd181613bbc565b82525050565b6000602082019050613bec6000830184613bc8565b92915050565b600073ffffffffffffffffffffffffffffffffffffffff82169050919050565b6000613c1d82613bf2565b9050919050565b613c2d81613c12565b8114613c3857600080fd5b50565b600081359050613c4a81613c24565b92915050565b600060208284031215613c6657613c65613b4f565b5b6000613c7484828501613c3b565b91505092915050565b60008060408385031215613c9457613c93613b4f565b5b6000613ca285828601613b7a565b9250506020613cb385828601613b7a565b9150509250929050565b613cc681613b59565b82525050565b6000602082019050613ce16000830184613cbd565b92915050565b600081519050919050565b600082825260208201905092915050565b6000819050602082019050919050565b613d1c81613b59565b82525050565b600081519050919050565b600082825260208201905092915050565b60005b83811015613d5c578082015181840152602081019050613d41565b60008484015250505050565b6000601f19601f8301169050919050565b6000613d8482613d22565b613d8e8185613d2d565b9350613d9e818560208601613d3e565b613da781613d68565b840191505092915050565b6000608083016000830151613dca6000860182613d13565b5060208301518482036020860152613de28282613d79565b91505060408301518482036040860152613dfc8282613d79565b91505060608301518482036060860152613e168282613d79565b9150508091505092915050565b6000613e2f8383613db2565b905092915050565b6000602082019050919050565b6000613e4f82613ce7565b613e598185613cf2565b935083602082028501613e6b85613d03565b8060005b85811015613ea75784840389528151613e888582613e23565b9450613e9383613e37565b925060208a01995050600181019050613e6f565b50829750879550505050505092915050565b60006020820190508181036000830152613ed38184613e44565b905092915050565b600081519050919050565b600082825260208201905092915050565b6000819050602082019050919050565b613f1081613c12565b82525050565b6000613f228383613f07565b60208301905092915050565b6000602082019050919050565b6000613f4682613edb565b613f508185613ee6565b9350613f5b83613ef7565b8060005b83811015613f8c578151613f738882613f16565b9750613f7e83613f2e565b925050600181019050613f5f565b5085935050505092915050565b60006020820190508181036000830152613fb38184613f3b565b905092915050565b600082825260208201905092915050565b6000613fd782613d22565b613fe18185613fbb565b9350613ff1818560208601613d3e565b613ffa81613d68565b840191505092915050565b600060808201905061401a6000830187613cbd565b818103602083015261402c8186613fcc565b905081810360408301526140408185613fcc565b905081810360608301526140548184613fcc565b905095945050505050565b61406881613c12565b82525050565b6000602082019050614083600083018461405f565b92915050565b61409281613bbc565b811461409d57600080fd5b50565b6000813590506140af81614089565b92915050565b600080604083850312156140cc576140cb613b4f565b5b60006140da85828601613b7a565b92505060206140eb858286016140a0565b9150509250929050565b600060ff82169050919050565b61410b816140f5565b82525050565b600060e082019050614126600083018a613cbd565b6141336020830189613cbd565b6141406040830188613cbd565b61414d6060830187613cbd565b61415a6080830186613bc8565b61416760a0830185614102565b61417460c0830184613cbd565b98975050505050505050565b614189816140f5565b811461419457600080fd5b50565b6000813590506141a681614180565b92915050565b600080604083850312156141c3576141c2613b4f565b5b60006141d185828601613b7a565b92505060206141e285828601614197565b9150509250929050565b600081519050919050565b600082825260208201905092915050565b6000819050602082019050919050565b60006142248383613d13565b60208301905092915050565b6000602082019050919050565b6000614248826141ec565b61425281856141f7565b935061425d83614208565b8060005b8381101561428e5781516142758882614218565b975061428083614230565b925050600181019050614261565b5085935050505092915050565b600060208201905081810360008301526142b5818461423d565b905092915050565b600060a0820190506142d26000830188613cbd565b81810360208301526142e4818761423d565b905081810360408301526142f8818661423d565b90506143076060830185613cbd565b6143146080830184613cbd565b9695505050505050565b60008060006060848603121561433757614336613b4f565b5b600061434586828701613b7a565b935050602061435686828701614197565b925050604061436786828701613c3b565b9150509250925092565b7f4e487b7100000000000000000000000000000000000000000000000000000000600052602160045260246000fd5b600381106143b1576143b0614371565b5b50565b60008190506143c2826143a0565b919050565b60006143d2826143b4565b9050919050565b6143e2816143c7565b82525050565b60006020820190506143fd60008301846143d9565b92915050565b60006040820190506144186000830185613bc8565b6144256020830184613cbd565b9392505050565b600060c0820190506144416000830189614102565b61444e6020830188613cbd565b61445b6040830187613cbd565b6144686060830186613bc8565b6144756080830185613cbd565b61448260a0830184613cbd565b979650505050505050565b6000806000606084860312156144a6576144a5613b4f565b5b60006144b486828701613b7a565b93505060206144c586828701614197565b92505060406144d686828701613b7a565b9150509250925092565b600080fd5b600080fd5b7f4e487b7100000000000000000000000000000000000000000000000000000000600052604160045260246000fd5b61452282613d68565b810181811067ffffffffffffffff82111715614541576145406144ea565b5b80604052505050565b6000614554613b45565b90506145608282614519565b919050565b600067ffffffffffffffff8211156145805761457f6144ea565b5b61458982613d68565b9050602081019050919050565b82818337600083830152505050565b60006145b86145b384614565565b61454a565b9050828152602081018484840111156145d4576145d36144e5565b5b6145df848285614596565b509392505050565b600082601f8301126145fc576145fb6144e0565b5b813561460c8482602086016145a5565b91505092915050565b60008060006060848603121561462e5761462d613b4f565b5b600084013567ffffffffffffffff81111561464c5761464b613b54565b5b614658868287016145e7565b935050602084013567ffffffffffffffff81111561467957614678613b54565b5b614685868287016145e7565b925050604084013567ffffffffffffffff8111156146a6576146a5613b54565b5b6146b2868287016145e7565b9150509250925092565b60006040820190506146d16000830185613cbd565b6146de6020830184613cbd565b9392505050565b600080fd5b600080fd5b60008083601f840112614705576147046144e0565b5b8235905067ffffffffffffffff811115614722576147216146e5565b5b60208301915083602082028301111561473e5761473d6146ea565b5b9250929050565b6000806000806060858703121561475f5761475e613b4f565b5b600061476d87828801613b7a565b945050602061477e87828801613b7a565b935050604085013567ffffffffffffffff81111561479f5761479e613b54565b5b6147ab878288016146ef565b925092505092959194509250565b7f4e6f7420636f6e747261637420686f6c64657200000000000000000000000000600082015250565b60006147ef601383613fbb565b91506147fa826147b9565b602082019050919050565b6000602082019050818103600083015261481e816147e2565b9050919050565b7f4e6f742061646d696e0000000000000000000000000000000000000000000000600082015250565b600061485b600983613fbb565b915061486682614825565b602082019050919050565b6000602082019050818103600083015261488a8161484e565b9050919050565b7f4e487b7100000000000000000000000000000000000000000000000000000000600052603260045260246000fd5b7f4e487b7100000000000000000000000000000000000000000000000000000000600052601160045260246000fd5b60006148fa82613b59565b915061490583613b59565b925082820390508181111561491d5761491c6148c0565b5b92915050565b7f4e487b7100000000000000000000000000000000000000000000000000000000600052603160045260246000fd5b7f4e6f742061207265676973746572656420766f74657200000000000000000000600082015250565b6000614988601683613fbb565b915061499382614952565b602082019050919050565b600060208201905081810360008301526149b78161497b565b9050919050565b7f456c656374696f6e206e6f742061637469766500000000000000000000000000600082015250565b60006149f4601383613fbb565b91506149ff826149be565b602082019050919050565b60006020820190508181036000830152614a23816149e7565b9050919050565b7f526f756e64206e6f742073746172746564000000000000000000000000000000600082015250565b6000614a60601183613fbb565b9150614a6b82614a2a565b602082019050919050565b60006020820190508181036000830152614a8f81614a53565b9050919050565b7f526f756e6420656e646564000000000000000000000000000000000000000000600082015250565b6000614acc600b83613fbb565b9150614ad782614a96565b602082019050919050565b60006020820190508181036000830152614afb81614abf565b9050919050565b7f416c726561647920766f74656400000000000000000000000000000000000000600082015250565b6000614b38600d83613fbb565b9150614b4382614b02565b602082019050919050565b60006020820190508181036000830152614b6781614b2b565b9050919050565b7f496e76616c69642063616e646964617465000000000000000000000000000000600082015250565b6000614ba4601183613fbb565b9150614baf82614b6e565b602082019050919050565b60006020820190508181036000830152614bd381614b97565b9050919050565b6000614be582613b59565b91507fffffffffffffffffffffffffffffffffffffffffffffffffffffffffffffffff8203614c1757614c166148c0565b5b600182019050919050565b6000606082019050614c376000830186614102565b614c44602083018561405f565b614c516040830184613cbd565b949350505050565b6000614c6482613b59565b9150614c6f83613b59565b9250828201905080821115614c8757614c866148c0565b5b92915050565b7f4e487b7100000000000000000000000000000000000000000000000000000000600052602260045260246000fd5b60006002820490506001821680614cd457607f821691505b602082108103614ce757614ce6614c8d565b5b50919050565b7f526f756e64206e6f7420656e6465640000000000000000000000000000000000600082015250565b6000614d23600f83613fbb565b9150614d2e82614ced565b602082019050919050565b60006020820190508181036000830152614d5281614d16565b9050919050565b7f526f756e6420616c72656164792066696e616c697a6564000000000000000000600082015250565b6000614d8f601783613fbb565b9150614d9a82614d59565b602082019050919050565b60006020820190508181036000830152614dbe81614d82565b9050919050565b6000614dd082613b59565b9150614ddb83613b59565b9250828202614de981613b59565b91508282048414831517614e0057614dff6148c0565b5b5092915050565b6000606082019050614e1c6000830186614102565b614e296020830185613bc8565b614e366040830184613cbd565b949350505050565b6000614e49826140f5565b9150614e54836140f5565b9250828201905060ff811115614e6d57614e6c6148c0565b5b92915050565b6000819050919050565b6000819050919050565b6000614ea2614e9d614e9884614e73565b614e7d565b613b59565b9050919050565b614eb281614e87565b82525050565b6000606082019050614ecd6000830186614102565b614eda6020830185613bc8565b614ee76040830184614ea9565b949350505050565b7f496e76616c696420616464726573730000000000000000000000000000000000600082015250565b6000614f25600f83613fbb565b9150614f3082614eef565b602082019050919050565b60006020820190508181036000830152614f5481614f18565b9050919050565b7f416c72656164792061646d696e00000000000000000000000000000000000000600082015250565b6000614f91600d83613fbb565b9150614f9c82614f5b565b602082019050919050565b60006020820190508181036000830152614fc081614f84565b9050919050565b7f4e6f7420616e2061646d696e0000000000000000000000000000000000000000600082015250565b6000614ffd600c83613fbb565b915061500882614fc7565b602082019050919050565b6000602082019050818103600083015261502c81614ff0565b9050919050565b7f566f746572206e6f742072656769737465726564000000000000000000000000600082015250565b6000615069601483613fbb565b915061507482615033565b602082019050919050565b600060208201905081810360008301526150988161505c565b9050919050565b7f526f756e64206e6f74206f766572207965740000000000000000000000000000600082015250565b60006150d5601283613fbb565b91506150e08261509f565b602082019050919050565b60006020820190508181036000830152615104816150c8565b9050919050565b600081905092915050565b600061512182613d22565b61512b818561510b565b935061513b818560208601613d3e565b80840191505092915050565b7f7c00000000000000000000000000000000000000000000000000000000000000600082015250565b600061517d60018361510b565b915061518882615147565b600182019050919050565b600061519f8285615116565b91506151aa82615170565b91506151b68284615116565b91508190509392505050565b7f43616e64696461746520616c7265616479206578697374730000000000000000600082015250565b60006151f8601883613fbb565b9150615203826151c2565b602082019050919050565b60006020820190508181036000830152615227816151eb565b9050919050565b60008190508160005260206000209050919050565b60006020601f8301049050919050565b600082821b905092915050565b6000600883026152907fffffffffffffffffffffffffffffffffffffffffffffffffffffffffffffffff82615253565b61529a8683615253565b95508019841693508086168417925050509392505050565b60006152cd6152c86152c384613b59565b614e7d565b613b59565b9050919050565b6000819050919050565b6152e7836152b2565b6152fb6152f3826152d4565b848454615260565b825550505050565b600090565b615310615303565b61531b8184846152de565b505050565b5b8181101561533f57615334600082615308565b600181019050615321565b5050565b601f821115615384576153558161522e565b61535e84615243565b8101602085101561536d578190505b61538161537985615243565b830182615320565b50505b505050565b600082821c905092915050565b60006153a760001984600802615389565b1980831691505092915050565b60006153c08383615396565b9150826002028217905092915050565b6153d982613d22565b67ffffffffffffffff8111156153f2576153f16144ea565b5b6153fc8254614cbc565b615407828285615343565b600060209050601f83116001811461543a5760008415615428578287015190505b61543285826153b4565b86555061549a565b601f1984166154488661522e565b60005b828110156154705784890151825560018201915060208501945060208101905061544b565b8683101561548d5784890151615489601f891682615396565b8355505b6001600288020188555050505b505050505050565b600060608201905081810360008301526154bc8186613fcc565b905081810360208301526154d08185613fcc565b905081810360408301526154e48184613fcc565b9050949350505050565b7f566f74657220616c726561647920726567697374657265640000000000000000600082015250565b6000615524601883613fbb565b915061552f826154ee565b602082019050919050565b6000602082019050818103600083015261555381615517565b9050919050565b7f456c656374696f6e206d75737420626520696e20667574757265000000000000600082015250565b6000615590601a83613fbb565b915061559b8261555a565b602082019050919050565b600060208201905081810360008301526155bf81615583565b9050919050565b7f466972737420726f756e64206d75737420626520616674657220656c6563746960008201527f6f6e207374617274000000000000000000000000000000000000000000000000602082015250565b6000615622602883613fbb565b915061562d826155c6565b604082019050919050565b6000602082019050818103600083015261565181615615565b9050919050565b7f4174206c65617374206f6e652063616e64696461746500000000000000000000600082015250565b600061568e601683613fbb565b915061569982615658565b602082019050919050565b600060208201905081810360008301526156bd81615681565b9050919050565b6000819050919050565b60006156e96156e46156df846156c4565b614e7d565b613b59565b9050919050565b6156f9816156ce565b82525050565b600081549050919050565b60008190508160005260206000209050919050565b60008160001c9050919050565b6000819050919050565b60006157496157448361571f565b61572c565b9050919050565b600061575c8254615736565b9050919050565b6000600182019050919050565b600061577b826156ff565b61578581856141f7565b93506157908361570a565b8060005b838110156157c8576157a582615750565b6157af8882614218565b97506157ba83615763565b925050600181019050615794565b5085935050505092915050565b60006080820190506157ea6000830187613cbd565b6157f76020830186613cbd565b61580460408301856156f0565b81810360608301526158168184615770565b90509594505050505056fea26469706673582212209119b21fe12ae85d46bfb29f69c5a3f4d4ef83d93716efbbfc0bafdb6d99c7df64736f6c634300081c0033",
  "linkReferences": {},
  "deployedLinkReferences": {}
}