{
  "_format": "hh-sol-artifact-1",
  "contractName": "PresidentialElection",
  "sourceName": "contracts/PresidentialElection.sol",
  "abi": [
    {
      "anonymous": false,
      "inputs": [
        {
          "indexed": true,
          "internalType": "address",
          "name": "admin",
          "type": "address"
        }
      ],
      "name": "AdminAdded",
      "type": "event"
    },
    {
      "anonymous": false,
      "inputs": [
        {
          "indexed": true,
          "internalType": "address",
          "name": "admin",
          "type": "address"
        }
      ],
      "name": "AdminRemoved",
      "type": "event"
    },
    {
      "anonymous": false,
      "inputs": [
        {
          "indexed": true,
          "internalType": "uint256",
          "name": "candidateId",
          "type": "uint256"
        },
        {
          "indexed": false,
          "internalType": "string",
          "name": "firstName",
          "type": "string"
        },
        {
          "indexed": false,
          "internalType": "string",
          "name": "lastName",
          "type": "string"
        },
        {
          "indexed": false,
          "internalType": "string",
          "name": "politicalParty",
          "type": "string"
        }
      ],
      "name": "CandidateAdded",
      "type": "event"
    },
    {
      "anonymous": false,
      "inputs": [
        {
          "indexed": true,
          "internalType": "uint256",
          "name": "electionId",
          "type": "uint256"
        },
        {
          "indexed": false,
          "internalType": "uint256",
          "name": "electionStartDate",
          "type": "uint256"
        },
        {
          "indexed": false,
          "internalType": "uint256",
          "name": "firstRoundStartDate",
          "type": "uint256"
        },
        {
          "indexed": false,
          "internalType": "uint256",
          "name": "roundDuration",
          "type": "uint256"
        },
        {
          "indexed": false,
          "internalType": "uint256[]",
          "name": "candidateIds",
          "type": "uint256[]"
        }
      ],
      "name": "ElectionCreated",
      "type": "event"
    },
    {
      "anonymous": false,
      "inputs": [
        {
          "indexed": true,
          "internalType": "address",
          "name": "previousHolder",
          "type": "address"
        },
        {
          "indexed": true,
          "internalType": "address",
          "name": "newHolder",
          "type": "address"
        }
      ],
      "name": "OwnershipTransferred",
      "type": "event"
    },
    {
      "anonymous": false,
      "inputs": [
        {
          "indexed": true,
          "internalType": "uint256",
          "name": "electionId",
          "type": "uint256"
        },
        {
          "indexed": false,
          "internalType": "uint8",
          "name": "round",
          "type": "uint8"
        },
        {
          "indexed": false,
          "internalType": "bool",
          "name": "finished",
          "type": "bool"
        },
        {
          "indexed": false,
          "internalType": "uint256",
          "name": "winnerCandidateId",
          "type": "uint256"
        }
      ],
      "name": "RoundFinalized",
      "type": "event"
    },
    {
      "anonymous": false,
      "inputs": [
        {
          "indexed": true,
          "internalType": "uint256",
          "name": "electionId",
          "type": "uint256"
        },
        {
          "indexed": false,
          "internalType": "uint8",
          "name": "round",
          "type": "uint8"
        },
        {
          "indexed": true,
          "internalType": "uint256",
          "name": "candidateId",
          "type": "uint256"
        },
        {
          "indexed": false,
          "internalType": "address",
          "name": "voter",
          "type": "address"
        },
        {
          "indexed": false,
          "internalType": "uint256",
          "name": "timestamp",
          "type": "uint256"
        }
      ],
      "name": "VoteCast",
      "type": "event"
    },
    {
      "anonymous": false,
      "inputs": [
        {
          "indexed": true,
          "internalType": "address",
          "name": "voter",
          "type": "address"
        },
        {
          "indexed": false,
          "internalType": "uint256",
          "name": "registrationTime",
          "type": "uint256"
        }
      ],
      "name": "VoterAdded",
      "type": "event"
    },
    {
      "anonymous": false,
      "inputs": [
        {
          "indexed": true,
          "internalType": "address",
          "name": "voter",
          "type": "address"
        }
      ],
      "name": "VoterRemoved",
      "type": "event"
    },
    {
      "inputs": [
        {
          "internalType": "address",
          "name": "_admin",
          "type": "address"
        }
      ],
      "name": "addAdmin",
      "outputs": [],
      "stateMutability": "nonpayable",
      "type": "function"
    },
    {
      "inputs": [
        {
          "internalType": "string",
          "name": "_firstName",
          "type": "string"
        },
        {
          "internalType": "string",
          "name": "_lastName",
          "type": "string"
        },
        {
          "internalType": "string",
          "name": "_politicalParty",
          "type": "string"
        }
      ],
      "name": "addCandidate",
      "outputs": [],
      "stateMutability": "nonpayable",
      "type": "function"
    },
    {
      "inputs": [
        {
          "internalType": "address",
          "name": "_voter",
          "type": "address"
        }
      ],
      "name": "addVoter",
      "outputs": [],
      "stateMutability": "nonpayable",
      "type": "function"
    },
    {
      "inputs": [
        {
          "internalType": "address",
          "name": "",
          "type": "address"
        }
      ],
      "name": "admins",
      "outputs": [
        {
          "internalType": "bool",
          "name": "",
          "type": "bool"
        }
      ],
      "stateMutability": "view",
      "type": "function"
    },
    {
      "inputs": [
        {
          "internalType": "uint256",
          "name": "candidateId",
          "type": "uint256"
        }
      ],
      "name": "candidateExistsById",
      "outputs": [
        {
          "internalType": "bool",
          "name": "",
          "type": "bool"
        }
      ],
      "stateMutability": "view",
      "type": "function"
    },
    {
      "inputs": [
        {
          "internalType": "uint256",
          "name": "",
          "type": "uint256"
        },
        {
          "internalType": "uint256",
          "name": "",
          "type": "uint256"
        }
      ],
      "name": "candidateTotalVotes",
      "outputs": [
        {
          "internalType": "uint256",
          "name": "",
          "type": "uint256"
        }
      ],
      "stateMutability": "view",
      "type": "function"
    },
    {
      "inputs": [
        {
          "internalType": "uint256",
          "name": "",
          "type": "uint256"
        }
      ],
      "name": "candidates",
      "outputs": [
        {
          "internalType": "uint256",
          "name": "id",
          "type": "uint256"
        },
        {
          "internalType": "string",
          "name": "firstName",
          "type": "string"
        },
        {
          "internalType": "string",
          "name": "lastName",
          "type": "string"
        },
        {
          "internalType": "string",
          "name": "politicalParty",
          "type": "string"
        }
      ],
      "stateMutability": "view",
      "type": "function"
    },
    {
      "inputs": [],
      "name": "candidatesCount",
      "outputs": [
        {
          "internalType": "uint256",
          "name": "",
          "type": "uint256"
        }
      ],
      "stateMutability": "view",
      "type": "function"
    },
    {
      "inputs": [
        {
          "internalType": "uint256",
          "name": "electionId",
          "type": "uint256"
        },
        {
          "internalType": "uint256",
          "name": "candidateId",
          "type": "uint256"
        }
      ],
      "name": "castVote",
      "outputs": [],
      "stateMutability": "nonpayable",
      "type": "function"
    },
    {
      "inputs": [],
      "name": "contractHolder",
      "outputs": [
        {
          "internalType": "address",
          "name": "",
          "type": "address"
        }
      ],
      "stateMutability": "view",
      "type": "function"
    },
    {
      "inputs": [
        {
          "internalType": "uint256",
          "name": "_electionStartDate",
          "type": "uint256"
        },
        {
          "internalType": "uint256",
          "name": "_firstRoundStartDate",
          "type": "uint256"
        },
        {
          "internalType": "uint256[]",
          "name": "_candidateIds",
          "type": "uint256[]"
        }
      ],
      "name": "createElection",
      "outputs": [
        {
          "internalType": "uint256",
          "name": "",
          "type": "uint256"
        }
      ],
      "stateMutability": "nonpayable",
      "type": "function"
    },
    {
      "inputs": [
        {
          "internalType": "uint256",
          "name": "",
          "type": "uint256"
        },
        {
          "internalType": "uint8",
          "name": "",
          "type": "uint8"
        }
      ],
      "name": "electionRounds",
      "outputs": [
        {
          "internalType": "uint8",
          "name": "roundNumber",
          "type": "uint8"
        },
        {
          "internalType": "uint256",
          "name": "startDate",
          "type": "uint256"
        },
        {
          "internalType": "uint256",
          "name": "endDate",
          "type": "uint256"
        },
        {
          "internalType": "bool",
          "name": "finalized",
          "type": "bool"
        },
        {
          "internalType": "uint256",
          "name": "totalVotes",
          "type": "uint256"
        },
        {
          "internalType": "uint256",
          "name": "winnerCandidateId",
          "type": "uint256"
        }
      ],
      "stateMutability": "view",
      "type": "function"
    },
    {
      "inputs": [
        {
          "internalType": "uint256",
          "name": "",
          "type": "uint256"
        },
        {
          "internalType": "uint256",
          "name": "",
          "type": "uint256"
        }
      ],
      "name": "electionWinners",
      "outputs": [
        {
          "internalType": "uint256",
          "name": "",
          "type": "uint256"
        }
      ],
      "stateMutability": "view",
      "type": "function"
    },
    {
      "inputs": [
        {
          "internalType": "uint256",
          "name": "",
          "type": "uint256"
        }
      ],
      "name": "elections",
      "outputs": [
        {
          "internalType": "uint256",
          "name": "electionId",
          "type": "uint256"
        },
        {
          "internalType": "uint256",
          "name": "electionStartDate",
          "type": "uint256"
        },
        {
          "internalType": "uint256",
          "name": "firstRoundStartDate",
          "type": "uint256"
        },
        {
          "internalType": "uint256",
          "name": "roundDuration",
          "type": "uint256"
        },
        {
          "internalType": "bool",
          "name": "isActive",
          "type": "bool"
        },
        {
          "internalType": "uint8",
          "name": "currentRound",
          "type": "uint8"
        },
        {
          "internalType": "uint256",
          "name": "winnerCandidateId",
          "type": "uint256"
        }
      ],
      "stateMutability": "view",
      "type": "function"
    },
    {
      "inputs": [],
      "name": "electionsCount",
      "outputs": [
        {
          "internalType": "uint256",
          "name": "",
          "type": "uint256"
        }
      ],
      "stateMutability": "view",
      "type": "function"
    },
    {
      "inputs": [
        {
          "internalType": "uint256",
          "name": "electionId",
          "type": "uint256"
        },
        {
          "internalType": "bool",
          "name": "force",
          "type": "bool"
        }
      ],
      "name": "finalizeRound",
      "outputs": [],
      "stateMutability": "nonpayable",
      "type": "function"
    },
    {
      "inputs": [],
      "name": "getAdmins",
      "outputs": [
        {
          "internalType": "address[]",
          "name": "",
          "type": "address[]"
        }
      ],
      "stateMutability": "view",
      "type": "function"
    },
    {
      "inputs": [],
      "name": "getAllCandidates",
      "outputs": [
        {
          "components": [
            {
              "internalType": "uint256",
              "name": "id",
              "type": "uint256"
            },
            {
              "internalType": "string",
              "name": "firstName",
              "type": "string"
            },
            {
              "internalType": "string",
              "name": "lastName",
              "type": "string"
            },
            {
              "internalType": "string",
              "name": "politicalParty",
              "type": "string"
            }
          ],
          "internalType": "struct CandidatesManager.Candidate[]",
          "name": "",
          "type": "tuple[]"
        }
      ],
      "stateMutability": "view",
      "type": "function"
    },
    {
      "inputs": [],
      "name": "getAllVoters",
      "outputs": [
        {
          "internalType": "address[]",
          "name": "",
          "type": "address[]"
        }
      ],
      "stateMutability": "view",
      "type": "function"
    },
    {
      "inputs": [
        {
          "internalType": "uint256",
          "name": "electionId",
          "type": "uint256"
        },
        {
          "internalType": "uint8",
          "name": "roundNumber",
          "type": "uint8"
        }
      ],
      "name": "getCandidateIdsForRound",
      "outputs": [
        {
          "internalType": "uint256[]",
          "name": "",
          "type": "uint256[]"
        }
      ],
      "stateMutability": "view",
      "type": "function"
    },
    {
      "inputs": [],
      "name": "getCurrentTime",
      "outputs": [
        {
          "internalType": "uint256",
          "name": "",
          "type": "uint256"
        }
      ],
      "stateMutability": "view",
      "type": "function"
    },
    {
      "inputs": [
        {
          "internalType": "uint256",
          "name": "_electionId",
          "type": "uint256"
        }
      ],
      "name": "getElectionResult",
      "outputs": [
        {
          "internalType": "uint256",
          "name": "winnerCandidateId",
          "type": "uint256"
        }
      ],
      "stateMutability": "view",
      "type": "function"
    },
    {
      "inputs": [
        {
          "internalType": "uint256",
          "name": "electionId",
          "type": "uint256"
        }
      ],
      "name": "getParticipatingVotersCount",
      "outputs": [
        {
          "internalType": "uint256",
          "name": "",
          "type": "uint256"
        }
      ],
      "stateMutability": "view",
      "type": "function"
    },
    {
      "inputs": [
        {
          "internalType": "uint256",
          "name": "electionId",
          "type": "uint256"
        },
        {
          "internalType": "uint8",
          "name": "roundNumber",
          "type": "uint8"
        }
      ],
      "name": "getParticipatingVotersCountForRound",
      "outputs": [
        {
          "internalType": "uint256",
          "name": "",
          "type": "uint256"
        }
      ],
      "stateMutability": "view",
      "type": "function"
    },
    {
      "inputs": [],
      "name": "getRegisteredVotersCount",
      "outputs": [
        {
          "internalType": "uint256",
          "name": "",
          "type": "uint256"
        }
      ],
      "stateMutability": "view",
      "type": "function"
    },
    {
      "inputs": [
        {
          "internalType": "uint256",
          "name": "_electionId",
          "type": "uint256"
        },
        {
          "internalType": "uint8",
          "name": "_round",
          "type": "uint8"
        }
      ],
      "name": "getRoundResults",
      "outputs": [
        {
          "internalType": "uint256",
          "name": "totalVotes",
          "type": "uint256"
        },
        {
          "internalType": "uint256[]",
          "name": "candidateIds",
          "type": "uint256[]"
        },
        {
          "internalType": "uint256[]",
          "name": "votesPerCandidate",
          "type": "uint256[]"
        },
        {
          "internalType": "uint256",
          "name": "startDate",
          "type": "uint256"
        },
        {
          "internalType": "uint256",
          "name": "endDate",
          "type": "uint256"
        }
      ],
      "stateMutability": "view",
      "type": "function"
    },
    {
      "inputs": [
        {
          "internalType": "uint256",
          "name": "_electionId",
          "type": "uint256"
        },
        {
          "internalType": "uint8",
          "name": "_round",
          "type": "uint8"
        }
      ],
      "name": "getRoundStatus",
      "outputs": [
        {
          "internalType": "enum ElectionLogic.RoundStatus",
          "name": "",
          "type": "uint8"
        }
      ],
      "stateMutability": "view",
      "type": "function"
    },
    {
      "inputs": [],
      "name": "getTotalRegisteredVoters",
      "outputs": [
        {
          "internalType": "uint256",
          "name": "",
          "type": "uint256"
        }
      ],
      "stateMutability": "view",
      "type": "function"
    },
    {
      "inputs": [
        {
          "internalType": "uint256",
          "name": "electionId",
          "type": "uint256"
        },
        {
          "internalType": "uint8",
          "name": "roundNumber",
          "type": "uint8"
        }
      ],
      "name": "isRoundActive",
      "outputs": [
        {
          "internalType": "bool",
          "name": "",
          "type": "bool"
        }
      ],
      "stateMutability": "view",
      "type": "function"
    },
    {
      "inputs": [
        {
          "internalType": "address",
          "name": "_admin",
          "type": "address"
        }
      ],
      "name": "removeAdmin",
      "outputs": [],
      "stateMutability": "nonpayable",
      "type": "function"
    },
    {
      "inputs": [
        {
          "internalType": "address",
          "name": "_voter",
          "type": "address"
        }
      ],
      "name": "removeVoter",
      "outputs": [],
      "stateMutability": "nonpayable",
      "type": "function"
    },
    {
      "inputs": [
        {
          "internalType": "uint256",
          "name": "",
          "type": "uint256"
        },
        {
          "internalType": "uint8",
          "name": "",
          "type": "uint8"
        },
        {
          "internalType": "uint256",
          "name": "",
          "type": "uint256"
        }
      ],
      "name": "roundCandidateVotes",
      "outputs": [
        {
          "internalType": "uint256",
          "name": "",
          "type": "uint256"
        }
      ],
      "stateMutability": "view",
      "type": "function"
    },
    {
      "inputs": [
        {
          "internalType": "uint256",
          "name": "",
          "type": "uint256"
        },
        {
          "internalType": "uint8",
          "name": "",
          "type": "uint8"
        },
        {
          "internalType": "address",
          "name": "",
          "type": "address"
        }
      ],
      "name": "roundHasVoted",
      "outputs": [
        {
          "internalType": "bool",
          "name": "",
          "type": "bool"
        }
      ],
      "stateMutability": "view",
      "type": "function"
    },
    {
      "inputs": [
        {
          "internalType": "address",
          "name": "_newHolder",
          "type": "address"
        }
      ],
      "name": "transferOwnership",
      "outputs": [],
      "stateMutability": "nonpayable",
      "type": "function"
    },
    {
      "inputs": [
        {
          "internalType": "uint256",
          "name": "",
          "type": "uint256"
        }
      ],
      "name": "voterList",
      "outputs": [
        {
          "internalType": "address",
          "name": "",
          "type": "address"
        }
      ],
      "stateMutability": "view",
      "type": "function"
    },
    {
      "inputs": [
        {
          "internalType": "address",
          "name": "",
          "type": "address"
        }
      ],
      "name": "voters",
      "outputs": [
        {
          "internalType": "bool",
          "name": "isRegistered",
          "type": "bool"
        },
        {
          "internalType": "uint256",
          "name": "registrationTime",
          "type": "uint256"
        }
      ],
      "stateMutability": "view",
      "type": "function"
    },
    {
      "inputs": [
        {
          "internalType": "uint256",
          "name": "",
          "type": "uint256"
        },
        {
          "internalType": "uint8",
          "name": "",
          "type": "uint8"
        },
        {
          "internalType": "uint256",
          "name": "",
          "type": "uint256"
        }
      ],
      "name": "votersByRound",
      "outputs": [
        {
          "internalType": "address",
          "name": "",
          "type": "address"
        }
      ],
      "stateMutability": "view",
      "type": "function"
    },
    {
      "inputs": [
        {
          "internalType": "uint256",
          "name": "",
          "type": "uint256"
        },
        {
          "internalType": "uint8",
          "name": "",
          "type": "uint8"
        },
        {
          "internalType": "address",
          "name": "",
          "type": "address"
        }
      ],
      "name": "votes",
      "outputs": [
        {
          "internalType": "uint256",
          "name": "candidateId",
          "type": "uint256"
        },
        {
          "internalType": "uint256",
          "name": "timestamp",
          "type": "uint256"
        }
      ],
      "stateMutability": "view",
      "type": "function"
    }
  ],
  "bytecode": "0x608060405234801561001057600080fd5b5033600f60006101000a81548173ffffffffffffffffffffffffffffffffffffffff021916908373ffffffffffffffffffffffffffffffffffffffff1602179055506001601060003373ffffffffffffffffffffffffffffffffffffffff1673ffffffffffffffffffffffffffffffffffffffff16815260200190815260200160002060006101000a81548160ff0219169083151502179055506011339080600181540180825580915050600190039060005260206000200160009091909190916101000a81548173ffffffffffffffffffffffffffffffffffffffff021916908373ffffffffffffffffffffffffffffffffffffffff1602179055503373ffffffffffffffffffffffffffffffffffffffff167f44d6d25963f097ad14f29f06854a01f575648a1ef82f30e562ccd3889717e33960405160405180910390a26040518060800160405280600081526020016040518060400160405280600481526020017f566f74650000000000000000000000000000000000000000000000000000000081525081526020016040518060400160405280600581526020017f426c616e6300000000000000000000000000000000000000000000000000000081525081526020016040518060400160405280600581526020017f417563756e0000000000000000000000000000000000000000000000000000008152508152506004600080815260200190815260200160002060008201518160000155602082015181600101908161024391906104c8565b50604082015181600201908161025991906104c8565b50606082015181600301908161026f91906104c8565b5090505061059a565b600081519050919050565b7f4e487b7100000000000000000000000000000000000000000000000000000000600052604160045260246000fd5b7f4e487b7100000000000000000000000000000000000000000000000000000000600052602260045260246000fd5b600060028204905060018216806102f957607f821691505b60208210810361030c5761030b6102b2565b5b50919050565b60008190508160005260206000209050919050565b60006020601f8301049050919050565b600082821b905092915050565b6000600883026103747fffffffffffffffffffffffffffffffffffffffffffffffffffffffffffffffff82610337565b61037e8683610337565b95508019841693508086168417925050509392505050565b6000819050919050565b6000819050919050565b60006103c56103c06103bb84610396565b6103a0565b610396565b9050919050565b6000819050919050565b6103df836103aa565b6103f36103eb826103cc565b848454610344565b825550505050565b600090565b6104086103fb565b6104138184846103d6565b505050565b5b818110156104375761042c600082610400565b600181019050610419565b5050565b601f82111561047c5761044d81610312565b61045684610327565b81016020851015610465578190505b61047961047185610327565b830182610418565b50505b505050565b600082821c905092915050565b600061049f60001984600802610481565b1980831691505092915050565b60006104b8838361048e565b9150826002028217905092915050565b6104d182610278565b67ffffffffffffffff8111156104ea576104e9610283565b5b6104f482546102e1565b6104ff82828561043b565b600060209050601f8311600181146105325760008415610520578287015190505b61052a85826104ac565b865550610592565b601f19841661054086610312565b60005b8281101561056857848901518255600182019150602085019450602081019050610543565b868310156105855784890151610581601f89168261048e565b8355505b6001600288020188555050505b505050505050565b615d71806105a96000396000f3fe608060405234801561001057600080fd5b50600436106102315760003560e01c80637bf39e1211610130578063aa82ae79116100b8578063caf1475d1161007c578063caf1475d1461075f578063e684cbf914610790578063f0134566146107c0578063f2fde38b146107f0578063f4ab9adf1461080c57610231565b8063aa82ae791461067e578063ab95a7dd146106b3578063abfb7725146106e3578063ad71f8dc14610713578063b04e523e1461072f57610231565b80639a74c695116100ff5780639a74c695146105bf5780639ed3e95e146105dd578063a298cbc114610611578063a3ec138d1461062f578063a91081a11461066057610231565b80637bf39e1214610513578063837ec15f1461054357806386c1ff681461057357806388a2c4b61461058f57610231565b80633477ee2e116101be57806355af47881161018257806355af4788146104575780635e6fef01146104735780636546d5fd146104a957806369a37b3e146104d957806370480275146104f757610231565b80633477ee2e1461037657806335bbe70e146103a9578063429b62e5146103c757806350e2e8af146103f7578063545458c81461042757610231565b80632c0a3f89116102055780632c0a3f89146102d05780632d35a8a2146102ec5780632e6997fe1461030a57806331ae450b14610328578063331daa0e1461034657610231565b80623eee01146102365780631785f53c1461026657806323fc4b361461028257806329cb924d146102b2575b600080fd5b610250600480360381019061024b9190613fab565b610828565b60405161025d9190613ff3565b60405180910390f35b610280600480360381019061027b919061406c565b610842565b005b61029c60048036038101906102979190613fab565b610b83565b6040516102a991906140a8565b60405180910390f35b6102ba610c8b565b6040516102c791906140a8565b60405180910390f35b6102ea60048036038101906102e591906140c3565b610c93565b005b6102f46111fa565b60405161030191906140a8565b60405180910390f35b610312611200565b60405161031f91906142d5565b60405180910390f35b61033061148b565b60405161033d91906143b5565b60405180910390f35b610360600480360381019061035b9190614410565b611519565b60405161036d91906140a8565b60405180910390f35b610390600480360381019061038b9190613fab565b611551565b6040516103a0949392919061449a565b60405180910390f35b6103b1611719565b6040516103be91906143b5565b60405180910390f35b6103e160048036038101906103dc919061406c565b6117a7565b6040516103ee9190613ff3565b60405180910390f35b610411600480360381019061040c9190613fab565b6117c7565b60405161041e9190614503565b60405180910390f35b610441600480360381019061043c91906140c3565b611806565b60405161044e91906140a8565b60405180910390f35b610471600480360381019061046c919061454a565b61182b565b005b61048d60048036038101906104889190613fab565b61231b565b6040516104a09796959493929190614599565b60405180910390f35b6104c360048036038101906104be9190614410565b612377565b6040516104d091906146b7565b60405180910390f35b6104e16123fd565b6040516104ee91906140a8565b60405180910390f35b610511600480360381019061050c919061406c565b61240c565b005b61052d600480360381019061052891906146d9565b612699565b60405161053a9190613ff3565b60405180910390f35b61055d60048036038101906105589190614410565b6126d5565b60405161056a9190613ff3565b60405180910390f35b61058d6004803603810190610588919061406c565b612725565b005b6105a960048036038101906105a49190614410565b612a6b565b6040516105b691906147a3565b60405180910390f35b6105c7612af1565b6040516105d491906140a8565b60405180910390f35b6105f760048036038101906105f29190614410565b612af7565b6040516106089594939291906147be565b60405180910390f35b610619612cee565b6040516106269190614503565b60405180910390f35b6106496004803603810190610644919061406c565b612d14565b60405161065792919061481f565b60405180910390f35b610668612d45565b60405161067591906140a8565b60405180910390f35b61069860048036038101906106939190614410565b612d51565b6040516106aa96959493929190614848565b60405180910390f35b6106cd60048036038101906106c891906148a9565b612db4565b6040516106da9190614503565b60405180910390f35b6106fd60048036038101906106f89190613fab565b612e0f565b60405161070a91906140a8565b60405180910390f35b61072d60048036038101906107289190614a31565b612e2f565b005b610749600480360381019061074491906140c3565b613058565b60405161075691906140a8565b60405180910390f35b610779600480360381019061077491906146d9565b613089565b604051610787929190614ad8565b60405180910390f35b6107aa60048036038101906107a591906148a9565b6130c7565b6040516107b791906140a8565b60405180910390f35b6107da60048036038101906107d59190614b61565b6130f9565b6040516107e791906140a8565b60405180910390f35b61080a6004803603810190610805919061406c565b61319d565b005b6108266004803603810190610821919061406c565b61335c565b005b6000808211801561083b57506006548211155b9050919050565b600f60009054906101000a900473ffffffffffffffffffffffffffffffffffffffff1673ffffffffffffffffffffffffffffffffffffffff163373ffffffffffffffffffffffffffffffffffffffff16146108d2576040517f08c379a00000000000000000000000000000000000000000000000000000000081526004016108c990614c21565b60405180910390fd5b601060008273ffffffffffffffffffffffffffffffffffffffff1673ffffffffffffffffffffffffffffffffffffffff16815260200190815260200160002060009054906101000a900460ff1661095e576040517f08c379a000000000000000000000000000000000000000000000000000000000815260040161095590614c8d565b60405180910390fd5b6000601060008373ffffffffffffffffffffffffffffffffffffffff1673ffffffffffffffffffffffffffffffffffffffff16815260200190815260200160002060006101000a81548160ff02191690831515021790555060005b601180549050811015610b3c578173ffffffffffffffffffffffffffffffffffffffff16601182815481106109f1576109f0614cad565b5b9060005260206000200160009054906101000a900473ffffffffffffffffffffffffffffffffffffffff1673ffffffffffffffffffffffffffffffffffffffff1603610b2f5760116001601180549050610a4b9190614d0b565b81548110610a5c57610a5b614cad565b5b9060005260206000200160009054906101000a900473ffffffffffffffffffffffffffffffffffffffff1660118281548110610a9b57610a9a614cad565b5b9060005260206000200160006101000a81548173ffffffffffffffffffffffffffffffffffffffff021916908373ffffffffffffffffffffffffffffffffffffffff1602179055506011805480610af557610af4614d3f565b5b6001900381819060005260206000200160006101000a81549073ffffffffffffffffffffffffffffffffffffffff02191690559055610b3c565b80806001019150506109b9565b508073ffffffffffffffffffffffffffffffffffffffff167fa3b62bc36326052d97ea62d63c3d60308ed4c3ea8ac079dd8499f1e9c4f80c0f60405160405180910390a250565b6000806008600084815260200190815260200160002090508060050160009054906101000a900460ff1615610bed576040517f08c379a0000000000000000000000000000000000000000000000000000000008152600401610be490614de0565b60405180910390fd5b60006009600085815260200190815260200160002060008360050160019054906101000a900460ff1660ff1660ff16815260200190815260200160002090508060030160009054906101000a900460ff16610c7d576040517f08c379a0000000000000000000000000000000000000000000000000000000008152600401610c7490614e4c565b60405180910390fd5b816006015492505050919050565b600042905090565b600160003373ffffffffffffffffffffffffffffffffffffffff1673ffffffffffffffffffffffffffffffffffffffff16815260200190815260200160002060000160009054906101000a900460ff16610d22576040517f08c379a0000000000000000000000000000000000000000000000000000000008152600401610d1990614eb8565b60405180910390fd5b60006008600084815260200190815260200160002090508060050160009054906101000a900460ff16610d8a576040517f08c379a0000000000000000000000000000000000000000000000000000000008152600401610d8190614f24565b60405180910390fd5b60008160050160019054906101000a900460ff16905060006009600086815260200190815260200160002060008360ff1660ff16815260200190815260200160002090508060010154421015610e15576040517f08c379a0000000000000000000000000000000000000000000000000000000008152600401610e0c90614f90565b60405180910390fd5b8060020154421115610e5c576040517f08c379a0000000000000000000000000000000000000000000000000000000008152600401610e5390614ffc565b60405180910390fd5b600c600086815260200190815260200160002060008360ff1660ff16815260200190815260200160002060003373ffffffffffffffffffffffffffffffffffffffff1673ffffffffffffffffffffffffffffffffffffffff16815260200190815260200160002060009054906101000a900460ff1615610f11576040517f08c379a0000000000000000000000000000000000000000000000000000000008152600401610f0890615068565b60405180910390fd5b6000805b8260060180549050811015610f615785836006018281548110610f3b57610f3a614cad565b5b906000526020600020015403610f545760019150610f61565b8080600101915050610f15565b5080610fa2576040517f08c379a0000000000000000000000000000000000000000000000000000000008152600401610f99906150d4565b60405180910390fd5b6001600c600088815260200190815260200160002060008560ff1660ff16815260200190815260200160002060003373ffffffffffffffffffffffffffffffffffffffff1673ffffffffffffffffffffffffffffffffffffffff16815260200190815260200160002060006101000a81548160ff021916908315150217905550600a600087815260200190815260200160002060008460ff1660ff1681526020019081526020016000206000868152602001908152602001600020600081548092919061106e906150f4565b9190505550816004016000815480929190611088906150f4565b91905055506040518060400160405280868152602001428152506012600088815260200190815260200160002060008560ff1660ff16815260200190815260200160002060003373ffffffffffffffffffffffffffffffffffffffff1673ffffffffffffffffffffffffffffffffffffffff1681526020019081526020016000206000820151816000015560208201518160010155905050600b600087815260200190815260200160002060008460ff1660ff168152602001908152602001600020339080600181540180825580915050600190039060005260206000200160009091909190916101000a81548173ffffffffffffffffffffffffffffffffffffffff021916908373ffffffffffffffffffffffffffffffffffffffff1602179055506111b586336135b0565b84867ff1f3396e31d1dbd068c4e6169959218fe5ae731d73149dd82edc33beca09f22a8533426040516111ea9392919061513c565b60405180910390a3505050505050565b60065481565b6060600060016006546112139190615173565b67ffffffffffffffff81111561122c5761122b614906565b5b60405190808252806020026020018201604052801561126557816020015b611252613e4e565b81526020019060019003908161124a5790505b50905060005b60065481116114835760046000828152602001908152602001600020604051806080016040529081600082015481526020016001820180546112ac906151d6565b80601f01602080910402602001604051908101604052809291908181526020018280546112d8906151d6565b80156113255780601f106112fa57610100808354040283529160200191611325565b820191906000526020600020905b81548152906001019060200180831161130857829003601f168201915b5050505050815260200160028201805461133e906151d6565b80601f016020809104026020016040519081016040528092919081815260200182805461136a906151d6565b80156113b75780601f1061138c576101008083540402835291602001916113b7565b820191906000526020600020905b81548152906001019060200180831161139a57829003601f168201915b505050505081526020016003820180546113d0906151d6565b80601f01602080910402602001604051908101604052809291908181526020018280546113fc906151d6565b80156114495780601f1061141e57610100808354040283529160200191611449565b820191906000526020600020905b81548152906001019060200180831161142c57829003601f168201915b50505050508152505082828151811061146557611464614cad565b5b6020026020010181905250808061147b906150f4565b91505061126b565b508091505090565b6060601180548060200260200160405190810160405280929190818152602001828054801561150f57602002820191906000526020600020905b8160009054906101000a900473ffffffffffffffffffffffffffffffffffffffff1673ffffffffffffffffffffffffffffffffffffffff16815260200190600101908083116114c5575b5050505050905090565b6000600b600084815260200190815260200160002060008360ff1660ff16815260200190815260200160002080549050905092915050565b600460205280600052604060002060009150905080600001549080600101805461157a906151d6565b80601f01602080910402602001604051908101604052809291908181526020018280546115a6906151d6565b80156115f35780601f106115c8576101008083540402835291602001916115f3565b820191906000526020600020905b8154815290600101906020018083116115d657829003601f168201915b505050505090806002018054611608906151d6565b80601f0160208091040260200160405190810160405280929190818152602001828054611634906151d6565b80156116815780601f1061165657610100808354040283529160200191611681565b820191906000526020600020905b81548152906001019060200180831161166457829003601f168201915b505050505090806003018054611696906151d6565b80601f01602080910402602001604051908101604052809291908181526020018280546116c2906151d6565b801561170f5780601f106116e45761010080835404028352916020019161170f565b820191906000526020600020905b8154815290600101906020018083116116f257829003601f168201915b5050505050905084565b6060600080548060200260200160405190810160405280929190818152602001828054801561179d57602002820191906000526020600020905b8160009054906101000a900473ffffffffffffffffffffffffffffffffffffffff1673ffffffffffffffffffffffffffffffffffffffff1681526020019060010190808311611753575b5050505050905090565b60106020528060005260406000206000915054906101000a900460ff1681565b600081815481106117d757600080fd5b906000526020600020016000915054906101000a900473ffffffffffffffffffffffffffffffffffffffff1681565b600e602052816000526040600020602052806000526040600020600091509150505481565b600060086000848152602001908152602001600020905060008160050160019054906101000a900460ff16905060006009600086815260200190815260200160002060008360ff1660ff1681526020019081526020016000209050836118d257806002015442116118d1576040517f08c379a00000000000000000000000000000000000000000000000000000000081526004016118c890615253565b60405180910390fd5b5b8060030160009054906101000a900460ff1615611924576040517f08c379a000000000000000000000000000000000000000000000000000000000815260040161191b906152bf565b60405180910390fd5b6000600a600087815260200190815260200160002060008460ff1660ff16815260200190815260200160002060008081526020019081526020016000205482600401546119719190614d0b565b905060008103611a065760018260030160006101000a81548160ff02191690831515021790555060008460050160006101000a81548160ff02191690831515021790555060008460060181905550857f3a9cda69ee0d6dfee4acf22426df9b50f9af0d2acd191bd409070a7a51c3ac7b84600160006040516119f593929190615324565b60405180910390a250505050612317565b6000611a1287856136f4565b905060018460ff1603611dfb57603282611a2c919061535b565b60648260000151611a3d919061535b565b118015611a4e575060018160600151145b15611ae0578060400151856006018190555060018360030160006101000a81548160ff021916908315150217905550867f3a9cda69ee0d6dfee4acf22426df9b50f9af0d2acd191bd409070a7a51c3ac7b8560018460400151604051611ab69392919061539d565b60405180910390a260008560050160006101000a81548160ff021916908315150217905550611df6565b6000600185611aef91906153d4565b9050808660050160016101000a81548160ff021916908360ff1602179055506000600960008a815260200190815260200160002060008360ff1660ff1681526020019081526020016000209050818160000160006101000a81548160ff021916908360ff160217905550428160010181905550866003015442611b729190615173565b81600201819055506060600184606001511115611c3857836060015167ffffffffffffffff811115611ba757611ba6614906565b5b604051908082528060200260200182016040528015611bd55781602001602082028036833780820191505090505b50905060005b8460600151811015611c325784608001518181518110611bfe57611bfd614cad565b5b6020026020010151828281518110611c1957611c18614cad565b5b6020026020010181815250508080600101915050611bdb565b50611ca2565b611c9f8a88866040015187602001518a600601805480602002602001604051908101604052809291908181526020018280548015611c9557602002820191906000526020600020905b815481526020019060010190808311611c81575b5050505050613923565b90505b600060018251611cb29190615173565b67ffffffffffffffff811115611ccb57611cca614906565b5b604051908082528060200260200182016040528015611cf95781602001602082028036833780820191505090505b509050600081600081518110611d1257611d11614cad565b5b60200260200101818152505060005b8251811015611d7d57828181518110611d3d57611d3c614cad565b5b602002602001015182600183611d539190615173565b81518110611d6457611d63614cad565b5b6020026020010181815250508080600101915050611d21565b5080836006019080519060200190611d96929190613e76565b5060018760030160006101000a81548160ff0219169083151502179055508a7f3a9cda69ee0d6dfee4acf22426df9b50f9af0d2acd191bd409070a7a51c3ac7b89600080604051611de993929190615324565b60405180910390a2505050505b612311565b60028460ff160361213e576001816060015103611e9f578060400151856006018190555060018360030160006101000a81548160ff021916908315150217905550867f3a9cda69ee0d6dfee4acf22426df9b50f9af0d2acd191bd409070a7a51c3ac7b8560018460400151604051611e759392919061539d565b60405180910390a260008560050160006101000a81548160ff021916908315150217905550612139565b6000600185611eae91906153d4565b9050808660050160016101000a81548160ff021916908360ff1602179055506000600960008a815260200190815260200160002060008360ff1660ff1681526020019081526020016000209050818160000160006101000a81548160ff021916908360ff160217905550428160010181905550866003015442611f319190615173565b81600201819055506000836060015167ffffffffffffffff811115611f5957611f58614906565b5b604051908082528060200260200182016040528015611f875781602001602082028036833780820191505090505b50905060005b8460600151811015611fe45784608001518181518110611fb057611faf614cad565b5b6020026020010151828281518110611fcb57611fca614cad565b5b6020026020010181815250508080600101915050611f8d565b50600060018251611ff59190615173565b67ffffffffffffffff81111561200e5761200d614906565b5b60405190808252806020026020018201604052801561203c5781602001602082028036833780820191505090505b50905060008160008151811061205557612054614cad565b5b60200260200101818152505060005b82518110156120c0578281815181106120805761207f614cad565b5b6020026020010151826001836120969190615173565b815181106120a7576120a6614cad565b5b6020026020010181815250508080600101915050612064565b50808360060190805190602001906120d9929190613e76565b5060018760030160006101000a81548160ff0219169083151502179055508a7f3a9cda69ee0d6dfee4acf22426df9b50f9af0d2acd191bd409070a7a51c3ac7b8960008060405161212c93929190615324565b60405180910390a2505050505b612310565b60038460ff160361230f5760018160600151036121e2578060400151856006018190555060018360030160006101000a81548160ff021916908315150217905550867f3a9cda69ee0d6dfee4acf22426df9b50f9af0d2acd191bd409070a7a51c3ac7b85600184604001516040516121b89392919061539d565b60405180910390a260008560050160006101000a81548160ff02191690831515021790555061230e565b60008060005b836060015181101561225e5760008460800151828151811061220d5761220c614cad565b5b602002602001015190506000600e60008d815260200190815260200160002060008381526020019081526020016000205490508381111561224f578093508194505b505080806001019150506121e8565b508187600601819055508260800151600d60008b81526020019081526020016000209080519060200190612293929190613e76565b5060018560030160006101000a81548160ff021916908315150217905550887f3a9cda69ee0d6dfee4acf22426df9b50f9af0d2acd191bd409070a7a51c3ac7b876001856040516122e69392919061539d565b60405180910390a260008760050160006101000a81548160ff02191690831515021790555050505b5b5b5b50505050505b5050565b60086020528060005260406000206000915090508060000154908060010154908060020154908060030154908060050160009054906101000a900460ff16908060050160019054906101000a900460ff16908060060154905087565b60606009600084815260200190815260200160002060008360ff1660ff1681526020019081526020016000206006018054806020026020016040519081016040528092919081815260200182805480156123f057602002820191906000526020600020905b8154815260200190600101908083116123dc575b5050505050905092915050565b6000612407612d45565b905090565b600f60009054906101000a900473ffffffffffffffffffffffffffffffffffffffff1673ffffffffffffffffffffffffffffffffffffffff163373ffffffffffffffffffffffffffffffffffffffff161461249c576040517f08c379a000000000000000000000000000000000000000000000000000000000815260040161249390614c21565b60405180910390fd5b600073ffffffffffffffffffffffffffffffffffffffff168173ffffffffffffffffffffffffffffffffffffffff160361250b576040517f08c379a000000000000000000000000000000000000000000000000000000000815260040161250290615455565b60405180910390fd5b601060008273ffffffffffffffffffffffffffffffffffffffff1673ffffffffffffffffffffffffffffffffffffffff16815260200190815260200160002060009054906101000a900460ff1615612598576040517f08c379a000000000000000000000000000000000000000000000000000000000815260040161258f906154c1565b60405180910390fd5b6001601060008373ffffffffffffffffffffffffffffffffffffffff1673ffffffffffffffffffffffffffffffffffffffff16815260200190815260200160002060006101000a81548160ff0219169083151502179055506011819080600181540180825580915050600190039060005260206000200160009091909190916101000a81548173ffffffffffffffffffffffffffffffffffffffff021916908373ffffffffffffffffffffffffffffffffffffffff1602179055508073ffffffffffffffffffffffffffffffffffffffff167f44d6d25963f097ad14f29f06854a01f575648a1ef82f30e562ccd3889717e33960405160405180910390a250565b600c602052826000526040600020602052816000526040600020602052806000526040600020600092509250509054906101000a900460ff1681565b6000806009600085815260200190815260200160002060008460ff1660ff16815260200190815260200160002090508060010154421015801561271c575080600201544211155b91505092915050565b601060003373ffffffffffffffffffffffffffffffffffffffff1673ffffffffffffffffffffffffffffffffffffffff16815260200190815260200160002060009054906101000a900460ff166127b1576040517f08c379a00000000000000000000000000000000000000000000000000000000081526004016127a89061552d565b60405180910390fd5b600160008273ffffffffffffffffffffffffffffffffffffffff1673ffffffffffffffffffffffffffffffffffffffff16815260200190815260200160002060000160009054906101000a900460ff16612840576040517f08c379a000000000000000000000000000000000000000000000000000000000815260040161283790615599565b60405180910390fd5b600160008273ffffffffffffffffffffffffffffffffffffffff1673ffffffffffffffffffffffffffffffffffffffff168152602001908152602001600020600080820160006101000a81549060ff02191690556001820160009055505060005b600080549050811015612a24578173ffffffffffffffffffffffffffffffffffffffff16600082815481106128d9576128d8614cad565b5b9060005260206000200160009054906101000a900473ffffffffffffffffffffffffffffffffffffffff1673ffffffffffffffffffffffffffffffffffffffff1603612a1757600060016000805490506129339190614d0b565b8154811061294457612943614cad565b5b9060005260206000200160009054906101000a900473ffffffffffffffffffffffffffffffffffffffff166000828154811061298357612982614cad565b5b9060005260206000200160006101000a81548173ffffffffffffffffffffffffffffffffffffffff021916908373ffffffffffffffffffffffffffffffffffffffff16021790555060008054806129dd576129dc614d3f565b5b6001900381819060005260206000200160006101000a81549073ffffffffffffffffffffffffffffffffffffffff02191690559055612a24565b80806001019150506128a1565b508073ffffffffffffffffffffffffffffffffffffffff167fa14a79af012d1756818f9bd59ccfc9ad185a71df86b9392d9059d9e6faf6d64460405160405180910390a250565b6000806009600085815260200190815260200160002060008460ff1660ff16815260200190815260200160002090508060030160009054906101000a900460ff1615612abb576002915050612aeb565b80600201544210612ad0576002915050612aeb565b80600101544210612ae5576001915050612aeb565b60009150505b92915050565b60075481565b600060608060008060006009600089815260200190815260200160002060008860ff1660ff16815260200190815260200160002090508060020154421180612b4d57508060030160009054906101000a900460ff165b612b8c576040517f08c379a0000000000000000000000000000000000000000000000000000000008152600401612b8390615605565b60405180910390fd5b80600401549550806001015492508060020154915060086000898152602001908152602001600020600401805480602002602001604051908101604052809291908181526020018280548015612c0157602002820191906000526020600020905b815481526020019060010190808311612bed575b50505050509450845167ffffffffffffffff811115612c2357612c22614906565b5b604051908082528060200260200182016040528015612c515781602001602082028036833780820191505090505b50935060005b8551811015612ce257600a60008a815260200190815260200160002060008960ff1660ff1681526020019081526020016000206000878381518110612c9f57612c9e614cad565b5b6020026020010151815260200190815260200160002054858281518110612cc957612cc8614cad565b5b6020026020010181815250508080600101915050612c57565b50509295509295909350565b600f60009054906101000a900473ffffffffffffffffffffffffffffffffffffffff1681565b60016020528060005260406000206000915090508060000160009054906101000a900460ff16908060010154905082565b60008080549050905090565b6009602052816000526040600020602052806000526040600020600091509150508060000160009054906101000a900460ff16908060010154908060020154908060030160009054906101000a900460ff16908060040154908060050154905086565b600b6020528260005260406000206020528160005260406000208181548110612ddc57600080fd5b90600052602060002001600092509250509054906101000a900473ffffffffffffffffffffffffffffffffffffffff1681565b600060026000838152602001908152602001600020805490509050919050565b601060003373ffffffffffffffffffffffffffffffffffffffff1673ffffffffffffffffffffffffffffffffffffffff16815260200190815260200160002060009054906101000a900460ff16612ebb576040517f08c379a0000000000000000000000000000000000000000000000000000000008152600401612eb29061552d565b60405180910390fd5b60008383604051602001612ed09291906156ad565b6040516020818303038152906040528051906020012090506005600082815260200190815260200160002060009054906101000a900460ff1615612f49576040517f08c379a0000000000000000000000000000000000000000000000000000000008152600401612f4090615728565b60405180910390fd5b60066000815480929190612f5c906150f4565b91905055506040518060800160405280600654815260200185815260200184815260200183815250600460006006548152602001908152602001600020600082015181600001556020820151816001019081612fb891906158ea565b506040820151816002019081612fce91906158ea565b506060820151816003019081612fe491906158ea565b5090505060016005600083815260200190815260200160002060006101000a81548160ff0219169083151502179055506006547f52b689af7ae3bd15a5156582545571237b58abd804c1456c3269d1b1ee93f6fc85858560405161304a939291906159bc565b60405180910390a250505050565b600d602052816000526040600020818154811061307457600080fd5b90600052602060002001600091509150505481565b601260205282600052604060002060205281600052604060002060205280600052604060002060009250925050508060000154908060010154905082565b600a60205282600052604060002060205281600052604060002060205280600052604060002060009250925050505481565b6000601060003373ffffffffffffffffffffffffffffffffffffffff1673ffffffffffffffffffffffffffffffffffffffff16815260200190815260200160002060009054906101000a900460ff16613187576040517f08c379a000000000000000000000000000000000000000000000000000000000815260040161317e9061552d565b60405180910390fd5b61319385858585613a78565b9050949350505050565b600f60009054906101000a900473ffffffffffffffffffffffffffffffffffffffff1673ffffffffffffffffffffffffffffffffffffffff163373ffffffffffffffffffffffffffffffffffffffff161461322d576040517f08c379a000000000000000000000000000000000000000000000000000000000815260040161322490614c21565b60405180910390fd5b600073ffffffffffffffffffffffffffffffffffffffff168173ffffffffffffffffffffffffffffffffffffffff160361329c576040517f08c379a000000000000000000000000000000000000000000000000000000000815260040161329390615455565b60405180910390fd5b8073ffffffffffffffffffffffffffffffffffffffff16600f60009054906101000a900473ffffffffffffffffffffffffffffffffffffffff1673ffffffffffffffffffffffffffffffffffffffff167f8be0079c531659141344cd1fd0a4f28419497f9722a3daafe3b4186f6b6457e060405160405180910390a380600f60006101000a81548173ffffffffffffffffffffffffffffffffffffffff021916908373ffffffffffffffffffffffffffffffffffffffff16021790555050565b601060003373ffffffffffffffffffffffffffffffffffffffff1673ffffffffffffffffffffffffffffffffffffffff16815260200190815260200160002060009054906101000a900460ff166133e8576040517f08c379a00000000000000000000000000000000000000000000000000000000081526004016133df9061552d565b60405180910390fd5b600160008273ffffffffffffffffffffffffffffffffffffffff1673ffffffffffffffffffffffffffffffffffffffff16815260200190815260200160002060000160009054906101000a900460ff1615613478576040517f08c379a000000000000000000000000000000000000000000000000000000000815260040161346f90615a54565b60405180910390fd5b604051806040016040528060011515815260200142815250600160008373ffffffffffffffffffffffffffffffffffffffff1673ffffffffffffffffffffffffffffffffffffffff16815260200190815260200160002060008201518160000160006101000a81548160ff021916908315150217905550602082015181600101559050506000819080600181540180825580915050600190039060005260206000200160009091909190916101000a81548173ffffffffffffffffffffffffffffffffffffffff021916908373ffffffffffffffffffffffffffffffffffffffff1602179055508073ffffffffffffffffffffffffffffffffffffffff167f56aa1768b52ddcdda65c5561181844717c2eed4bb3c848376d4420860da04dae426040516135a591906140a8565b60405180910390a250565b6003600083815260200190815260200160002060008273ffffffffffffffffffffffffffffffffffffffff1673ffffffffffffffffffffffffffffffffffffffff16815260200190815260200160002060009054906101000a900460ff166136f05760016003600084815260200190815260200160002060008373ffffffffffffffffffffffffffffffffffffffff1673ffffffffffffffffffffffffffffffffffffffff16815260200190815260200160002060006101000a81548160ff02191690831515021790555060026000838152602001908152602001600020819080600181540180825580915050600190039060005260206000200160009091909190916101000a81548173ffffffffffffffffffffffffffffffffffffffff021916908373ffffffffffffffffffffffffffffffffffffffff1602179055505b5050565b6136fc613ec3565b60006009600085815260200190815260200160002060008460ff1660ff16815260200190815260200160002090506000816006018054905090508067ffffffffffffffff8111156137505761374f614906565b5b60405190808252806020026020018201604052801561377e5781602001602082028036833780820191505090505b50836080018190525060005b8181101561391a5760008360060182815481106137aa576137a9614cad565b5b90600052602060002001549050600081036137c5575061390d565b6000600a600089815260200190815260200160002060008860ff1660ff16815260200190815260200160002060008381526020019081526020016000205490508560000151811115613868578560000151866020018181525050808660000181815250508186604001818152505081866080015160008151811061384c5761384b614cad565b5b60200260200101818152505060018660600181815250506138cf565b856000015181036138b65781866080015187606001518151811061388f5761388e614cad565b5b6020026020010181815250508560600180518091906138ad906150f4565b815250506138ce565b85602001518111156138cd57808660200181815250505b5b5b80600e60008a8152602001908152602001600020600084815260200190815260200160002060008282546139039190615173565b9250508190555050505b808060010191505061378a565b50505092915050565b6060600061393387878686613da7565b90508060016139429190615173565b67ffffffffffffffff81111561395b5761395a614906565b5b6040519080825280602002602001820160405280156139895781602001602082028036833780820191505090505b50915084826000815181106139a1576139a0614cad565b5b60200260200101818152505060006001905060005b8451811015613a6c5760008582815181106139d4576139d3614cad565b5b60200260200101519050600081036139ec5750613a5f565b86600a60008c815260200190815260200160002060008b60ff1660ff16815260200190815260200160002060008381526020019081526020016000205403613a5d5780858481518110613a4257613a41614cad565b5b6020026020010181815250508280613a59906150f4565b9350505b505b80806001019150506139b6565b50505095945050505050565b6000428511613abc576040517f08c379a0000000000000000000000000000000000000000000000000000000008152600401613ab390615ac0565b60405180910390fd5b84841015613aff576040517f08c379a0000000000000000000000000000000000000000000000000000000008152600401613af690615b52565b60405180910390fd5b60008383905011613b45576040517f08c379a0000000000000000000000000000000000000000000000000000000008152600401613b3c90615bbe565b60405180910390fd5b60076000815480929190613b58906150f4565b91905055506007549050600060086000838152602001908152602001600020905081816000018190555085816001018190555084816002018190555062015180816003018190555060018160050160006101000a81548160ff02191690831515021790555060018160050160016101000a81548160ff021916908360ff160217905550600184849050613beb9190615173565b67ffffffffffffffff811115613c0457613c03614906565b5b604051908082528060200260200182016040528015613c325781602001602082028036833780820191505090505b50816004019080519060200190613c4a929190613e76565b50600081600401600081548110613c6457613c63614cad565b5b906000526020600020018190555060005b84849050811015613cd757848482818110613c9357613c92614cad565b5b9050602002013582600401600183613cab9190615173565b81548110613cbc57613cbb614cad565b5b90600052602060002001819055508080600101915050613c75565b506000600960008481526020019081526020016000206000600160ff168152602001908152602001600020905060018160000160006101000a81548160ff021916908360ff1602179055508581600101819055506201518086613d3a9190615173565b81600201819055508160040181600601908054613d58929190613ef2565b50827f94d2ca1585096a82008b4e4c47222139e365b7386c639acb5562a4f8a959f4c188886201518086600401604051613d959493929190615cef565b60405180910390a25050949350505050565b600080600090505b8251811015613e45576000838281518110613dcd57613dcc614cad565b5b6020026020010151905060008103613de55750613e38565b84600a600089815260200190815260200160002060008860ff1660ff16815260200190815260200160002060008381526020019081526020016000205403613e36578280613e32906150f4565b9350505b505b8080600101915050613daf565b50949350505050565b6040518060800160405280600081526020016060815260200160608152602001606081525090565b828054828255906000526020600020908101928215613eb2579160200282015b82811115613eb1578251825591602001919060010190613e96565b5b509050613ebf9190613f44565b5090565b6040518060a0016040528060008152602001600081526020016000815260200160008152602001606081525090565b828054828255906000526020600020908101928215613f335760005260206000209182015b82811115613f32578254825591600101919060010190613f17565b5b509050613f409190613f44565b5090565b5b80821115613f5d576000816000905550600101613f45565b5090565b6000604051905090565b600080fd5b600080fd5b6000819050919050565b613f8881613f75565b8114613f9357600080fd5b50565b600081359050613fa581613f7f565b92915050565b600060208284031215613fc157613fc0613f6b565b5b6000613fcf84828501613f96565b91505092915050565b60008115159050919050565b613fed81613fd8565b82525050565b60006020820190506140086000830184613fe4565b92915050565b600073ffffffffffffffffffffffffffffffffffffffff82169050919050565b60006140398261400e565b9050919050565b6140498161402e565b811461405457600080fd5b50565b60008135905061406681614040565b92915050565b60006020828403121561408257614081613f6b565b5b600061409084828501614057565b91505092915050565b6140a281613f75565b82525050565b60006020820190506140bd6000830184614099565b92915050565b600080604083850312156140da576140d9613f6b565b5b60006140e885828601613f96565b92505060206140f985828601613f96565b9150509250929050565b600081519050919050565b600082825260208201905092915050565b6000819050602082019050919050565b61413881613f75565b82525050565b600081519050919050565b600082825260208201905092915050565b60005b8381101561417857808201518184015260208101905061415d565b60008484015250505050565b6000601f19601f8301169050919050565b60006141a08261413e565b6141aa8185614149565b93506141ba81856020860161415a565b6141c381614184565b840191505092915050565b60006080830160008301516141e6600086018261412f565b50602083015184820360208601526141fe8282614195565b915050604083015184820360408601526142188282614195565b915050606083015184820360608601526142328282614195565b9150508091505092915050565b600061424b83836141ce565b905092915050565b6000602082019050919050565b600061426b82614103565b614275818561410e565b9350836020820285016142878561411f565b8060005b858110156142c357848403895281516142a4858261423f565b94506142af83614253565b925060208a0199505060018101905061428b565b50829750879550505050505092915050565b600060208201905081810360008301526142ef8184614260565b905092915050565b600081519050919050565b600082825260208201905092915050565b6000819050602082019050919050565b61432c8161402e565b82525050565b600061433e8383614323565b60208301905092915050565b6000602082019050919050565b6000614362826142f7565b61436c8185614302565b935061437783614313565b8060005b838110156143a857815161438f8882614332565b975061439a8361434a565b92505060018101905061437b565b5085935050505092915050565b600060208201905081810360008301526143cf8184614357565b905092915050565b600060ff82169050919050565b6143ed816143d7565b81146143f857600080fd5b50565b60008135905061440a816143e4565b92915050565b6000806040838503121561442757614426613f6b565b5b600061443585828601613f96565b9250506020614446858286016143fb565b9150509250929050565b600082825260208201905092915050565b600061446c8261413e565b6144768185614450565b935061448681856020860161415a565b61448f81614184565b840191505092915050565b60006080820190506144af6000830187614099565b81810360208301526144c18186614461565b905081810360408301526144d58185614461565b905081810360608301526144e98184614461565b905095945050505050565b6144fd8161402e565b82525050565b600060208201905061451860008301846144f4565b92915050565b61452781613fd8565b811461453257600080fd5b50565b6000813590506145448161451e565b92915050565b6000806040838503121561456157614560613f6b565b5b600061456f85828601613f96565b925050602061458085828601614535565b9150509250929050565b614593816143d7565b82525050565b600060e0820190506145ae600083018a614099565b6145bb6020830189614099565b6145c86040830188614099565b6145d56060830187614099565b6145e26080830186613fe4565b6145ef60a083018561458a565b6145fc60c0830184614099565b98975050505050505050565b600081519050919050565b600082825260208201905092915050565b6000819050602082019050919050565b6000614640838361412f565b60208301905092915050565b6000602082019050919050565b600061466482614608565b61466e8185614613565b935061467983614624565b8060005b838110156146aa5781516146918882614634565b975061469c8361464c565b92505060018101905061467d565b5085935050505092915050565b600060208201905081810360008301526146d18184614659565b905092915050565b6000806000606084860312156146f2576146f1613f6b565b5b600061470086828701613f96565b9350506020614711868287016143fb565b925050604061472286828701614057565b9150509250925092565b7f4e487b7100000000000000000000000000000000000000000000000000000000600052602160045260246000fd5b6003811061476c5761476b61472c565b5b50565b600081905061477d8261475b565b919050565b600061478d8261476f565b9050919050565b61479d81614782565b82525050565b60006020820190506147b86000830184614794565b92915050565b600060a0820190506147d36000830188614099565b81810360208301526147e58187614659565b905081810360408301526147f98186614659565b90506148086060830185614099565b6148156080830184614099565b9695505050505050565b60006040820190506148346000830185613fe4565b6148416020830184614099565b9392505050565b600060c08201905061485d600083018961458a565b61486a6020830188614099565b6148776040830187614099565b6148846060830186613fe4565b6148916080830185614099565b61489e60a0830184614099565b979650505050505050565b6000806000606084860312156148c2576148c1613f6b565b5b60006148d086828701613f96565b93505060206148e1868287016143fb565b92505060406148f286828701613f96565b9150509250925092565b600080fd5b600080fd5b7f4e487b7100000000000000000000000000000000000000000000000000000000600052604160045260246000fd5b61493e82614184565b810181811067ffffffffffffffff8211171561495d5761495c614906565b5b80604052505050565b6000614970613f61565b905061497c8282614935565b919050565b600067ffffffffffffffff82111561499c5761499b614906565b5b6149a582614184565b9050602081019050919050565b82818337600083830152505050565b60006149d46149cf84614981565b614966565b9050828152602081018484840111156149f0576149ef614901565b5b6149fb8482856149b2565b509392505050565b600082601f830112614a1857614a176148fc565b5b8135614a288482602086016149c1565b91505092915050565b600080600060608486031215614a4a57614a49613f6b565b5b600084013567ffffffffffffffff811115614a6857614a67613f70565b5b614a7486828701614a03565b935050602084013567ffffffffffffffff811115614a9557614a94613f70565b5b614aa186828701614a03565b925050604084013567ffffffffffffffff811115614ac257614ac1613f70565b5b614ace86828701614a03565b9150509250925092565b6000604082019050614aed6000830185614099565b614afa6020830184614099565b9392505050565b600080fd5b600080fd5b60008083601f840112614b2157614b206148fc565b5b8235905067ffffffffffffffff811115614b3e57614b3d614b01565b5b602083019150836020820283011115614b5a57614b59614b06565b5b9250929050565b60008060008060608587031215614b7b57614b7a613f6b565b5b6000614b8987828801613f96565b9450506020614b9a87828801613f96565b935050604085013567ffffffffffffffff811115614bbb57614bba613f70565b5b614bc787828801614b0b565b925092505092959194509250565b7f4e6f7420636f6e747261637420686f6c64657200000000000000000000000000600082015250565b6000614c0b601383614450565b9150614c1682614bd5565b602082019050919050565b60006020820190508181036000830152614c3a81614bfe565b9050919050565b7f4e6f742061646d696e0000000000000000000000000000000000000000000000600082015250565b6000614c77600983614450565b9150614c8282614c41565b602082019050919050565b60006020820190508181036000830152614ca681614c6a565b9050919050565b7f4e487b7100000000000000000000000000000000000000000000000000000000600052603260045260246000fd5b7f4e487b7100000000000000000000000000000000000000000000000000000000600052601160045260246000fd5b6000614d1682613f75565b9150614d2183613f75565b9250828203905081811115614d3957614d38614cdc565b5b92915050565b7f4e487b7100000000000000000000000000000000000000000000000000000000600052603160045260246000fd5b7f456c656374696f6e207374696c6c206163746976652c20726573756c74206e6f60008201527f7420617661696c61626c65000000000000000000000000000000000000000000602082015250565b6000614dca602b83614450565b9150614dd582614d6e565b604082019050919050565b60006020820190508181036000830152614df981614dbd565b9050919050565b7f4c61737420726f756e64206e6f742066696e616c697a65640000000000000000600082015250565b6000614e36601883614450565b9150614e4182614e00565b602082019050919050565b60006020820190508181036000830152614e6581614e29565b9050919050565b7f4e6f742061207265676973746572656420766f74657200000000000000000000600082015250565b6000614ea2601683614450565b9150614ead82614e6c565b602082019050919050565b60006020820190508181036000830152614ed181614e95565b9050919050565b7f456c656374696f6e206e6f742061637469766500000000000000000000000000600082015250565b6000614f0e601383614450565b9150614f1982614ed8565b602082019050919050565b60006020820190508181036000830152614f3d81614f01565b9050919050565b7f526f756e64206e6f742073746172746564000000000000000000000000000000600082015250565b6000614f7a601183614450565b9150614f8582614f44565b602082019050919050565b60006020820190508181036000830152614fa981614f6d565b9050919050565b7f526f756e6420656e646564000000000000000000000000000000000000000000600082015250565b6000614fe6600b83614450565b9150614ff182614fb0565b602082019050919050565b6000602082019050818103600083015261501581614fd9565b9050919050565b7f416c726561647920766f74656400000000000000000000000000000000000000600082015250565b6000615052600d83614450565b915061505d8261501c565b602082019050919050565b6000602082019050818103600083015261508181615045565b9050919050565b7f496e76616c69642063616e646964617465000000000000000000000000000000600082015250565b60006150be601183614450565b91506150c982615088565b602082019050919050565b600060208201905081810360008301526150ed816150b1565b9050919050565b60006150ff82613f75565b91507fffffffffffffffffffffffffffffffffffffffffffffffffffffffffffffffff820361513157615130614cdc565b5b600182019050919050565b6000606082019050615151600083018661458a565b61515e60208301856144f4565b61516b6040830184614099565b949350505050565b600061517e82613f75565b915061518983613f75565b92508282019050808211156151a1576151a0614cdc565b5b92915050565b7f4e487b7100000000000000000000000000000000000000000000000000000000600052602260045260246000fd5b600060028204905060018216806151ee57607f821691505b602082108103615201576152006151a7565b5b50919050565b7f526f756e64206e6f7420656e6465640000000000000000000000000000000000600082015250565b600061523d600f83614450565b915061524882615207565b602082019050919050565b6000602082019050818103600083015261526c81615230565b9050919050565b7f526f756e6420616c72656164792066696e616c697a6564000000000000000000600082015250565b60006152a9601783614450565b91506152b482615273565b602082019050919050565b600060208201905081810360008301526152d88161529c565b9050919050565b6000819050919050565b6000819050919050565b600061530e615309615304846152df565b6152e9565b613f75565b9050919050565b61531e816152f3565b82525050565b6000606082019050615339600083018661458a565b6153466020830185613fe4565b6153536040830184615315565b949350505050565b600061536682613f75565b915061537183613f75565b925082820261537f81613f75565b9150828204841483151761539657615395614cdc565b5b5092915050565b60006060820190506153b2600083018661458a565b6153bf6020830185613fe4565b6153cc6040830184614099565b949350505050565b60006153df826143d7565b91506153ea836143d7565b9250828201905060ff81111561540357615402614cdc565b5b92915050565b7f496e76616c696420616464726573730000000000000000000000000000000000600082015250565b600061543f600f83614450565b915061544a82615409565b602082019050919050565b6000602082019050818103600083015261546e81615432565b9050919050565b7f416c72656164792061646d696e00000000000000000000000000000000000000600082015250565b60006154ab600d83614450565b91506154b682615475565b602082019050919050565b600060208201905081810360008301526154da8161549e565b9050919050565b7f4e6f7420616e2061646d696e0000000000000000000000000000000000000000600082015250565b6000615517600c83614450565b9150615522826154e1565b602082019050919050565b600060208201905081810360008301526155468161550a565b9050919050565b7f566f746572206e6f742072656769737465726564000000000000000000000000600082015250565b6000615583601483614450565b915061558e8261554d565b602082019050919050565b600060208201905081810360008301526155b281615576565b9050919050565b7f526f756e64206e6f74206f766572207965740000000000000000000000000000600082015250565b60006155ef601283614450565b91506155fa826155b9565b602082019050919050565b6000602082019050818103600083015261561e816155e2565b9050919050565b600081905092915050565b600061563b8261413e565b6156458185615625565b935061565581856020860161415a565b80840191505092915050565b7f7c00000000000000000000000000000000000000000000000000000000000000600082015250565b6000615697600183615625565b91506156a282615661565b600182019050919050565b60006156b98285615630565b91506156c48261568a565b91506156d08284615630565b91508190509392505050565b7f43616e64696461746520616c7265616479206578697374730000000000000000600082015250565b6000615712601883614450565b915061571d826156dc565b602082019050919050565b6000602082019050818103600083015261574181615705565b9050919050565b60008190508160005260206000209050919050565b60006020601f8301049050919050565b600082821b905092915050565b6000600883026157aa7fffffffffffffffffffffffffffffffffffffffffffffffffffffffffffffffff8261576d565b6157b4868361576d565b95508019841693508086168417925050509392505050565b60006157e76157e26157dd84613f75565b6152e9565b613f75565b9050919050565b6000819050919050565b615801836157cc565b61581561580d826157ee565b84845461577a565b825550505050565b600090565b61582a61581d565b6158358184846157f8565b505050565b5b818110156158595761584e600082615822565b60018101905061583b565b5050565b601f82111561589e5761586f81615748565b6158788461575d565b81016020851015615887578190505b61589b6158938561575d565b83018261583a565b50505b505050565b600082821c905092915050565b60006158c1600019846008026158a3565b1980831691505092915050565b60006158da83836158b0565b9150826002028217905092915050565b6158f38261413e565b67ffffffffffffffff81111561590c5761590b614906565b5b61591682546151d6565b61592182828561585d565b600060209050601f8311600181146159545760008415615942578287015190505b61594c85826158ce565b8655506159b4565b601f19841661596286615748565b60005b8281101561598a57848901518255600182019150602085019450602081019050615965565b868310156159a757848901516159a3601f8916826158b0565b8355505b6001600288020188555050505b505050505050565b600060608201905081810360008301526159d68186614461565b905081810360208301526159ea8185614461565b905081810360408301526159fe8184614461565b9050949350505050565b7f566f74657220616c726561647920726567697374657265640000000000000000600082015250565b6000615a3e601883614450565b9150615a4982615a08565b602082019050919050565b60006020820190508181036000830152615a6d81615a31565b9050919050565b7f456c656374696f6e206d75737420626520696e20667574757265000000000000600082015250565b6000615aaa601a83614450565b9150615ab582615a74565b602082019050919050565b60006020820190508181036000830152615ad981615a9d565b9050919050565b7f466972737420726f756e64206d75737420626520616674657220656c6563746960008201527f6f6e207374617274000000000000000000000000000000000000000000000000602082015250565b6000615b3c602883614450565b9150615b4782615ae0565b604082019050919050565b60006020820190508181036000830152615b6b81615b2f565b9050919050565b7f4174206c65617374206f6e652063616e64696461746500000000000000000000600082015250565b6000615ba8601683614450565b9150615bb382615b72565b602082019050919050565b60006020820190508181036000830152615bd781615b9b565b9050919050565b6000819050919050565b6000615c03615bfe615bf984615bde565b6152e9565b613f75565b9050919050565b615c1381615be8565b82525050565b600081549050919050565b60008190508160005260206000209050919050565b60008160001c9050919050565b6000819050919050565b6000615c63615c5e83615c39565b615c46565b9050919050565b6000615c768254615c50565b9050919050565b6000600182019050919050565b6000615c9582615c19565b615c9f8185614613565b9350615caa83615c24565b8060005b83811015615ce257615cbf82615c6a565b615cc98882614634565b9750615cd483615c7d565b925050600181019050615cae565b5085935050505092915050565b6000608082019050615d046000830187614099565b615d116020830186614099565b615d1e6040830185615c0a565b8181036060830152615d308184615c8a565b90509594505050505056fea26469706673582212202c29ddc4b41d254d06a7bc7f72d38cca70eae128f6f16418cd67b56d440ebcb164736f6c634300081c0033",
  "linkReferences": {},
  "deployedLinkReferences": {}
}